{
	"contracts/ToonzRewardsCardV2.sol": {
		"ToonzRewardsCardV2": {
			"abi": [
				{
					"inputs": [],
					"stateMutability": "nonpayable",
					"type": "constructor"
				},
				{
					"inputs": [],
					"name": "ApprovalCallerNotOwnerNorApproved",
					"type": "error"
				},
				{
					"inputs": [],
					"name": "ApprovalQueryForNonexistentToken",
					"type": "error"
				},
				{
					"inputs": [],
					"name": "ApprovalToCurrentOwner",
					"type": "error"
				},
				{
					"inputs": [],
					"name": "ApproveToCaller",
					"type": "error"
				},
				{
					"inputs": [],
					"name": "BalanceQueryForZeroAddress",
					"type": "error"
				},
				{
					"inputs": [],
					"name": "MintToZeroAddress",
					"type": "error"
				},
				{
					"inputs": [],
					"name": "MintZeroQuantity",
					"type": "error"
				},
				{
					"inputs": [],
					"name": "OwnerQueryForNonexistentToken",
					"type": "error"
				},
				{
					"inputs": [],
					"name": "TransferCallerNotOwnerNorApproved",
					"type": "error"
				},
				{
					"inputs": [],
					"name": "TransferFromIncorrectOwner",
					"type": "error"
				},
				{
					"inputs": [],
					"name": "TransferToNonERC721ReceiverImplementer",
					"type": "error"
				},
				{
					"inputs": [],
					"name": "TransferToZeroAddress",
					"type": "error"
				},
				{
					"anonymous": false,
					"inputs": [
						{
							"indexed": true,
							"internalType": "address",
							"name": "owner",
							"type": "address"
						},
						{
							"indexed": true,
							"internalType": "address",
							"name": "approved",
							"type": "address"
						},
						{
							"indexed": true,
							"internalType": "uint256",
							"name": "tokenId",
							"type": "uint256"
						}
					],
					"name": "Approval",
					"type": "event"
				},
				{
					"anonymous": false,
					"inputs": [
						{
							"indexed": true,
							"internalType": "address",
							"name": "owner",
							"type": "address"
						},
						{
							"indexed": true,
							"internalType": "address",
							"name": "operator",
							"type": "address"
						},
						{
							"indexed": false,
							"internalType": "bool",
							"name": "approved",
							"type": "bool"
						}
					],
					"name": "ApprovalForAll",
					"type": "event"
				},
				{
					"anonymous": false,
					"inputs": [
						{
							"indexed": true,
							"internalType": "address",
							"name": "previousOwner",
							"type": "address"
						},
						{
							"indexed": true,
							"internalType": "address",
							"name": "newOwner",
							"type": "address"
						}
					],
					"name": "OwnershipTransferred",
					"type": "event"
				},
				{
					"anonymous": false,
					"inputs": [
						{
							"indexed": true,
							"internalType": "address",
							"name": "from",
							"type": "address"
						},
						{
							"indexed": true,
							"internalType": "address",
							"name": "to",
							"type": "address"
						},
						{
							"indexed": true,
							"internalType": "uint256",
							"name": "tokenId",
							"type": "uint256"
						}
					],
					"name": "Transfer",
					"type": "event"
				},
				{
					"inputs": [
						{
							"internalType": "address",
							"name": "to",
							"type": "address"
						},
						{
							"internalType": "uint256",
							"name": "tokenId",
							"type": "uint256"
						}
					],
					"name": "approve",
					"outputs": [],
					"stateMutability": "nonpayable",
					"type": "function"
				},
				{
					"inputs": [
						{
							"internalType": "address",
							"name": "owner",
							"type": "address"
						}
					],
					"name": "balanceOf",
					"outputs": [
						{
							"internalType": "uint256",
							"name": "",
							"type": "uint256"
						}
					],
					"stateMutability": "view",
					"type": "function"
				},
				{
					"inputs": [],
					"name": "baseExtension",
					"outputs": [
						{
							"internalType": "string",
							"name": "",
							"type": "string"
						}
					],
					"stateMutability": "view",
					"type": "function"
				},
				{
					"inputs": [],
					"name": "baseURI",
					"outputs": [
						{
							"internalType": "string",
							"name": "",
							"type": "string"
						}
					],
					"stateMutability": "view",
					"type": "function"
				},
				{
					"inputs": [
						{
							"internalType": "uint256",
							"name": "tokenId",
							"type": "uint256"
						}
					],
					"name": "getApproved",
					"outputs": [
						{
							"internalType": "address",
							"name": "",
							"type": "address"
						}
					],
					"stateMutability": "view",
					"type": "function"
				},
				{
					"inputs": [
						{
							"internalType": "address[]",
							"name": "_recipients",
							"type": "address[]"
						}
					],
					"name": "giftCard",
					"outputs": [],
					"stateMutability": "nonpayable",
					"type": "function"
				},
				{
					"inputs": [
						{
							"internalType": "address",
							"name": "owner",
							"type": "address"
						},
						{
							"internalType": "address",
							"name": "operator",
							"type": "address"
						}
					],
					"name": "isApprovedForAll",
					"outputs": [
						{
							"internalType": "bool",
							"name": "",
							"type": "bool"
						}
					],
					"stateMutability": "view",
					"type": "function"
				},
				{
					"inputs": [],
					"name": "name",
					"outputs": [
						{
							"internalType": "string",
							"name": "",
							"type": "string"
						}
					],
					"stateMutability": "view",
					"type": "function"
				},
				{
					"inputs": [],
					"name": "owner",
					"outputs": [
						{
							"internalType": "address",
							"name": "",
							"type": "address"
						}
					],
					"stateMutability": "view",
					"type": "function"
				},
				{
					"inputs": [
						{
							"internalType": "uint256",
							"name": "tokenId",
							"type": "uint256"
						}
					],
					"name": "ownerOf",
					"outputs": [
						{
							"internalType": "address",
							"name": "",
							"type": "address"
						}
					],
					"stateMutability": "view",
					"type": "function"
				},
				{
					"inputs": [],
					"name": "renounceOwnership",
					"outputs": [],
					"stateMutability": "nonpayable",
					"type": "function"
				},
				{
					"inputs": [
						{
							"internalType": "address",
							"name": "from",
							"type": "address"
						},
						{
							"internalType": "address",
							"name": "to",
							"type": "address"
						},
						{
							"internalType": "uint256",
							"name": "tokenId",
							"type": "uint256"
						}
					],
					"name": "safeTransferFrom",
					"outputs": [],
					"stateMutability": "nonpayable",
					"type": "function"
				},
				{
					"inputs": [
						{
							"internalType": "address",
							"name": "from",
							"type": "address"
						},
						{
							"internalType": "address",
							"name": "to",
							"type": "address"
						},
						{
							"internalType": "uint256",
							"name": "tokenId",
							"type": "uint256"
						},
						{
							"internalType": "bytes",
							"name": "_data",
							"type": "bytes"
						}
					],
					"name": "safeTransferFrom",
					"outputs": [],
					"stateMutability": "nonpayable",
					"type": "function"
				},
				{
					"inputs": [
						{
							"internalType": "address",
							"name": "operator",
							"type": "address"
						},
						{
							"internalType": "bool",
							"name": "approved",
							"type": "bool"
						}
					],
					"name": "setApprovalForAll",
					"outputs": [],
					"stateMutability": "nonpayable",
					"type": "function"
				},
				{
					"inputs": [
						{
							"internalType": "string",
							"name": "_baseURI",
							"type": "string"
						},
						{
							"internalType": "string",
							"name": "_baseExtension",
							"type": "string"
						}
					],
					"name": "setBaseURI",
					"outputs": [],
					"stateMutability": "nonpayable",
					"type": "function"
				},
				{
					"inputs": [
						{
							"internalType": "bytes4",
							"name": "interfaceId",
							"type": "bytes4"
						}
					],
					"name": "supportsInterface",
					"outputs": [
						{
							"internalType": "bool",
							"name": "",
							"type": "bool"
						}
					],
					"stateMutability": "view",
					"type": "function"
				},
				{
					"inputs": [],
					"name": "symbol",
					"outputs": [
						{
							"internalType": "string",
							"name": "",
							"type": "string"
						}
					],
					"stateMutability": "view",
					"type": "function"
				},
				{
					"inputs": [
						{
							"internalType": "uint256",
							"name": "tokenId",
							"type": "uint256"
						}
					],
					"name": "tokenURI",
					"outputs": [
						{
							"internalType": "string",
							"name": "",
							"type": "string"
						}
					],
					"stateMutability": "view",
					"type": "function"
				},
				{
					"inputs": [],
					"name": "totalSupply",
					"outputs": [
						{
							"internalType": "uint256",
							"name": "",
							"type": "uint256"
						}
					],
					"stateMutability": "view",
					"type": "function"
				},
				{
					"inputs": [
						{
							"internalType": "address",
							"name": "from",
							"type": "address"
						},
						{
							"internalType": "address",
							"name": "to",
							"type": "address"
						},
						{
							"internalType": "uint256",
							"name": "tokenId",
							"type": "uint256"
						}
					],
					"name": "transferFrom",
					"outputs": [],
					"stateMutability": "nonpayable",
					"type": "function"
				},
				{
					"inputs": [
						{
							"internalType": "address",
							"name": "newOwner",
							"type": "address"
						}
					],
					"name": "transferOwnership",
					"outputs": [],
					"stateMutability": "nonpayable",
					"type": "function"
				}
			],
			"devdoc": {
				"kind": "dev",
				"methods": {
					"approve(address,uint256)": {
						"details": "See {IERC721-approve}."
					},
					"balanceOf(address)": {
						"details": "See {IERC721-balanceOf}."
					},
					"getApproved(uint256)": {
						"details": "See {IERC721-getApproved}."
					},
					"isApprovedForAll(address,address)": {
						"details": "See {IERC721-isApprovedForAll}."
					},
					"name()": {
						"details": "See {IERC721Metadata-name}."
					},
					"owner()": {
						"details": "Returns the address of the current owner."
					},
					"ownerOf(uint256)": {
						"details": "See {IERC721-ownerOf}."
					},
					"renounceOwnership()": {
						"details": "Leaves the contract without owner. It will not be possible to call `onlyOwner` functions anymore. Can only be called by the current owner. NOTE: Renouncing ownership will leave the contract without an owner, thereby removing any functionality that is only available to the owner."
					},
					"safeTransferFrom(address,address,uint256)": {
						"details": "See {IERC721-safeTransferFrom}."
					},
					"safeTransferFrom(address,address,uint256,bytes)": {
						"details": "See {IERC721-safeTransferFrom}."
					},
					"setApprovalForAll(address,bool)": {
						"details": "See {IERC721-setApprovalForAll}."
					},
					"supportsInterface(bytes4)": {
						"details": "See {IERC165-supportsInterface}."
					},
					"symbol()": {
						"details": "See {IERC721Metadata-symbol}."
					},
					"tokenURI(uint256)": {
						"details": "See {IERC721Metadata-tokenURI}."
					},
					"totalSupply()": {
						"details": "Burned tokens are calculated here, use _totalMinted() if you want to count just minted tokens."
					},
					"transferFrom(address,address,uint256)": {
						"details": "See {IERC721-transferFrom}."
					},
					"transferOwnership(address)": {
						"details": "Transfers ownership of the contract to a new account (`newOwner`). Can only be called by the current owner."
					}
				},
				"version": 1
			},
			"evm": {
				"assembly": "    /* \"contracts/ToonzRewardsCardV2.sol\":206:1107  contract ToonzRewardsCardV2 is ERC721A, Ownable {... */\n  mstore(0x40, 0x80)\n    /* \"contracts/ToonzRewardsCardV2.sol\":381:443  constructor() ERC721A(\"Toonz Minter Rewards Card\", \"MINTR\") {} */\n  callvalue\n  dup1\n  iszero\n  tag_1\n  jumpi\n  0x00\n  dup1\n  revert\ntag_1:\n  pop\n    /* \"erc721a/contracts/ERC721A.sol\":3357:3511  constructor(string memory name_, string memory symbol_) {... */\n  0x40\n  dup1\n  mload\n  dup1\n  dup3\n  add\n  dup3\n  mstore\n  0x19\n  dup2\n  mstore\n  0x546f6f6e7a204d696e7465722052657761726473204361726400000000000000\n  0x20\n  dup1\n  dup4\n  add\n  swap2\n  dup3\n  mstore\n  dup4\n  mload\n  dup1\n  dup6\n  add\n  swap1\n  swap5\n  mstore\n  0x05\n  dup5\n  mstore\n  shl(0xd9, 0x26a4a72a29)\n  swap1\n  dup5\n  add\n  mstore\n    /* \"erc721a/contracts/ERC721A.sol\":3423:3436  _name = name_ */\n  dup2\n  mload\n    /* \"erc721a/contracts/ERC721A.sol\":3357:3511  constructor(string memory name_, string memory symbol_) {... */\n  swap2\n  swap3\n  swap2\n    /* \"erc721a/contracts/ERC721A.sol\":3423:3436  _name = name_ */\n  tag_6\n  swap2\n    /* \"erc721a/contracts/ERC721A.sol\":3423:3428  _name */\n  0x02\n  swap2\n    /* \"erc721a/contracts/ERC721A.sol\":3423:3436  _name = name_ */\n  tag_7\n  jump\t// in\ntag_6:\n  pop\n    /* \"erc721a/contracts/ERC721A.sol\":3446:3463  _symbol = symbol_ */\n  dup1\n  mload\n  tag_8\n  swap1\n    /* \"erc721a/contracts/ERC721A.sol\":3446:3453  _symbol */\n  0x03\n  swap1\n    /* \"erc721a/contracts/ERC721A.sol\":3446:3463  _symbol = symbol_ */\n  0x20\n  dup5\n  add\n  swap1\n  tag_7\n  jump\t// in\ntag_8:\n  pop\n  pop\n    /* \"erc721a/contracts/ERC721A.sol\":3659:3666  uint256 */\n  0x00\n    /* \"erc721a/contracts/ERC721A.sol\":3473:3504  _currentIndex = _startTokenId() */\n  dup1\n  sstore\n  pop\n    /* \"@openzeppelin/contracts/access/Ownable.sol\":921:953  _transferOwnership(_msgSender()) */\n  tag_12\n    /* \"@openzeppelin/contracts/utils/Context.sol\":719:729  msg.sender */\n  caller\n    /* \"@openzeppelin/contracts/access/Ownable.sol\":921:939  _transferOwnership */\n  tag_15\n    /* \"@openzeppelin/contracts/access/Ownable.sol\":921:953  _transferOwnership(_msgSender()) */\n  jump\t// in\ntag_12:\n    /* \"contracts/ToonzRewardsCardV2.sol\":206:1107  contract ToonzRewardsCardV2 is ERC721A, Ownable {... */\n  jump(tag_32)\n    /* \"@openzeppelin/contracts/access/Ownable.sol\":2270:2457  function _transferOwnership(address newOwner) internal virtual {... */\ntag_15:\n    /* \"@openzeppelin/contracts/access/Ownable.sol\":2362:2368  _owner */\n  0x08\n  dup1\n  sload\n  sub(shl(0xa0, 0x01), 0x01)\n    /* \"@openzeppelin/contracts/access/Ownable.sol\":2378:2395  _owner = newOwner */\n  dup4\n  dup2\n  and\n  not(sub(shl(0xa0, 0x01), 0x01))\n  dup4\n  and\n  dup2\n  or\n  swap1\n  swap4\n  sstore\n    /* \"@openzeppelin/contracts/access/Ownable.sol\":2410:2450  OwnershipTransferred(oldOwner, newOwner) */\n  mload(0x40)\n    /* \"@openzeppelin/contracts/access/Ownable.sol\":2362:2368  _owner */\n  swap2\n  and\n  swap2\n    /* \"@openzeppelin/contracts/access/Ownable.sol\":2378:2395  _owner = newOwner */\n  swap1\n    /* \"@openzeppelin/contracts/access/Ownable.sol\":2362:2368  _owner */\n  dup3\n  swap1\n    /* \"@openzeppelin/contracts/access/Ownable.sol\":2410:2450  OwnershipTransferred(oldOwner, newOwner) */\n  0x8be0079c531659141344cd1fd0a4f28419497f9722a3daafe3b4186f6b6457e0\n  swap1\n    /* \"@openzeppelin/contracts/access/Ownable.sol\":2343:2359  address oldOwner */\n  0x00\n  swap1\n    /* \"@openzeppelin/contracts/access/Ownable.sol\":2410:2450  OwnershipTransferred(oldOwner, newOwner) */\n  log3\n    /* \"@openzeppelin/contracts/access/Ownable.sol\":2333:2457  {... */\n  pop\n    /* \"@openzeppelin/contracts/access/Ownable.sol\":2270:2457  function _transferOwnership(address newOwner) internal virtual {... */\n  pop\n  jump\t// out\n    /* \"contracts/ToonzRewardsCardV2.sol\":206:1107  contract ToonzRewardsCardV2 is ERC721A, Ownable {... */\ntag_7:\n  dup3\n  dup1\n  sload\n  tag_21\n  swap1\n  tag_22\n  jump\t// in\ntag_21:\n  swap1\n  0x00\n  mstore\n  keccak256(0x00, 0x20)\n  swap1\n  0x1f\n  add\n  0x20\n  swap1\n  div\n  dup2\n  add\n  swap3\n  dup3\n  tag_24\n  jumpi\n  0x00\n  dup6\n  sstore\n  jump(tag_27)\ntag_24:\n  dup3\n  0x1f\n  lt\n  tag_25\n  jumpi\n  dup1\n  mload\n  not(0xff)\n  and\n  dup4\n  dup1\n  add\n  or\n  dup6\n  sstore\n  jump(tag_27)\ntag_25:\n  dup3\n  dup1\n  add\n  0x01\n  add\n  dup6\n  sstore\n  dup3\n  iszero\n  tag_27\n  jumpi\n  swap2\n  dup3\n  add\ntag_26:\n  dup3\n  dup2\n  gt\n  iszero\n  tag_27\n  jumpi\n  dup3\n  mload\n  dup3\n  sstore\n  swap2\n  0x20\n  add\n  swap2\n  swap1\n  0x01\n  add\n  swap1\n  jump(tag_26)\ntag_27:\n  pop\n  tag_28\n  swap3\n  swap2\n  pop\n  tag_29\n  jump\t// in\ntag_28:\n  pop\n  swap1\n  jump\t// out\ntag_29:\ntag_30:\n  dup1\n  dup3\n  gt\n  iszero\n  tag_28\n  jumpi\n  0x00\n  dup2\n  sstore\n  0x01\n  add\n  jump(tag_30)\n    /* \"#utility.yul\":14:394   */\ntag_22:\n    /* \"#utility.yul\":93:94   */\n  0x01\n    /* \"#utility.yul\":89:101   */\n  dup2\n  dup2\n  shr\n  swap1\n    /* \"#utility.yul\":136:148   */\n  dup3\n  and\n  dup1\n    /* \"#utility.yul\":157:218   */\n  tag_34\n  jumpi\n    /* \"#utility.yul\":211:215   */\n  0x7f\n    /* \"#utility.yul\":203:209   */\n  dup3\n    /* \"#utility.yul\":199:216   */\n  and\n    /* \"#utility.yul\":189:216   */\n  swap2\n  pop\n    /* \"#utility.yul\":157:218   */\ntag_34:\n    /* \"#utility.yul\":264:266   */\n  0x20\n    /* \"#utility.yul\":256:262   */\n  dup3\n    /* \"#utility.yul\":253:267   */\n  lt\n    /* \"#utility.yul\":233:251   */\n  dup2\n    /* \"#utility.yul\":230:268   */\n  sub\n    /* \"#utility.yul\":227:388   */\n  tag_35\n  jumpi\n    /* \"#utility.yul\":310:320   */\n  0x4e487b71\n    /* \"#utility.yul\":305:308   */\n  0xe0\n    /* \"#utility.yul\":301:321   */\n  shl\n    /* \"#utility.yul\":298:299   */\n  0x00\n    /* \"#utility.yul\":291:322   */\n  mstore\n    /* \"#utility.yul\":345:349   */\n  0x22\n    /* \"#utility.yul\":342:343   */\n  0x04\n    /* \"#utility.yul\":335:350   */\n  mstore\n    /* \"#utility.yul\":373:377   */\n  0x24\n    /* \"#utility.yul\":370:371   */\n  0x00\n    /* \"#utility.yul\":363:378   */\n  revert\n    /* \"#utility.yul\":227:388   */\ntag_35:\n  pop\n    /* \"#utility.yul\":14:394   */\n  swap2\n  swap1\n  pop\n  jump\t// out\ntag_32:\n    /* \"contracts/ToonzRewardsCardV2.sol\":206:1107  contract ToonzRewardsCardV2 is ERC721A, Ownable {... */\n  dataSize(sub_0)\n  dup1\n  dataOffset(sub_0)\n  0x00\n  codecopy\n  0x00\n  return\nstop\n\nsub_0: assembly {\n        /* \"contracts/ToonzRewardsCardV2.sol\":206:1107  contract ToonzRewardsCardV2 is ERC721A, Ownable {... */\n      mstore(0x40, 0x80)\n      callvalue\n      dup1\n      iszero\n      tag_1\n      jumpi\n      0x00\n      dup1\n      revert\n    tag_1:\n      pop\n      jumpi(tag_2, lt(calldatasize, 0x04))\n      shr(0xe0, calldataload(0x00))\n      dup1\n      0x01ffc9a7\n      eq\n      tag_3\n      jumpi\n      dup1\n      0x06fdde03\n      eq\n      tag_4\n      jumpi\n      dup1\n      0x081812fc\n      eq\n      tag_5\n      jumpi\n      dup1\n      0x095ea7b3\n      eq\n      tag_6\n      jumpi\n      dup1\n      0x18160ddd\n      eq\n      tag_7\n      jumpi\n      dup1\n      0x23b872dd\n      eq\n      tag_8\n      jumpi\n      dup1\n      0x42842e0e\n      eq\n      tag_9\n      jumpi\n      dup1\n      0x6352211e\n      eq\n      tag_10\n      jumpi\n      dup1\n      0x6790a9de\n      eq\n      tag_11\n      jumpi\n      dup1\n      0x6c0360eb\n      eq\n      tag_12\n      jumpi\n      dup1\n      0x70a08231\n      eq\n      tag_13\n      jumpi\n      dup1\n      0x715018a6\n      eq\n      tag_14\n      jumpi\n      dup1\n      0x7a2d0163\n      eq\n      tag_15\n      jumpi\n      dup1\n      0x8da5cb5b\n      eq\n      tag_16\n      jumpi\n      dup1\n      0x95d89b41\n      eq\n      tag_17\n      jumpi\n      dup1\n      0xa22cb465\n      eq\n      tag_18\n      jumpi\n      dup1\n      0xb88d4fde\n      eq\n      tag_19\n      jumpi\n      dup1\n      0xc6682862\n      eq\n      tag_20\n      jumpi\n      dup1\n      0xc87b56dd\n      eq\n      tag_21\n      jumpi\n      dup1\n      0xe985e9c5\n      eq\n      tag_22\n      jumpi\n      dup1\n      0xf2fde38b\n      eq\n      tag_23\n      jumpi\n    tag_2:\n      0x00\n      dup1\n      revert\n        /* \"erc721a/contracts/ERC721A.sol\":4551:4851  function supportsInterface(bytes4 interfaceId) public view virtual override(ERC165, IERC165) returns (bool) {... */\n    tag_3:\n      tag_24\n      tag_25\n      calldatasize\n      0x04\n      tag_26\n      jump\t// in\n    tag_25:\n      tag_27\n      jump\t// in\n    tag_24:\n      mload(0x40)\n        /* \"#utility.yul\":565:579   */\n      swap1\n      iszero\n        /* \"#utility.yul\":558:580   */\n      iszero\n        /* \"#utility.yul\":540:581   */\n      dup2\n      mstore\n        /* \"#utility.yul\":528:530   */\n      0x20\n        /* \"#utility.yul\":513:531   */\n      add\n        /* \"erc721a/contracts/ERC721A.sol\":4551:4851  function supportsInterface(bytes4 interfaceId) public view virtual override(ERC165, IERC165) returns (bool) {... */\n    tag_28:\n      mload(0x40)\n      dup1\n      swap2\n      sub\n      swap1\n      return\n        /* \"erc721a/contracts/ERC721A.sol\":7579:7677  function name() public view virtual override returns (string memory) {... */\n    tag_4:\n      tag_30\n      tag_31\n      jump\t// in\n    tag_30:\n      mload(0x40)\n      tag_28\n      swap2\n      swap1\n      tag_33\n      jump\t// in\n        /* \"erc721a/contracts/ERC721A.sol\":9035:9235  function getApproved(uint256 tokenId) public view override returns (address) {... */\n    tag_5:\n      tag_34\n      tag_35\n      calldatasize\n      0x04\n      tag_36\n      jump\t// in\n    tag_35:\n      tag_37\n      jump\t// in\n    tag_34:\n      mload(0x40)\n      sub(shl(0xa0, 0x01), 0x01)\n        /* \"#utility.yul\":1692:1724   */\n      swap1\n      swap2\n      and\n        /* \"#utility.yul\":1674:1725   */\n      dup2\n      mstore\n        /* \"#utility.yul\":1662:1664   */\n      0x20\n        /* \"#utility.yul\":1647:1665   */\n      add\n        /* \"erc721a/contracts/ERC721A.sol\":9035:9235  function getApproved(uint256 tokenId) public view override returns (address) {... */\n      tag_28\n        /* \"#utility.yul\":1528:1731   */\n      jump\n        /* \"erc721a/contracts/ERC721A.sol\":8612:8974  function approve(address to, uint256 tokenId) public override {... */\n    tag_6:\n      tag_40\n      tag_41\n      calldatasize\n      0x04\n      tag_42\n      jump\t// in\n    tag_41:\n      tag_43\n      jump\t// in\n    tag_40:\n      stop\n        /* \"erc721a/contracts/ERC721A.sol\":3822:4119  function totalSupply() public view returns (uint256) {... */\n    tag_7:\n        /* \"erc721a/contracts/ERC721A.sol\":4072:4084  _burnCounter */\n      sload(0x01)\n        /* \"erc721a/contracts/ERC721A.sol\":3866:3873  uint256 */\n      0x00\n        /* \"erc721a/contracts/ERC721A.sol\":4056:4069  _currentIndex */\n      sload\n        /* \"erc721a/contracts/ERC721A.sol\":4056:4084  _currentIndex - _burnCounter */\n      sub\n        /* \"erc721a/contracts/ERC721A.sol\":3822:4119  function totalSupply() public view returns (uint256) {... */\n    tag_44:\n      mload(0x40)\n        /* \"#utility.yul\":2319:2344   */\n      swap1\n      dup2\n      mstore\n        /* \"#utility.yul\":2307:2309   */\n      0x20\n        /* \"#utility.yul\":2292:2310   */\n      add\n        /* \"erc721a/contracts/ERC721A.sol\":3822:4119  function totalSupply() public view returns (uint256) {... */\n      tag_28\n        /* \"#utility.yul\":2173:2350   */\n      jump\n        /* \"erc721a/contracts/ERC721A.sol\":9874:10038  function transferFrom(... */\n    tag_8:\n      tag_40\n      tag_49\n      calldatasize\n      0x04\n      tag_50\n      jump\t// in\n    tag_49:\n      tag_51\n      jump\t// in\n        /* \"erc721a/contracts/ERC721A.sol\":10104:10283  function safeTransferFrom(... */\n    tag_9:\n      tag_40\n      tag_53\n      calldatasize\n      0x04\n      tag_50\n      jump\t// in\n    tag_53:\n      tag_54\n      jump\t// in\n        /* \"erc721a/contracts/ERC721A.sol\":7394:7517  function ownerOf(uint256 tokenId) public view override returns (address) {... */\n    tag_10:\n      tag_34\n      tag_56\n      calldatasize\n      0x04\n      tag_36\n      jump\t// in\n    tag_56:\n      tag_57\n      jump\t// in\n        /* \"contracts/ToonzRewardsCardV2.sol\":948:1104  function setBaseURI(string memory _baseURI, string memory _baseExtension) public onlyOwner {... */\n    tag_11:\n      tag_40\n      tag_60\n      calldatasize\n      0x04\n      tag_61\n      jump\t// in\n    tag_60:\n      tag_62\n      jump\t// in\n        /* \"contracts/ToonzRewardsCardV2.sol\":324:345  string public baseURI */\n    tag_12:\n      tag_30\n      tag_64\n      jump\t// in\n        /* \"erc721a/contracts/ERC721A.sol\":4910:5113  function balanceOf(address owner) public view override returns (uint256) {... */\n    tag_13:\n      tag_44\n      tag_67\n      calldatasize\n      0x04\n      tag_68\n      jump\t// in\n    tag_67:\n      tag_69\n      jump\t// in\n        /* \"@openzeppelin/contracts/access/Ownable.sol\":1668:1769  function renounceOwnership() public virtual onlyOwner {... */\n    tag_14:\n      tag_40\n      tag_72\n      jump\t// in\n        /* \"contracts/ToonzRewardsCardV2.sol\":744:944  function giftCard(address[] calldata _recipients) public onlyOwner {... */\n    tag_15:\n      tag_40\n      tag_74\n      calldatasize\n      0x04\n      tag_75\n      jump\t// in\n    tag_74:\n      tag_76\n      jump\t// in\n        /* \"@openzeppelin/contracts/access/Ownable.sol\":1036:1121  function owner() public view virtual returns (address) {... */\n    tag_16:\n      tag_34\n      tag_78\n      jump\t// in\n        /* \"erc721a/contracts/ERC721A.sol\":7741:7843  function symbol() public view virtual override returns (string memory) {... */\n    tag_17:\n      tag_30\n      tag_81\n      jump\t// in\n        /* \"erc721a/contracts/ERC721A.sol\":9302:9584  function setApprovalForAll(address operator, bool approved) public virtual override {... */\n    tag_18:\n      tag_40\n      tag_84\n      calldatasize\n      0x04\n      tag_85\n      jump\t// in\n    tag_84:\n      tag_86\n      jump\t// in\n        /* \"erc721a/contracts/ERC721A.sol\":10349:10708  function safeTransferFrom(... */\n    tag_19:\n      tag_40\n      tag_88\n      calldatasize\n      0x04\n      tag_89\n      jump\t// in\n    tag_88:\n      tag_90\n      jump\t// in\n        /* \"contracts/ToonzRewardsCardV2.sol\":349:376  string public baseExtension */\n    tag_20:\n      tag_30\n      tag_92\n      jump\t// in\n        /* \"contracts/ToonzRewardsCardV2.sol\":447:740  function tokenURI(uint tokenId) public view virtual override returns (string memory) {... */\n    tag_21:\n      tag_30\n      tag_95\n      calldatasize\n      0x04\n      tag_36\n      jump\t// in\n    tag_95:\n      tag_96\n      jump\t// in\n        /* \"erc721a/contracts/ERC721A.sol\":9650:9812  function isApprovedForAll(address owner, address operator) public view virtual override returns (bool) {... */\n    tag_22:\n      tag_24\n      tag_99\n      calldatasize\n      0x04\n      tag_100\n      jump\t// in\n    tag_99:\n      sub(shl(0xa0, 0x01), 0x01)\n        /* \"erc721a/contracts/ERC721A.sol\":9770:9795  _operatorApprovals[owner] */\n      swap2\n      dup3\n      and\n        /* \"erc721a/contracts/ERC721A.sol\":9747:9751  bool */\n      0x00\n        /* \"erc721a/contracts/ERC721A.sol\":9770:9795  _operatorApprovals[owner] */\n      swap1\n      dup2\n      mstore\n        /* \"erc721a/contracts/ERC721A.sol\":9770:9788  _operatorApprovals */\n      0x07\n        /* \"erc721a/contracts/ERC721A.sol\":9770:9795  _operatorApprovals[owner] */\n      0x20\n      swap1\n      dup2\n      mstore\n      0x40\n      dup1\n      dup4\n      keccak256\n        /* \"erc721a/contracts/ERC721A.sol\":9770:9805  _operatorApprovals[owner][operator] */\n      swap4\n      swap1\n      swap5\n      and\n      dup3\n      mstore\n      swap2\n      swap1\n      swap2\n      mstore\n      keccak256\n      sload\n      0xff\n      and\n      swap1\n        /* \"erc721a/contracts/ERC721A.sol\":9650:9812  function isApprovedForAll(address owner, address operator) public view virtual override returns (bool) {... */\n      jump\n        /* \"@openzeppelin/contracts/access/Ownable.sol\":1918:2116  function transferOwnership(address newOwner) public virtual onlyOwner {... */\n    tag_23:\n      tag_40\n      tag_104\n      calldatasize\n      0x04\n      tag_68\n      jump\t// in\n    tag_104:\n      tag_105\n      jump\t// in\n        /* \"erc721a/contracts/ERC721A.sol\":4551:4851  function supportsInterface(bytes4 interfaceId) public view virtual override(ERC165, IERC165) returns (bool) {... */\n    tag_27:\n        /* \"erc721a/contracts/ERC721A.sol\":4653:4657  bool */\n      0x00\n      not(sub(shl(0xe0, 0x01), 0x01))\n        /* \"erc721a/contracts/ERC721A.sol\":4688:4728  interfaceId == type(IERC721).interfaceId */\n      dup3\n      and\n      shl(0xe0, 0x80ac58cd)\n      eq\n      dup1\n        /* \"erc721a/contracts/ERC721A.sol\":4688:4792  interfaceId == type(IERC721).interfaceId ||... */\n      tag_107\n      jumpi\n      pop\n      not(sub(shl(0xe0, 0x01), 0x01))\n        /* \"erc721a/contracts/ERC721A.sol\":4744:4792  interfaceId == type(IERC721Metadata).interfaceId */\n      dup3\n      and\n      shl(0xe0, 0x5b5e139f)\n      eq\n        /* \"erc721a/contracts/ERC721A.sol\":4688:4792  interfaceId == type(IERC721).interfaceId ||... */\n    tag_107:\n        /* \"erc721a/contracts/ERC721A.sol\":4688:4844  interfaceId == type(IERC721).interfaceId ||... */\n      dup1\n      tag_109\n      jumpi\n      pop\n      shl(0xe0, 0x01ffc9a7)\n      not(sub(shl(0xe0, 0x01), 0x01))\n        /* \"@openzeppelin/contracts/utils/introspection/ERC165.sol\":937:977  interfaceId == type(IERC165).interfaceId */\n      dup4\n      and\n      eq\n        /* \"erc721a/contracts/ERC721A.sol\":4808:4844  super.supportsInterface(interfaceId) */\n    tag_109:\n        /* \"erc721a/contracts/ERC721A.sol\":4669:4844  return... */\n      swap3\n        /* \"erc721a/contracts/ERC721A.sol\":4551:4851  function supportsInterface(bytes4 interfaceId) public view virtual override(ERC165, IERC165) returns (bool) {... */\n      swap2\n      pop\n      pop\n      jump\t// out\n        /* \"erc721a/contracts/ERC721A.sol\":7579:7677  function name() public view virtual override returns (string memory) {... */\n    tag_31:\n        /* \"erc721a/contracts/ERC721A.sol\":7633:7646  string memory */\n      0x60\n        /* \"erc721a/contracts/ERC721A.sol\":7665:7670  _name */\n      0x02\n        /* \"erc721a/contracts/ERC721A.sol\":7658:7670  return _name */\n      dup1\n      sload\n      tag_112\n      swap1\n      tag_113\n      jump\t// in\n    tag_112:\n      dup1\n      0x1f\n      add\n      0x20\n      dup1\n      swap2\n      div\n      mul\n      0x20\n      add\n      mload(0x40)\n      swap1\n      dup2\n      add\n      0x40\n      mstore\n      dup1\n      swap3\n      swap2\n      swap1\n      dup2\n      dup2\n      mstore\n      0x20\n      add\n      dup3\n      dup1\n      sload\n      tag_114\n      swap1\n      tag_113\n      jump\t// in\n    tag_114:\n      dup1\n      iszero\n      tag_115\n      jumpi\n      dup1\n      0x1f\n      lt\n      tag_116\n      jumpi\n      0x0100\n      dup1\n      dup4\n      sload\n      div\n      mul\n      dup4\n      mstore\n      swap2\n      0x20\n      add\n      swap2\n      jump(tag_115)\n    tag_116:\n      dup3\n      add\n      swap2\n      swap1\n      0x00\n      mstore\n      keccak256(0x00, 0x20)\n      swap1\n    tag_117:\n      dup2\n      sload\n      dup2\n      mstore\n      swap1\n      0x01\n      add\n      swap1\n      0x20\n      add\n      dup1\n      dup4\n      gt\n      tag_117\n      jumpi\n      dup3\n      swap1\n      sub\n      0x1f\n      and\n      dup3\n      add\n      swap2\n    tag_115:\n      pop\n      pop\n      pop\n      pop\n      pop\n      swap1\n      pop\n        /* \"erc721a/contracts/ERC721A.sol\":7579:7677  function name() public view virtual override returns (string memory) {... */\n      swap1\n      jump\t// out\n        /* \"erc721a/contracts/ERC721A.sol\":9035:9235  function getApproved(uint256 tokenId) public view override returns (address) {... */\n    tag_37:\n        /* \"erc721a/contracts/ERC721A.sol\":9103:9110  address */\n      0x00\n        /* \"erc721a/contracts/ERC721A.sol\":9127:9143  _exists(tokenId) */\n      tag_119\n        /* \"erc721a/contracts/ERC721A.sol\":9135:9142  tokenId */\n      dup3\n        /* \"erc721a/contracts/ERC721A.sol\":9127:9134  _exists */\n      tag_120\n        /* \"erc721a/contracts/ERC721A.sol\":9127:9143  _exists(tokenId) */\n      jump\t// in\n    tag_119:\n        /* \"erc721a/contracts/ERC721A.sol\":9122:9186  if (!_exists(tokenId)) revert ApprovalQueryForNonexistentToken() */\n      tag_121\n      jumpi\n        /* \"erc721a/contracts/ERC721A.sol\":9152:9186  ApprovalQueryForNonexistentToken() */\n      mload(0x40)\n      shl(0xe2, 0x33d1c039)\n      dup2\n      mstore\n      0x04\n      add\n      mload(0x40)\n      dup1\n      swap2\n      sub\n      swap1\n      revert\n        /* \"erc721a/contracts/ERC721A.sol\":9122:9186  if (!_exists(tokenId)) revert ApprovalQueryForNonexistentToken() */\n    tag_121:\n      pop\n        /* \"erc721a/contracts/ERC721A.sol\":9204:9228  _tokenApprovals[tokenId] */\n      0x00\n      swap1\n      dup2\n      mstore\n        /* \"erc721a/contracts/ERC721A.sol\":9204:9219  _tokenApprovals */\n      0x06\n        /* \"erc721a/contracts/ERC721A.sol\":9204:9228  _tokenApprovals[tokenId] */\n      0x20\n      mstore\n      0x40\n      swap1\n      keccak256\n      sload\n      sub(shl(0xa0, 0x01), 0x01)\n      and\n      swap1\n        /* \"erc721a/contracts/ERC721A.sol\":9035:9235  function getApproved(uint256 tokenId) public view override returns (address) {... */\n      jump\t// out\n        /* \"erc721a/contracts/ERC721A.sol\":8612:8974  function approve(address to, uint256 tokenId) public override {... */\n    tag_43:\n        /* \"erc721a/contracts/ERC721A.sol\":8684:8697  address owner */\n      0x00\n        /* \"erc721a/contracts/ERC721A.sol\":8700:8724  ERC721A.ownerOf(tokenId) */\n      tag_123\n        /* \"erc721a/contracts/ERC721A.sol\":8716:8723  tokenId */\n      dup3\n        /* \"erc721a/contracts/ERC721A.sol\":8700:8715  ERC721A.ownerOf */\n      tag_57\n        /* \"erc721a/contracts/ERC721A.sol\":8700:8724  ERC721A.ownerOf(tokenId) */\n      jump\t// in\n    tag_123:\n        /* \"erc721a/contracts/ERC721A.sol\":8684:8724  address owner = ERC721A.ownerOf(tokenId) */\n      swap1\n      pop\n        /* \"erc721a/contracts/ERC721A.sol\":8744:8749  owner */\n      dup1\n      sub(shl(0xa0, 0x01), 0x01)\n        /* \"erc721a/contracts/ERC721A.sol\":8738:8749  to == owner */\n      and\n        /* \"erc721a/contracts/ERC721A.sol\":8738:8740  to */\n      dup4\n      sub(shl(0xa0, 0x01), 0x01)\n        /* \"erc721a/contracts/ERC721A.sol\":8738:8749  to == owner */\n      and\n      sub\n        /* \"erc721a/contracts/ERC721A.sol\":8734:8782  if (to == owner) revert ApprovalToCurrentOwner() */\n      tag_124\n      jumpi\n        /* \"erc721a/contracts/ERC721A.sol\":8758:8782  ApprovalToCurrentOwner() */\n      mload(0x40)\n      shl(0xe2, 0x250fdee3)\n      dup2\n      mstore\n      0x04\n      add\n      mload(0x40)\n      dup1\n      swap2\n      sub\n      swap1\n      revert\n        /* \"erc721a/contracts/ERC721A.sol\":8734:8782  if (to == owner) revert ApprovalToCurrentOwner() */\n    tag_124:\n        /* \"@openzeppelin/contracts/utils/Context.sol\":719:729  msg.sender */\n      caller\n      sub(shl(0xa0, 0x01), 0x01)\n        /* \"erc721a/contracts/ERC721A.sol\":8797:8818  _msgSender() != owner */\n      dup3\n      and\n      eq\n      dup1\n      iszero\n      swap1\n        /* \"erc721a/contracts/ERC721A.sol\":8797:8860  _msgSender() != owner && !isApprovedForAll(owner, _msgSender()) */\n      tag_127\n      jumpi\n      pop\n        /* \"erc721a/contracts/ERC721A.sol\":8823:8860  isApprovedForAll(owner, _msgSender()) */\n      tag_128\n        /* \"erc721a/contracts/ERC721A.sol\":8840:8845  owner */\n      dup2\n        /* \"@openzeppelin/contracts/utils/Context.sol\":719:729  msg.sender */\n      caller\n        /* \"erc721a/contracts/ERC721A.sol\":9650:9812  function isApprovedForAll(address owner, address operator) public view virtual override returns (bool) {... */\n      tag_99\n      jump\t// in\n        /* \"erc721a/contracts/ERC721A.sol\":8823:8860  isApprovedForAll(owner, _msgSender()) */\n    tag_128:\n        /* \"erc721a/contracts/ERC721A.sol\":8822:8860  !isApprovedForAll(owner, _msgSender()) */\n      iszero\n        /* \"erc721a/contracts/ERC721A.sol\":8797:8860  _msgSender() != owner && !isApprovedForAll(owner, _msgSender()) */\n    tag_127:\n        /* \"erc721a/contracts/ERC721A.sol\":8793:8929  if (_msgSender() != owner && !isApprovedForAll(owner, _msgSender())) {... */\n      iszero\n      tag_130\n      jumpi\n        /* \"erc721a/contracts/ERC721A.sol\":8883:8918  ApprovalCallerNotOwnerNorApproved() */\n      mload(0x40)\n      shl(0xe1, 0x67d9dca1)\n      dup2\n      mstore\n      0x04\n      add\n      mload(0x40)\n      dup1\n      swap2\n      sub\n      swap1\n      revert\n        /* \"erc721a/contracts/ERC721A.sol\":8793:8929  if (_msgSender() != owner && !isApprovedForAll(owner, _msgSender())) {... */\n    tag_130:\n        /* \"erc721a/contracts/ERC721A.sol\":8939:8967  _approve(to, tokenId, owner) */\n      tag_131\n        /* \"erc721a/contracts/ERC721A.sol\":8948:8950  to */\n      dup4\n        /* \"erc721a/contracts/ERC721A.sol\":8952:8959  tokenId */\n      dup4\n        /* \"erc721a/contracts/ERC721A.sol\":8961:8966  owner */\n      dup4\n        /* \"erc721a/contracts/ERC721A.sol\":8939:8947  _approve */\n      tag_132\n        /* \"erc721a/contracts/ERC721A.sol\":8939:8967  _approve(to, tokenId, owner) */\n      jump\t// in\n    tag_131:\n        /* \"erc721a/contracts/ERC721A.sol\":8674:8974  {... */\n      pop\n        /* \"erc721a/contracts/ERC721A.sol\":8612:8974  function approve(address to, uint256 tokenId) public override {... */\n      pop\n      pop\n      jump\t// out\n        /* \"erc721a/contracts/ERC721A.sol\":9874:10038  function transferFrom(... */\n    tag_51:\n        /* \"erc721a/contracts/ERC721A.sol\":10003:10031  _transfer(from, to, tokenId) */\n      tag_131\n        /* \"erc721a/contracts/ERC721A.sol\":10013:10017  from */\n      dup4\n        /* \"erc721a/contracts/ERC721A.sol\":10019:10021  to */\n      dup4\n        /* \"erc721a/contracts/ERC721A.sol\":10023:10030  tokenId */\n      dup4\n        /* \"erc721a/contracts/ERC721A.sol\":10003:10012  _transfer */\n      tag_138\n        /* \"erc721a/contracts/ERC721A.sol\":10003:10031  _transfer(from, to, tokenId) */\n      jump\t// in\n        /* \"erc721a/contracts/ERC721A.sol\":10104:10283  function safeTransferFrom(... */\n    tag_54:\n        /* \"erc721a/contracts/ERC721A.sol\":10237:10276  safeTransferFrom(from, to, tokenId, '') */\n      tag_131\n        /* \"erc721a/contracts/ERC721A.sol\":10254:10258  from */\n      dup4\n        /* \"erc721a/contracts/ERC721A.sol\":10260:10262  to */\n      dup4\n        /* \"erc721a/contracts/ERC721A.sol\":10264:10271  tokenId */\n      dup4\n        /* \"erc721a/contracts/ERC721A.sol\":10237:10276  safeTransferFrom(from, to, tokenId, '') */\n      mload(0x40)\n      dup1\n      0x20\n      add\n      0x40\n      mstore\n      dup1\n      0x00\n      dup2\n      mstore\n      pop\n        /* \"erc721a/contracts/ERC721A.sol\":10237:10253  safeTransferFrom */\n      tag_90\n        /* \"erc721a/contracts/ERC721A.sol\":10237:10276  safeTransferFrom(from, to, tokenId, '') */\n      jump\t// in\n        /* \"erc721a/contracts/ERC721A.sol\":7394:7517  function ownerOf(uint256 tokenId) public view override returns (address) {... */\n    tag_57:\n        /* \"erc721a/contracts/ERC721A.sol\":7458:7465  address */\n      0x00\n        /* \"erc721a/contracts/ERC721A.sol\":7484:7505  _ownershipOf(tokenId) */\n      tag_142\n        /* \"erc721a/contracts/ERC721A.sol\":7497:7504  tokenId */\n      dup3\n        /* \"erc721a/contracts/ERC721A.sol\":7484:7496  _ownershipOf */\n      tag_143\n        /* \"erc721a/contracts/ERC721A.sol\":7484:7505  _ownershipOf(tokenId) */\n      jump\t// in\n    tag_142:\n        /* \"erc721a/contracts/ERC721A.sol\":7484:7510  _ownershipOf(tokenId).addr */\n      mload\n      swap3\n        /* \"erc721a/contracts/ERC721A.sol\":7394:7517  function ownerOf(uint256 tokenId) public view override returns (address) {... */\n      swap2\n      pop\n      pop\n      jump\t// out\n        /* \"contracts/ToonzRewardsCardV2.sol\":948:1104  function setBaseURI(string memory _baseURI, string memory _baseExtension) public onlyOwner {... */\n    tag_62:\n        /* \"@openzeppelin/contracts/utils/Context.sol\":719:729  msg.sender */\n      caller\n        /* \"@openzeppelin/contracts/access/Ownable.sol\":1248:1255  owner() */\n      tag_146\n        /* \"@openzeppelin/contracts/access/Ownable.sol\":1248:1253  owner */\n      tag_78\n        /* \"@openzeppelin/contracts/access/Ownable.sol\":1248:1255  owner() */\n      jump\t// in\n    tag_146:\n      sub(shl(0xa0, 0x01), 0x01)\n        /* \"@openzeppelin/contracts/access/Ownable.sol\":1248:1271  owner() == _msgSender() */\n      and\n      eq\n        /* \"@openzeppelin/contracts/access/Ownable.sol\":1240:1308  require(owner() == _msgSender(), \"Ownable: caller is not the owner\") */\n      tag_147\n      jumpi\n      mload(0x40)\n      shl(0xe5, 0x461bcd)\n      dup2\n      mstore\n      0x04\n      add\n      tag_148\n      swap1\n      tag_149\n      jump\t// in\n    tag_148:\n      mload(0x40)\n      dup1\n      swap2\n      sub\n      swap1\n      revert\n    tag_147:\n        /* \"contracts/ToonzRewardsCardV2.sol\":1045:1063  baseURI = _baseURI */\n      dup2\n      mload\n      tag_151\n      swap1\n        /* \"contracts/ToonzRewardsCardV2.sol\":1045:1052  baseURI */\n      0x09\n      swap1\n        /* \"contracts/ToonzRewardsCardV2.sol\":1045:1063  baseURI = _baseURI */\n      0x20\n      dup6\n      add\n      swap1\n      tag_152\n      jump\t// in\n    tag_151:\n      pop\n        /* \"contracts/ToonzRewardsCardV2.sol\":1069:1099  baseExtension = _baseExtension */\n      dup1\n      mload\n      tag_131\n      swap1\n        /* \"contracts/ToonzRewardsCardV2.sol\":1069:1082  baseExtension */\n      0x0a\n      swap1\n        /* \"contracts/ToonzRewardsCardV2.sol\":1069:1099  baseExtension = _baseExtension */\n      0x20\n      dup5\n      add\n      swap1\n      tag_152\n      jump\t// in\n        /* \"contracts/ToonzRewardsCardV2.sol\":324:345  string public baseURI */\n    tag_64:\n      0x09\n      dup1\n      sload\n      tag_154\n      swap1\n      tag_113\n      jump\t// in\n    tag_154:\n      dup1\n      0x1f\n      add\n      0x20\n      dup1\n      swap2\n      div\n      mul\n      0x20\n      add\n      mload(0x40)\n      swap1\n      dup2\n      add\n      0x40\n      mstore\n      dup1\n      swap3\n      swap2\n      swap1\n      dup2\n      dup2\n      mstore\n      0x20\n      add\n      dup3\n      dup1\n      sload\n      tag_155\n      swap1\n      tag_113\n      jump\t// in\n    tag_155:\n      dup1\n      iszero\n      tag_156\n      jumpi\n      dup1\n      0x1f\n      lt\n      tag_157\n      jumpi\n      0x0100\n      dup1\n      dup4\n      sload\n      div\n      mul\n      dup4\n      mstore\n      swap2\n      0x20\n      add\n      swap2\n      jump(tag_156)\n    tag_157:\n      dup3\n      add\n      swap2\n      swap1\n      0x00\n      mstore\n      keccak256(0x00, 0x20)\n      swap1\n    tag_158:\n      dup2\n      sload\n      dup2\n      mstore\n      swap1\n      0x01\n      add\n      swap1\n      0x20\n      add\n      dup1\n      dup4\n      gt\n      tag_158\n      jumpi\n      dup3\n      swap1\n      sub\n      0x1f\n      and\n      dup3\n      add\n      swap2\n    tag_156:\n      pop\n      pop\n      pop\n      pop\n      pop\n      dup2\n      jump\t// out\n        /* \"erc721a/contracts/ERC721A.sol\":4910:5113  function balanceOf(address owner) public view override returns (uint256) {... */\n    tag_69:\n        /* \"erc721a/contracts/ERC721A.sol\":4974:4981  uint256 */\n      0x00\n      sub(shl(0xa0, 0x01), 0x01)\n        /* \"erc721a/contracts/ERC721A.sol\":4997:5016  owner == address(0) */\n      dup3\n      and\n        /* \"erc721a/contracts/ERC721A.sol\":4993:5053  if (owner == address(0)) revert BalanceQueryForZeroAddress() */\n      tag_160\n      jumpi\n        /* \"erc721a/contracts/ERC721A.sol\":5025:5053  BalanceQueryForZeroAddress() */\n      mload(0x40)\n      shl(0xe2, 0x23d3ad81)\n      dup2\n      mstore\n      0x04\n      add\n      mload(0x40)\n      dup1\n      swap2\n      sub\n      swap1\n      revert\n        /* \"erc721a/contracts/ERC721A.sol\":4993:5053  if (owner == address(0)) revert BalanceQueryForZeroAddress() */\n    tag_160:\n      pop\n      sub(shl(0xa0, 0x01), 0x01)\n        /* \"erc721a/contracts/ERC721A.sol\":5078:5097  _addressData[owner] */\n      and\n      0x00\n      swap1\n      dup2\n      mstore\n        /* \"erc721a/contracts/ERC721A.sol\":5078:5090  _addressData */\n      0x05\n        /* \"erc721a/contracts/ERC721A.sol\":5078:5097  _addressData[owner] */\n      0x20\n      mstore\n      0x40\n      swap1\n      keccak256\n        /* \"erc721a/contracts/ERC721A.sol\":5078:5105  _addressData[owner].balance */\n      sload\n      sub(shl(0x40, 0x01), 0x01)\n      and\n      swap1\n        /* \"erc721a/contracts/ERC721A.sol\":4910:5113  function balanceOf(address owner) public view override returns (uint256) {... */\n      jump\t// out\n        /* \"@openzeppelin/contracts/access/Ownable.sol\":1668:1769  function renounceOwnership() public virtual onlyOwner {... */\n    tag_72:\n        /* \"@openzeppelin/contracts/utils/Context.sol\":719:729  msg.sender */\n      caller\n        /* \"@openzeppelin/contracts/access/Ownable.sol\":1248:1255  owner() */\n      tag_163\n        /* \"@openzeppelin/contracts/access/Ownable.sol\":1248:1253  owner */\n      tag_78\n        /* \"@openzeppelin/contracts/access/Ownable.sol\":1248:1255  owner() */\n      jump\t// in\n    tag_163:\n      sub(shl(0xa0, 0x01), 0x01)\n        /* \"@openzeppelin/contracts/access/Ownable.sol\":1248:1271  owner() == _msgSender() */\n      and\n      eq\n        /* \"@openzeppelin/contracts/access/Ownable.sol\":1240:1308  require(owner() == _msgSender(), \"Ownable: caller is not the owner\") */\n      tag_164\n      jumpi\n      mload(0x40)\n      shl(0xe5, 0x461bcd)\n      dup2\n      mstore\n      0x04\n      add\n      tag_148\n      swap1\n      tag_149\n      jump\t// in\n    tag_164:\n        /* \"@openzeppelin/contracts/access/Ownable.sol\":1732:1762  _transferOwnership(address(0)) */\n      tag_167\n        /* \"@openzeppelin/contracts/access/Ownable.sol\":1759:1760  0 */\n      0x00\n        /* \"@openzeppelin/contracts/access/Ownable.sol\":1732:1750  _transferOwnership */\n      tag_168\n        /* \"@openzeppelin/contracts/access/Ownable.sol\":1732:1762  _transferOwnership(address(0)) */\n      jump\t// in\n    tag_167:\n        /* \"@openzeppelin/contracts/access/Ownable.sol\":1668:1769  function renounceOwnership() public virtual onlyOwner {... */\n      jump\t// out\n        /* \"contracts/ToonzRewardsCardV2.sol\":744:944  function giftCard(address[] calldata _recipients) public onlyOwner {... */\n    tag_76:\n        /* \"@openzeppelin/contracts/utils/Context.sol\":719:729  msg.sender */\n      caller\n        /* \"@openzeppelin/contracts/access/Ownable.sol\":1248:1255  owner() */\n      tag_171\n        /* \"@openzeppelin/contracts/access/Ownable.sol\":1248:1253  owner */\n      tag_78\n        /* \"@openzeppelin/contracts/access/Ownable.sol\":1248:1255  owner() */\n      jump\t// in\n    tag_171:\n      sub(shl(0xa0, 0x01), 0x01)\n        /* \"@openzeppelin/contracts/access/Ownable.sol\":1248:1271  owner() == _msgSender() */\n      and\n      eq\n        /* \"@openzeppelin/contracts/access/Ownable.sol\":1240:1308  require(owner() == _msgSender(), \"Ownable: caller is not the owner\") */\n      tag_172\n      jumpi\n      mload(0x40)\n      shl(0xe5, 0x461bcd)\n      dup2\n      mstore\n      0x04\n      add\n      tag_148\n      swap1\n      tag_149\n      jump\t// in\n    tag_172:\n        /* \"contracts/ToonzRewardsCardV2.sol\":832:843  _recipients */\n      dup1\n        /* \"contracts/ToonzRewardsCardV2.sol\":817:829  uint _amount */\n      0x00\n        /* \"contracts/ToonzRewardsCardV2.sol\":858:940  for (uint i = 0; i < _amount; i++) {... */\n    tag_175:\n        /* \"contracts/ToonzRewardsCardV2.sol\":879:886  _amount */\n      dup2\n        /* \"contracts/ToonzRewardsCardV2.sol\":875:876  i */\n      dup2\n        /* \"contracts/ToonzRewardsCardV2.sol\":875:886  i < _amount */\n      lt\n        /* \"contracts/ToonzRewardsCardV2.sol\":858:940  for (uint i = 0; i < _amount; i++) {... */\n      iszero\n      tag_176\n      jumpi\n        /* \"contracts/ToonzRewardsCardV2.sol\":903:931  _safeMint(_recipients[i], 1) */\n      tag_178\n        /* \"contracts/ToonzRewardsCardV2.sol\":913:924  _recipients */\n      dup5\n      dup5\n        /* \"contracts/ToonzRewardsCardV2.sol\":925:926  i */\n      dup4\n        /* \"contracts/ToonzRewardsCardV2.sol\":913:927  _recipients[i] */\n      dup2\n      dup2\n      lt\n      tag_180\n      jumpi\n      tag_180\n      tag_181\n      jump\t// in\n    tag_180:\n      swap1\n      pop\n      0x20\n      mul\n      add\n      0x20\n      dup2\n      add\n      swap1\n      tag_182\n      swap2\n      swap1\n      tag_68\n      jump\t// in\n    tag_182:\n        /* \"contracts/ToonzRewardsCardV2.sol\":929:930  1 */\n      0x01\n        /* \"contracts/ToonzRewardsCardV2.sol\":903:912  _safeMint */\n      tag_183\n        /* \"contracts/ToonzRewardsCardV2.sol\":903:931  _safeMint(_recipients[i], 1) */\n      jump\t// in\n    tag_178:\n        /* \"contracts/ToonzRewardsCardV2.sol\":888:891  i++ */\n      dup1\n      tag_184\n      dup2\n      tag_185\n      jump\t// in\n    tag_184:\n      swap2\n      pop\n      pop\n        /* \"contracts/ToonzRewardsCardV2.sol\":858:940  for (uint i = 0; i < _amount; i++) {... */\n      jump(tag_175)\n    tag_176:\n      pop\n        /* \"contracts/ToonzRewardsCardV2.sol\":811:944  {... */\n      pop\n        /* \"contracts/ToonzRewardsCardV2.sol\":744:944  function giftCard(address[] calldata _recipients) public onlyOwner {... */\n      pop\n      pop\n      jump\t// out\n        /* \"@openzeppelin/contracts/access/Ownable.sol\":1036:1121  function owner() public view virtual returns (address) {... */\n    tag_78:\n        /* \"@openzeppelin/contracts/access/Ownable.sol\":1108:1114  _owner */\n      and(sub(shl(0xa0, 0x01), 0x01), sload(0x08))\n      swap1\n        /* \"@openzeppelin/contracts/access/Ownable.sol\":1036:1121  function owner() public view virtual returns (address) {... */\n      jump\t// out\n        /* \"erc721a/contracts/ERC721A.sol\":7741:7843  function symbol() public view virtual override returns (string memory) {... */\n    tag_81:\n        /* \"erc721a/contracts/ERC721A.sol\":7797:7810  string memory */\n      0x60\n        /* \"erc721a/contracts/ERC721A.sol\":7829:7836  _symbol */\n      0x03\n        /* \"erc721a/contracts/ERC721A.sol\":7822:7836  return _symbol */\n      dup1\n      sload\n      tag_112\n      swap1\n      tag_113\n      jump\t// in\n        /* \"erc721a/contracts/ERC721A.sol\":9302:9584  function setApprovalForAll(address operator, bool approved) public virtual override {... */\n    tag_86:\n        /* \"@openzeppelin/contracts/utils/Context.sol\":719:729  msg.sender */\n      caller\n      sub(shl(0xa0, 0x01), 0x01)\n        /* \"erc721a/contracts/ERC721A.sol\":9400:9424  operator == _msgSender() */\n      dup4\n      and\n      sub\n        /* \"erc721a/contracts/ERC721A.sol\":9396:9450  if (operator == _msgSender()) revert ApproveToCaller() */\n      tag_195\n      jumpi\n        /* \"erc721a/contracts/ERC721A.sol\":9433:9450  ApproveToCaller() */\n      mload(0x40)\n      shl(0xe0, 0xb06307db)\n      dup2\n      mstore\n      0x04\n      add\n      mload(0x40)\n      dup1\n      swap2\n      sub\n      swap1\n      revert\n        /* \"erc721a/contracts/ERC721A.sol\":9396:9450  if (operator == _msgSender()) revert ApproveToCaller() */\n    tag_195:\n        /* \"@openzeppelin/contracts/utils/Context.sol\":719:729  msg.sender */\n      caller\n        /* \"erc721a/contracts/ERC721A.sol\":9461:9493  _operatorApprovals[_msgSender()] */\n      0x00\n      dup2\n      dup2\n      mstore\n        /* \"erc721a/contracts/ERC721A.sol\":9461:9479  _operatorApprovals */\n      0x07\n        /* \"erc721a/contracts/ERC721A.sol\":9461:9493  _operatorApprovals[_msgSender()] */\n      0x20\n      swap1\n      dup2\n      mstore\n      0x40\n      dup1\n      dup4\n      keccak256\n      sub(shl(0xa0, 0x01), 0x01)\n        /* \"erc721a/contracts/ERC721A.sol\":9461:9503  _operatorApprovals[_msgSender()][operator] */\n      dup8\n      and\n      dup1\n      dup6\n      mstore\n      swap1\n      dup4\n      mstore\n      swap3\n      dup2\n      swap1\n      keccak256\n        /* \"erc721a/contracts/ERC721A.sol\":9461:9514  _operatorApprovals[_msgSender()][operator] = approved */\n      dup1\n      sload\n      not(0xff)\n      and\n      dup7\n      iszero\n      iszero\n      swap1\n      dup2\n      or\n      swap1\n      swap2\n      sstore\n        /* \"erc721a/contracts/ERC721A.sol\":9529:9577  ApprovalForAll(_msgSender(), operator, approved) */\n      swap1\n      mload\n        /* \"#utility.yul\":540:581   */\n      swap1\n      dup2\n      mstore\n        /* \"erc721a/contracts/ERC721A.sol\":9461:9503  _operatorApprovals[_msgSender()][operator] */\n      swap2\n      swap3\n        /* \"@openzeppelin/contracts/utils/Context.sol\":719:729  msg.sender */\n      swap2\n        /* \"erc721a/contracts/ERC721A.sol\":9529:9577  ApprovalForAll(_msgSender(), operator, approved) */\n      0x17307eab39ab6107e8899845ad3d59bd9653f200f220920489ca2b5937696c31\n      swap2\n        /* \"#utility.yul\":513:531   */\n      add\n        /* \"erc721a/contracts/ERC721A.sol\":9529:9577  ApprovalForAll(_msgSender(), operator, approved) */\n      mload(0x40)\n      dup1\n      swap2\n      sub\n      swap1\n      log3\n        /* \"erc721a/contracts/ERC721A.sol\":9302:9584  function setApprovalForAll(address operator, bool approved) public virtual override {... */\n      pop\n      pop\n      jump\t// out\n        /* \"erc721a/contracts/ERC721A.sol\":10349:10708  function safeTransferFrom(... */\n    tag_90:\n        /* \"erc721a/contracts/ERC721A.sol\":10510:10538  _transfer(from, to, tokenId) */\n      tag_200\n        /* \"erc721a/contracts/ERC721A.sol\":10520:10524  from */\n      dup5\n        /* \"erc721a/contracts/ERC721A.sol\":10526:10528  to */\n      dup5\n        /* \"erc721a/contracts/ERC721A.sol\":10530:10537  tokenId */\n      dup5\n        /* \"erc721a/contracts/ERC721A.sol\":10510:10519  _transfer */\n      tag_138\n        /* \"erc721a/contracts/ERC721A.sol\":10510:10538  _transfer(from, to, tokenId) */\n      jump\t// in\n    tag_200:\n        /* \"erc721a/contracts/ERC721A.sol\":10552:10567  to.isContract() */\n      tag_201\n        /* \"erc721a/contracts/ERC721A.sol\":10552:10554  to */\n      dup4\n      sub(shl(0xa0, 0x01), 0x01)\n        /* \"erc721a/contracts/ERC721A.sol\":10552:10565  to.isContract */\n      and\n      tag_202\n        /* \"erc721a/contracts/ERC721A.sol\":10552:10567  to.isContract() */\n      jump\t// in\n    tag_201:\n        /* \"erc721a/contracts/ERC721A.sol\":10552:10628  to.isContract() && !_checkContractOnERC721Received(from, to, tokenId, _data) */\n      dup1\n      iszero\n      tag_203\n      jumpi\n      pop\n        /* \"erc721a/contracts/ERC721A.sol\":10572:10628  _checkContractOnERC721Received(from, to, tokenId, _data) */\n      tag_204\n        /* \"erc721a/contracts/ERC721A.sol\":10603:10607  from */\n      dup5\n        /* \"erc721a/contracts/ERC721A.sol\":10609:10611  to */\n      dup5\n        /* \"erc721a/contracts/ERC721A.sol\":10613:10620  tokenId */\n      dup5\n        /* \"erc721a/contracts/ERC721A.sol\":10622:10627  _data */\n      dup5\n        /* \"erc721a/contracts/ERC721A.sol\":10572:10602  _checkContractOnERC721Received */\n      tag_205\n        /* \"erc721a/contracts/ERC721A.sol\":10572:10628  _checkContractOnERC721Received(from, to, tokenId, _data) */\n      jump\t// in\n    tag_204:\n        /* \"erc721a/contracts/ERC721A.sol\":10571:10628  !_checkContractOnERC721Received(from, to, tokenId, _data) */\n      iszero\n        /* \"erc721a/contracts/ERC721A.sol\":10552:10628  to.isContract() && !_checkContractOnERC721Received(from, to, tokenId, _data) */\n    tag_203:\n        /* \"erc721a/contracts/ERC721A.sol\":10548:10702  if (to.isContract() && !_checkContractOnERC721Received(from, to, tokenId, _data)) {... */\n      iszero\n      tag_176\n      jumpi\n        /* \"erc721a/contracts/ERC721A.sol\":10651:10691  TransferToNonERC721ReceiverImplementer() */\n      mload(0x40)\n      shl(0xe1, 0x68d2bf6b)\n      dup2\n      mstore\n      0x04\n      add\n      mload(0x40)\n      dup1\n      swap2\n      sub\n      swap1\n      revert\n        /* \"contracts/ToonzRewardsCardV2.sol\":349:376  string public baseExtension */\n    tag_92:\n      0x0a\n      dup1\n      sload\n      tag_154\n      swap1\n      tag_113\n      jump\t// in\n        /* \"contracts/ToonzRewardsCardV2.sol\":447:740  function tokenURI(uint tokenId) public view virtual override returns (string memory) {... */\n    tag_96:\n        /* \"contracts/ToonzRewardsCardV2.sol\":517:530  string memory */\n      0x60\n        /* \"contracts/ToonzRewardsCardV2.sol\":546:562  _exists(tokenId) */\n      tag_213\n        /* \"contracts/ToonzRewardsCardV2.sol\":554:561  tokenId */\n      dup3\n        /* \"contracts/ToonzRewardsCardV2.sol\":546:553  _exists */\n      tag_120\n        /* \"contracts/ToonzRewardsCardV2.sol\":546:562  _exists(tokenId) */\n      jump\t// in\n    tag_213:\n        /* \"contracts/ToonzRewardsCardV2.sol\":538:614  require(_exists(tokenId), \"ERC721Metadata: URI query for nonexistent token\") */\n      tag_214\n      jumpi\n      mload(0x40)\n      shl(0xe5, 0x461bcd)\n      dup2\n      mstore\n        /* \"#utility.yul\":7684:7686   */\n      0x20\n        /* \"contracts/ToonzRewardsCardV2.sol\":538:614  require(_exists(tokenId), \"ERC721Metadata: URI query for nonexistent token\") */\n      0x04\n      dup3\n      add\n        /* \"#utility.yul\":7666:7687   */\n      mstore\n        /* \"#utility.yul\":7723:7725   */\n      0x2f\n        /* \"#utility.yul\":7703:7721   */\n      0x24\n      dup3\n      add\n        /* \"#utility.yul\":7696:7726   */\n      mstore\n        /* \"#utility.yul\":7762:7796   */\n      0x4552433732314d657461646174613a2055524920717565727920666f72206e6f\n        /* \"#utility.yul\":7742:7760   */\n      0x44\n      dup3\n      add\n        /* \"#utility.yul\":7735:7797   */\n      mstore\n      shl(0x89, 0x3732bc34b9ba32b73a103a37b5b2b7)\n        /* \"#utility.yul\":7813:7831   */\n      0x64\n      dup3\n      add\n        /* \"#utility.yul\":7806:7851   */\n      mstore\n        /* \"#utility.yul\":7868:7887   */\n      0x84\n      add\n        /* \"contracts/ToonzRewardsCardV2.sol\":538:614  require(_exists(tokenId), \"ERC721Metadata: URI query for nonexistent token\") */\n      tag_148\n        /* \"#utility.yul\":7482:7893   */\n      jump\n        /* \"contracts/ToonzRewardsCardV2.sol\":538:614  require(_exists(tokenId), \"ERC721Metadata: URI query for nonexistent token\") */\n    tag_214:\n        /* \"contracts/ToonzRewardsCardV2.sol\":651:652  0 */\n      0x00\n        /* \"contracts/ToonzRewardsCardV2.sol\":633:640  baseURI */\n      0x09\n        /* \"contracts/ToonzRewardsCardV2.sol\":627:648  bytes(baseURI).length */\n      dup1\n      sload\n      tag_217\n      swap1\n      tag_113\n      jump\t// in\n    tag_217:\n      swap1\n      pop\n        /* \"contracts/ToonzRewardsCardV2.sol\":627:652  bytes(baseURI).length > 0 */\n      gt\n        /* \"contracts/ToonzRewardsCardV2.sol\":627:735  bytes(baseURI).length > 0... */\n      tag_218\n      jumpi\n      mload(0x40)\n      dup1\n      0x20\n      add\n      0x40\n      mstore\n      dup1\n      0x00\n      dup2\n      mstore\n      pop\n      jump(tag_109)\n    tag_218:\n        /* \"contracts/ToonzRewardsCardV2.sol\":687:694  baseURI */\n      0x09\n        /* \"contracts/ToonzRewardsCardV2.sol\":696:714  tokenId.toString() */\n      tag_220\n        /* \"contracts/ToonzRewardsCardV2.sol\":696:703  tokenId */\n      dup4\n        /* \"contracts/ToonzRewardsCardV2.sol\":696:712  tokenId.toString */\n      tag_221\n        /* \"contracts/ToonzRewardsCardV2.sol\":696:714  tokenId.toString() */\n      jump\t// in\n    tag_220:\n        /* \"contracts/ToonzRewardsCardV2.sol\":716:729  baseExtension */\n      0x0a\n        /* \"contracts/ToonzRewardsCardV2.sol\":670:730  abi.encodePacked(baseURI, tokenId.toString(), baseExtension) */\n      add(0x20, mload(0x40))\n      tag_222\n      swap4\n      swap3\n      swap2\n      swap1\n      tag_223\n      jump\t// in\n    tag_222:\n      mload(0x40)\n      0x20\n      dup2\n      dup4\n      sub\n      sub\n      dup2\n      mstore\n      swap1\n      0x40\n      mstore\n        /* \"contracts/ToonzRewardsCardV2.sol\":620:735  return bytes(baseURI).length > 0... */\n      swap3\n        /* \"contracts/ToonzRewardsCardV2.sol\":447:740  function tokenURI(uint tokenId) public view virtual override returns (string memory) {... */\n      swap2\n      pop\n      pop\n      jump\t// out\n        /* \"@openzeppelin/contracts/access/Ownable.sol\":1918:2116  function transferOwnership(address newOwner) public virtual onlyOwner {... */\n    tag_105:\n        /* \"@openzeppelin/contracts/utils/Context.sol\":719:729  msg.sender */\n      caller\n        /* \"@openzeppelin/contracts/access/Ownable.sol\":1248:1255  owner() */\n      tag_227\n        /* \"@openzeppelin/contracts/access/Ownable.sol\":1248:1253  owner */\n      tag_78\n        /* \"@openzeppelin/contracts/access/Ownable.sol\":1248:1255  owner() */\n      jump\t// in\n    tag_227:\n      sub(shl(0xa0, 0x01), 0x01)\n        /* \"@openzeppelin/contracts/access/Ownable.sol\":1248:1271  owner() == _msgSender() */\n      and\n      eq\n        /* \"@openzeppelin/contracts/access/Ownable.sol\":1240:1308  require(owner() == _msgSender(), \"Ownable: caller is not the owner\") */\n      tag_228\n      jumpi\n      mload(0x40)\n      shl(0xe5, 0x461bcd)\n      dup2\n      mstore\n      0x04\n      add\n      tag_148\n      swap1\n      tag_149\n      jump\t// in\n    tag_228:\n      sub(shl(0xa0, 0x01), 0x01)\n        /* \"@openzeppelin/contracts/access/Ownable.sol\":2006:2028  newOwner != address(0) */\n      dup2\n      and\n        /* \"@openzeppelin/contracts/access/Ownable.sol\":1998:2071  require(newOwner != address(0), \"Ownable: new owner is the zero address\") */\n      tag_231\n      jumpi\n      mload(0x40)\n      shl(0xe5, 0x461bcd)\n      dup2\n      mstore\n        /* \"#utility.yul\":9665:9667   */\n      0x20\n        /* \"@openzeppelin/contracts/access/Ownable.sol\":1998:2071  require(newOwner != address(0), \"Ownable: new owner is the zero address\") */\n      0x04\n      dup3\n      add\n        /* \"#utility.yul\":9647:9668   */\n      mstore\n        /* \"#utility.yul\":9704:9706   */\n      0x26\n        /* \"#utility.yul\":9684:9702   */\n      0x24\n      dup3\n      add\n        /* \"#utility.yul\":9677:9707   */\n      mstore\n        /* \"#utility.yul\":9743:9777   */\n      0x4f776e61626c653a206e6577206f776e657220697320746865207a65726f2061\n        /* \"#utility.yul\":9723:9741   */\n      0x44\n      dup3\n      add\n        /* \"#utility.yul\":9716:9778   */\n      mstore\n      shl(0xd0, 0x646472657373)\n        /* \"#utility.yul\":9794:9812   */\n      0x64\n      dup3\n      add\n        /* \"#utility.yul\":9787:9823   */\n      mstore\n        /* \"#utility.yul\":9840:9859   */\n      0x84\n      add\n        /* \"@openzeppelin/contracts/access/Ownable.sol\":1998:2071  require(newOwner != address(0), \"Ownable: new owner is the zero address\") */\n      tag_148\n        /* \"#utility.yul\":9463:9865   */\n      jump\n        /* \"@openzeppelin/contracts/access/Ownable.sol\":1998:2071  require(newOwner != address(0), \"Ownable: new owner is the zero address\") */\n    tag_231:\n        /* \"@openzeppelin/contracts/access/Ownable.sol\":2081:2109  _transferOwnership(newOwner) */\n      tag_234\n        /* \"@openzeppelin/contracts/access/Ownable.sol\":2100:2108  newOwner */\n      dup2\n        /* \"@openzeppelin/contracts/access/Ownable.sol\":2081:2099  _transferOwnership */\n      tag_168\n        /* \"@openzeppelin/contracts/access/Ownable.sol\":2081:2109  _transferOwnership(newOwner) */\n      jump\t// in\n    tag_234:\n        /* \"@openzeppelin/contracts/access/Ownable.sol\":1918:2116  function transferOwnership(address newOwner) public virtual onlyOwner {... */\n      pop\n      jump\t// out\n        /* \"erc721a/contracts/ERC721A.sol\":10954:11126  function _exists(uint256 tokenId) internal view returns (bool) {... */\n    tag_120:\n        /* \"erc721a/contracts/ERC721A.sol\":11011:11015  bool */\n      0x00\n        /* \"erc721a/contracts/ERC721A.sol\":11074:11087  _currentIndex */\n      dup1\n      sload\n        /* \"erc721a/contracts/ERC721A.sol\":11064:11071  tokenId */\n      dup3\n        /* \"erc721a/contracts/ERC721A.sol\":11064:11087  tokenId < _currentIndex */\n      lt\n        /* \"erc721a/contracts/ERC721A.sol\":11034:11119  _startTokenId() <= tokenId && tokenId < _currentIndex && !_ownerships[tokenId].burned */\n      dup1\n      iszero\n      tag_109\n      jumpi\n      pop\n      pop\n        /* \"erc721a/contracts/ERC721A.sol\":11092:11112  _ownerships[tokenId] */\n      0x00\n      swap1\n      dup2\n      mstore\n        /* \"erc721a/contracts/ERC721A.sol\":11092:11103  _ownerships */\n      0x04\n        /* \"erc721a/contracts/ERC721A.sol\":11092:11112  _ownerships[tokenId] */\n      0x20\n      mstore\n      0x40\n      swap1\n      keccak256\n        /* \"erc721a/contracts/ERC721A.sol\":11092:11119  _ownerships[tokenId].burned */\n      sload\n      shl(0xe0, 0x01)\n      swap1\n      div\n      0xff\n      and\n        /* \"erc721a/contracts/ERC721A.sol\":11091:11119  !_ownerships[tokenId].burned */\n      iszero\n      swap1\n        /* \"erc721a/contracts/ERC721A.sol\":10954:11126  function _exists(uint256 tokenId) internal view returns (bool) {... */\n      jump\t// out\n        /* \"erc721a/contracts/ERC721A.sol\":18894:19083  function _approve(... */\n    tag_132:\n        /* \"erc721a/contracts/ERC721A.sol\":19004:19028  _tokenApprovals[tokenId] */\n      0x00\n      dup3\n      dup2\n      mstore\n        /* \"erc721a/contracts/ERC721A.sol\":19004:19019  _tokenApprovals */\n      0x06\n        /* \"erc721a/contracts/ERC721A.sol\":19004:19028  _tokenApprovals[tokenId] */\n      0x20\n      mstore\n      0x40\n      dup1\n      dup3\n      keccak256\n        /* \"erc721a/contracts/ERC721A.sol\":19004:19033  _tokenApprovals[tokenId] = to */\n      dup1\n      sload\n      not(sub(shl(0xa0, 0x01), 0x01))\n      and\n      sub(shl(0xa0, 0x01), 0x01)\n      dup8\n      dup2\n      and\n      swap2\n      dup3\n      or\n      swap1\n      swap3\n      sstore\n        /* \"erc721a/contracts/ERC721A.sol\":19048:19076  Approval(owner, to, tokenId) */\n      swap2\n      mload\n        /* \"erc721a/contracts/ERC721A.sol\":19004:19028  _tokenApprovals[tokenId] */\n      dup6\n      swap4\n        /* \"erc721a/contracts/ERC721A.sol\":19048:19076  Approval(owner, to, tokenId) */\n      swap2\n      dup6\n      and\n      swap2\n      0x8c5be1e5ebec7d5bd14f71427d1e84f3dd0314c0f7b2291e5b200ac8c7c3b925\n      swap2\n      log4\n        /* \"erc721a/contracts/ERC721A.sol\":18894:19083  function _approve(... */\n      pop\n      pop\n      pop\n      jump\t// out\n        /* \"erc721a/contracts/ERC721A.sol\":13964:16046  function _transfer(... */\n    tag_138:\n        /* \"erc721a/contracts/ERC721A.sol\":14074:14109  TokenOwnership memory prevOwnership */\n      0x00\n        /* \"erc721a/contracts/ERC721A.sol\":14112:14133  _ownershipOf(tokenId) */\n      tag_244\n        /* \"erc721a/contracts/ERC721A.sol\":14125:14132  tokenId */\n      dup3\n        /* \"erc721a/contracts/ERC721A.sol\":14112:14124  _ownershipOf */\n      tag_143\n        /* \"erc721a/contracts/ERC721A.sol\":14112:14133  _ownershipOf(tokenId) */\n      jump\t// in\n    tag_244:\n        /* \"erc721a/contracts/ERC721A.sol\":14074:14133  TokenOwnership memory prevOwnership = _ownershipOf(tokenId) */\n      swap1\n      pop\n        /* \"erc721a/contracts/ERC721A.sol\":14170:14174  from */\n      dup4\n      sub(shl(0xa0, 0x01), 0x01)\n        /* \"erc721a/contracts/ERC721A.sol\":14148:14174  prevOwnership.addr != from */\n      and\n        /* \"erc721a/contracts/ERC721A.sol\":14148:14161  prevOwnership */\n      dup2\n        /* \"erc721a/contracts/ERC721A.sol\":14148:14166  prevOwnership.addr */\n      0x00\n      add\n      mload\n      sub(shl(0xa0, 0x01), 0x01)\n        /* \"erc721a/contracts/ERC721A.sol\":14148:14174  prevOwnership.addr != from */\n      and\n      eq\n        /* \"erc721a/contracts/ERC721A.sol\":14144:14211  if (prevOwnership.addr != from) revert TransferFromIncorrectOwner() */\n      tag_245\n      jumpi\n        /* \"erc721a/contracts/ERC721A.sol\":14183:14211  TransferFromIncorrectOwner() */\n      mload(0x40)\n      shl(0xe8, 0xa11481)\n      dup2\n      mstore\n      0x04\n      add\n      mload(0x40)\n      dup1\n      swap2\n      sub\n      swap1\n      revert\n        /* \"erc721a/contracts/ERC721A.sol\":14144:14211  if (prevOwnership.addr != from) revert TransferFromIncorrectOwner() */\n    tag_245:\n        /* \"erc721a/contracts/ERC721A.sol\":14222:14244  bool isApprovedOrOwner */\n      0x00\n        /* \"@openzeppelin/contracts/utils/Context.sol\":719:729  msg.sender */\n      caller\n      sub(shl(0xa0, 0x01), 0x01)\n        /* \"erc721a/contracts/ERC721A.sol\":14248:14268  _msgSender() == from */\n      dup7\n      and\n      eq\n      dup1\n        /* \"erc721a/contracts/ERC721A.sol\":14248:14320  _msgSender() == from ||... */\n      tag_248\n      jumpi\n      pop\n        /* \"erc721a/contracts/ERC721A.sol\":14284:14320  isApprovedForAll(from, _msgSender()) */\n      tag_248\n        /* \"erc721a/contracts/ERC721A.sol\":14301:14305  from */\n      dup6\n        /* \"@openzeppelin/contracts/utils/Context.sol\":719:729  msg.sender */\n      caller\n        /* \"erc721a/contracts/ERC721A.sol\":9650:9812  function isApprovedForAll(address owner, address operator) public view virtual override returns (bool) {... */\n      tag_99\n      jump\t// in\n        /* \"erc721a/contracts/ERC721A.sol\":14284:14320  isApprovedForAll(from, _msgSender()) */\n    tag_248:\n        /* \"erc721a/contracts/ERC721A.sol\":14248:14372  _msgSender() == from ||... */\n      dup1\n      tag_250\n      jumpi\n      pop\n        /* \"@openzeppelin/contracts/utils/Context.sol\":719:729  msg.sender */\n      caller\n        /* \"erc721a/contracts/ERC721A.sol\":14336:14356  getApproved(tokenId) */\n      tag_252\n        /* \"erc721a/contracts/ERC721A.sol\":14348:14355  tokenId */\n      dup5\n        /* \"erc721a/contracts/ERC721A.sol\":14336:14347  getApproved */\n      tag_37\n        /* \"erc721a/contracts/ERC721A.sol\":14336:14356  getApproved(tokenId) */\n      jump\t// in\n    tag_252:\n      sub(shl(0xa0, 0x01), 0x01)\n        /* \"erc721a/contracts/ERC721A.sol\":14336:14372  getApproved(tokenId) == _msgSender() */\n      and\n      eq\n        /* \"erc721a/contracts/ERC721A.sol\":14248:14372  _msgSender() == from ||... */\n    tag_250:\n        /* \"erc721a/contracts/ERC721A.sol\":14222:14373  bool isApprovedOrOwner = (_msgSender() == from ||... */\n      swap1\n      pop\n        /* \"erc721a/contracts/ERC721A.sol\":14389:14406  isApprovedOrOwner */\n      dup1\n        /* \"erc721a/contracts/ERC721A.sol\":14384:14450  if (!isApprovedOrOwner) revert TransferCallerNotOwnerNorApproved() */\n      tag_253\n      jumpi\n        /* \"erc721a/contracts/ERC721A.sol\":14415:14450  TransferCallerNotOwnerNorApproved() */\n      mload(0x40)\n      shl(0xe1, 0x2ce44b5f)\n      dup2\n      mstore\n      0x04\n      add\n      mload(0x40)\n      dup1\n      swap2\n      sub\n      swap1\n      revert\n        /* \"erc721a/contracts/ERC721A.sol\":14384:14450  if (!isApprovedOrOwner) revert TransferCallerNotOwnerNorApproved() */\n    tag_253:\n      sub(shl(0xa0, 0x01), 0x01)\n        /* \"erc721a/contracts/ERC721A.sol\":14464:14480  to == address(0) */\n      dup5\n      and\n        /* \"erc721a/contracts/ERC721A.sol\":14460:14512  if (to == address(0)) revert TransferToZeroAddress() */\n      tag_254\n      jumpi\n        /* \"erc721a/contracts/ERC721A.sol\":14489:14512  TransferToZeroAddress() */\n      mload(0x40)\n      shl(0xe2, 0x3a954ecd)\n      dup2\n      mstore\n      0x04\n      add\n      mload(0x40)\n      dup1\n      swap2\n      sub\n      swap1\n      revert\n        /* \"erc721a/contracts/ERC721A.sol\":14460:14512  if (to == address(0)) revert TransferToZeroAddress() */\n    tag_254:\n        /* \"erc721a/contracts/ERC721A.sol\":14628:14663  _approve(address(0), tokenId, from) */\n      tag_257\n        /* \"erc721a/contracts/ERC721A.sol\":14645:14646  0 */\n      0x00\n        /* \"erc721a/contracts/ERC721A.sol\":14649:14656  tokenId */\n      dup5\n        /* \"erc721a/contracts/ERC721A.sol\":14658:14662  from */\n      dup8\n        /* \"erc721a/contracts/ERC721A.sol\":14628:14636  _approve */\n      tag_132\n        /* \"erc721a/contracts/ERC721A.sol\":14628:14663  _approve(address(0), tokenId, from) */\n      jump\t// in\n    tag_257:\n      sub(shl(0xa0, 0x01), 0x01)\n        /* \"erc721a/contracts/ERC721A.sol\":14953:14971  _addressData[from] */\n      dup6\n      dup2\n      and\n      0x00\n      swap1\n      dup2\n      mstore\n        /* \"erc721a/contracts/ERC721A.sol\":14953:14965  _addressData */\n      0x05\n        /* \"erc721a/contracts/ERC721A.sol\":14953:14971  _addressData[from] */\n      0x20\n      swap1\n      dup2\n      mstore\n      0x40\n      dup1\n      dup4\n      keccak256\n        /* \"erc721a/contracts/ERC721A.sol\":14953:14984  _addressData[from].balance -= 1 */\n      dup1\n      sload\n      not(sub(shl(0x40, 0x01), 0x01))\n      dup1\n      dup3\n      and\n      sub(shl(0x40, 0x01), 0x01)\n      swap3\n      dup4\n      and\n      not(0x00)\n      add\n      dup4\n      and\n      or\n      swap1\n      swap3\n      sstore\n        /* \"erc721a/contracts/ERC721A.sol\":14998:15014  _addressData[to] */\n      dup10\n      dup7\n      and\n      dup1\n      dup7\n      mstore\n      dup4\n      dup7\n      keccak256\n        /* \"erc721a/contracts/ERC721A.sol\":14998:15027  _addressData[to].balance += 1 */\n      dup1\n      sload\n      swap4\n      dup5\n      and\n      swap4\n      dup4\n      and\n      0x01\n      swap1\n      dup2\n      add\n      dup5\n      and\n      swap5\n      swap1\n      swap5\n      or\n      swap1\n      sstore\n        /* \"erc721a/contracts/ERC721A.sol\":15076:15096  _ownerships[tokenId] */\n      dup10\n      dup7\n      mstore\n        /* \"erc721a/contracts/ERC721A.sol\":15076:15087  _ownerships */\n      0x04\n        /* \"erc721a/contracts/ERC721A.sol\":15076:15096  _ownerships[tokenId] */\n      swap1\n      swap5\n      mstore\n      dup3\n      dup6\n      keccak256\n        /* \"erc721a/contracts/ERC721A.sol\":15110:15128  currSlot.addr = to */\n      dup1\n      sload\n      not(sub(shl(0xe0, 0x01), 0x01))\n        /* \"erc721a/contracts/ERC721A.sol\":15142:15191  currSlot.startTimestamp = uint64(block.timestamp) */\n      and\n      swap1\n      swap5\n      or\n      shl(0xa0, 0x01)\n        /* \"erc721a/contracts/ERC721A.sol\":15175:15190  block.timestamp */\n      timestamp\n        /* \"erc721a/contracts/ERC721A.sol\":15142:15191  currSlot.startTimestamp = uint64(block.timestamp) */\n      swap1\n      swap3\n      and\n      swap2\n      swap1\n      swap2\n      mul\n      or\n      dup4\n      sstore\n        /* \"erc721a/contracts/ERC721A.sol\":15461:15472  tokenId + 1 */\n      dup8\n      add\n        /* \"erc721a/contracts/ERC721A.sol\":15520:15544  _ownerships[nextTokenId] */\n      dup1\n      dup5\n      mstore\n      swap3\n      keccak256\n        /* \"erc721a/contracts/ERC721A.sol\":15562:15575  nextSlot.addr */\n      dup1\n      sload\n        /* \"erc721a/contracts/ERC721A.sol\":15076:15096  _ownerships[tokenId] */\n      swap2\n      swap4\n        /* \"erc721a/contracts/ERC721A.sol\":15520:15544  _ownerships[nextTokenId] */\n      swap1\n      swap2\n        /* \"erc721a/contracts/ERC721A.sol\":15562:15575  nextSlot.addr */\n      and\n        /* \"erc721a/contracts/ERC721A.sol\":15558:15935  if (nextSlot.addr == address(0)) {... */\n      tag_259\n      jumpi\n        /* \"erc721a/contracts/ERC721A.sol\":15769:15782  _currentIndex */\n      sload(0x00)\n        /* \"erc721a/contracts/ERC721A.sol\":15754:15765  nextTokenId */\n      dup3\n        /* \"erc721a/contracts/ERC721A.sol\":15754:15782  nextTokenId != _currentIndex */\n      eq\n        /* \"erc721a/contracts/ERC721A.sol\":15750:15921  if (nextTokenId != _currentIndex) {... */\n      tag_259\n      jumpi\n        /* \"erc721a/contracts/ERC721A.sol\":15806:15826  nextSlot.addr = from */\n      dup1\n      sload\n        /* \"erc721a/contracts/ERC721A.sol\":15874:15902  prevOwnership.startTimestamp */\n      0x20\n      dup7\n      add\n      mload\n      sub(shl(0x40, 0x01), 0x01)\n        /* \"erc721a/contracts/ERC721A.sol\":15848:15902  nextSlot.startTimestamp = prevOwnership.startTimestamp */\n      and\n      shl(0xa0, 0x01)\n      mul\n      not(sub(shl(0xe0, 0x01), 0x01))\n      swap1\n      swap2\n      and\n      sub(shl(0xa0, 0x01), 0x01)\n        /* \"erc721a/contracts/ERC721A.sol\":15806:15826  nextSlot.addr = from */\n      dup11\n      and\n        /* \"erc721a/contracts/ERC721A.sol\":15848:15902  nextSlot.startTimestamp = prevOwnership.startTimestamp */\n      or\n      or\n      dup2\n      sstore\n        /* \"erc721a/contracts/ERC721A.sol\":15750:15921  if (nextTokenId != _currentIndex) {... */\n    tag_259:\n        /* \"erc721a/contracts/ERC721A.sol\":14929:15945  unchecked {... */\n      pop\n      pop\n      pop\n        /* \"erc721a/contracts/ERC721A.sol\":15979:15986  tokenId */\n      dup3\n        /* \"erc721a/contracts/ERC721A.sol\":15975:15977  to */\n      dup5\n      sub(shl(0xa0, 0x01), 0x01)\n        /* \"erc721a/contracts/ERC721A.sol\":15960:15987  Transfer(from, to, tokenId) */\n      and\n        /* \"erc721a/contracts/ERC721A.sol\":15969:15973  from */\n      dup7\n      sub(shl(0xa0, 0x01), 0x01)\n        /* \"erc721a/contracts/ERC721A.sol\":15960:15987  Transfer(from, to, tokenId) */\n      and\n      0x00\n      dup1\n      mload\n      0x20\n      data_ada389e1fc24a8587c776340efb91b36e675792ab631816100d55df0b5cf3cbc\n      dup4\n      codecopy\n      dup2\n      mload\n      swap2\n      mstore\n      mload(0x40)\n      mload(0x40)\n      dup1\n      swap2\n      sub\n      swap1\n      log4\n        /* \"erc721a/contracts/ERC721A.sol\":15997:16039  _afterTokenTransfers(from, to, tokenId, 1) */\n    tag_260:\n        /* \"erc721a/contracts/ERC721A.sol\":14064:16046  {... */\n      pop\n      pop\n        /* \"erc721a/contracts/ERC721A.sol\":13964:16046  function _transfer(... */\n      pop\n      pop\n      pop\n      jump\t// out\n        /* \"erc721a/contracts/ERC721A.sol\":6253:7337  function _ownershipOf(uint256 tokenId) internal view returns (TokenOwnership memory) {... */\n    tag_143:\n      0x40\n      dup1\n      mload\n      0x60\n      dup2\n      add\n      dup3\n      mstore\n      0x00\n      dup1\n      dup3\n      mstore\n      0x20\n      dup3\n      add\n      dup2\n      swap1\n      mstore\n      swap2\n      dup2\n      add\n      swap2\n      swap1\n      swap2\n      mstore\n        /* \"erc721a/contracts/ERC721A.sol\":6363:6370  tokenId */\n      dup2\n        /* \"erc721a/contracts/ERC721A.sol\":6443:6456  _currentIndex */\n      sload(0x00)\n        /* \"erc721a/contracts/ERC721A.sol\":6436:6440  curr */\n      dup2\n        /* \"erc721a/contracts/ERC721A.sol\":6436:6456  curr < _currentIndex */\n      lt\n        /* \"erc721a/contracts/ERC721A.sol\":6405:7273  if (_startTokenId() <= curr && curr < _currentIndex) {... */\n      iszero\n      tag_267\n      jumpi\n        /* \"erc721a/contracts/ERC721A.sol\":6476:6507  TokenOwnership memory ownership */\n      0x00\n        /* \"erc721a/contracts/ERC721A.sol\":6510:6527  _ownerships[curr] */\n      dup2\n      dup2\n      mstore\n        /* \"erc721a/contracts/ERC721A.sol\":6510:6521  _ownerships */\n      0x04\n        /* \"erc721a/contracts/ERC721A.sol\":6510:6527  _ownerships[curr] */\n      0x20\n      swap1\n      dup2\n      mstore\n      0x40\n      swap2\n      dup3\n      swap1\n      keccak256\n        /* \"erc721a/contracts/ERC721A.sol\":6476:6527  TokenOwnership memory ownership = _ownerships[curr] */\n      dup3\n      mload\n      0x60\n      dup2\n      add\n      dup5\n      mstore\n      swap1\n      sload\n      sub(shl(0xa0, 0x01), 0x01)\n      dup2\n      and\n      dup3\n      mstore\n      shl(0xa0, 0x01)\n      dup2\n      div\n      sub(shl(0x40, 0x01), 0x01)\n      and\n      swap3\n      dup3\n      add\n      swap3\n      swap1\n      swap3\n      mstore\n      shl(0xe0, 0x01)\n      swap1\n      swap2\n      div\n      0xff\n      and\n      iszero\n      iszero\n      swap2\n      dup2\n      add\n      dup3\n      swap1\n      mstore\n      swap1\n        /* \"erc721a/contracts/ERC721A.sol\":6545:7259  if (!ownership.burned) {... */\n      tag_271\n      jumpi\n        /* \"erc721a/contracts/ERC721A.sol\":6594:6608  ownership.addr */\n      dup1\n      mload\n      sub(shl(0xa0, 0x01), 0x01)\n        /* \"erc721a/contracts/ERC721A.sol\":6594:6622  ownership.addr != address(0) */\n      and\n      iszero\n        /* \"erc721a/contracts/ERC721A.sol\":6590:6689  if (ownership.addr != address(0)) {... */\n      tag_269\n      jumpi\n        /* \"erc721a/contracts/ERC721A.sol\":6657:6666  ownership */\n      swap4\n        /* \"erc721a/contracts/ERC721A.sol\":6253:7337  function _ownershipOf(uint256 tokenId) internal view returns (TokenOwnership memory) {... */\n      swap3\n      pop\n      pop\n      pop\n      jump\t// out\n        /* \"erc721a/contracts/ERC721A.sol\":6590:6689  if (ownership.addr != address(0)) {... */\n    tag_269:\n      pop\n      not(0x00)\n        /* \"erc721a/contracts/ERC721A.sol\":7025:7031  curr-- */\n      add\n        /* \"erc721a/contracts/ERC721A.sol\":7069:7086  _ownerships[curr] */\n      0x00\n      dup2\n      dup2\n      mstore\n        /* \"erc721a/contracts/ERC721A.sol\":7069:7080  _ownerships */\n      0x04\n        /* \"erc721a/contracts/ERC721A.sol\":7069:7086  _ownerships[curr] */\n      0x20\n      swap1\n      dup2\n      mstore\n      0x40\n      swap2\n      dup3\n      swap1\n      keccak256\n        /* \"erc721a/contracts/ERC721A.sol\":7057:7086  ownership = _ownerships[curr] */\n      dup3\n      mload\n      0x60\n      dup2\n      add\n      dup5\n      mstore\n      swap1\n      sload\n      sub(shl(0xa0, 0x01), 0x01)\n      dup2\n      and\n      dup1\n      dup4\n      mstore\n      shl(0xa0, 0x01)\n      dup3\n      div\n      sub(shl(0x40, 0x01), 0x01)\n      and\n      swap4\n      dup4\n      add\n      swap4\n      swap1\n      swap4\n      mstore\n      shl(0xe0, 0x01)\n      swap1\n      div\n      0xff\n      and\n      iszero\n      iszero\n      swap3\n      dup2\n      add\n      swap3\n      swap1\n      swap3\n      mstore\n        /* \"erc721a/contracts/ERC721A.sol\":7116:7144  ownership.addr != address(0) */\n      iszero\n        /* \"erc721a/contracts/ERC721A.sol\":7112:7219  if (ownership.addr != address(0)) {... */\n      tag_272\n      jumpi\n        /* \"erc721a/contracts/ERC721A.sol\":7183:7192  ownership */\n      swap4\n        /* \"erc721a/contracts/ERC721A.sol\":6253:7337  function _ownershipOf(uint256 tokenId) internal view returns (TokenOwnership memory) {... */\n      swap3\n      pop\n      pop\n      pop\n      jump\t// out\n        /* \"erc721a/contracts/ERC721A.sol\":7112:7219  if (ownership.addr != address(0)) {... */\n    tag_272:\n        /* \"erc721a/contracts/ERC721A.sol\":6986:7241  while (true) {... */\n      jump(tag_269)\n    tag_271:\n        /* \"erc721a/contracts/ERC721A.sol\":6458:7273  {... */\n      pop\n        /* \"erc721a/contracts/ERC721A.sol\":6405:7273  if (_startTokenId() <= curr && curr < _currentIndex) {... */\n    tag_267:\n        /* \"erc721a/contracts/ERC721A.sol\":7299:7330  OwnerQueryForNonexistentToken() */\n      mload(0x40)\n      shl(0xe1, 0x6f96cda1)\n      dup2\n      mstore\n      0x04\n      add\n      mload(0x40)\n      dup1\n      swap2\n      sub\n      swap1\n      revert\n        /* \"@openzeppelin/contracts/access/Ownable.sol\":2270:2457  function _transferOwnership(address newOwner) internal virtual {... */\n    tag_168:\n        /* \"@openzeppelin/contracts/access/Ownable.sol\":2362:2368  _owner */\n      0x08\n      dup1\n      sload\n      sub(shl(0xa0, 0x01), 0x01)\n        /* \"@openzeppelin/contracts/access/Ownable.sol\":2378:2395  _owner = newOwner */\n      dup4\n      dup2\n      and\n      not(sub(shl(0xa0, 0x01), 0x01))\n      dup4\n      and\n      dup2\n      or\n      swap1\n      swap4\n      sstore\n        /* \"@openzeppelin/contracts/access/Ownable.sol\":2410:2450  OwnershipTransferred(oldOwner, newOwner) */\n      mload(0x40)\n        /* \"@openzeppelin/contracts/access/Ownable.sol\":2362:2368  _owner */\n      swap2\n      and\n      swap2\n        /* \"@openzeppelin/contracts/access/Ownable.sol\":2378:2395  _owner = newOwner */\n      swap1\n        /* \"@openzeppelin/contracts/access/Ownable.sol\":2362:2368  _owner */\n      dup3\n      swap1\n        /* \"@openzeppelin/contracts/access/Ownable.sol\":2410:2450  OwnershipTransferred(oldOwner, newOwner) */\n      0x8be0079c531659141344cd1fd0a4f28419497f9722a3daafe3b4186f6b6457e0\n      swap1\n        /* \"@openzeppelin/contracts/access/Ownable.sol\":2343:2359  address oldOwner */\n      0x00\n      swap1\n        /* \"@openzeppelin/contracts/access/Ownable.sol\":2410:2450  OwnershipTransferred(oldOwner, newOwner) */\n      log3\n        /* \"@openzeppelin/contracts/access/Ownable.sol\":2333:2457  {... */\n      pop\n        /* \"@openzeppelin/contracts/access/Ownable.sol\":2270:2457  function _transferOwnership(address newOwner) internal virtual {... */\n      pop\n      jump\t// out\n        /* \"erc721a/contracts/ERC721A.sol\":11132:11234  function _safeMint(address to, uint256 quantity) internal {... */\n    tag_183:\n        /* \"erc721a/contracts/ERC721A.sol\":11200:11227  _safeMint(to, quantity, '') */\n      tag_275\n        /* \"erc721a/contracts/ERC721A.sol\":11210:11212  to */\n      dup3\n        /* \"erc721a/contracts/ERC721A.sol\":11214:11222  quantity */\n      dup3\n        /* \"erc721a/contracts/ERC721A.sol\":11200:11227  _safeMint(to, quantity, '') */\n      mload(0x40)\n      dup1\n      0x20\n      add\n      0x40\n      mstore\n      dup1\n      0x00\n      dup2\n      mstore\n      pop\n        /* \"erc721a/contracts/ERC721A.sol\":11200:11209  _safeMint */\n      tag_276\n        /* \"erc721a/contracts/ERC721A.sol\":11200:11227  _safeMint(to, quantity, '') */\n      jump\t// in\n    tag_275:\n        /* \"erc721a/contracts/ERC721A.sol\":11132:11234  function _safeMint(address to, uint256 quantity) internal {... */\n      pop\n      pop\n      jump\t// out\n        /* \"@openzeppelin/contracts/utils/Address.sol\":1175:1495  function isContract(address account) internal view returns (bool) {... */\n    tag_202:\n      sub(shl(0xa0, 0x01), 0x01)\n        /* \"@openzeppelin/contracts/utils/Address.sol\":1465:1484  account.code.length */\n      and\n      extcodesize\n        /* \"@openzeppelin/contracts/utils/Address.sol\":1465:1488  account.code.length > 0 */\n      iszero\n      iszero\n      swap1\n        /* \"@openzeppelin/contracts/utils/Address.sol\":1175:1495  function isContract(address account) internal view returns (bool) {... */\n      jump\t// out\n        /* \"erc721a/contracts/ERC721A.sol\":19564:20214  function _checkContractOnERC721Received(... */\n    tag_205:\n        /* \"erc721a/contracts/ERC721A.sol\":19742:19814  IERC721Receiver(to).onERC721Received(_msgSender(), from, tokenId, _data) */\n      mload(0x40)\n      shl(0xe1, 0x0a85bd01)\n      dup2\n      mstore\n        /* \"erc721a/contracts/ERC721A.sol\":19722:19726  bool */\n      0x00\n      swap1\n      sub(shl(0xa0, 0x01), 0x01)\n        /* \"erc721a/contracts/ERC721A.sol\":19742:19778  IERC721Receiver(to).onERC721Received */\n      dup6\n      and\n      swap1\n      0x150b7a02\n      swap1\n        /* \"erc721a/contracts/ERC721A.sol\":19742:19814  IERC721Receiver(to).onERC721Received(_msgSender(), from, tokenId, _data) */\n      tag_280\n      swap1\n        /* \"@openzeppelin/contracts/utils/Context.sol\":719:729  msg.sender */\n      caller\n      swap1\n        /* \"erc721a/contracts/ERC721A.sol\":19793:19797  from */\n      dup10\n      swap1\n        /* \"erc721a/contracts/ERC721A.sol\":19799:19806  tokenId */\n      dup9\n      swap1\n        /* \"erc721a/contracts/ERC721A.sol\":19808:19813  _data */\n      dup9\n      swap1\n        /* \"erc721a/contracts/ERC721A.sol\":19742:19814  IERC721Receiver(to).onERC721Received(_msgSender(), from, tokenId, _data) */\n      0x04\n      add\n      tag_281\n      jump\t// in\n    tag_280:\n      0x20\n      mload(0x40)\n      dup1\n      dup4\n      sub\n      dup2\n      0x00\n      dup8\n      gas\n      call\n      swap3\n      pop\n      pop\n      pop\n      dup1\n      iszero\n      tag_282\n      jumpi\n      pop\n      0x40\n      dup1\n      mload\n      0x1f\n      returndatasize\n      swap1\n      dup2\n      add\n      not(0x1f)\n      and\n      dup3\n      add\n      swap1\n      swap3\n      mstore\n      tag_283\n      swap2\n      dup2\n      add\n      swap1\n      tag_284\n      jump\t// in\n    tag_283:\n      0x01\n    tag_282:\n        /* \"erc721a/contracts/ERC721A.sol\":19738:20208  try IERC721Receiver(to).onERC721Received(_msgSender(), from, tokenId, _data) returns (bytes4 retval) {... */\n      tag_285\n      jumpi\n      returndatasize\n      dup1\n      dup1\n      iszero\n      tag_290\n      jumpi\n      mload(0x40)\n      swap2\n      pop\n      and(add(returndatasize, 0x3f), not(0x1f))\n      dup3\n      add\n      0x40\n      mstore\n      returndatasize\n      dup3\n      mstore\n      returndatasize\n      0x00\n      0x20\n      dup5\n      add\n      returndatacopy\n      jump(tag_289)\n    tag_290:\n      0x60\n      swap2\n      pop\n    tag_289:\n      pop\n        /* \"erc721a/contracts/ERC721A.sol\":19973:19979  reason */\n      dup1\n        /* \"erc721a/contracts/ERC721A.sol\":19973:19986  reason.length */\n      mload\n        /* \"erc721a/contracts/ERC721A.sol\":19990:19991  0 */\n      0x00\n        /* \"erc721a/contracts/ERC721A.sol\":19973:19991  reason.length == 0 */\n      sub\n        /* \"erc721a/contracts/ERC721A.sol\":19969:20198  if (reason.length == 0) {... */\n      tag_291\n      jumpi\n        /* \"erc721a/contracts/ERC721A.sol\":20018:20058  TransferToNonERC721ReceiverImplementer() */\n      mload(0x40)\n      shl(0xe1, 0x68d2bf6b)\n      dup2\n      mstore\n      0x04\n      add\n      mload(0x40)\n      dup1\n      swap2\n      sub\n      swap1\n      revert\n        /* \"erc721a/contracts/ERC721A.sol\":19969:20198  if (reason.length == 0) {... */\n    tag_291:\n        /* \"erc721a/contracts/ERC721A.sol\":20158:20164  reason */\n      dup1\n        /* \"erc721a/contracts/ERC721A.sol\":20152:20165  mload(reason) */\n      mload\n        /* \"erc721a/contracts/ERC721A.sol\":20143:20149  reason */\n      dup2\n        /* \"erc721a/contracts/ERC721A.sol\":20139:20141  32 */\n      0x20\n        /* \"erc721a/contracts/ERC721A.sol\":20135:20150  add(32, reason) */\n      add\n        /* \"erc721a/contracts/ERC721A.sol\":20128:20166  revert(add(32, reason), mload(reason)) */\n      revert\n        /* \"erc721a/contracts/ERC721A.sol\":19738:20208  try IERC721Receiver(to).onERC721Received(_msgSender(), from, tokenId, _data) returns (bytes4 retval) {... */\n    tag_285:\n      not(sub(shl(0xe0, 0x01), 0x01))\n        /* \"erc721a/contracts/ERC721A.sol\":19860:19915  retval == IERC721Receiver(to).onERC721Received.selector */\n      and\n      shl(0xe1, 0x0a85bd01)\n      eq\n      swap1\n      pop\n        /* \"erc721a/contracts/ERC721A.sol\":19738:20208  try IERC721Receiver(to).onERC721Received(_msgSender(), from, tokenId, _data) returns (bytes4 retval) {... */\n    tag_293:\n        /* \"erc721a/contracts/ERC721A.sol\":19564:20214  function _checkContractOnERC721Received(... */\n      swap5\n      swap4\n      pop\n      pop\n      pop\n      pop\n      jump\t// out\n        /* \"@openzeppelin/contracts/utils/Strings.sol\":328:1031  function toString(uint256 value) internal pure returns (string memory) {... */\n    tag_221:\n        /* \"@openzeppelin/contracts/utils/Strings.sol\":384:397  string memory */\n      0x60\n        /* \"@openzeppelin/contracts/utils/Strings.sol\":601:606  value */\n      dup2\n        /* \"@openzeppelin/contracts/utils/Strings.sol\":610:611  0 */\n      0x00\n        /* \"@openzeppelin/contracts/utils/Strings.sol\":601:611  value == 0 */\n      sub\n        /* \"@openzeppelin/contracts/utils/Strings.sol\":597:648  if (value == 0) {... */\n      tag_295\n      jumpi\n      pop\n      pop\n        /* \"@openzeppelin/contracts/utils/Strings.sol\":627:637  return \"0\" */\n      0x40\n      dup1\n      mload\n      dup1\n      dup3\n      add\n      swap1\n      swap2\n      mstore\n      0x01\n      dup2\n      mstore\n      shl(0xfc, 0x03)\n      0x20\n      dup3\n      add\n      mstore\n      swap1\n        /* \"@openzeppelin/contracts/utils/Strings.sol\":328:1031  function toString(uint256 value) internal pure returns (string memory) {... */\n      jump\t// out\n        /* \"@openzeppelin/contracts/utils/Strings.sol\":597:648  if (value == 0) {... */\n    tag_295:\n        /* \"@openzeppelin/contracts/utils/Strings.sol\":672:677  value */\n      dup2\n        /* \"@openzeppelin/contracts/utils/Strings.sol\":657:669  uint256 temp */\n      0x00\n        /* \"@openzeppelin/contracts/utils/Strings.sol\":711:786  while (temp != 0) {... */\n    tag_296:\n        /* \"@openzeppelin/contracts/utils/Strings.sol\":718:727  temp != 0 */\n      dup2\n      iszero\n        /* \"@openzeppelin/contracts/utils/Strings.sol\":711:786  while (temp != 0) {... */\n      tag_297\n      jumpi\n        /* \"@openzeppelin/contracts/utils/Strings.sol\":743:751  digits++ */\n      dup1\n      tag_298\n      dup2\n      tag_185\n      jump\t// in\n    tag_298:\n      swap2\n      pop\n        /* \"@openzeppelin/contracts/utils/Strings.sol\":765:775  temp /= 10 */\n      tag_299\n      swap1\n      pop\n        /* \"@openzeppelin/contracts/utils/Strings.sol\":773:775  10 */\n      0x0a\n        /* \"@openzeppelin/contracts/utils/Strings.sol\":765:775  temp /= 10 */\n      dup4\n      tag_300\n      jump\t// in\n    tag_299:\n      swap2\n      pop\n        /* \"@openzeppelin/contracts/utils/Strings.sol\":711:786  while (temp != 0) {... */\n      jump(tag_296)\n    tag_297:\n        /* \"@openzeppelin/contracts/utils/Strings.sol\":795:814  bytes memory buffer */\n      0x00\n        /* \"@openzeppelin/contracts/utils/Strings.sol\":827:833  digits */\n      dup2\n      sub(shl(0x40, 0x01), 0x01)\n        /* \"@openzeppelin/contracts/utils/Strings.sol\":817:834  new bytes(digits) */\n      dup2\n      gt\n      iszero\n      tag_302\n      jumpi\n      tag_302\n      tag_303\n      jump\t// in\n    tag_302:\n      mload(0x40)\n      swap1\n      dup1\n      dup3\n      mstore\n      dup1\n      0x1f\n      add\n      not(0x1f)\n      and\n      0x20\n      add\n      dup3\n      add\n      0x40\n      mstore\n      dup1\n      iszero\n      tag_304\n      jumpi\n      0x20\n      dup3\n      add\n      dup2\n      dup1\n      calldatasize\n      dup4\n      calldatacopy\n      add\n      swap1\n      pop\n    tag_304:\n      pop\n        /* \"@openzeppelin/contracts/utils/Strings.sol\":795:834  bytes memory buffer = new bytes(digits) */\n      swap1\n      pop\n        /* \"@openzeppelin/contracts/utils/Strings.sol\":844:994  while (value != 0) {... */\n    tag_305:\n        /* \"@openzeppelin/contracts/utils/Strings.sol\":851:861  value != 0 */\n      dup5\n      iszero\n        /* \"@openzeppelin/contracts/utils/Strings.sol\":844:994  while (value != 0) {... */\n      tag_293\n      jumpi\n        /* \"@openzeppelin/contracts/utils/Strings.sol\":877:888  digits -= 1 */\n      tag_307\n        /* \"@openzeppelin/contracts/utils/Strings.sol\":887:888  1 */\n      0x01\n        /* \"@openzeppelin/contracts/utils/Strings.sol\":877:888  digits -= 1 */\n      dup4\n      tag_308\n      jump\t// in\n    tag_307:\n      swap2\n      pop\n        /* \"@openzeppelin/contracts/utils/Strings.sol\":945:955  value % 10 */\n      tag_309\n        /* \"@openzeppelin/contracts/utils/Strings.sol\":953:955  10 */\n      0x0a\n        /* \"@openzeppelin/contracts/utils/Strings.sol\":945:950  value */\n      dup7\n        /* \"@openzeppelin/contracts/utils/Strings.sol\":945:955  value % 10 */\n      tag_310\n      jump\t// in\n    tag_309:\n        /* \"@openzeppelin/contracts/utils/Strings.sol\":932:956  48 + uint256(value % 10) */\n      tag_311\n      swap1\n        /* \"@openzeppelin/contracts/utils/Strings.sol\":932:934  48 */\n      0x30\n        /* \"@openzeppelin/contracts/utils/Strings.sol\":932:956  48 + uint256(value % 10) */\n      tag_312\n      jump\t// in\n    tag_311:\n        /* \"@openzeppelin/contracts/utils/Strings.sol\":919:958  bytes1(uint8(48 + uint256(value % 10))) */\n      0xf8\n      shl\n        /* \"@openzeppelin/contracts/utils/Strings.sol\":902:908  buffer */\n      dup2\n        /* \"@openzeppelin/contracts/utils/Strings.sol\":909:915  digits */\n      dup4\n        /* \"@openzeppelin/contracts/utils/Strings.sol\":902:916  buffer[digits] */\n      dup2\n      mload\n      dup2\n      lt\n      tag_314\n      jumpi\n      tag_314\n      tag_181\n      jump\t// in\n    tag_314:\n      0x20\n      add\n      add\n        /* \"@openzeppelin/contracts/utils/Strings.sol\":902:958  buffer[digits] = bytes1(uint8(48 + uint256(value % 10))) */\n      swap1\n      not(sub(shl(0xf8, 0x01), 0x01))\n      and\n      swap1\n      dup2\n      0x00\n      byte\n      swap1\n      mstore8\n      pop\n        /* \"@openzeppelin/contracts/utils/Strings.sol\":972:983  value /= 10 */\n      tag_315\n        /* \"@openzeppelin/contracts/utils/Strings.sol\":981:983  10 */\n      0x0a\n        /* \"@openzeppelin/contracts/utils/Strings.sol\":972:983  value /= 10 */\n      dup7\n      tag_300\n      jump\t// in\n    tag_315:\n      swap5\n      pop\n        /* \"@openzeppelin/contracts/utils/Strings.sol\":844:994  while (value != 0) {... */\n      jump(tag_305)\n        /* \"erc721a/contracts/ERC721A.sol\":11585:11742  function _safeMint(... */\n    tag_276:\n        /* \"erc721a/contracts/ERC721A.sol\":11703:11735  _mint(to, quantity, _data, true) */\n      tag_131\n        /* \"erc721a/contracts/ERC721A.sol\":11709:11711  to */\n      dup4\n        /* \"erc721a/contracts/ERC721A.sol\":11713:11721  quantity */\n      dup4\n        /* \"erc721a/contracts/ERC721A.sol\":11723:11728  _data */\n      dup4\n        /* \"erc721a/contracts/ERC721A.sol\":11730:11734  true */\n      0x01\n        /* \"erc721a/contracts/ERC721A.sol\":12122:12142  uint256 startTokenId */\n      0x00\n        /* \"erc721a/contracts/ERC721A.sol\":12145:12158  _currentIndex */\n      sload\n      sub(shl(0xa0, 0x01), 0x01)\n        /* \"erc721a/contracts/ERC721A.sol\":12172:12188  to == address(0) */\n      dup6\n      and\n        /* \"erc721a/contracts/ERC721A.sol\":12168:12216  if (to == address(0)) revert MintToZeroAddress() */\n      tag_322\n      jumpi\n        /* \"erc721a/contracts/ERC721A.sol\":12197:12216  MintToZeroAddress() */\n      mload(0x40)\n      shl(0xe8, 0x2e0763)\n      dup2\n      mstore\n      0x04\n      add\n      mload(0x40)\n      dup1\n      swap2\n      sub\n      swap1\n      revert\n        /* \"erc721a/contracts/ERC721A.sol\":12168:12216  if (to == address(0)) revert MintToZeroAddress() */\n    tag_322:\n        /* \"erc721a/contracts/ERC721A.sol\":12230:12238  quantity */\n      dup4\n        /* \"erc721a/contracts/ERC721A.sol\":12242:12243  0 */\n      0x00\n        /* \"erc721a/contracts/ERC721A.sol\":12230:12243  quantity == 0 */\n      sub\n        /* \"erc721a/contracts/ERC721A.sol\":12226:12270  if (quantity == 0) revert MintZeroQuantity() */\n      tag_323\n      jumpi\n        /* \"erc721a/contracts/ERC721A.sol\":12252:12270  MintZeroQuantity() */\n      mload(0x40)\n      shl(0xe0, 0xb562e8dd)\n      dup2\n      mstore\n      0x04\n      add\n      mload(0x40)\n      dup1\n      swap2\n      sub\n      swap1\n      revert\n        /* \"erc721a/contracts/ERC721A.sol\":12226:12270  if (quantity == 0) revert MintZeroQuantity() */\n    tag_323:\n      sub(shl(0xa0, 0x01), 0x01)\n        /* \"erc721a/contracts/ERC721A.sol\":12613:12629  _addressData[to] */\n      dup6\n      and\n      0x00\n      dup2\n      dup2\n      mstore\n        /* \"erc721a/contracts/ERC721A.sol\":12613:12625  _addressData */\n      0x05\n        /* \"erc721a/contracts/ERC721A.sol\":12613:12629  _addressData[to] */\n      0x20\n      swap1\n      dup2\n      mstore\n      0x40\n      dup1\n      dup4\n      keccak256\n        /* \"erc721a/contracts/ERC721A.sol\":12613:12657  _addressData[to].balance += uint64(quantity) */\n      dup1\n      sload\n      not(sub(shl(0x80, 0x01), 0x01))\n        /* \"erc721a/contracts/ERC721A.sol\":12671:12720  _addressData[to].numberMinted += uint64(quantity) */\n      dup2\n      and\n      sub(shl(0x40, 0x01), 0x01)\n        /* \"erc721a/contracts/ERC721A.sol\":12613:12657  _addressData[to].balance += uint64(quantity) */\n      dup1\n      dup4\n      and\n      dup13\n      add\n      dup2\n      and\n        /* \"erc721a/contracts/ERC721A.sol\":12671:12720  _addressData[to].numberMinted += uint64(quantity) */\n      swap2\n      dup3\n      or\n      shl(0x40, 0x01)\n      not(sub(shl(0x40, 0x01), 0x01))\n        /* \"erc721a/contracts/ERC721A.sol\":12613:12657  _addressData[to].balance += uint64(quantity) */\n      swap1\n      swap5\n      and\n      swap1\n      swap3\n      or\n        /* \"erc721a/contracts/ERC721A.sol\":12671:12720  _addressData[to].numberMinted += uint64(quantity) */\n      dup4\n      swap1\n      div\n      dup2\n      and\n      dup13\n      add\n      dup2\n      and\n      swap1\n      swap3\n      mul\n      or\n      swap1\n      swap2\n      sstore\n        /* \"erc721a/contracts/ERC721A.sol\":12735:12760  _ownerships[startTokenId] */\n      dup6\n      dup5\n      mstore\n        /* \"erc721a/contracts/ERC721A.sol\":12735:12746  _ownerships */\n      0x04\n        /* \"erc721a/contracts/ERC721A.sol\":12735:12760  _ownerships[startTokenId] */\n      swap1\n      swap3\n      mstore\n      swap1\n      swap2\n      keccak256\n        /* \"erc721a/contracts/ERC721A.sol\":12735:12770  _ownerships[startTokenId].addr = to */\n      dup1\n      sload\n      not(sub(shl(0xe0, 0x01), 0x01))\n        /* \"erc721a/contracts/ERC721A.sol\":12784:12850  _ownerships[startTokenId].startTimestamp = uint64(block.timestamp) */\n      and\n      swap1\n      swap3\n      or\n      shl(0xa0, 0x01)\n        /* \"erc721a/contracts/ERC721A.sol\":12834:12849  block.timestamp */\n      timestamp\n        /* \"erc721a/contracts/ERC721A.sol\":12784:12850  _ownerships[startTokenId].startTimestamp = uint64(block.timestamp) */\n      swap1\n      swap3\n      and\n      swap2\n      swap1\n      swap2\n      mul\n      or\n      swap1\n      sstore\n        /* \"erc721a/contracts/ERC721A.sol\":12735:12760  _ownerships[startTokenId] */\n      dup1\n        /* \"erc721a/contracts/ERC721A.sol\":12928:12951  updatedIndex + quantity */\n      dup1\n      dup6\n      add\n        /* \"erc721a/contracts/ERC721A.sol\":12970:12974  safe */\n      dup4\n        /* \"erc721a/contracts/ERC721A.sol\":12970:12993  safe && to.isContract() */\n      dup1\n      iszero\n      tag_326\n      jumpi\n      pop\n        /* \"erc721a/contracts/ERC721A.sol\":12978:12993  to.isContract() */\n      tag_326\n        /* \"erc721a/contracts/ERC721A.sol\":12978:12980  to */\n      dup8\n      sub(shl(0xa0, 0x01), 0x01)\n        /* \"erc721a/contracts/ERC721A.sol\":12978:12991  to.isContract */\n      and\n      tag_202\n        /* \"erc721a/contracts/ERC721A.sol\":12978:12993  to.isContract() */\n      jump\t// in\n    tag_326:\n        /* \"erc721a/contracts/ERC721A.sol\":12966:13594  if (safe && to.isContract()) {... */\n      iszero\n      tag_327\n      jumpi\n        /* \"erc721a/contracts/ERC721A.sol\":13013:13322  do {... */\n    tag_328:\n        /* \"erc721a/contracts/ERC721A.sol\":13043:13081  Transfer(address(0), to, updatedIndex) */\n      mload(0x40)\n        /* \"erc721a/contracts/ERC721A.sol\":13068:13080  updatedIndex */\n      dup3\n      swap1\n      sub(shl(0xa0, 0x01), 0x01)\n        /* \"erc721a/contracts/ERC721A.sol\":13043:13081  Transfer(address(0), to, updatedIndex) */\n      dup10\n      and\n      swap1\n        /* \"erc721a/contracts/ERC721A.sol\":13060:13061  0 */\n      0x00\n      swap1\n      0x00\n      dup1\n      mload\n      0x20\n      data_ada389e1fc24a8587c776340efb91b36e675792ab631816100d55df0b5cf3cbc\n      dup4\n      codecopy\n      dup2\n      mload\n      swap2\n      mstore\n        /* \"erc721a/contracts/ERC721A.sol\":13043:13081  Transfer(address(0), to, updatedIndex) */\n      swap1\n        /* \"erc721a/contracts/ERC721A.sol\":13060:13061  0 */\n      dup3\n      swap1\n        /* \"erc721a/contracts/ERC721A.sol\":13043:13081  Transfer(address(0), to, updatedIndex) */\n      log4\n        /* \"erc721a/contracts/ERC721A.sol\":13108:13177  _checkContractOnERC721Received(address(0), to, updatedIndex++, _data) */\n      tag_331\n        /* \"erc721a/contracts/ERC721A.sol\":13147:13148  0 */\n      0x00\n        /* \"erc721a/contracts/ERC721A.sol\":13151:13153  to */\n      dup9\n        /* \"erc721a/contracts/ERC721A.sol\":13155:13169  updatedIndex++ */\n      dup5\n      dup1\n      0x01\n      add\n      swap6\n      pop\n        /* \"erc721a/contracts/ERC721A.sol\":13171:13176  _data */\n      dup9\n        /* \"erc721a/contracts/ERC721A.sol\":13108:13138  _checkContractOnERC721Received */\n      tag_205\n        /* \"erc721a/contracts/ERC721A.sol\":13108:13177  _checkContractOnERC721Received(address(0), to, updatedIndex++, _data) */\n      jump\t// in\n    tag_331:\n        /* \"erc721a/contracts/ERC721A.sol\":13103:13275  if (!_checkContractOnERC721Received(address(0), to, updatedIndex++, _data)) {... */\n      tag_332\n      jumpi\n        /* \"erc721a/contracts/ERC721A.sol\":13212:13252  TransferToNonERC721ReceiverImplementer() */\n      mload(0x40)\n      shl(0xe1, 0x68d2bf6b)\n      dup2\n      mstore\n      0x04\n      add\n      mload(0x40)\n      dup1\n      swap2\n      sub\n      swap1\n      revert\n        /* \"erc721a/contracts/ERC721A.sol\":13103:13275  if (!_checkContractOnERC721Received(address(0), to, updatedIndex++, _data)) {... */\n    tag_332:\n        /* \"erc721a/contracts/ERC721A.sol\":13317:13320  end */\n      dup1\n        /* \"erc721a/contracts/ERC721A.sol\":13301:13313  updatedIndex */\n      dup3\n        /* \"erc721a/contracts/ERC721A.sol\":13301:13320  updatedIndex != end */\n      sub\n        /* \"erc721a/contracts/ERC721A.sol\":13013:13322  do {... */\n      tag_328\n      jumpi\n        /* \"erc721a/contracts/ERC721A.sol\":13401:13413  startTokenId */\n      dup3\n        /* \"erc721a/contracts/ERC721A.sol\":13384:13397  _currentIndex */\n      sload(0x00)\n        /* \"erc721a/contracts/ERC721A.sol\":13384:13413  _currentIndex != startTokenId */\n      eq\n        /* \"erc721a/contracts/ERC721A.sol\":13380:13423  if (_currentIndex != startTokenId) revert() */\n      tag_333\n      jumpi\n        /* \"erc721a/contracts/ERC721A.sol\":13415:13423  revert() */\n      0x00\n      dup1\n      revert\n        /* \"erc721a/contracts/ERC721A.sol\":13380:13423  if (_currentIndex != startTokenId) revert() */\n    tag_333:\n        /* \"erc721a/contracts/ERC721A.sol\":12966:13594  if (safe && to.isContract()) {... */\n      jump(tag_334)\n    tag_327:\n        /* \"erc721a/contracts/ERC721A.sol\":13462:13580  do {... */\n    tag_335:\n        /* \"erc721a/contracts/ERC721A.sol\":13492:13532  Transfer(address(0), to, updatedIndex++) */\n      mload(0x40)\n        /* \"erc721a/contracts/ERC721A.sol\":13517:13531  updatedIndex++ */\n      0x01\n      dup4\n      add\n      swap3\n      swap1\n      sub(shl(0xa0, 0x01), 0x01)\n        /* \"erc721a/contracts/ERC721A.sol\":13492:13532  Transfer(address(0), to, updatedIndex++) */\n      dup10\n      and\n      swap1\n        /* \"erc721a/contracts/ERC721A.sol\":13509:13510  0 */\n      0x00\n      swap1\n      0x00\n      dup1\n      mload\n      0x20\n      data_ada389e1fc24a8587c776340efb91b36e675792ab631816100d55df0b5cf3cbc\n      dup4\n      codecopy\n      dup2\n      mload\n      swap2\n      mstore\n        /* \"erc721a/contracts/ERC721A.sol\":13492:13532  Transfer(address(0), to, updatedIndex++) */\n      swap1\n        /* \"erc721a/contracts/ERC721A.sol\":13509:13510  0 */\n      dup3\n      swap1\n        /* \"erc721a/contracts/ERC721A.sol\":13492:13532  Transfer(address(0), to, updatedIndex++) */\n      log4\n        /* \"erc721a/contracts/ERC721A.sol\":13575:13578  end */\n      dup1\n        /* \"erc721a/contracts/ERC721A.sol\":13559:13571  updatedIndex */\n      dup3\n        /* \"erc721a/contracts/ERC721A.sol\":13559:13578  updatedIndex != end */\n      sub\n        /* \"erc721a/contracts/ERC721A.sol\":13462:13580  do {... */\n      tag_335\n      jumpi\n        /* \"erc721a/contracts/ERC721A.sol\":12966:13594  if (safe && to.isContract()) {... */\n    tag_334:\n      pop\n        /* \"erc721a/contracts/ERC721A.sol\":13607:13620  _currentIndex */\n      0x00\n        /* \"erc721a/contracts/ERC721A.sol\":13607:13635  _currentIndex = updatedIndex */\n      sstore\n        /* \"erc721a/contracts/ERC721A.sol\":13655:13715  _afterTokenTransfers(address(0), to, startTokenId, quantity) */\n      tag_260\n        /* \"contracts/ToonzRewardsCardV2.sol\":744:944  function giftCard(address[] calldata _recipients) public onlyOwner {... */\n      jump\n    tag_152:\n      dup3\n      dup1\n      sload\n      tag_339\n      swap1\n      tag_113\n      jump\t// in\n    tag_339:\n      swap1\n      0x00\n      mstore\n      keccak256(0x00, 0x20)\n      swap1\n      0x1f\n      add\n      0x20\n      swap1\n      div\n      dup2\n      add\n      swap3\n      dup3\n      tag_341\n      jumpi\n      0x00\n      dup6\n      sstore\n      jump(tag_344)\n    tag_341:\n      dup3\n      0x1f\n      lt\n      tag_342\n      jumpi\n      dup1\n      mload\n      not(0xff)\n      and\n      dup4\n      dup1\n      add\n      or\n      dup6\n      sstore\n      jump(tag_344)\n    tag_342:\n      dup3\n      dup1\n      add\n      0x01\n      add\n      dup6\n      sstore\n      dup3\n      iszero\n      tag_344\n      jumpi\n      swap2\n      dup3\n      add\n    tag_343:\n      dup3\n      dup2\n      gt\n      iszero\n      tag_344\n      jumpi\n      dup3\n      mload\n      dup3\n      sstore\n      swap2\n      0x20\n      add\n      swap2\n      swap1\n      0x01\n      add\n      swap1\n      jump(tag_343)\n    tag_344:\n      pop\n      tag_345\n      swap3\n      swap2\n      pop\n      tag_346\n      jump\t// in\n    tag_345:\n      pop\n      swap1\n      jump\t// out\n    tag_346:\n    tag_347:\n      dup1\n      dup3\n      gt\n      iszero\n      tag_345\n      jumpi\n      0x00\n      dup2\n      sstore\n      0x01\n      add\n      jump(tag_347)\n        /* \"#utility.yul\":14:145   */\n    tag_349:\n      not(sub(shl(0xe0, 0x01), 0x01))\n        /* \"#utility.yul\":88:120   */\n      dup2\n      and\n        /* \"#utility.yul\":78:121   */\n      dup2\n      eq\n        /* \"#utility.yul\":68:139   */\n      tag_234\n      jumpi\n        /* \"#utility.yul\":135:136   */\n      0x00\n        /* \"#utility.yul\":132:133   */\n      dup1\n        /* \"#utility.yul\":125:137   */\n      revert\n        /* \"#utility.yul\":150:395   */\n    tag_26:\n        /* \"#utility.yul\":208:214   */\n      0x00\n        /* \"#utility.yul\":261:263   */\n      0x20\n        /* \"#utility.yul\":249:258   */\n      dup3\n        /* \"#utility.yul\":240:247   */\n      dup5\n        /* \"#utility.yul\":236:259   */\n      sub\n        /* \"#utility.yul\":232:264   */\n      slt\n        /* \"#utility.yul\":229:281   */\n      iszero\n      tag_363\n      jumpi\n        /* \"#utility.yul\":277:278   */\n      0x00\n        /* \"#utility.yul\":274:275   */\n      dup1\n        /* \"#utility.yul\":267:279   */\n      revert\n        /* \"#utility.yul\":229:281   */\n    tag_363:\n        /* \"#utility.yul\":316:325   */\n      dup2\n        /* \"#utility.yul\":303:326   */\n      calldataload\n        /* \"#utility.yul\":335:365   */\n      tag_364\n        /* \"#utility.yul\":359:364   */\n      dup2\n        /* \"#utility.yul\":335:365   */\n      tag_349\n      jump\t// in\n    tag_364:\n        /* \"#utility.yul\":384:389   */\n      swap4\n        /* \"#utility.yul\":150:395   */\n      swap3\n      pop\n      pop\n      pop\n      jump\t// out\n        /* \"#utility.yul\":592:850   */\n    tag_350:\n        /* \"#utility.yul\":664:665   */\n      0x00\n        /* \"#utility.yul\":674:787   */\n    tag_367:\n        /* \"#utility.yul\":688:694   */\n      dup4\n        /* \"#utility.yul\":685:686   */\n      dup2\n        /* \"#utility.yul\":682:695   */\n      lt\n        /* \"#utility.yul\":674:787   */\n      iszero\n      tag_369\n      jumpi\n        /* \"#utility.yul\":764:775   */\n      dup2\n      dup2\n      add\n        /* \"#utility.yul\":758:776   */\n      mload\n        /* \"#utility.yul\":745:756   */\n      dup4\n      dup3\n      add\n        /* \"#utility.yul\":738:777   */\n      mstore\n        /* \"#utility.yul\":710:712   */\n      0x20\n        /* \"#utility.yul\":703:713   */\n      add\n        /* \"#utility.yul\":674:787   */\n      jump(tag_367)\n    tag_369:\n        /* \"#utility.yul\":805:811   */\n      dup4\n        /* \"#utility.yul\":802:803   */\n      dup2\n        /* \"#utility.yul\":799:812   */\n      gt\n        /* \"#utility.yul\":796:844   */\n      iszero\n      tag_176\n      jumpi\n      pop\n      pop\n        /* \"#utility.yul\":840:841   */\n      0x00\n        /* \"#utility.yul\":822:838   */\n      swap2\n      add\n        /* \"#utility.yul\":815:842   */\n      mstore\n        /* \"#utility.yul\":592:850   */\n      jump\t// out\n        /* \"#utility.yul\":855:1113   */\n    tag_351:\n        /* \"#utility.yul\":897:900   */\n      0x00\n        /* \"#utility.yul\":935:940   */\n      dup2\n        /* \"#utility.yul\":929:941   */\n      mload\n        /* \"#utility.yul\":962:968   */\n      dup1\n        /* \"#utility.yul\":957:960   */\n      dup5\n        /* \"#utility.yul\":950:969   */\n      mstore\n        /* \"#utility.yul\":978:1041   */\n      tag_372\n        /* \"#utility.yul\":1034:1040   */\n      dup2\n        /* \"#utility.yul\":1027:1031   */\n      0x20\n        /* \"#utility.yul\":1022:1025   */\n      dup7\n        /* \"#utility.yul\":1018:1032   */\n      add\n        /* \"#utility.yul\":1011:1015   */\n      0x20\n        /* \"#utility.yul\":1004:1009   */\n      dup7\n        /* \"#utility.yul\":1000:1016   */\n      add\n        /* \"#utility.yul\":978:1041   */\n      tag_350\n      jump\t// in\n    tag_372:\n        /* \"#utility.yul\":1095:1097   */\n      0x1f\n        /* \"#utility.yul\":1074:1089   */\n      add\n      not(0x1f)\n        /* \"#utility.yul\":1070:1099   */\n      and\n        /* \"#utility.yul\":1061:1100   */\n      swap3\n      swap1\n      swap3\n      add\n        /* \"#utility.yul\":1102:1106   */\n      0x20\n        /* \"#utility.yul\":1057:1107   */\n      add\n      swap3\n        /* \"#utility.yul\":855:1113   */\n      swap2\n      pop\n      pop\n      jump\t// out\n        /* \"#utility.yul\":1118:1338   */\n    tag_33:\n        /* \"#utility.yul\":1267:1269   */\n      0x20\n        /* \"#utility.yul\":1256:1265   */\n      dup2\n        /* \"#utility.yul\":1249:1270   */\n      mstore\n        /* \"#utility.yul\":1230:1234   */\n      0x00\n        /* \"#utility.yul\":1287:1332   */\n      tag_364\n        /* \"#utility.yul\":1328:1330   */\n      0x20\n        /* \"#utility.yul\":1317:1326   */\n      dup4\n        /* \"#utility.yul\":1313:1331   */\n      add\n        /* \"#utility.yul\":1305:1311   */\n      dup5\n        /* \"#utility.yul\":1287:1332   */\n      tag_351\n      jump\t// in\n        /* \"#utility.yul\":1343:1523   */\n    tag_36:\n        /* \"#utility.yul\":1402:1408   */\n      0x00\n        /* \"#utility.yul\":1455:1457   */\n      0x20\n        /* \"#utility.yul\":1443:1452   */\n      dup3\n        /* \"#utility.yul\":1434:1441   */\n      dup5\n        /* \"#utility.yul\":1430:1453   */\n      sub\n        /* \"#utility.yul\":1426:1458   */\n      slt\n        /* \"#utility.yul\":1423:1475   */\n      iszero\n      tag_376\n      jumpi\n        /* \"#utility.yul\":1471:1472   */\n      0x00\n        /* \"#utility.yul\":1468:1469   */\n      dup1\n        /* \"#utility.yul\":1461:1473   */\n      revert\n        /* \"#utility.yul\":1423:1475   */\n    tag_376:\n      pop\n        /* \"#utility.yul\":1494:1517   */\n      calldataload\n      swap2\n        /* \"#utility.yul\":1343:1523   */\n      swap1\n      pop\n      jump\t// out\n        /* \"#utility.yul\":1736:1909   */\n    tag_352:\n        /* \"#utility.yul\":1804:1824   */\n      dup1\n      calldataload\n      sub(shl(0xa0, 0x01), 0x01)\n        /* \"#utility.yul\":1853:1884   */\n      dup2\n      and\n        /* \"#utility.yul\":1843:1885   */\n      dup2\n      eq\n        /* \"#utility.yul\":1833:1903   */\n      tag_379\n      jumpi\n        /* \"#utility.yul\":1899:1900   */\n      0x00\n        /* \"#utility.yul\":1896:1897   */\n      dup1\n        /* \"#utility.yul\":1889:1901   */\n      revert\n        /* \"#utility.yul\":1833:1903   */\n    tag_379:\n        /* \"#utility.yul\":1736:1909   */\n      swap2\n      swap1\n      pop\n      jump\t// out\n        /* \"#utility.yul\":1914:2168   */\n    tag_42:\n        /* \"#utility.yul\":1982:1988   */\n      0x00\n        /* \"#utility.yul\":1990:1996   */\n      dup1\n        /* \"#utility.yul\":2043:2045   */\n      0x40\n        /* \"#utility.yul\":2031:2040   */\n      dup4\n        /* \"#utility.yul\":2022:2029   */\n      dup6\n        /* \"#utility.yul\":2018:2041   */\n      sub\n        /* \"#utility.yul\":2014:2046   */\n      slt\n        /* \"#utility.yul\":2011:2063   */\n      iszero\n      tag_381\n      jumpi\n        /* \"#utility.yul\":2059:2060   */\n      0x00\n        /* \"#utility.yul\":2056:2057   */\n      dup1\n        /* \"#utility.yul\":2049:2061   */\n      revert\n        /* \"#utility.yul\":2011:2063   */\n    tag_381:\n        /* \"#utility.yul\":2082:2111   */\n      tag_382\n        /* \"#utility.yul\":2101:2110   */\n      dup4\n        /* \"#utility.yul\":2082:2111   */\n      tag_352\n      jump\t// in\n    tag_382:\n        /* \"#utility.yul\":2072:2111   */\n      swap5\n        /* \"#utility.yul\":2158:2160   */\n      0x20\n        /* \"#utility.yul\":2143:2161   */\n      swap4\n      swap1\n      swap4\n      add\n        /* \"#utility.yul\":2130:2162   */\n      calldataload\n      swap4\n      pop\n      pop\n      pop\n        /* \"#utility.yul\":1914:2168   */\n      jump\t// out\n        /* \"#utility.yul\":2355:2683   */\n    tag_50:\n        /* \"#utility.yul\":2432:2438   */\n      0x00\n        /* \"#utility.yul\":2440:2446   */\n      dup1\n        /* \"#utility.yul\":2448:2454   */\n      0x00\n        /* \"#utility.yul\":2501:2503   */\n      0x60\n        /* \"#utility.yul\":2489:2498   */\n      dup5\n        /* \"#utility.yul\":2480:2487   */\n      dup7\n        /* \"#utility.yul\":2476:2499   */\n      sub\n        /* \"#utility.yul\":2472:2504   */\n      slt\n        /* \"#utility.yul\":2469:2521   */\n      iszero\n      tag_385\n      jumpi\n        /* \"#utility.yul\":2517:2518   */\n      0x00\n        /* \"#utility.yul\":2514:2515   */\n      dup1\n        /* \"#utility.yul\":2507:2519   */\n      revert\n        /* \"#utility.yul\":2469:2521   */\n    tag_385:\n        /* \"#utility.yul\":2540:2569   */\n      tag_386\n        /* \"#utility.yul\":2559:2568   */\n      dup5\n        /* \"#utility.yul\":2540:2569   */\n      tag_352\n      jump\t// in\n    tag_386:\n        /* \"#utility.yul\":2530:2569   */\n      swap3\n      pop\n        /* \"#utility.yul\":2588:2626   */\n      tag_387\n        /* \"#utility.yul\":2622:2624   */\n      0x20\n        /* \"#utility.yul\":2611:2620   */\n      dup6\n        /* \"#utility.yul\":2607:2625   */\n      add\n        /* \"#utility.yul\":2588:2626   */\n      tag_352\n      jump\t// in\n    tag_387:\n        /* \"#utility.yul\":2578:2626   */\n      swap2\n      pop\n        /* \"#utility.yul\":2673:2675   */\n      0x40\n        /* \"#utility.yul\":2662:2671   */\n      dup5\n        /* \"#utility.yul\":2658:2676   */\n      add\n        /* \"#utility.yul\":2645:2677   */\n      calldataload\n        /* \"#utility.yul\":2635:2677   */\n      swap1\n      pop\n        /* \"#utility.yul\":2355:2683   */\n      swap3\n      pop\n      swap3\n      pop\n      swap3\n      jump\t// out\n        /* \"#utility.yul\":2688:2815   */\n    tag_303:\n        /* \"#utility.yul\":2749:2759   */\n      0x4e487b71\n        /* \"#utility.yul\":2744:2747   */\n      0xe0\n        /* \"#utility.yul\":2740:2760   */\n      shl\n        /* \"#utility.yul\":2737:2738   */\n      0x00\n        /* \"#utility.yul\":2730:2761   */\n      mstore\n        /* \"#utility.yul\":2780:2784   */\n      0x41\n        /* \"#utility.yul\":2777:2778   */\n      0x04\n        /* \"#utility.yul\":2770:2785   */\n      mstore\n        /* \"#utility.yul\":2804:2808   */\n      0x24\n        /* \"#utility.yul\":2801:2802   */\n      0x00\n        /* \"#utility.yul\":2794:2809   */\n      revert\n        /* \"#utility.yul\":2820:3452   */\n    tag_353:\n        /* \"#utility.yul\":2885:2890   */\n      0x00\n      sub(shl(0x40, 0x01), 0x01)\n        /* \"#utility.yul\":2945:2959   */\n      dup1\n      dup5\n      gt\n        /* \"#utility.yul\":2942:2982   */\n      iszero\n      tag_391\n      jumpi\n        /* \"#utility.yul\":2962:2980   */\n      tag_391\n      tag_303\n      jump\t// in\n    tag_391:\n        /* \"#utility.yul\":3037:3039   */\n      0x40\n        /* \"#utility.yul\":3031:3040   */\n      mload\n        /* \"#utility.yul\":3005:3007   */\n      0x1f\n        /* \"#utility.yul\":3091:3106   */\n      dup6\n      add\n      not(0x1f)\n        /* \"#utility.yul\":3087:3111   */\n      swap1\n      dup2\n      and\n        /* \"#utility.yul\":3113:3115   */\n      0x3f\n        /* \"#utility.yul\":3083:3116   */\n      add\n        /* \"#utility.yul\":3079:3121   */\n      and\n        /* \"#utility.yul\":3067:3122   */\n      dup2\n      add\n      swap1\n        /* \"#utility.yul\":3137:3155   */\n      dup3\n      dup3\n      gt\n        /* \"#utility.yul\":3157:3179   */\n      dup2\n      dup4\n      lt\n        /* \"#utility.yul\":3134:3180   */\n      or\n        /* \"#utility.yul\":3131:3203   */\n      iszero\n      tag_393\n      jumpi\n        /* \"#utility.yul\":3183:3201   */\n      tag_393\n      tag_303\n      jump\t// in\n    tag_393:\n        /* \"#utility.yul\":3223:3233   */\n      dup2\n        /* \"#utility.yul\":3219:3221   */\n      0x40\n        /* \"#utility.yul\":3212:3234   */\n      mstore\n        /* \"#utility.yul\":3252:3258   */\n      dup1\n        /* \"#utility.yul\":3243:3258   */\n      swap4\n      pop\n        /* \"#utility.yul\":3282:3288   */\n      dup6\n        /* \"#utility.yul\":3274:3280   */\n      dup2\n        /* \"#utility.yul\":3267:3289   */\n      mstore\n        /* \"#utility.yul\":3322:3325   */\n      dup7\n        /* \"#utility.yul\":3313:3319   */\n      dup7\n        /* \"#utility.yul\":3308:3311   */\n      dup7\n        /* \"#utility.yul\":3304:3320   */\n      add\n        /* \"#utility.yul\":3301:3326   */\n      gt\n        /* \"#utility.yul\":3298:3343   */\n      iszero\n      tag_394\n      jumpi\n        /* \"#utility.yul\":3339:3340   */\n      0x00\n        /* \"#utility.yul\":3336:3337   */\n      dup1\n        /* \"#utility.yul\":3329:3341   */\n      revert\n        /* \"#utility.yul\":3298:3343   */\n    tag_394:\n        /* \"#utility.yul\":3389:3395   */\n      dup6\n        /* \"#utility.yul\":3384:3387   */\n      dup6\n        /* \"#utility.yul\":3377:3381   */\n      0x20\n        /* \"#utility.yul\":3369:3375   */\n      dup4\n        /* \"#utility.yul\":3365:3382   */\n      add\n        /* \"#utility.yul\":3352:3396   */\n      calldatacopy\n        /* \"#utility.yul\":3444:3445   */\n      0x00\n        /* \"#utility.yul\":3437:3441   */\n      0x20\n        /* \"#utility.yul\":3428:3434   */\n      dup8\n        /* \"#utility.yul\":3420:3426   */\n      dup4\n        /* \"#utility.yul\":3416:3435   */\n      add\n        /* \"#utility.yul\":3412:3442   */\n      add\n        /* \"#utility.yul\":3405:3446   */\n      mstore\n      pop\n      pop\n      pop\n        /* \"#utility.yul\":2820:3452   */\n      swap4\n      swap3\n      pop\n      pop\n      pop\n      jump\t// out\n        /* \"#utility.yul\":3457:3679   */\n    tag_354:\n        /* \"#utility.yul\":3500:3505   */\n      0x00\n        /* \"#utility.yul\":3553:3556   */\n      dup3\n        /* \"#utility.yul\":3546:3550   */\n      0x1f\n        /* \"#utility.yul\":3538:3544   */\n      dup4\n        /* \"#utility.yul\":3534:3551   */\n      add\n        /* \"#utility.yul\":3530:3557   */\n      slt\n        /* \"#utility.yul\":3520:3575   */\n      tag_396\n      jumpi\n        /* \"#utility.yul\":3571:3572   */\n      0x00\n        /* \"#utility.yul\":3568:3569   */\n      dup1\n        /* \"#utility.yul\":3561:3573   */\n      revert\n        /* \"#utility.yul\":3520:3575   */\n    tag_396:\n        /* \"#utility.yul\":3593:3673   */\n      tag_364\n        /* \"#utility.yul\":3669:3672   */\n      dup4\n        /* \"#utility.yul\":3660:3666   */\n      dup4\n        /* \"#utility.yul\":3647:3667   */\n      calldataload\n        /* \"#utility.yul\":3640:3644   */\n      0x20\n        /* \"#utility.yul\":3632:3638   */\n      dup6\n        /* \"#utility.yul\":3628:3645   */\n      add\n        /* \"#utility.yul\":3593:3673   */\n      tag_353\n      jump\t// in\n        /* \"#utility.yul\":3684:4227   */\n    tag_61:\n        /* \"#utility.yul\":3772:3778   */\n      0x00\n        /* \"#utility.yul\":3780:3786   */\n      dup1\n        /* \"#utility.yul\":3833:3835   */\n      0x40\n        /* \"#utility.yul\":3821:3830   */\n      dup4\n        /* \"#utility.yul\":3812:3819   */\n      dup6\n        /* \"#utility.yul\":3808:3831   */\n      sub\n        /* \"#utility.yul\":3804:3836   */\n      slt\n        /* \"#utility.yul\":3801:3853   */\n      iszero\n      tag_399\n      jumpi\n        /* \"#utility.yul\":3849:3850   */\n      0x00\n        /* \"#utility.yul\":3846:3847   */\n      dup1\n        /* \"#utility.yul\":3839:3851   */\n      revert\n        /* \"#utility.yul\":3801:3853   */\n    tag_399:\n        /* \"#utility.yul\":3876:3899   */\n      dup3\n      calldataload\n      sub(shl(0x40, 0x01), 0x01)\n        /* \"#utility.yul\":3948:3962   */\n      dup1\n      dup3\n      gt\n        /* \"#utility.yul\":3945:3979   */\n      iszero\n      tag_400\n      jumpi\n        /* \"#utility.yul\":3975:3976   */\n      0x00\n        /* \"#utility.yul\":3972:3973   */\n      dup1\n        /* \"#utility.yul\":3965:3977   */\n      revert\n        /* \"#utility.yul\":3945:3979   */\n    tag_400:\n        /* \"#utility.yul\":3998:4048   */\n      tag_401\n        /* \"#utility.yul\":4040:4047   */\n      dup7\n        /* \"#utility.yul\":4031:4037   */\n      dup4\n        /* \"#utility.yul\":4020:4029   */\n      dup8\n        /* \"#utility.yul\":4016:4038   */\n      add\n        /* \"#utility.yul\":3998:4048   */\n      tag_354\n      jump\t// in\n    tag_401:\n        /* \"#utility.yul\":3988:4048   */\n      swap4\n      pop\n        /* \"#utility.yul\":4101:4103   */\n      0x20\n        /* \"#utility.yul\":4090:4099   */\n      dup6\n        /* \"#utility.yul\":4086:4104   */\n      add\n        /* \"#utility.yul\":4073:4105   */\n      calldataload\n        /* \"#utility.yul\":4057:4105   */\n      swap2\n      pop\n        /* \"#utility.yul\":4130:4132   */\n      dup1\n        /* \"#utility.yul\":4120:4128   */\n      dup3\n        /* \"#utility.yul\":4117:4133   */\n      gt\n        /* \"#utility.yul\":4114:4150   */\n      iszero\n      tag_402\n      jumpi\n        /* \"#utility.yul\":4146:4147   */\n      0x00\n        /* \"#utility.yul\":4143:4144   */\n      dup1\n        /* \"#utility.yul\":4136:4148   */\n      revert\n        /* \"#utility.yul\":4114:4150   */\n    tag_402:\n      pop\n        /* \"#utility.yul\":4169:4221   */\n      tag_403\n        /* \"#utility.yul\":4213:4220   */\n      dup6\n        /* \"#utility.yul\":4202:4210   */\n      dup3\n        /* \"#utility.yul\":4191:4200   */\n      dup7\n        /* \"#utility.yul\":4187:4211   */\n      add\n        /* \"#utility.yul\":4169:4221   */\n      tag_354\n      jump\t// in\n    tag_403:\n        /* \"#utility.yul\":4159:4221   */\n      swap2\n      pop\n      pop\n        /* \"#utility.yul\":3684:4227   */\n      swap3\n      pop\n      swap3\n      swap1\n      pop\n      jump\t// out\n        /* \"#utility.yul\":4232:4418   */\n    tag_68:\n        /* \"#utility.yul\":4291:4297   */\n      0x00\n        /* \"#utility.yul\":4344:4346   */\n      0x20\n        /* \"#utility.yul\":4332:4341   */\n      dup3\n        /* \"#utility.yul\":4323:4330   */\n      dup5\n        /* \"#utility.yul\":4319:4342   */\n      sub\n        /* \"#utility.yul\":4315:4347   */\n      slt\n        /* \"#utility.yul\":4312:4364   */\n      iszero\n      tag_405\n      jumpi\n        /* \"#utility.yul\":4360:4361   */\n      0x00\n        /* \"#utility.yul\":4357:4358   */\n      dup1\n        /* \"#utility.yul\":4350:4362   */\n      revert\n        /* \"#utility.yul\":4312:4364   */\n    tag_405:\n        /* \"#utility.yul\":4383:4412   */\n      tag_364\n        /* \"#utility.yul\":4402:4411   */\n      dup3\n        /* \"#utility.yul\":4383:4412   */\n      tag_352\n      jump\t// in\n        /* \"#utility.yul\":4423:5038   */\n    tag_75:\n        /* \"#utility.yul\":4509:4515   */\n      0x00\n        /* \"#utility.yul\":4517:4523   */\n      dup1\n        /* \"#utility.yul\":4570:4572   */\n      0x20\n        /* \"#utility.yul\":4558:4567   */\n      dup4\n        /* \"#utility.yul\":4549:4556   */\n      dup6\n        /* \"#utility.yul\":4545:4568   */\n      sub\n        /* \"#utility.yul\":4541:4573   */\n      slt\n        /* \"#utility.yul\":4538:4590   */\n      iszero\n      tag_408\n      jumpi\n        /* \"#utility.yul\":4586:4587   */\n      0x00\n        /* \"#utility.yul\":4583:4584   */\n      dup1\n        /* \"#utility.yul\":4576:4588   */\n      revert\n        /* \"#utility.yul\":4538:4590   */\n    tag_408:\n        /* \"#utility.yul\":4613:4636   */\n      dup3\n      calldataload\n      sub(shl(0x40, 0x01), 0x01)\n        /* \"#utility.yul\":4685:4699   */\n      dup1\n      dup3\n      gt\n        /* \"#utility.yul\":4682:4716   */\n      iszero\n      tag_409\n      jumpi\n        /* \"#utility.yul\":4712:4713   */\n      0x00\n        /* \"#utility.yul\":4709:4710   */\n      dup1\n        /* \"#utility.yul\":4702:4714   */\n      revert\n        /* \"#utility.yul\":4682:4716   */\n    tag_409:\n        /* \"#utility.yul\":4750:4756   */\n      dup2\n        /* \"#utility.yul\":4739:4748   */\n      dup6\n        /* \"#utility.yul\":4735:4757   */\n      add\n        /* \"#utility.yul\":4725:4757   */\n      swap2\n      pop\n        /* \"#utility.yul\":4795:4802   */\n      dup6\n        /* \"#utility.yul\":4788:4792   */\n      0x1f\n        /* \"#utility.yul\":4784:4786   */\n      dup4\n        /* \"#utility.yul\":4780:4793   */\n      add\n        /* \"#utility.yul\":4776:4803   */\n      slt\n        /* \"#utility.yul\":4766:4821   */\n      tag_410\n      jumpi\n        /* \"#utility.yul\":4817:4818   */\n      0x00\n        /* \"#utility.yul\":4814:4815   */\n      dup1\n        /* \"#utility.yul\":4807:4819   */\n      revert\n        /* \"#utility.yul\":4766:4821   */\n    tag_410:\n        /* \"#utility.yul\":4857:4859   */\n      dup2\n        /* \"#utility.yul\":4844:4860   */\n      calldataload\n        /* \"#utility.yul\":4883:4885   */\n      dup2\n        /* \"#utility.yul\":4875:4881   */\n      dup2\n        /* \"#utility.yul\":4872:4886   */\n      gt\n        /* \"#utility.yul\":4869:4903   */\n      iszero\n      tag_411\n      jumpi\n        /* \"#utility.yul\":4899:4900   */\n      0x00\n        /* \"#utility.yul\":4896:4897   */\n      dup1\n        /* \"#utility.yul\":4889:4901   */\n      revert\n        /* \"#utility.yul\":4869:4903   */\n    tag_411:\n        /* \"#utility.yul\":4952:4959   */\n      dup7\n        /* \"#utility.yul\":4947:4949   */\n      0x20\n        /* \"#utility.yul\":4937:4943   */\n      dup3\n        /* \"#utility.yul\":4934:4935   */\n      0x05\n        /* \"#utility.yul\":4930:4944   */\n      shl\n        /* \"#utility.yul\":4926:4928   */\n      dup6\n        /* \"#utility.yul\":4922:4945   */\n      add\n        /* \"#utility.yul\":4918:4950   */\n      add\n        /* \"#utility.yul\":4915:4960   */\n      gt\n        /* \"#utility.yul\":4912:4977   */\n      iszero\n      tag_412\n      jumpi\n        /* \"#utility.yul\":4973:4974   */\n      0x00\n        /* \"#utility.yul\":4970:4971   */\n      dup1\n        /* \"#utility.yul\":4963:4975   */\n      revert\n        /* \"#utility.yul\":4912:4977   */\n    tag_412:\n        /* \"#utility.yul\":5004:5006   */\n      0x20\n        /* \"#utility.yul\":4996:5007   */\n      swap3\n      swap1\n      swap3\n      add\n      swap7\n        /* \"#utility.yul\":5026:5032   */\n      swap2\n      swap6\n      pop\n        /* \"#utility.yul\":4423:5038   */\n      swap1\n      swap4\n      pop\n      pop\n      pop\n      pop\n      jump\t// out\n        /* \"#utility.yul\":5043:5390   */\n    tag_85:\n        /* \"#utility.yul\":5108:5114   */\n      0x00\n        /* \"#utility.yul\":5116:5122   */\n      dup1\n        /* \"#utility.yul\":5169:5171   */\n      0x40\n        /* \"#utility.yul\":5157:5166   */\n      dup4\n        /* \"#utility.yul\":5148:5155   */\n      dup6\n        /* \"#utility.yul\":5144:5167   */\n      sub\n        /* \"#utility.yul\":5140:5172   */\n      slt\n        /* \"#utility.yul\":5137:5189   */\n      iszero\n      tag_414\n      jumpi\n        /* \"#utility.yul\":5185:5186   */\n      0x00\n        /* \"#utility.yul\":5182:5183   */\n      dup1\n        /* \"#utility.yul\":5175:5187   */\n      revert\n        /* \"#utility.yul\":5137:5189   */\n    tag_414:\n        /* \"#utility.yul\":5208:5237   */\n      tag_415\n        /* \"#utility.yul\":5227:5236   */\n      dup4\n        /* \"#utility.yul\":5208:5237   */\n      tag_352\n      jump\t// in\n    tag_415:\n        /* \"#utility.yul\":5198:5237   */\n      swap2\n      pop\n        /* \"#utility.yul\":5287:5289   */\n      0x20\n        /* \"#utility.yul\":5276:5285   */\n      dup4\n        /* \"#utility.yul\":5272:5290   */\n      add\n        /* \"#utility.yul\":5259:5291   */\n      calldataload\n        /* \"#utility.yul\":5334:5339   */\n      dup1\n        /* \"#utility.yul\":5327:5340   */\n      iszero\n        /* \"#utility.yul\":5320:5341   */\n      iszero\n        /* \"#utility.yul\":5313:5318   */\n      dup2\n        /* \"#utility.yul\":5310:5342   */\n      eq\n        /* \"#utility.yul\":5300:5360   */\n      tag_416\n      jumpi\n        /* \"#utility.yul\":5356:5357   */\n      0x00\n        /* \"#utility.yul\":5353:5354   */\n      dup1\n        /* \"#utility.yul\":5346:5358   */\n      revert\n        /* \"#utility.yul\":5300:5360   */\n    tag_416:\n        /* \"#utility.yul\":5379:5384   */\n      dup1\n        /* \"#utility.yul\":5369:5384   */\n      swap2\n      pop\n      pop\n        /* \"#utility.yul\":5043:5390   */\n      swap3\n      pop\n      swap3\n      swap1\n      pop\n      jump\t// out\n        /* \"#utility.yul\":5395:6062   */\n    tag_89:\n        /* \"#utility.yul\":5490:5496   */\n      0x00\n        /* \"#utility.yul\":5498:5504   */\n      dup1\n        /* \"#utility.yul\":5506:5512   */\n      0x00\n        /* \"#utility.yul\":5514:5520   */\n      dup1\n        /* \"#utility.yul\":5567:5570   */\n      0x80\n        /* \"#utility.yul\":5555:5564   */\n      dup6\n        /* \"#utility.yul\":5546:5553   */\n      dup8\n        /* \"#utility.yul\":5542:5565   */\n      sub\n        /* \"#utility.yul\":5538:5571   */\n      slt\n        /* \"#utility.yul\":5535:5588   */\n      iszero\n      tag_418\n      jumpi\n        /* \"#utility.yul\":5584:5585   */\n      0x00\n        /* \"#utility.yul\":5581:5582   */\n      dup1\n        /* \"#utility.yul\":5574:5586   */\n      revert\n        /* \"#utility.yul\":5535:5588   */\n    tag_418:\n        /* \"#utility.yul\":5607:5636   */\n      tag_419\n        /* \"#utility.yul\":5626:5635   */\n      dup6\n        /* \"#utility.yul\":5607:5636   */\n      tag_352\n      jump\t// in\n    tag_419:\n        /* \"#utility.yul\":5597:5636   */\n      swap4\n      pop\n        /* \"#utility.yul\":5655:5693   */\n      tag_420\n        /* \"#utility.yul\":5689:5691   */\n      0x20\n        /* \"#utility.yul\":5678:5687   */\n      dup7\n        /* \"#utility.yul\":5674:5692   */\n      add\n        /* \"#utility.yul\":5655:5693   */\n      tag_352\n      jump\t// in\n    tag_420:\n        /* \"#utility.yul\":5645:5693   */\n      swap3\n      pop\n        /* \"#utility.yul\":5740:5742   */\n      0x40\n        /* \"#utility.yul\":5725:5743   */\n      dup6\n      add\n        /* \"#utility.yul\":5712:5744   */\n      calldataload\n      swap2\n      pop\n        /* \"#utility.yul\":5795:5797   */\n      0x60\n        /* \"#utility.yul\":5780:5798   */\n      dup6\n      add\n        /* \"#utility.yul\":5767:5799   */\n      calldataload\n      sub(shl(0x40, 0x01), 0x01)\n        /* \"#utility.yul\":5811:5841   */\n      dup2\n      gt\n        /* \"#utility.yul\":5808:5858   */\n      iszero\n      tag_421\n      jumpi\n        /* \"#utility.yul\":5854:5855   */\n      0x00\n        /* \"#utility.yul\":5851:5852   */\n      dup1\n        /* \"#utility.yul\":5844:5856   */\n      revert\n        /* \"#utility.yul\":5808:5858   */\n    tag_421:\n        /* \"#utility.yul\":5877:5899   */\n      dup6\n      add\n        /* \"#utility.yul\":5930:5934   */\n      0x1f\n        /* \"#utility.yul\":5922:5935   */\n      dup2\n      add\n        /* \"#utility.yul\":5918:5945   */\n      dup8\n      sgt\n        /* \"#utility.yul\":5908:5963   */\n      tag_422\n      jumpi\n        /* \"#utility.yul\":5959:5960   */\n      0x00\n        /* \"#utility.yul\":5956:5957   */\n      dup1\n        /* \"#utility.yul\":5949:5961   */\n      revert\n        /* \"#utility.yul\":5908:5963   */\n    tag_422:\n        /* \"#utility.yul\":5982:6056   */\n      tag_423\n        /* \"#utility.yul\":6048:6055   */\n      dup8\n        /* \"#utility.yul\":6043:6045   */\n      dup3\n        /* \"#utility.yul\":6030:6046   */\n      calldataload\n        /* \"#utility.yul\":6025:6027   */\n      0x20\n        /* \"#utility.yul\":6021:6023   */\n      dup5\n        /* \"#utility.yul\":6017:6028   */\n      add\n        /* \"#utility.yul\":5982:6056   */\n      tag_353\n      jump\t// in\n    tag_423:\n        /* \"#utility.yul\":5972:6056   */\n      swap2\n      pop\n      pop\n        /* \"#utility.yul\":5395:6062   */\n      swap3\n      swap6\n      swap2\n      swap5\n      pop\n      swap3\n      pop\n      jump\t// out\n        /* \"#utility.yul\":6067:6327   */\n    tag_100:\n        /* \"#utility.yul\":6135:6141   */\n      0x00\n        /* \"#utility.yul\":6143:6149   */\n      dup1\n        /* \"#utility.yul\":6196:6198   */\n      0x40\n        /* \"#utility.yul\":6184:6193   */\n      dup4\n        /* \"#utility.yul\":6175:6182   */\n      dup6\n        /* \"#utility.yul\":6171:6194   */\n      sub\n        /* \"#utility.yul\":6167:6199   */\n      slt\n        /* \"#utility.yul\":6164:6216   */\n      iszero\n      tag_425\n      jumpi\n        /* \"#utility.yul\":6212:6213   */\n      0x00\n        /* \"#utility.yul\":6209:6210   */\n      dup1\n        /* \"#utility.yul\":6202:6214   */\n      revert\n        /* \"#utility.yul\":6164:6216   */\n    tag_425:\n        /* \"#utility.yul\":6235:6264   */\n      tag_426\n        /* \"#utility.yul\":6254:6263   */\n      dup4\n        /* \"#utility.yul\":6235:6264   */\n      tag_352\n      jump\t// in\n    tag_426:\n        /* \"#utility.yul\":6225:6264   */\n      swap2\n      pop\n        /* \"#utility.yul\":6283:6321   */\n      tag_427\n        /* \"#utility.yul\":6317:6319   */\n      0x20\n        /* \"#utility.yul\":6306:6315   */\n      dup5\n        /* \"#utility.yul\":6302:6320   */\n      add\n        /* \"#utility.yul\":6283:6321   */\n      tag_352\n      jump\t// in\n    tag_427:\n        /* \"#utility.yul\":6273:6321   */\n      swap1\n      pop\n        /* \"#utility.yul\":6067:6327   */\n      swap3\n      pop\n      swap3\n      swap1\n      pop\n      jump\t// out\n        /* \"#utility.yul\":6332:6712   */\n    tag_113:\n        /* \"#utility.yul\":6411:6412   */\n      0x01\n        /* \"#utility.yul\":6407:6419   */\n      dup2\n      dup2\n      shr\n      swap1\n        /* \"#utility.yul\":6454:6466   */\n      dup3\n      and\n      dup1\n        /* \"#utility.yul\":6475:6536   */\n      tag_429\n      jumpi\n        /* \"#utility.yul\":6529:6533   */\n      0x7f\n        /* \"#utility.yul\":6521:6527   */\n      dup3\n        /* \"#utility.yul\":6517:6534   */\n      and\n        /* \"#utility.yul\":6507:6534   */\n      swap2\n      pop\n        /* \"#utility.yul\":6475:6536   */\n    tag_429:\n        /* \"#utility.yul\":6582:6584   */\n      0x20\n        /* \"#utility.yul\":6574:6580   */\n      dup3\n        /* \"#utility.yul\":6571:6585   */\n      lt\n        /* \"#utility.yul\":6551:6569   */\n      dup2\n        /* \"#utility.yul\":6548:6586   */\n      sub\n        /* \"#utility.yul\":6545:6706   */\n      tag_430\n      jumpi\n        /* \"#utility.yul\":6628:6638   */\n      0x4e487b71\n        /* \"#utility.yul\":6623:6626   */\n      0xe0\n        /* \"#utility.yul\":6619:6639   */\n      shl\n        /* \"#utility.yul\":6616:6617   */\n      0x00\n        /* \"#utility.yul\":6609:6640   */\n      mstore\n        /* \"#utility.yul\":6663:6667   */\n      0x22\n        /* \"#utility.yul\":6660:6661   */\n      0x04\n        /* \"#utility.yul\":6653:6668   */\n      mstore\n        /* \"#utility.yul\":6691:6695   */\n      0x24\n        /* \"#utility.yul\":6688:6689   */\n      0x00\n        /* \"#utility.yul\":6681:6696   */\n      revert\n        /* \"#utility.yul\":6545:6706   */\n    tag_430:\n      pop\n        /* \"#utility.yul\":6332:6712   */\n      swap2\n      swap1\n      pop\n      jump\t// out\n        /* \"#utility.yul\":6717:7073   */\n    tag_149:\n        /* \"#utility.yul\":6919:6921   */\n      0x20\n        /* \"#utility.yul\":6901:6922   */\n      dup1\n      dup3\n      mstore\n        /* \"#utility.yul\":6938:6956   */\n      dup2\n      dup2\n      add\n        /* \"#utility.yul\":6931:6961   */\n      mstore\n        /* \"#utility.yul\":6997:7031   */\n      0x4f776e61626c653a2063616c6c6572206973206e6f7420746865206f776e6572\n        /* \"#utility.yul\":6992:6994   */\n      0x40\n        /* \"#utility.yul\":6977:6995   */\n      dup3\n      add\n        /* \"#utility.yul\":6970:7032   */\n      mstore\n        /* \"#utility.yul\":7064:7066   */\n      0x60\n        /* \"#utility.yul\":7049:7067   */\n      add\n      swap1\n        /* \"#utility.yul\":6717:7073   */\n      jump\t// out\n        /* \"#utility.yul\":7078:7205   */\n    tag_181:\n        /* \"#utility.yul\":7139:7149   */\n      0x4e487b71\n        /* \"#utility.yul\":7134:7137   */\n      0xe0\n        /* \"#utility.yul\":7130:7150   */\n      shl\n        /* \"#utility.yul\":7127:7128   */\n      0x00\n        /* \"#utility.yul\":7120:7151   */\n      mstore\n        /* \"#utility.yul\":7170:7174   */\n      0x32\n        /* \"#utility.yul\":7167:7168   */\n      0x04\n        /* \"#utility.yul\":7160:7175   */\n      mstore\n        /* \"#utility.yul\":7194:7198   */\n      0x24\n        /* \"#utility.yul\":7191:7192   */\n      0x00\n        /* \"#utility.yul\":7184:7199   */\n      revert\n        /* \"#utility.yul\":7210:7337   */\n    tag_355:\n        /* \"#utility.yul\":7271:7281   */\n      0x4e487b71\n        /* \"#utility.yul\":7266:7269   */\n      0xe0\n        /* \"#utility.yul\":7262:7282   */\n      shl\n        /* \"#utility.yul\":7259:7260   */\n      0x00\n        /* \"#utility.yul\":7252:7283   */\n      mstore\n        /* \"#utility.yul\":7302:7306   */\n      0x11\n        /* \"#utility.yul\":7299:7300   */\n      0x04\n        /* \"#utility.yul\":7292:7307   */\n      mstore\n        /* \"#utility.yul\":7326:7330   */\n      0x24\n        /* \"#utility.yul\":7323:7324   */\n      0x00\n        /* \"#utility.yul\":7316:7331   */\n      revert\n        /* \"#utility.yul\":7342:7477   */\n    tag_185:\n        /* \"#utility.yul\":7381:7384   */\n      0x00\n        /* \"#utility.yul\":7402:7419   */\n      0x01\n      dup3\n      add\n        /* \"#utility.yul\":7399:7442   */\n      tag_436\n      jumpi\n        /* \"#utility.yul\":7422:7440   */\n      tag_436\n      tag_355\n      jump\t// in\n    tag_436:\n      pop\n        /* \"#utility.yul\":7469:7470   */\n      0x01\n        /* \"#utility.yul\":7458:7471   */\n      add\n      swap1\n        /* \"#utility.yul\":7342:7477   */\n      jump\t// out\n        /* \"#utility.yul\":8024:8997   */\n    tag_357:\n        /* \"#utility.yul\":8109:8121   */\n      dup1\n      sload\n        /* \"#utility.yul\":8074:8077   */\n      0x00\n      swap1\n        /* \"#utility.yul\":8164:8165   */\n      0x01\n        /* \"#utility.yul\":8184:8202   */\n      dup2\n      dup2\n      shr\n      swap1\n        /* \"#utility.yul\":8237:8255   */\n      dup1\n      dup4\n      and\n      dup1\n        /* \"#utility.yul\":8264:8325   */\n      tag_440\n      jumpi\n        /* \"#utility.yul\":8318:8322   */\n      0x7f\n        /* \"#utility.yul\":8310:8316   */\n      dup4\n        /* \"#utility.yul\":8306:8323   */\n      and\n        /* \"#utility.yul\":8296:8323   */\n      swap3\n      pop\n        /* \"#utility.yul\":8264:8325   */\n    tag_440:\n        /* \"#utility.yul\":8344:8346   */\n      0x20\n        /* \"#utility.yul\":8392:8394   */\n      dup1\n        /* \"#utility.yul\":8384:8390   */\n      dup5\n        /* \"#utility.yul\":8381:8395   */\n      lt\n        /* \"#utility.yul\":8361:8379   */\n      dup3\n        /* \"#utility.yul\":8358:8396   */\n      sub\n        /* \"#utility.yul\":8355:8516   */\n      tag_441\n      jumpi\n        /* \"#utility.yul\":8438:8448   */\n      0x4e487b71\n        /* \"#utility.yul\":8433:8436   */\n      0xe0\n        /* \"#utility.yul\":8429:8449   */\n      shl\n        /* \"#utility.yul\":8426:8427   */\n      0x00\n        /* \"#utility.yul\":8419:8450   */\n      mstore\n        /* \"#utility.yul\":8473:8477   */\n      0x22\n        /* \"#utility.yul\":8470:8471   */\n      0x04\n        /* \"#utility.yul\":8463:8478   */\n      mstore\n        /* \"#utility.yul\":8501:8505   */\n      0x24\n        /* \"#utility.yul\":8498:8499   */\n      0x00\n        /* \"#utility.yul\":8491:8506   */\n      revert\n        /* \"#utility.yul\":8355:8516   */\n    tag_441:\n        /* \"#utility.yul\":8532:8550   */\n      dup2\n        /* \"#utility.yul\":8559:8663   */\n      dup1\n      iszero\n      tag_443\n      jumpi\n        /* \"#utility.yul\":8677:8678   */\n      0x01\n        /* \"#utility.yul\":8672:8991   */\n      dup2\n      eq\n      tag_444\n      jumpi\n        /* \"#utility.yul\":8525:8991   */\n      jump(tag_442)\n        /* \"#utility.yul\":8559:8663   */\n    tag_443:\n      not(0xff)\n        /* \"#utility.yul\":8592:8616   */\n      dup7\n      and\n        /* \"#utility.yul\":8580:8617   */\n      dup10\n      mstore\n        /* \"#utility.yul\":8637:8653   */\n      dup5\n      dup10\n      add\n      swap7\n      pop\n        /* \"#utility.yul\":8559:8663   */\n      jump(tag_442)\n        /* \"#utility.yul\":8672:8991   */\n    tag_444:\n        /* \"#utility.yul\":7971:7972   */\n      0x00\n        /* \"#utility.yul\":7964:7978   */\n      dup9\n      dup2\n      mstore\n        /* \"#utility.yul\":8008:8012   */\n      0x20\n        /* \"#utility.yul\":7995:8013   */\n      swap1\n      keccak256\n        /* \"#utility.yul\":8766:8767   */\n      0x00\n        /* \"#utility.yul\":8780:8945   */\n    tag_446:\n        /* \"#utility.yul\":8794:8800   */\n      dup7\n        /* \"#utility.yul\":8791:8792   */\n      dup2\n        /* \"#utility.yul\":8788:8801   */\n      lt\n        /* \"#utility.yul\":8780:8945   */\n      iszero\n      tag_448\n      jumpi\n        /* \"#utility.yul\":8872:8886   */\n      dup2\n      sload\n        /* \"#utility.yul\":8859:8870   */\n      dup12\n      dup3\n      add\n        /* \"#utility.yul\":8852:8887   */\n      mstore\n        /* \"#utility.yul\":8915:8931   */\n      swap1\n      dup6\n      add\n      swap1\n        /* \"#utility.yul\":8809:8819   */\n      dup4\n      add\n        /* \"#utility.yul\":8780:8945   */\n      jump(tag_446)\n    tag_448:\n        /* \"#utility.yul\":8784:8787   */\n      pop\n      pop\n        /* \"#utility.yul\":8974:8980   */\n      dup5\n        /* \"#utility.yul\":8969:8972   */\n      dup10\n        /* \"#utility.yul\":8965:8981   */\n      add\n        /* \"#utility.yul\":8958:8981   */\n      swap7\n      pop\n        /* \"#utility.yul\":8525:8991   */\n    tag_442:\n      pop\n      pop\n      pop\n      pop\n      pop\n      pop\n        /* \"#utility.yul\":8024:8997   */\n      swap3\n      swap2\n      pop\n      pop\n      jump\t// out\n        /* \"#utility.yul\":9002:9458   */\n    tag_223:\n        /* \"#utility.yul\":9223:9226   */\n      0x00\n        /* \"#utility.yul\":9251:9289   */\n      tag_450\n        /* \"#utility.yul\":9285:9288   */\n      dup3\n        /* \"#utility.yul\":9277:9283   */\n      dup7\n        /* \"#utility.yul\":9251:9289   */\n      tag_357\n      jump\t// in\n    tag_450:\n        /* \"#utility.yul\":9318:9324   */\n      dup5\n        /* \"#utility.yul\":9312:9325   */\n      mload\n        /* \"#utility.yul\":9334:9386   */\n      tag_451\n        /* \"#utility.yul\":9379:9385   */\n      dup2\n        /* \"#utility.yul\":9375:9377   */\n      dup4\n        /* \"#utility.yul\":9368:9372   */\n      0x20\n        /* \"#utility.yul\":9360:9366   */\n      dup10\n        /* \"#utility.yul\":9356:9373   */\n      add\n        /* \"#utility.yul\":9334:9386   */\n      tag_350\n      jump\t// in\n    tag_451:\n        /* \"#utility.yul\":9402:9452   */\n      tag_452\n        /* \"#utility.yul\":9444:9450   */\n      dup2\n        /* \"#utility.yul\":9440:9442   */\n      dup4\n        /* \"#utility.yul\":9436:9451   */\n      add\n        /* \"#utility.yul\":9428:9434   */\n      dup7\n        /* \"#utility.yul\":9402:9452   */\n      tag_357\n      jump\t// in\n    tag_452:\n        /* \"#utility.yul\":9395:9452   */\n      swap8\n        /* \"#utility.yul\":9002:9458   */\n      swap7\n      pop\n      pop\n      pop\n      pop\n      pop\n      pop\n      pop\n      jump\t// out\n        /* \"#utility.yul\":9870:10359   */\n    tag_281:\n      sub(shl(0xa0, 0x01), 0x01)\n        /* \"#utility.yul\":10139:10154   */\n      dup6\n      dup2\n      and\n        /* \"#utility.yul\":10121:10155   */\n      dup3\n      mstore\n        /* \"#utility.yul\":10191:10206   */\n      dup5\n      and\n        /* \"#utility.yul\":10186:10188   */\n      0x20\n        /* \"#utility.yul\":10171:10189   */\n      dup3\n      add\n        /* \"#utility.yul\":10164:10207   */\n      mstore\n        /* \"#utility.yul\":10238:10240   */\n      0x40\n        /* \"#utility.yul\":10223:10241   */\n      dup2\n      add\n        /* \"#utility.yul\":10216:10250   */\n      dup4\n      swap1\n      mstore\n        /* \"#utility.yul\":10286:10289   */\n      0x80\n        /* \"#utility.yul\":10281:10283   */\n      0x60\n        /* \"#utility.yul\":10266:10284   */\n      dup3\n      add\n        /* \"#utility.yul\":10259:10290   */\n      dup2\n      swap1\n      mstore\n        /* \"#utility.yul\":10064:10068   */\n      0x00\n      swap1\n        /* \"#utility.yul\":10307:10353   */\n      tag_455\n      swap1\n        /* \"#utility.yul\":10333:10352   */\n      dup4\n      add\n        /* \"#utility.yul\":10325:10331   */\n      dup5\n        /* \"#utility.yul\":10307:10353   */\n      tag_351\n      jump\t// in\n    tag_455:\n        /* \"#utility.yul\":10299:10353   */\n      swap7\n        /* \"#utility.yul\":9870:10359   */\n      swap6\n      pop\n      pop\n      pop\n      pop\n      pop\n      pop\n      jump\t// out\n        /* \"#utility.yul\":10364:10613   */\n    tag_284:\n        /* \"#utility.yul\":10433:10439   */\n      0x00\n        /* \"#utility.yul\":10486:10488   */\n      0x20\n        /* \"#utility.yul\":10474:10483   */\n      dup3\n        /* \"#utility.yul\":10465:10472   */\n      dup5\n        /* \"#utility.yul\":10461:10484   */\n      sub\n        /* \"#utility.yul\":10457:10489   */\n      slt\n        /* \"#utility.yul\":10454:10506   */\n      iszero\n      tag_457\n      jumpi\n        /* \"#utility.yul\":10502:10503   */\n      0x00\n        /* \"#utility.yul\":10499:10500   */\n      dup1\n        /* \"#utility.yul\":10492:10504   */\n      revert\n        /* \"#utility.yul\":10454:10506   */\n    tag_457:\n        /* \"#utility.yul\":10534:10543   */\n      dup2\n        /* \"#utility.yul\":10528:10544   */\n      mload\n        /* \"#utility.yul\":10553:10583   */\n      tag_364\n        /* \"#utility.yul\":10577:10582   */\n      dup2\n        /* \"#utility.yul\":10553:10583   */\n      tag_349\n      jump\t// in\n        /* \"#utility.yul\":10618:10745   */\n    tag_358:\n        /* \"#utility.yul\":10679:10689   */\n      0x4e487b71\n        /* \"#utility.yul\":10674:10677   */\n      0xe0\n        /* \"#utility.yul\":10670:10690   */\n      shl\n        /* \"#utility.yul\":10667:10668   */\n      0x00\n        /* \"#utility.yul\":10660:10691   */\n      mstore\n        /* \"#utility.yul\":10710:10714   */\n      0x12\n        /* \"#utility.yul\":10707:10708   */\n      0x04\n        /* \"#utility.yul\":10700:10715   */\n      mstore\n        /* \"#utility.yul\":10734:10738   */\n      0x24\n        /* \"#utility.yul\":10731:10732   */\n      0x00\n        /* \"#utility.yul\":10724:10739   */\n      revert\n        /* \"#utility.yul\":10750:10870   */\n    tag_300:\n        /* \"#utility.yul\":10790:10791   */\n      0x00\n        /* \"#utility.yul\":10816:10817   */\n      dup3\n        /* \"#utility.yul\":10806:10841   */\n      tag_462\n      jumpi\n        /* \"#utility.yul\":10821:10839   */\n      tag_462\n      tag_358\n      jump\t// in\n    tag_462:\n      pop\n        /* \"#utility.yul\":10855:10864   */\n      div\n      swap1\n        /* \"#utility.yul\":10750:10870   */\n      jump\t// out\n        /* \"#utility.yul\":10875:11000   */\n    tag_308:\n        /* \"#utility.yul\":10915:10919   */\n      0x00\n        /* \"#utility.yul\":10943:10944   */\n      dup3\n        /* \"#utility.yul\":10940:10941   */\n      dup3\n        /* \"#utility.yul\":10937:10945   */\n      lt\n        /* \"#utility.yul\":10934:10968   */\n      iszero\n      tag_465\n      jumpi\n        /* \"#utility.yul\":10948:10966   */\n      tag_465\n      tag_355\n      jump\t// in\n    tag_465:\n      pop\n        /* \"#utility.yul\":10985:10994   */\n      sub\n      swap1\n        /* \"#utility.yul\":10875:11000   */\n      jump\t// out\n        /* \"#utility.yul\":11005:11117   */\n    tag_310:\n        /* \"#utility.yul\":11037:11038   */\n      0x00\n        /* \"#utility.yul\":11063:11064   */\n      dup3\n        /* \"#utility.yul\":11053:11088   */\n      tag_468\n      jumpi\n        /* \"#utility.yul\":11068:11086   */\n      tag_468\n      tag_358\n      jump\t// in\n    tag_468:\n      pop\n        /* \"#utility.yul\":11102:11111   */\n      mod\n      swap1\n        /* \"#utility.yul\":11005:11117   */\n      jump\t// out\n        /* \"#utility.yul\":11122:11250   */\n    tag_312:\n        /* \"#utility.yul\":11162:11165   */\n      0x00\n        /* \"#utility.yul\":11193:11194   */\n      dup3\n        /* \"#utility.yul\":11189:11195   */\n      not\n        /* \"#utility.yul\":11186:11187   */\n      dup3\n        /* \"#utility.yul\":11183:11196   */\n      gt\n        /* \"#utility.yul\":11180:11219   */\n      iszero\n      tag_471\n      jumpi\n        /* \"#utility.yul\":11199:11217   */\n      tag_471\n      tag_355\n      jump\t// in\n    tag_471:\n      pop\n        /* \"#utility.yul\":11235:11244   */\n      add\n      swap1\n        /* \"#utility.yul\":11122:11250   */\n      jump\t// out\n    stop\n    data_ada389e1fc24a8587c776340efb91b36e675792ab631816100d55df0b5cf3cbc ddf252ad1be2c89b69c2b068fc378daa952ba7f163c4a11628f55a4df523b3ef\n\n    auxdata: 0xa26469706673582212206f9a2d8d2c0a8db91cd425246dd7ee86f17baedfd62b906810296d2f8b2fcd6c64736f6c634300080d0033\n}\n",
				"bytecode": {
					"linkReferences": {},
					"object": "60806040523480156200001157600080fd5b50604080518082018252601981527f546f6f6e7a204d696e746572205265776172647320436172640000000000000060208083019182528351808501909452600584526426a4a72a2960d91b9084015281519192916200007491600291620000f4565b5080516200008a906003906020840190620000f4565b505060008055506200009c33620000a2565b620001d6565b600880546001600160a01b038381166001600160a01b0319831681179093556040519116919082907f8be0079c531659141344cd1fd0a4f28419497f9722a3daafe3b4186f6b6457e090600090a35050565b82805462000102906200019a565b90600052602060002090601f01602090048101928262000126576000855562000171565b82601f106200014157805160ff191683800117855562000171565b8280016001018555821562000171579182015b828111156200017157825182559160200191906001019062000154565b506200017f92915062000183565b5090565b5b808211156200017f576000815560010162000184565b600181811c90821680620001af57607f821691505b602082108103620001d057634e487b7160e01b600052602260045260246000fd5b50919050565b6117b480620001e66000396000f3fe608060405234801561001057600080fd5b50600436106101075760003560e01c806301ffc9a71461010c57806306fdde0314610134578063081812fc14610149578063095ea7b31461017457806318160ddd1461018957806323b872dd1461019f57806342842e0e146101b25780636352211e146101c55780636790a9de146101d85780636c0360eb146101eb57806370a08231146101f3578063715018a6146102065780637a2d01631461020e5780638da5cb5b1461022157806395d89b4114610229578063a22cb46514610231578063b88d4fde14610244578063c668286214610257578063c87b56dd1461025f578063e985e9c514610272578063f2fde38b146102ae575b600080fd5b61011f61011a366004611166565b6102c1565b60405190151581526020015b60405180910390f35b61013c610313565b60405161012b91906111e2565b61015c6101573660046111f5565b6103a5565b6040516001600160a01b03909116815260200161012b565b61018761018236600461122a565b6103e9565b005b600154600054035b60405190815260200161012b565b6101876101ad366004611254565b610476565b6101876101c0366004611254565b610481565b61015c6101d33660046111f5565b61049c565b6101876101e636600461133b565b6104ae565b61013c61050d565b61019161020136600461139e565b61059b565b6101876105e9565b61018761021c3660046113b9565b610624565b61015c6106a8565b61013c6106b7565b61018761023f36600461142d565b6106c6565b610187610252366004611469565b61075b565b61013c6107ab565b61013c61026d3660046111f5565b6107b8565b61011f6102803660046114e4565b6001600160a01b03918216600090815260076020908152604080832093909416825291909152205460ff1690565b6101876102bc36600461139e565b610886565b60006001600160e01b031982166380ac58cd60e01b14806102f257506001600160e01b03198216635b5e139f60e01b145b8061030d57506301ffc9a760e01b6001600160e01b03198316145b92915050565b60606002805461032290611517565b80601f016020809104026020016040519081016040528092919081815260200182805461034e90611517565b801561039b5780601f106103705761010080835404028352916020019161039b565b820191906000526020600020905b81548152906001019060200180831161037e57829003601f168201915b5050505050905090565b60006103b082610926565b6103cd576040516333d1c03960e21b815260040160405180910390fd5b506000908152600660205260409020546001600160a01b031690565b60006103f48261049c565b9050806001600160a01b0316836001600160a01b0316036104285760405163250fdee360e21b815260040160405180910390fd5b336001600160a01b0382161480159061044857506104468133610280565b155b15610466576040516367d9dca160e11b815260040160405180910390fd5b610471838383610951565b505050565b6104718383836109ad565b6104718383836040518060200160405280600081525061075b565b60006104a782610b88565b5192915050565b336104b76106a8565b6001600160a01b0316146104e65760405162461bcd60e51b81526004016104dd90611551565b60405180910390fd5b81516104f99060099060208501906110b7565b50805161047190600a9060208401906110b7565b6009805461051a90611517565b80601f016020809104026020016040519081016040528092919081815260200182805461054690611517565b80156105935780601f1061056857610100808354040283529160200191610593565b820191906000526020600020905b81548152906001019060200180831161057657829003601f168201915b505050505081565b60006001600160a01b0382166105c4576040516323d3ad8160e21b815260040160405180910390fd5b506001600160a01b03166000908152600560205260409020546001600160401b031690565b336105f26106a8565b6001600160a01b0316146106185760405162461bcd60e51b81526004016104dd90611551565b6106226000610ca2565b565b3361062d6106a8565b6001600160a01b0316146106535760405162461bcd60e51b81526004016104dd90611551565b8060005b818110156106a25761069084848381811061067457610674611586565b9050602002016020810190610689919061139e565b6001610cf4565b8061069a816115b2565b915050610657565b50505050565b6008546001600160a01b031690565b60606003805461032290611517565b336001600160a01b038316036106ef5760405163b06307db60e01b815260040160405180910390fd5b3360008181526007602090815260408083206001600160a01b03871680855290835292819020805460ff191686151590811790915590519081529192917f17307eab39ab6107e8899845ad3d59bd9653f200f220920489ca2b5937696c31910160405180910390a35050565b6107668484846109ad565b610778836001600160a01b0316610d12565b801561078d575061078b84848484610d21565b155b156106a2576040516368d2bf6b60e11b815260040160405180910390fd5b600a805461051a90611517565b60606107c382610926565b6108275760405162461bcd60e51b815260206004820152602f60248201527f4552433732314d657461646174613a2055524920717565727920666f72206e6f60448201526e3732bc34b9ba32b73a103a37b5b2b760891b60648201526084016104dd565b60006009805461083690611517565b905011610852576040518060200160405280600081525061030d565b600961085d83610e0d565b600a60405160200161087193929190611664565b60405160208183030381529060405292915050565b3361088f6106a8565b6001600160a01b0316146108b55760405162461bcd60e51b81526004016104dd90611551565b6001600160a01b03811661091a5760405162461bcd60e51b815260206004820152602660248201527f4f776e61626c653a206e6577206f776e657220697320746865207a65726f206160448201526564647265737360d01b60648201526084016104dd565b61092381610ca2565b50565b600080548210801561030d575050600090815260046020526040902054600160e01b900460ff161590565b60008281526006602052604080822080546001600160a01b0319166001600160a01b0387811691821790925591518593918516917f8c5be1e5ebec7d5bd14f71427d1e84f3dd0314c0f7b2291e5b200ac8c7c3b92591a4505050565b60006109b882610b88565b9050836001600160a01b031681600001516001600160a01b0316146109ef5760405162a1148160e81b815260040160405180910390fd5b6000336001600160a01b0386161480610a0d5750610a0d8533610280565b80610a28575033610a1d846103a5565b6001600160a01b0316145b905080610a4857604051632ce44b5f60e11b815260040160405180910390fd5b6001600160a01b038416610a6f57604051633a954ecd60e21b815260040160405180910390fd5b610a7b60008487610951565b6001600160a01b03858116600090815260056020908152604080832080546001600160401b03198082166001600160401b0392831660001901831617909255898616808652838620805493841693831660019081018416949094179055898652600490945282852080546001600160e01b031916909417600160a01b42909216919091021783558701808452922080549193909116610b4e576000548214610b4e57805460208601516001600160401b0316600160a01b026001600160e01b03199091166001600160a01b038a16171781555b50505082846001600160a01b0316866001600160a01b031660008051602061175f83398151915260405160405180910390a45b5050505050565b604080516060810182526000808252602082018190529181019190915281600054811015610c8957600081815260046020908152604091829020825160608101845290546001600160a01b0381168252600160a01b81046001600160401b031692820192909252600160e01b90910460ff16151591810182905290610c875780516001600160a01b031615610c1e579392505050565b5060001901600081815260046020908152604091829020825160608101845290546001600160a01b038116808352600160a01b82046001600160401b031693830193909352600160e01b900460ff1615159281019290925215610c82579392505050565b610c1e565b505b604051636f96cda160e11b815260040160405180910390fd5b600880546001600160a01b038381166001600160a01b0319831681179093556040519116919082907f8be0079c531659141344cd1fd0a4f28419497f9722a3daafe3b4186f6b6457e090600090a35050565b610d0e828260405180602001604052806000815250610f0d565b5050565b6001600160a01b03163b151590565b604051630a85bd0160e11b81526000906001600160a01b0385169063150b7a0290610d56903390899088908890600401611697565b6020604051808303816000875af1925050508015610d91575060408051601f3d908101601f19168201909252610d8e918101906116d4565b60015b610def573d808015610dbf576040519150601f19603f3d011682016040523d82523d6000602084013e610dc4565b606091505b508051600003610de7576040516368d2bf6b60e11b815260040160405180910390fd5b805181602001fd5b6001600160e01b031916630a85bd0160e11b1490505b949350505050565b606081600003610e345750506040805180820190915260018152600360fc1b602082015290565b8160005b8115610e5e5780610e48816115b2565b9150610e579050600a83611707565b9150610e38565b6000816001600160401b03811115610e7857610e78611290565b6040519080825280601f01601f191660200182016040528015610ea2576020820181803683370190505b5090505b8415610e0557610eb760018361171b565b9150610ec4600a86611732565b610ecf906030611746565b60f81b818381518110610ee457610ee4611586565b60200101906001600160f81b031916908160001a905350610f06600a86611707565b9450610ea6565b61047183838360016000546001600160a01b038516610f3e57604051622e076360e81b815260040160405180910390fd5b83600003610f5f5760405163b562e8dd60e01b815260040160405180910390fd5b6001600160a01b038516600081815260056020908152604080832080546001600160801b031981166001600160401b038083168c018116918217600160401b6001600160401b031990941690921783900481168c01811690920217909155858452600490925290912080546001600160e01b031916909217600160a01b4290921691909102179055808085018380156110055750611005876001600160a01b0316610d12565b1561107b575b60405182906001600160a01b0389169060009060008051602061175f833981519152908290a46110446000888480600101955088610d21565b611061576040516368d2bf6b60e11b815260040160405180910390fd5b80820361100b57826000541461107657600080fd5b6110ae565b5b6040516001830192906001600160a01b0389169060009060008051602061175f833981519152908290a480820361107c575b50600055610b81565b8280546110c390611517565b90600052602060002090601f0160209004810192826110e5576000855561112b565b82601f106110fe57805160ff191683800117855561112b565b8280016001018555821561112b579182015b8281111561112b578251825591602001919060010190611110565b5061113792915061113b565b5090565b5b80821115611137576000815560010161113c565b6001600160e01b03198116811461092357600080fd5b60006020828403121561117857600080fd5b813561118381611150565b9392505050565b60005b838110156111a557818101518382015260200161118d565b838111156106a25750506000910152565b600081518084526111ce81602086016020860161118a565b601f01601f19169290920160200192915050565b60208152600061118360208301846111b6565b60006020828403121561120757600080fd5b5035919050565b80356001600160a01b038116811461122557600080fd5b919050565b6000806040838503121561123d57600080fd5b6112468361120e565b946020939093013593505050565b60008060006060848603121561126957600080fd5b6112728461120e565b92506112806020850161120e565b9150604084013590509250925092565b634e487b7160e01b600052604160045260246000fd5b60006001600160401b03808411156112c0576112c0611290565b604051601f8501601f19908116603f011681019082821181831017156112e8576112e8611290565b8160405280935085815286868601111561130157600080fd5b858560208301376000602087830101525050509392505050565b600082601f83011261132c57600080fd5b611183838335602085016112a6565b6000806040838503121561134e57600080fd5b82356001600160401b038082111561136557600080fd5b6113718683870161131b565b9350602085013591508082111561138757600080fd5b506113948582860161131b565b9150509250929050565b6000602082840312156113b057600080fd5b6111838261120e565b600080602083850312156113cc57600080fd5b82356001600160401b03808211156113e357600080fd5b818501915085601f8301126113f757600080fd5b81358181111561140657600080fd5b8660208260051b850101111561141b57600080fd5b60209290920196919550909350505050565b6000806040838503121561144057600080fd5b6114498361120e565b91506020830135801515811461145e57600080fd5b809150509250929050565b6000806000806080858703121561147f57600080fd5b6114888561120e565b93506114966020860161120e565b92506040850135915060608501356001600160401b038111156114b857600080fd5b8501601f810187136114c957600080fd5b6114d8878235602084016112a6565b91505092959194509250565b600080604083850312156114f757600080fd5b6115008361120e565b915061150e6020840161120e565b90509250929050565b600181811c9082168061152b57607f821691505b60208210810361154b57634e487b7160e01b600052602260045260246000fd5b50919050565b6020808252818101527f4f776e61626c653a2063616c6c6572206973206e6f7420746865206f776e6572604082015260600190565b634e487b7160e01b600052603260045260246000fd5b634e487b7160e01b600052601160045260246000fd5b6000600182016115c4576115c461159c565b5060010190565b8054600090600181811c90808316806115e557607f831692505b6020808410820361160657634e487b7160e01b600052602260045260246000fd5b81801561161a576001811461162b57611658565b60ff19861689528489019650611658565b60008881526020902060005b868110156116505781548b820152908501908301611637565b505084890196505b50505050505092915050565b600061167082866115cb565b845161168081836020890161118a565b61168c818301866115cb565b979650505050505050565b6001600160a01b03858116825284166020820152604081018390526080606082018190526000906116ca908301846111b6565b9695505050505050565b6000602082840312156116e657600080fd5b815161118381611150565b634e487b7160e01b600052601260045260246000fd5b600082611716576117166116f1565b500490565b60008282101561172d5761172d61159c565b500390565b600082611741576117416116f1565b500690565b600082198211156117595761175961159c565b50019056feddf252ad1be2c89b69c2b068fc378daa952ba7f163c4a11628f55a4df523b3efa26469706673582212206f9a2d8d2c0a8db91cd425246dd7ee86f17baedfd62b906810296d2f8b2fcd6c64736f6c634300080d0033",
					"opcodes": "PUSH1 0x80 PUSH1 0x40 MSTORE CALLVALUE DUP1 ISZERO PUSH3 0x11 JUMPI PUSH1 0x0 DUP1 REVERT JUMPDEST POP PUSH1 0x40 DUP1 MLOAD DUP1 DUP3 ADD DUP3 MSTORE PUSH1 0x19 DUP2 MSTORE PUSH32 0x546F6F6E7A204D696E7465722052657761726473204361726400000000000000 PUSH1 0x20 DUP1 DUP4 ADD SWAP2 DUP3 MSTORE DUP4 MLOAD DUP1 DUP6 ADD SWAP1 SWAP5 MSTORE PUSH1 0x5 DUP5 MSTORE PUSH5 0x26A4A72A29 PUSH1 0xD9 SHL SWAP1 DUP5 ADD MSTORE DUP2 MLOAD SWAP2 SWAP3 SWAP2 PUSH3 0x74 SWAP2 PUSH1 0x2 SWAP2 PUSH3 0xF4 JUMP JUMPDEST POP DUP1 MLOAD PUSH3 0x8A SWAP1 PUSH1 0x3 SWAP1 PUSH1 0x20 DUP5 ADD SWAP1 PUSH3 0xF4 JUMP JUMPDEST POP POP PUSH1 0x0 DUP1 SSTORE POP PUSH3 0x9C CALLER PUSH3 0xA2 JUMP JUMPDEST PUSH3 0x1D6 JUMP JUMPDEST PUSH1 0x8 DUP1 SLOAD PUSH1 0x1 PUSH1 0x1 PUSH1 0xA0 SHL SUB DUP4 DUP2 AND PUSH1 0x1 PUSH1 0x1 PUSH1 0xA0 SHL SUB NOT DUP4 AND DUP2 OR SWAP1 SWAP4 SSTORE PUSH1 0x40 MLOAD SWAP2 AND SWAP2 SWAP1 DUP3 SWAP1 PUSH32 0x8BE0079C531659141344CD1FD0A4F28419497F9722A3DAAFE3B4186F6B6457E0 SWAP1 PUSH1 0x0 SWAP1 LOG3 POP POP JUMP JUMPDEST DUP3 DUP1 SLOAD PUSH3 0x102 SWAP1 PUSH3 0x19A JUMP JUMPDEST SWAP1 PUSH1 0x0 MSTORE PUSH1 0x20 PUSH1 0x0 KECCAK256 SWAP1 PUSH1 0x1F ADD PUSH1 0x20 SWAP1 DIV DUP2 ADD SWAP3 DUP3 PUSH3 0x126 JUMPI PUSH1 0x0 DUP6 SSTORE PUSH3 0x171 JUMP JUMPDEST DUP3 PUSH1 0x1F LT PUSH3 0x141 JUMPI DUP1 MLOAD PUSH1 0xFF NOT AND DUP4 DUP1 ADD OR DUP6 SSTORE PUSH3 0x171 JUMP JUMPDEST DUP3 DUP1 ADD PUSH1 0x1 ADD DUP6 SSTORE DUP3 ISZERO PUSH3 0x171 JUMPI SWAP2 DUP3 ADD JUMPDEST DUP3 DUP2 GT ISZERO PUSH3 0x171 JUMPI DUP3 MLOAD DUP3 SSTORE SWAP2 PUSH1 0x20 ADD SWAP2 SWAP1 PUSH1 0x1 ADD SWAP1 PUSH3 0x154 JUMP JUMPDEST POP PUSH3 0x17F SWAP3 SWAP2 POP PUSH3 0x183 JUMP JUMPDEST POP SWAP1 JUMP JUMPDEST JUMPDEST DUP1 DUP3 GT ISZERO PUSH3 0x17F JUMPI PUSH1 0x0 DUP2 SSTORE PUSH1 0x1 ADD PUSH3 0x184 JUMP JUMPDEST PUSH1 0x1 DUP2 DUP2 SHR SWAP1 DUP3 AND DUP1 PUSH3 0x1AF JUMPI PUSH1 0x7F DUP3 AND SWAP2 POP JUMPDEST PUSH1 0x20 DUP3 LT DUP2 SUB PUSH3 0x1D0 JUMPI PUSH4 0x4E487B71 PUSH1 0xE0 SHL PUSH1 0x0 MSTORE PUSH1 0x22 PUSH1 0x4 MSTORE PUSH1 0x24 PUSH1 0x0 REVERT JUMPDEST POP SWAP2 SWAP1 POP JUMP JUMPDEST PUSH2 0x17B4 DUP1 PUSH3 0x1E6 PUSH1 0x0 CODECOPY PUSH1 0x0 RETURN INVALID PUSH1 0x80 PUSH1 0x40 MSTORE CALLVALUE DUP1 ISZERO PUSH2 0x10 JUMPI PUSH1 0x0 DUP1 REVERT JUMPDEST POP PUSH1 0x4 CALLDATASIZE LT PUSH2 0x107 JUMPI PUSH1 0x0 CALLDATALOAD PUSH1 0xE0 SHR DUP1 PUSH4 0x1FFC9A7 EQ PUSH2 0x10C JUMPI DUP1 PUSH4 0x6FDDE03 EQ PUSH2 0x134 JUMPI DUP1 PUSH4 0x81812FC EQ PUSH2 0x149 JUMPI DUP1 PUSH4 0x95EA7B3 EQ PUSH2 0x174 JUMPI DUP1 PUSH4 0x18160DDD EQ PUSH2 0x189 JUMPI DUP1 PUSH4 0x23B872DD EQ PUSH2 0x19F JUMPI DUP1 PUSH4 0x42842E0E EQ PUSH2 0x1B2 JUMPI DUP1 PUSH4 0x6352211E EQ PUSH2 0x1C5 JUMPI DUP1 PUSH4 0x6790A9DE EQ PUSH2 0x1D8 JUMPI DUP1 PUSH4 0x6C0360EB EQ PUSH2 0x1EB JUMPI DUP1 PUSH4 0x70A08231 EQ PUSH2 0x1F3 JUMPI DUP1 PUSH4 0x715018A6 EQ PUSH2 0x206 JUMPI DUP1 PUSH4 0x7A2D0163 EQ PUSH2 0x20E JUMPI DUP1 PUSH4 0x8DA5CB5B EQ PUSH2 0x221 JUMPI DUP1 PUSH4 0x95D89B41 EQ PUSH2 0x229 JUMPI DUP1 PUSH4 0xA22CB465 EQ PUSH2 0x231 JUMPI DUP1 PUSH4 0xB88D4FDE EQ PUSH2 0x244 JUMPI DUP1 PUSH4 0xC6682862 EQ PUSH2 0x257 JUMPI DUP1 PUSH4 0xC87B56DD EQ PUSH2 0x25F JUMPI DUP1 PUSH4 0xE985E9C5 EQ PUSH2 0x272 JUMPI DUP1 PUSH4 0xF2FDE38B EQ PUSH2 0x2AE JUMPI JUMPDEST PUSH1 0x0 DUP1 REVERT JUMPDEST PUSH2 0x11F PUSH2 0x11A CALLDATASIZE PUSH1 0x4 PUSH2 0x1166 JUMP JUMPDEST PUSH2 0x2C1 JUMP JUMPDEST PUSH1 0x40 MLOAD SWAP1 ISZERO ISZERO DUP2 MSTORE PUSH1 0x20 ADD JUMPDEST PUSH1 0x40 MLOAD DUP1 SWAP2 SUB SWAP1 RETURN JUMPDEST PUSH2 0x13C PUSH2 0x313 JUMP JUMPDEST PUSH1 0x40 MLOAD PUSH2 0x12B SWAP2 SWAP1 PUSH2 0x11E2 JUMP JUMPDEST PUSH2 0x15C PUSH2 0x157 CALLDATASIZE PUSH1 0x4 PUSH2 0x11F5 JUMP JUMPDEST PUSH2 0x3A5 JUMP JUMPDEST PUSH1 0x40 MLOAD PUSH1 0x1 PUSH1 0x1 PUSH1 0xA0 SHL SUB SWAP1 SWAP2 AND DUP2 MSTORE PUSH1 0x20 ADD PUSH2 0x12B JUMP JUMPDEST PUSH2 0x187 PUSH2 0x182 CALLDATASIZE PUSH1 0x4 PUSH2 0x122A JUMP JUMPDEST PUSH2 0x3E9 JUMP JUMPDEST STOP JUMPDEST PUSH1 0x1 SLOAD PUSH1 0x0 SLOAD SUB JUMPDEST PUSH1 0x40 MLOAD SWAP1 DUP2 MSTORE PUSH1 0x20 ADD PUSH2 0x12B JUMP JUMPDEST PUSH2 0x187 PUSH2 0x1AD CALLDATASIZE PUSH1 0x4 PUSH2 0x1254 JUMP JUMPDEST PUSH2 0x476 JUMP JUMPDEST PUSH2 0x187 PUSH2 0x1C0 CALLDATASIZE PUSH1 0x4 PUSH2 0x1254 JUMP JUMPDEST PUSH2 0x481 JUMP JUMPDEST PUSH2 0x15C PUSH2 0x1D3 CALLDATASIZE PUSH1 0x4 PUSH2 0x11F5 JUMP JUMPDEST PUSH2 0x49C JUMP JUMPDEST PUSH2 0x187 PUSH2 0x1E6 CALLDATASIZE PUSH1 0x4 PUSH2 0x133B JUMP JUMPDEST PUSH2 0x4AE JUMP JUMPDEST PUSH2 0x13C PUSH2 0x50D JUMP JUMPDEST PUSH2 0x191 PUSH2 0x201 CALLDATASIZE PUSH1 0x4 PUSH2 0x139E JUMP JUMPDEST PUSH2 0x59B JUMP JUMPDEST PUSH2 0x187 PUSH2 0x5E9 JUMP JUMPDEST PUSH2 0x187 PUSH2 0x21C CALLDATASIZE PUSH1 0x4 PUSH2 0x13B9 JUMP JUMPDEST PUSH2 0x624 JUMP JUMPDEST PUSH2 0x15C PUSH2 0x6A8 JUMP JUMPDEST PUSH2 0x13C PUSH2 0x6B7 JUMP JUMPDEST PUSH2 0x187 PUSH2 0x23F CALLDATASIZE PUSH1 0x4 PUSH2 0x142D JUMP JUMPDEST PUSH2 0x6C6 JUMP JUMPDEST PUSH2 0x187 PUSH2 0x252 CALLDATASIZE PUSH1 0x4 PUSH2 0x1469 JUMP JUMPDEST PUSH2 0x75B JUMP JUMPDEST PUSH2 0x13C PUSH2 0x7AB JUMP JUMPDEST PUSH2 0x13C PUSH2 0x26D CALLDATASIZE PUSH1 0x4 PUSH2 0x11F5 JUMP JUMPDEST PUSH2 0x7B8 JUMP JUMPDEST PUSH2 0x11F PUSH2 0x280 CALLDATASIZE PUSH1 0x4 PUSH2 0x14E4 JUMP JUMPDEST PUSH1 0x1 PUSH1 0x1 PUSH1 0xA0 SHL SUB SWAP2 DUP3 AND PUSH1 0x0 SWAP1 DUP2 MSTORE PUSH1 0x7 PUSH1 0x20 SWAP1 DUP2 MSTORE PUSH1 0x40 DUP1 DUP4 KECCAK256 SWAP4 SWAP1 SWAP5 AND DUP3 MSTORE SWAP2 SWAP1 SWAP2 MSTORE KECCAK256 SLOAD PUSH1 0xFF AND SWAP1 JUMP JUMPDEST PUSH2 0x187 PUSH2 0x2BC CALLDATASIZE PUSH1 0x4 PUSH2 0x139E JUMP JUMPDEST PUSH2 0x886 JUMP JUMPDEST PUSH1 0x0 PUSH1 0x1 PUSH1 0x1 PUSH1 0xE0 SHL SUB NOT DUP3 AND PUSH4 0x80AC58CD PUSH1 0xE0 SHL EQ DUP1 PUSH2 0x2F2 JUMPI POP PUSH1 0x1 PUSH1 0x1 PUSH1 0xE0 SHL SUB NOT DUP3 AND PUSH4 0x5B5E139F PUSH1 0xE0 SHL EQ JUMPDEST DUP1 PUSH2 0x30D JUMPI POP PUSH4 0x1FFC9A7 PUSH1 0xE0 SHL PUSH1 0x1 PUSH1 0x1 PUSH1 0xE0 SHL SUB NOT DUP4 AND EQ JUMPDEST SWAP3 SWAP2 POP POP JUMP JUMPDEST PUSH1 0x60 PUSH1 0x2 DUP1 SLOAD PUSH2 0x322 SWAP1 PUSH2 0x1517 JUMP JUMPDEST DUP1 PUSH1 0x1F ADD PUSH1 0x20 DUP1 SWAP2 DIV MUL PUSH1 0x20 ADD PUSH1 0x40 MLOAD SWAP1 DUP2 ADD PUSH1 0x40 MSTORE DUP1 SWAP3 SWAP2 SWAP1 DUP2 DUP2 MSTORE PUSH1 0x20 ADD DUP3 DUP1 SLOAD PUSH2 0x34E SWAP1 PUSH2 0x1517 JUMP JUMPDEST DUP1 ISZERO PUSH2 0x39B JUMPI DUP1 PUSH1 0x1F LT PUSH2 0x370 JUMPI PUSH2 0x100 DUP1 DUP4 SLOAD DIV MUL DUP4 MSTORE SWAP2 PUSH1 0x20 ADD SWAP2 PUSH2 0x39B JUMP JUMPDEST DUP3 ADD SWAP2 SWAP1 PUSH1 0x0 MSTORE PUSH1 0x20 PUSH1 0x0 KECCAK256 SWAP1 JUMPDEST DUP2 SLOAD DUP2 MSTORE SWAP1 PUSH1 0x1 ADD SWAP1 PUSH1 0x20 ADD DUP1 DUP4 GT PUSH2 0x37E JUMPI DUP3 SWAP1 SUB PUSH1 0x1F AND DUP3 ADD SWAP2 JUMPDEST POP POP POP POP POP SWAP1 POP SWAP1 JUMP JUMPDEST PUSH1 0x0 PUSH2 0x3B0 DUP3 PUSH2 0x926 JUMP JUMPDEST PUSH2 0x3CD JUMPI PUSH1 0x40 MLOAD PUSH4 0x33D1C039 PUSH1 0xE2 SHL DUP2 MSTORE PUSH1 0x4 ADD PUSH1 0x40 MLOAD DUP1 SWAP2 SUB SWAP1 REVERT JUMPDEST POP PUSH1 0x0 SWAP1 DUP2 MSTORE PUSH1 0x6 PUSH1 0x20 MSTORE PUSH1 0x40 SWAP1 KECCAK256 SLOAD PUSH1 0x1 PUSH1 0x1 PUSH1 0xA0 SHL SUB AND SWAP1 JUMP JUMPDEST PUSH1 0x0 PUSH2 0x3F4 DUP3 PUSH2 0x49C JUMP JUMPDEST SWAP1 POP DUP1 PUSH1 0x1 PUSH1 0x1 PUSH1 0xA0 SHL SUB AND DUP4 PUSH1 0x1 PUSH1 0x1 PUSH1 0xA0 SHL SUB AND SUB PUSH2 0x428 JUMPI PUSH1 0x40 MLOAD PUSH4 0x250FDEE3 PUSH1 0xE2 SHL DUP2 MSTORE PUSH1 0x4 ADD PUSH1 0x40 MLOAD DUP1 SWAP2 SUB SWAP1 REVERT JUMPDEST CALLER PUSH1 0x1 PUSH1 0x1 PUSH1 0xA0 SHL SUB DUP3 AND EQ DUP1 ISZERO SWAP1 PUSH2 0x448 JUMPI POP PUSH2 0x446 DUP2 CALLER PUSH2 0x280 JUMP JUMPDEST ISZERO JUMPDEST ISZERO PUSH2 0x466 JUMPI PUSH1 0x40 MLOAD PUSH4 0x67D9DCA1 PUSH1 0xE1 SHL DUP2 MSTORE PUSH1 0x4 ADD PUSH1 0x40 MLOAD DUP1 SWAP2 SUB SWAP1 REVERT JUMPDEST PUSH2 0x471 DUP4 DUP4 DUP4 PUSH2 0x951 JUMP JUMPDEST POP POP POP JUMP JUMPDEST PUSH2 0x471 DUP4 DUP4 DUP4 PUSH2 0x9AD JUMP JUMPDEST PUSH2 0x471 DUP4 DUP4 DUP4 PUSH1 0x40 MLOAD DUP1 PUSH1 0x20 ADD PUSH1 0x40 MSTORE DUP1 PUSH1 0x0 DUP2 MSTORE POP PUSH2 0x75B JUMP JUMPDEST PUSH1 0x0 PUSH2 0x4A7 DUP3 PUSH2 0xB88 JUMP JUMPDEST MLOAD SWAP3 SWAP2 POP POP JUMP JUMPDEST CALLER PUSH2 0x4B7 PUSH2 0x6A8 JUMP JUMPDEST PUSH1 0x1 PUSH1 0x1 PUSH1 0xA0 SHL SUB AND EQ PUSH2 0x4E6 JUMPI PUSH1 0x40 MLOAD PUSH3 0x461BCD PUSH1 0xE5 SHL DUP2 MSTORE PUSH1 0x4 ADD PUSH2 0x4DD SWAP1 PUSH2 0x1551 JUMP JUMPDEST PUSH1 0x40 MLOAD DUP1 SWAP2 SUB SWAP1 REVERT JUMPDEST DUP2 MLOAD PUSH2 0x4F9 SWAP1 PUSH1 0x9 SWAP1 PUSH1 0x20 DUP6 ADD SWAP1 PUSH2 0x10B7 JUMP JUMPDEST POP DUP1 MLOAD PUSH2 0x471 SWAP1 PUSH1 0xA SWAP1 PUSH1 0x20 DUP5 ADD SWAP1 PUSH2 0x10B7 JUMP JUMPDEST PUSH1 0x9 DUP1 SLOAD PUSH2 0x51A SWAP1 PUSH2 0x1517 JUMP JUMPDEST DUP1 PUSH1 0x1F ADD PUSH1 0x20 DUP1 SWAP2 DIV MUL PUSH1 0x20 ADD PUSH1 0x40 MLOAD SWAP1 DUP2 ADD PUSH1 0x40 MSTORE DUP1 SWAP3 SWAP2 SWAP1 DUP2 DUP2 MSTORE PUSH1 0x20 ADD DUP3 DUP1 SLOAD PUSH2 0x546 SWAP1 PUSH2 0x1517 JUMP JUMPDEST DUP1 ISZERO PUSH2 0x593 JUMPI DUP1 PUSH1 0x1F LT PUSH2 0x568 JUMPI PUSH2 0x100 DUP1 DUP4 SLOAD DIV MUL DUP4 MSTORE SWAP2 PUSH1 0x20 ADD SWAP2 PUSH2 0x593 JUMP JUMPDEST DUP3 ADD SWAP2 SWAP1 PUSH1 0x0 MSTORE PUSH1 0x20 PUSH1 0x0 KECCAK256 SWAP1 JUMPDEST DUP2 SLOAD DUP2 MSTORE SWAP1 PUSH1 0x1 ADD SWAP1 PUSH1 0x20 ADD DUP1 DUP4 GT PUSH2 0x576 JUMPI DUP3 SWAP1 SUB PUSH1 0x1F AND DUP3 ADD SWAP2 JUMPDEST POP POP POP POP POP DUP2 JUMP JUMPDEST PUSH1 0x0 PUSH1 0x1 PUSH1 0x1 PUSH1 0xA0 SHL SUB DUP3 AND PUSH2 0x5C4 JUMPI PUSH1 0x40 MLOAD PUSH4 0x23D3AD81 PUSH1 0xE2 SHL DUP2 MSTORE PUSH1 0x4 ADD PUSH1 0x40 MLOAD DUP1 SWAP2 SUB SWAP1 REVERT JUMPDEST POP PUSH1 0x1 PUSH1 0x1 PUSH1 0xA0 SHL SUB AND PUSH1 0x0 SWAP1 DUP2 MSTORE PUSH1 0x5 PUSH1 0x20 MSTORE PUSH1 0x40 SWAP1 KECCAK256 SLOAD PUSH1 0x1 PUSH1 0x1 PUSH1 0x40 SHL SUB AND SWAP1 JUMP JUMPDEST CALLER PUSH2 0x5F2 PUSH2 0x6A8 JUMP JUMPDEST PUSH1 0x1 PUSH1 0x1 PUSH1 0xA0 SHL SUB AND EQ PUSH2 0x618 JUMPI PUSH1 0x40 MLOAD PUSH3 0x461BCD PUSH1 0xE5 SHL DUP2 MSTORE PUSH1 0x4 ADD PUSH2 0x4DD SWAP1 PUSH2 0x1551 JUMP JUMPDEST PUSH2 0x622 PUSH1 0x0 PUSH2 0xCA2 JUMP JUMPDEST JUMP JUMPDEST CALLER PUSH2 0x62D PUSH2 0x6A8 JUMP JUMPDEST PUSH1 0x1 PUSH1 0x1 PUSH1 0xA0 SHL SUB AND EQ PUSH2 0x653 JUMPI PUSH1 0x40 MLOAD PUSH3 0x461BCD PUSH1 0xE5 SHL DUP2 MSTORE PUSH1 0x4 ADD PUSH2 0x4DD SWAP1 PUSH2 0x1551 JUMP JUMPDEST DUP1 PUSH1 0x0 JUMPDEST DUP2 DUP2 LT ISZERO PUSH2 0x6A2 JUMPI PUSH2 0x690 DUP5 DUP5 DUP4 DUP2 DUP2 LT PUSH2 0x674 JUMPI PUSH2 0x674 PUSH2 0x1586 JUMP JUMPDEST SWAP1 POP PUSH1 0x20 MUL ADD PUSH1 0x20 DUP2 ADD SWAP1 PUSH2 0x689 SWAP2 SWAP1 PUSH2 0x139E JUMP JUMPDEST PUSH1 0x1 PUSH2 0xCF4 JUMP JUMPDEST DUP1 PUSH2 0x69A DUP2 PUSH2 0x15B2 JUMP JUMPDEST SWAP2 POP POP PUSH2 0x657 JUMP JUMPDEST POP POP POP POP JUMP JUMPDEST PUSH1 0x8 SLOAD PUSH1 0x1 PUSH1 0x1 PUSH1 0xA0 SHL SUB AND SWAP1 JUMP JUMPDEST PUSH1 0x60 PUSH1 0x3 DUP1 SLOAD PUSH2 0x322 SWAP1 PUSH2 0x1517 JUMP JUMPDEST CALLER PUSH1 0x1 PUSH1 0x1 PUSH1 0xA0 SHL SUB DUP4 AND SUB PUSH2 0x6EF JUMPI PUSH1 0x40 MLOAD PUSH4 0xB06307DB PUSH1 0xE0 SHL DUP2 MSTORE PUSH1 0x4 ADD PUSH1 0x40 MLOAD DUP1 SWAP2 SUB SWAP1 REVERT JUMPDEST CALLER PUSH1 0x0 DUP2 DUP2 MSTORE PUSH1 0x7 PUSH1 0x20 SWAP1 DUP2 MSTORE PUSH1 0x40 DUP1 DUP4 KECCAK256 PUSH1 0x1 PUSH1 0x1 PUSH1 0xA0 SHL SUB DUP8 AND DUP1 DUP6 MSTORE SWAP1 DUP4 MSTORE SWAP3 DUP2 SWAP1 KECCAK256 DUP1 SLOAD PUSH1 0xFF NOT AND DUP7 ISZERO ISZERO SWAP1 DUP2 OR SWAP1 SWAP2 SSTORE SWAP1 MLOAD SWAP1 DUP2 MSTORE SWAP2 SWAP3 SWAP2 PUSH32 0x17307EAB39AB6107E8899845AD3D59BD9653F200F220920489CA2B5937696C31 SWAP2 ADD PUSH1 0x40 MLOAD DUP1 SWAP2 SUB SWAP1 LOG3 POP POP JUMP JUMPDEST PUSH2 0x766 DUP5 DUP5 DUP5 PUSH2 0x9AD JUMP JUMPDEST PUSH2 0x778 DUP4 PUSH1 0x1 PUSH1 0x1 PUSH1 0xA0 SHL SUB AND PUSH2 0xD12 JUMP JUMPDEST DUP1 ISZERO PUSH2 0x78D JUMPI POP PUSH2 0x78B DUP5 DUP5 DUP5 DUP5 PUSH2 0xD21 JUMP JUMPDEST ISZERO JUMPDEST ISZERO PUSH2 0x6A2 JUMPI PUSH1 0x40 MLOAD PUSH4 0x68D2BF6B PUSH1 0xE1 SHL DUP2 MSTORE PUSH1 0x4 ADD PUSH1 0x40 MLOAD DUP1 SWAP2 SUB SWAP1 REVERT JUMPDEST PUSH1 0xA DUP1 SLOAD PUSH2 0x51A SWAP1 PUSH2 0x1517 JUMP JUMPDEST PUSH1 0x60 PUSH2 0x7C3 DUP3 PUSH2 0x926 JUMP JUMPDEST PUSH2 0x827 JUMPI PUSH1 0x40 MLOAD PUSH3 0x461BCD PUSH1 0xE5 SHL DUP2 MSTORE PUSH1 0x20 PUSH1 0x4 DUP3 ADD MSTORE PUSH1 0x2F PUSH1 0x24 DUP3 ADD MSTORE PUSH32 0x4552433732314D657461646174613A2055524920717565727920666F72206E6F PUSH1 0x44 DUP3 ADD MSTORE PUSH15 0x3732BC34B9BA32B73A103A37B5B2B7 PUSH1 0x89 SHL PUSH1 0x64 DUP3 ADD MSTORE PUSH1 0x84 ADD PUSH2 0x4DD JUMP JUMPDEST PUSH1 0x0 PUSH1 0x9 DUP1 SLOAD PUSH2 0x836 SWAP1 PUSH2 0x1517 JUMP JUMPDEST SWAP1 POP GT PUSH2 0x852 JUMPI PUSH1 0x40 MLOAD DUP1 PUSH1 0x20 ADD PUSH1 0x40 MSTORE DUP1 PUSH1 0x0 DUP2 MSTORE POP PUSH2 0x30D JUMP JUMPDEST PUSH1 0x9 PUSH2 0x85D DUP4 PUSH2 0xE0D JUMP JUMPDEST PUSH1 0xA PUSH1 0x40 MLOAD PUSH1 0x20 ADD PUSH2 0x871 SWAP4 SWAP3 SWAP2 SWAP1 PUSH2 0x1664 JUMP JUMPDEST PUSH1 0x40 MLOAD PUSH1 0x20 DUP2 DUP4 SUB SUB DUP2 MSTORE SWAP1 PUSH1 0x40 MSTORE SWAP3 SWAP2 POP POP JUMP JUMPDEST CALLER PUSH2 0x88F PUSH2 0x6A8 JUMP JUMPDEST PUSH1 0x1 PUSH1 0x1 PUSH1 0xA0 SHL SUB AND EQ PUSH2 0x8B5 JUMPI PUSH1 0x40 MLOAD PUSH3 0x461BCD PUSH1 0xE5 SHL DUP2 MSTORE PUSH1 0x4 ADD PUSH2 0x4DD SWAP1 PUSH2 0x1551 JUMP JUMPDEST PUSH1 0x1 PUSH1 0x1 PUSH1 0xA0 SHL SUB DUP2 AND PUSH2 0x91A JUMPI PUSH1 0x40 MLOAD PUSH3 0x461BCD PUSH1 0xE5 SHL DUP2 MSTORE PUSH1 0x20 PUSH1 0x4 DUP3 ADD MSTORE PUSH1 0x26 PUSH1 0x24 DUP3 ADD MSTORE PUSH32 0x4F776E61626C653A206E6577206F776E657220697320746865207A65726F2061 PUSH1 0x44 DUP3 ADD MSTORE PUSH6 0x646472657373 PUSH1 0xD0 SHL PUSH1 0x64 DUP3 ADD MSTORE PUSH1 0x84 ADD PUSH2 0x4DD JUMP JUMPDEST PUSH2 0x923 DUP2 PUSH2 0xCA2 JUMP JUMPDEST POP JUMP JUMPDEST PUSH1 0x0 DUP1 SLOAD DUP3 LT DUP1 ISZERO PUSH2 0x30D JUMPI POP POP PUSH1 0x0 SWAP1 DUP2 MSTORE PUSH1 0x4 PUSH1 0x20 MSTORE PUSH1 0x40 SWAP1 KECCAK256 SLOAD PUSH1 0x1 PUSH1 0xE0 SHL SWAP1 DIV PUSH1 0xFF AND ISZERO SWAP1 JUMP JUMPDEST PUSH1 0x0 DUP3 DUP2 MSTORE PUSH1 0x6 PUSH1 0x20 MSTORE PUSH1 0x40 DUP1 DUP3 KECCAK256 DUP1 SLOAD PUSH1 0x1 PUSH1 0x1 PUSH1 0xA0 SHL SUB NOT AND PUSH1 0x1 PUSH1 0x1 PUSH1 0xA0 SHL SUB DUP8 DUP2 AND SWAP2 DUP3 OR SWAP1 SWAP3 SSTORE SWAP2 MLOAD DUP6 SWAP4 SWAP2 DUP6 AND SWAP2 PUSH32 0x8C5BE1E5EBEC7D5BD14F71427D1E84F3DD0314C0F7B2291E5B200AC8C7C3B925 SWAP2 LOG4 POP POP POP JUMP JUMPDEST PUSH1 0x0 PUSH2 0x9B8 DUP3 PUSH2 0xB88 JUMP JUMPDEST SWAP1 POP DUP4 PUSH1 0x1 PUSH1 0x1 PUSH1 0xA0 SHL SUB AND DUP2 PUSH1 0x0 ADD MLOAD PUSH1 0x1 PUSH1 0x1 PUSH1 0xA0 SHL SUB AND EQ PUSH2 0x9EF JUMPI PUSH1 0x40 MLOAD PUSH3 0xA11481 PUSH1 0xE8 SHL DUP2 MSTORE PUSH1 0x4 ADD PUSH1 0x40 MLOAD DUP1 SWAP2 SUB SWAP1 REVERT JUMPDEST PUSH1 0x0 CALLER PUSH1 0x1 PUSH1 0x1 PUSH1 0xA0 SHL SUB DUP7 AND EQ DUP1 PUSH2 0xA0D JUMPI POP PUSH2 0xA0D DUP6 CALLER PUSH2 0x280 JUMP JUMPDEST DUP1 PUSH2 0xA28 JUMPI POP CALLER PUSH2 0xA1D DUP5 PUSH2 0x3A5 JUMP JUMPDEST PUSH1 0x1 PUSH1 0x1 PUSH1 0xA0 SHL SUB AND EQ JUMPDEST SWAP1 POP DUP1 PUSH2 0xA48 JUMPI PUSH1 0x40 MLOAD PUSH4 0x2CE44B5F PUSH1 0xE1 SHL DUP2 MSTORE PUSH1 0x4 ADD PUSH1 0x40 MLOAD DUP1 SWAP2 SUB SWAP1 REVERT JUMPDEST PUSH1 0x1 PUSH1 0x1 PUSH1 0xA0 SHL SUB DUP5 AND PUSH2 0xA6F JUMPI PUSH1 0x40 MLOAD PUSH4 0x3A954ECD PUSH1 0xE2 SHL DUP2 MSTORE PUSH1 0x4 ADD PUSH1 0x40 MLOAD DUP1 SWAP2 SUB SWAP1 REVERT JUMPDEST PUSH2 0xA7B PUSH1 0x0 DUP5 DUP8 PUSH2 0x951 JUMP JUMPDEST PUSH1 0x1 PUSH1 0x1 PUSH1 0xA0 SHL SUB DUP6 DUP2 AND PUSH1 0x0 SWAP1 DUP2 MSTORE PUSH1 0x5 PUSH1 0x20 SWAP1 DUP2 MSTORE PUSH1 0x40 DUP1 DUP4 KECCAK256 DUP1 SLOAD PUSH1 0x1 PUSH1 0x1 PUSH1 0x40 SHL SUB NOT DUP1 DUP3 AND PUSH1 0x1 PUSH1 0x1 PUSH1 0x40 SHL SUB SWAP3 DUP4 AND PUSH1 0x0 NOT ADD DUP4 AND OR SWAP1 SWAP3 SSTORE DUP10 DUP7 AND DUP1 DUP7 MSTORE DUP4 DUP7 KECCAK256 DUP1 SLOAD SWAP4 DUP5 AND SWAP4 DUP4 AND PUSH1 0x1 SWAP1 DUP2 ADD DUP5 AND SWAP5 SWAP1 SWAP5 OR SWAP1 SSTORE DUP10 DUP7 MSTORE PUSH1 0x4 SWAP1 SWAP5 MSTORE DUP3 DUP6 KECCAK256 DUP1 SLOAD PUSH1 0x1 PUSH1 0x1 PUSH1 0xE0 SHL SUB NOT AND SWAP1 SWAP5 OR PUSH1 0x1 PUSH1 0xA0 SHL TIMESTAMP SWAP1 SWAP3 AND SWAP2 SWAP1 SWAP2 MUL OR DUP4 SSTORE DUP8 ADD DUP1 DUP5 MSTORE SWAP3 KECCAK256 DUP1 SLOAD SWAP2 SWAP4 SWAP1 SWAP2 AND PUSH2 0xB4E JUMPI PUSH1 0x0 SLOAD DUP3 EQ PUSH2 0xB4E JUMPI DUP1 SLOAD PUSH1 0x20 DUP7 ADD MLOAD PUSH1 0x1 PUSH1 0x1 PUSH1 0x40 SHL SUB AND PUSH1 0x1 PUSH1 0xA0 SHL MUL PUSH1 0x1 PUSH1 0x1 PUSH1 0xE0 SHL SUB NOT SWAP1 SWAP2 AND PUSH1 0x1 PUSH1 0x1 PUSH1 0xA0 SHL SUB DUP11 AND OR OR DUP2 SSTORE JUMPDEST POP POP POP DUP3 DUP5 PUSH1 0x1 PUSH1 0x1 PUSH1 0xA0 SHL SUB AND DUP7 PUSH1 0x1 PUSH1 0x1 PUSH1 0xA0 SHL SUB AND PUSH1 0x0 DUP1 MLOAD PUSH1 0x20 PUSH2 0x175F DUP4 CODECOPY DUP2 MLOAD SWAP2 MSTORE PUSH1 0x40 MLOAD PUSH1 0x40 MLOAD DUP1 SWAP2 SUB SWAP1 LOG4 JUMPDEST POP POP POP POP POP JUMP JUMPDEST PUSH1 0x40 DUP1 MLOAD PUSH1 0x60 DUP2 ADD DUP3 MSTORE PUSH1 0x0 DUP1 DUP3 MSTORE PUSH1 0x20 DUP3 ADD DUP2 SWAP1 MSTORE SWAP2 DUP2 ADD SWAP2 SWAP1 SWAP2 MSTORE DUP2 PUSH1 0x0 SLOAD DUP2 LT ISZERO PUSH2 0xC89 JUMPI PUSH1 0x0 DUP2 DUP2 MSTORE PUSH1 0x4 PUSH1 0x20 SWAP1 DUP2 MSTORE PUSH1 0x40 SWAP2 DUP3 SWAP1 KECCAK256 DUP3 MLOAD PUSH1 0x60 DUP2 ADD DUP5 MSTORE SWAP1 SLOAD PUSH1 0x1 PUSH1 0x1 PUSH1 0xA0 SHL SUB DUP2 AND DUP3 MSTORE PUSH1 0x1 PUSH1 0xA0 SHL DUP2 DIV PUSH1 0x1 PUSH1 0x1 PUSH1 0x40 SHL SUB AND SWAP3 DUP3 ADD SWAP3 SWAP1 SWAP3 MSTORE PUSH1 0x1 PUSH1 0xE0 SHL SWAP1 SWAP2 DIV PUSH1 0xFF AND ISZERO ISZERO SWAP2 DUP2 ADD DUP3 SWAP1 MSTORE SWAP1 PUSH2 0xC87 JUMPI DUP1 MLOAD PUSH1 0x1 PUSH1 0x1 PUSH1 0xA0 SHL SUB AND ISZERO PUSH2 0xC1E JUMPI SWAP4 SWAP3 POP POP POP JUMP JUMPDEST POP PUSH1 0x0 NOT ADD PUSH1 0x0 DUP2 DUP2 MSTORE PUSH1 0x4 PUSH1 0x20 SWAP1 DUP2 MSTORE PUSH1 0x40 SWAP2 DUP3 SWAP1 KECCAK256 DUP3 MLOAD PUSH1 0x60 DUP2 ADD DUP5 MSTORE SWAP1 SLOAD PUSH1 0x1 PUSH1 0x1 PUSH1 0xA0 SHL SUB DUP2 AND DUP1 DUP4 MSTORE PUSH1 0x1 PUSH1 0xA0 SHL DUP3 DIV PUSH1 0x1 PUSH1 0x1 PUSH1 0x40 SHL SUB AND SWAP4 DUP4 ADD SWAP4 SWAP1 SWAP4 MSTORE PUSH1 0x1 PUSH1 0xE0 SHL SWAP1 DIV PUSH1 0xFF AND ISZERO ISZERO SWAP3 DUP2 ADD SWAP3 SWAP1 SWAP3 MSTORE ISZERO PUSH2 0xC82 JUMPI SWAP4 SWAP3 POP POP POP JUMP JUMPDEST PUSH2 0xC1E JUMP JUMPDEST POP JUMPDEST PUSH1 0x40 MLOAD PUSH4 0x6F96CDA1 PUSH1 0xE1 SHL DUP2 MSTORE PUSH1 0x4 ADD PUSH1 0x40 MLOAD DUP1 SWAP2 SUB SWAP1 REVERT JUMPDEST PUSH1 0x8 DUP1 SLOAD PUSH1 0x1 PUSH1 0x1 PUSH1 0xA0 SHL SUB DUP4 DUP2 AND PUSH1 0x1 PUSH1 0x1 PUSH1 0xA0 SHL SUB NOT DUP4 AND DUP2 OR SWAP1 SWAP4 SSTORE PUSH1 0x40 MLOAD SWAP2 AND SWAP2 SWAP1 DUP3 SWAP1 PUSH32 0x8BE0079C531659141344CD1FD0A4F28419497F9722A3DAAFE3B4186F6B6457E0 SWAP1 PUSH1 0x0 SWAP1 LOG3 POP POP JUMP JUMPDEST PUSH2 0xD0E DUP3 DUP3 PUSH1 0x40 MLOAD DUP1 PUSH1 0x20 ADD PUSH1 0x40 MSTORE DUP1 PUSH1 0x0 DUP2 MSTORE POP PUSH2 0xF0D JUMP JUMPDEST POP POP JUMP JUMPDEST PUSH1 0x1 PUSH1 0x1 PUSH1 0xA0 SHL SUB AND EXTCODESIZE ISZERO ISZERO SWAP1 JUMP JUMPDEST PUSH1 0x40 MLOAD PUSH4 0xA85BD01 PUSH1 0xE1 SHL DUP2 MSTORE PUSH1 0x0 SWAP1 PUSH1 0x1 PUSH1 0x1 PUSH1 0xA0 SHL SUB DUP6 AND SWAP1 PUSH4 0x150B7A02 SWAP1 PUSH2 0xD56 SWAP1 CALLER SWAP1 DUP10 SWAP1 DUP9 SWAP1 DUP9 SWAP1 PUSH1 0x4 ADD PUSH2 0x1697 JUMP JUMPDEST PUSH1 0x20 PUSH1 0x40 MLOAD DUP1 DUP4 SUB DUP2 PUSH1 0x0 DUP8 GAS CALL SWAP3 POP POP POP DUP1 ISZERO PUSH2 0xD91 JUMPI POP PUSH1 0x40 DUP1 MLOAD PUSH1 0x1F RETURNDATASIZE SWAP1 DUP2 ADD PUSH1 0x1F NOT AND DUP3 ADD SWAP1 SWAP3 MSTORE PUSH2 0xD8E SWAP2 DUP2 ADD SWAP1 PUSH2 0x16D4 JUMP JUMPDEST PUSH1 0x1 JUMPDEST PUSH2 0xDEF JUMPI RETURNDATASIZE DUP1 DUP1 ISZERO PUSH2 0xDBF JUMPI PUSH1 0x40 MLOAD SWAP2 POP PUSH1 0x1F NOT PUSH1 0x3F RETURNDATASIZE ADD AND DUP3 ADD PUSH1 0x40 MSTORE RETURNDATASIZE DUP3 MSTORE RETURNDATASIZE PUSH1 0x0 PUSH1 0x20 DUP5 ADD RETURNDATACOPY PUSH2 0xDC4 JUMP JUMPDEST PUSH1 0x60 SWAP2 POP JUMPDEST POP DUP1 MLOAD PUSH1 0x0 SUB PUSH2 0xDE7 JUMPI PUSH1 0x40 MLOAD PUSH4 0x68D2BF6B PUSH1 0xE1 SHL DUP2 MSTORE PUSH1 0x4 ADD PUSH1 0x40 MLOAD DUP1 SWAP2 SUB SWAP1 REVERT JUMPDEST DUP1 MLOAD DUP2 PUSH1 0x20 ADD REVERT JUMPDEST PUSH1 0x1 PUSH1 0x1 PUSH1 0xE0 SHL SUB NOT AND PUSH4 0xA85BD01 PUSH1 0xE1 SHL EQ SWAP1 POP JUMPDEST SWAP5 SWAP4 POP POP POP POP JUMP JUMPDEST PUSH1 0x60 DUP2 PUSH1 0x0 SUB PUSH2 0xE34 JUMPI POP POP PUSH1 0x40 DUP1 MLOAD DUP1 DUP3 ADD SWAP1 SWAP2 MSTORE PUSH1 0x1 DUP2 MSTORE PUSH1 0x3 PUSH1 0xFC SHL PUSH1 0x20 DUP3 ADD MSTORE SWAP1 JUMP JUMPDEST DUP2 PUSH1 0x0 JUMPDEST DUP2 ISZERO PUSH2 0xE5E JUMPI DUP1 PUSH2 0xE48 DUP2 PUSH2 0x15B2 JUMP JUMPDEST SWAP2 POP PUSH2 0xE57 SWAP1 POP PUSH1 0xA DUP4 PUSH2 0x1707 JUMP JUMPDEST SWAP2 POP PUSH2 0xE38 JUMP JUMPDEST PUSH1 0x0 DUP2 PUSH1 0x1 PUSH1 0x1 PUSH1 0x40 SHL SUB DUP2 GT ISZERO PUSH2 0xE78 JUMPI PUSH2 0xE78 PUSH2 0x1290 JUMP JUMPDEST PUSH1 0x40 MLOAD SWAP1 DUP1 DUP3 MSTORE DUP1 PUSH1 0x1F ADD PUSH1 0x1F NOT AND PUSH1 0x20 ADD DUP3 ADD PUSH1 0x40 MSTORE DUP1 ISZERO PUSH2 0xEA2 JUMPI PUSH1 0x20 DUP3 ADD DUP2 DUP1 CALLDATASIZE DUP4 CALLDATACOPY ADD SWAP1 POP JUMPDEST POP SWAP1 POP JUMPDEST DUP5 ISZERO PUSH2 0xE05 JUMPI PUSH2 0xEB7 PUSH1 0x1 DUP4 PUSH2 0x171B JUMP JUMPDEST SWAP2 POP PUSH2 0xEC4 PUSH1 0xA DUP7 PUSH2 0x1732 JUMP JUMPDEST PUSH2 0xECF SWAP1 PUSH1 0x30 PUSH2 0x1746 JUMP JUMPDEST PUSH1 0xF8 SHL DUP2 DUP4 DUP2 MLOAD DUP2 LT PUSH2 0xEE4 JUMPI PUSH2 0xEE4 PUSH2 0x1586 JUMP JUMPDEST PUSH1 0x20 ADD ADD SWAP1 PUSH1 0x1 PUSH1 0x1 PUSH1 0xF8 SHL SUB NOT AND SWAP1 DUP2 PUSH1 0x0 BYTE SWAP1 MSTORE8 POP PUSH2 0xF06 PUSH1 0xA DUP7 PUSH2 0x1707 JUMP JUMPDEST SWAP5 POP PUSH2 0xEA6 JUMP JUMPDEST PUSH2 0x471 DUP4 DUP4 DUP4 PUSH1 0x1 PUSH1 0x0 SLOAD PUSH1 0x1 PUSH1 0x1 PUSH1 0xA0 SHL SUB DUP6 AND PUSH2 0xF3E JUMPI PUSH1 0x40 MLOAD PUSH3 0x2E0763 PUSH1 0xE8 SHL DUP2 MSTORE PUSH1 0x4 ADD PUSH1 0x40 MLOAD DUP1 SWAP2 SUB SWAP1 REVERT JUMPDEST DUP4 PUSH1 0x0 SUB PUSH2 0xF5F JUMPI PUSH1 0x40 MLOAD PUSH4 0xB562E8DD PUSH1 0xE0 SHL DUP2 MSTORE PUSH1 0x4 ADD PUSH1 0x40 MLOAD DUP1 SWAP2 SUB SWAP1 REVERT JUMPDEST PUSH1 0x1 PUSH1 0x1 PUSH1 0xA0 SHL SUB DUP6 AND PUSH1 0x0 DUP2 DUP2 MSTORE PUSH1 0x5 PUSH1 0x20 SWAP1 DUP2 MSTORE PUSH1 0x40 DUP1 DUP4 KECCAK256 DUP1 SLOAD PUSH1 0x1 PUSH1 0x1 PUSH1 0x80 SHL SUB NOT DUP2 AND PUSH1 0x1 PUSH1 0x1 PUSH1 0x40 SHL SUB DUP1 DUP4 AND DUP13 ADD DUP2 AND SWAP2 DUP3 OR PUSH1 0x1 PUSH1 0x40 SHL PUSH1 0x1 PUSH1 0x1 PUSH1 0x40 SHL SUB NOT SWAP1 SWAP5 AND SWAP1 SWAP3 OR DUP4 SWAP1 DIV DUP2 AND DUP13 ADD DUP2 AND SWAP1 SWAP3 MUL OR SWAP1 SWAP2 SSTORE DUP6 DUP5 MSTORE PUSH1 0x4 SWAP1 SWAP3 MSTORE SWAP1 SWAP2 KECCAK256 DUP1 SLOAD PUSH1 0x1 PUSH1 0x1 PUSH1 0xE0 SHL SUB NOT AND SWAP1 SWAP3 OR PUSH1 0x1 PUSH1 0xA0 SHL TIMESTAMP SWAP1 SWAP3 AND SWAP2 SWAP1 SWAP2 MUL OR SWAP1 SSTORE DUP1 DUP1 DUP6 ADD DUP4 DUP1 ISZERO PUSH2 0x1005 JUMPI POP PUSH2 0x1005 DUP8 PUSH1 0x1 PUSH1 0x1 PUSH1 0xA0 SHL SUB AND PUSH2 0xD12 JUMP JUMPDEST ISZERO PUSH2 0x107B JUMPI JUMPDEST PUSH1 0x40 MLOAD DUP3 SWAP1 PUSH1 0x1 PUSH1 0x1 PUSH1 0xA0 SHL SUB DUP10 AND SWAP1 PUSH1 0x0 SWAP1 PUSH1 0x0 DUP1 MLOAD PUSH1 0x20 PUSH2 0x175F DUP4 CODECOPY DUP2 MLOAD SWAP2 MSTORE SWAP1 DUP3 SWAP1 LOG4 PUSH2 0x1044 PUSH1 0x0 DUP9 DUP5 DUP1 PUSH1 0x1 ADD SWAP6 POP DUP9 PUSH2 0xD21 JUMP JUMPDEST PUSH2 0x1061 JUMPI PUSH1 0x40 MLOAD PUSH4 0x68D2BF6B PUSH1 0xE1 SHL DUP2 MSTORE PUSH1 0x4 ADD PUSH1 0x40 MLOAD DUP1 SWAP2 SUB SWAP1 REVERT JUMPDEST DUP1 DUP3 SUB PUSH2 0x100B JUMPI DUP3 PUSH1 0x0 SLOAD EQ PUSH2 0x1076 JUMPI PUSH1 0x0 DUP1 REVERT JUMPDEST PUSH2 0x10AE JUMP JUMPDEST JUMPDEST PUSH1 0x40 MLOAD PUSH1 0x1 DUP4 ADD SWAP3 SWAP1 PUSH1 0x1 PUSH1 0x1 PUSH1 0xA0 SHL SUB DUP10 AND SWAP1 PUSH1 0x0 SWAP1 PUSH1 0x0 DUP1 MLOAD PUSH1 0x20 PUSH2 0x175F DUP4 CODECOPY DUP2 MLOAD SWAP2 MSTORE SWAP1 DUP3 SWAP1 LOG4 DUP1 DUP3 SUB PUSH2 0x107C JUMPI JUMPDEST POP PUSH1 0x0 SSTORE PUSH2 0xB81 JUMP JUMPDEST DUP3 DUP1 SLOAD PUSH2 0x10C3 SWAP1 PUSH2 0x1517 JUMP JUMPDEST SWAP1 PUSH1 0x0 MSTORE PUSH1 0x20 PUSH1 0x0 KECCAK256 SWAP1 PUSH1 0x1F ADD PUSH1 0x20 SWAP1 DIV DUP2 ADD SWAP3 DUP3 PUSH2 0x10E5 JUMPI PUSH1 0x0 DUP6 SSTORE PUSH2 0x112B JUMP JUMPDEST DUP3 PUSH1 0x1F LT PUSH2 0x10FE JUMPI DUP1 MLOAD PUSH1 0xFF NOT AND DUP4 DUP1 ADD OR DUP6 SSTORE PUSH2 0x112B JUMP JUMPDEST DUP3 DUP1 ADD PUSH1 0x1 ADD DUP6 SSTORE DUP3 ISZERO PUSH2 0x112B JUMPI SWAP2 DUP3 ADD JUMPDEST DUP3 DUP2 GT ISZERO PUSH2 0x112B JUMPI DUP3 MLOAD DUP3 SSTORE SWAP2 PUSH1 0x20 ADD SWAP2 SWAP1 PUSH1 0x1 ADD SWAP1 PUSH2 0x1110 JUMP JUMPDEST POP PUSH2 0x1137 SWAP3 SWAP2 POP PUSH2 0x113B JUMP JUMPDEST POP SWAP1 JUMP JUMPDEST JUMPDEST DUP1 DUP3 GT ISZERO PUSH2 0x1137 JUMPI PUSH1 0x0 DUP2 SSTORE PUSH1 0x1 ADD PUSH2 0x113C JUMP JUMPDEST PUSH1 0x1 PUSH1 0x1 PUSH1 0xE0 SHL SUB NOT DUP2 AND DUP2 EQ PUSH2 0x923 JUMPI PUSH1 0x0 DUP1 REVERT JUMPDEST PUSH1 0x0 PUSH1 0x20 DUP3 DUP5 SUB SLT ISZERO PUSH2 0x1178 JUMPI PUSH1 0x0 DUP1 REVERT JUMPDEST DUP2 CALLDATALOAD PUSH2 0x1183 DUP2 PUSH2 0x1150 JUMP JUMPDEST SWAP4 SWAP3 POP POP POP JUMP JUMPDEST PUSH1 0x0 JUMPDEST DUP4 DUP2 LT ISZERO PUSH2 0x11A5 JUMPI DUP2 DUP2 ADD MLOAD DUP4 DUP3 ADD MSTORE PUSH1 0x20 ADD PUSH2 0x118D JUMP JUMPDEST DUP4 DUP2 GT ISZERO PUSH2 0x6A2 JUMPI POP POP PUSH1 0x0 SWAP2 ADD MSTORE JUMP JUMPDEST PUSH1 0x0 DUP2 MLOAD DUP1 DUP5 MSTORE PUSH2 0x11CE DUP2 PUSH1 0x20 DUP7 ADD PUSH1 0x20 DUP7 ADD PUSH2 0x118A JUMP JUMPDEST PUSH1 0x1F ADD PUSH1 0x1F NOT AND SWAP3 SWAP1 SWAP3 ADD PUSH1 0x20 ADD SWAP3 SWAP2 POP POP JUMP JUMPDEST PUSH1 0x20 DUP2 MSTORE PUSH1 0x0 PUSH2 0x1183 PUSH1 0x20 DUP4 ADD DUP5 PUSH2 0x11B6 JUMP JUMPDEST PUSH1 0x0 PUSH1 0x20 DUP3 DUP5 SUB SLT ISZERO PUSH2 0x1207 JUMPI PUSH1 0x0 DUP1 REVERT JUMPDEST POP CALLDATALOAD SWAP2 SWAP1 POP JUMP JUMPDEST DUP1 CALLDATALOAD PUSH1 0x1 PUSH1 0x1 PUSH1 0xA0 SHL SUB DUP2 AND DUP2 EQ PUSH2 0x1225 JUMPI PUSH1 0x0 DUP1 REVERT JUMPDEST SWAP2 SWAP1 POP JUMP JUMPDEST PUSH1 0x0 DUP1 PUSH1 0x40 DUP4 DUP6 SUB SLT ISZERO PUSH2 0x123D JUMPI PUSH1 0x0 DUP1 REVERT JUMPDEST PUSH2 0x1246 DUP4 PUSH2 0x120E JUMP JUMPDEST SWAP5 PUSH1 0x20 SWAP4 SWAP1 SWAP4 ADD CALLDATALOAD SWAP4 POP POP POP JUMP JUMPDEST PUSH1 0x0 DUP1 PUSH1 0x0 PUSH1 0x60 DUP5 DUP7 SUB SLT ISZERO PUSH2 0x1269 JUMPI PUSH1 0x0 DUP1 REVERT JUMPDEST PUSH2 0x1272 DUP5 PUSH2 0x120E JUMP JUMPDEST SWAP3 POP PUSH2 0x1280 PUSH1 0x20 DUP6 ADD PUSH2 0x120E JUMP JUMPDEST SWAP2 POP PUSH1 0x40 DUP5 ADD CALLDATALOAD SWAP1 POP SWAP3 POP SWAP3 POP SWAP3 JUMP JUMPDEST PUSH4 0x4E487B71 PUSH1 0xE0 SHL PUSH1 0x0 MSTORE PUSH1 0x41 PUSH1 0x4 MSTORE PUSH1 0x24 PUSH1 0x0 REVERT JUMPDEST PUSH1 0x0 PUSH1 0x1 PUSH1 0x1 PUSH1 0x40 SHL SUB DUP1 DUP5 GT ISZERO PUSH2 0x12C0 JUMPI PUSH2 0x12C0 PUSH2 0x1290 JUMP JUMPDEST PUSH1 0x40 MLOAD PUSH1 0x1F DUP6 ADD PUSH1 0x1F NOT SWAP1 DUP2 AND PUSH1 0x3F ADD AND DUP2 ADD SWAP1 DUP3 DUP3 GT DUP2 DUP4 LT OR ISZERO PUSH2 0x12E8 JUMPI PUSH2 0x12E8 PUSH2 0x1290 JUMP JUMPDEST DUP2 PUSH1 0x40 MSTORE DUP1 SWAP4 POP DUP6 DUP2 MSTORE DUP7 DUP7 DUP7 ADD GT ISZERO PUSH2 0x1301 JUMPI PUSH1 0x0 DUP1 REVERT JUMPDEST DUP6 DUP6 PUSH1 0x20 DUP4 ADD CALLDATACOPY PUSH1 0x0 PUSH1 0x20 DUP8 DUP4 ADD ADD MSTORE POP POP POP SWAP4 SWAP3 POP POP POP JUMP JUMPDEST PUSH1 0x0 DUP3 PUSH1 0x1F DUP4 ADD SLT PUSH2 0x132C JUMPI PUSH1 0x0 DUP1 REVERT JUMPDEST PUSH2 0x1183 DUP4 DUP4 CALLDATALOAD PUSH1 0x20 DUP6 ADD PUSH2 0x12A6 JUMP JUMPDEST PUSH1 0x0 DUP1 PUSH1 0x40 DUP4 DUP6 SUB SLT ISZERO PUSH2 0x134E JUMPI PUSH1 0x0 DUP1 REVERT JUMPDEST DUP3 CALLDATALOAD PUSH1 0x1 PUSH1 0x1 PUSH1 0x40 SHL SUB DUP1 DUP3 GT ISZERO PUSH2 0x1365 JUMPI PUSH1 0x0 DUP1 REVERT JUMPDEST PUSH2 0x1371 DUP7 DUP4 DUP8 ADD PUSH2 0x131B JUMP JUMPDEST SWAP4 POP PUSH1 0x20 DUP6 ADD CALLDATALOAD SWAP2 POP DUP1 DUP3 GT ISZERO PUSH2 0x1387 JUMPI PUSH1 0x0 DUP1 REVERT JUMPDEST POP PUSH2 0x1394 DUP6 DUP3 DUP7 ADD PUSH2 0x131B JUMP JUMPDEST SWAP2 POP POP SWAP3 POP SWAP3 SWAP1 POP JUMP JUMPDEST PUSH1 0x0 PUSH1 0x20 DUP3 DUP5 SUB SLT ISZERO PUSH2 0x13B0 JUMPI PUSH1 0x0 DUP1 REVERT JUMPDEST PUSH2 0x1183 DUP3 PUSH2 0x120E JUMP JUMPDEST PUSH1 0x0 DUP1 PUSH1 0x20 DUP4 DUP6 SUB SLT ISZERO PUSH2 0x13CC JUMPI PUSH1 0x0 DUP1 REVERT JUMPDEST DUP3 CALLDATALOAD PUSH1 0x1 PUSH1 0x1 PUSH1 0x40 SHL SUB DUP1 DUP3 GT ISZERO PUSH2 0x13E3 JUMPI PUSH1 0x0 DUP1 REVERT JUMPDEST DUP2 DUP6 ADD SWAP2 POP DUP6 PUSH1 0x1F DUP4 ADD SLT PUSH2 0x13F7 JUMPI PUSH1 0x0 DUP1 REVERT JUMPDEST DUP2 CALLDATALOAD DUP2 DUP2 GT ISZERO PUSH2 0x1406 JUMPI PUSH1 0x0 DUP1 REVERT JUMPDEST DUP7 PUSH1 0x20 DUP3 PUSH1 0x5 SHL DUP6 ADD ADD GT ISZERO PUSH2 0x141B JUMPI PUSH1 0x0 DUP1 REVERT JUMPDEST PUSH1 0x20 SWAP3 SWAP1 SWAP3 ADD SWAP7 SWAP2 SWAP6 POP SWAP1 SWAP4 POP POP POP POP JUMP JUMPDEST PUSH1 0x0 DUP1 PUSH1 0x40 DUP4 DUP6 SUB SLT ISZERO PUSH2 0x1440 JUMPI PUSH1 0x0 DUP1 REVERT JUMPDEST PUSH2 0x1449 DUP4 PUSH2 0x120E JUMP JUMPDEST SWAP2 POP PUSH1 0x20 DUP4 ADD CALLDATALOAD DUP1 ISZERO ISZERO DUP2 EQ PUSH2 0x145E JUMPI PUSH1 0x0 DUP1 REVERT JUMPDEST DUP1 SWAP2 POP POP SWAP3 POP SWAP3 SWAP1 POP JUMP JUMPDEST PUSH1 0x0 DUP1 PUSH1 0x0 DUP1 PUSH1 0x80 DUP6 DUP8 SUB SLT ISZERO PUSH2 0x147F JUMPI PUSH1 0x0 DUP1 REVERT JUMPDEST PUSH2 0x1488 DUP6 PUSH2 0x120E JUMP JUMPDEST SWAP4 POP PUSH2 0x1496 PUSH1 0x20 DUP7 ADD PUSH2 0x120E JUMP JUMPDEST SWAP3 POP PUSH1 0x40 DUP6 ADD CALLDATALOAD SWAP2 POP PUSH1 0x60 DUP6 ADD CALLDATALOAD PUSH1 0x1 PUSH1 0x1 PUSH1 0x40 SHL SUB DUP2 GT ISZERO PUSH2 0x14B8 JUMPI PUSH1 0x0 DUP1 REVERT JUMPDEST DUP6 ADD PUSH1 0x1F DUP2 ADD DUP8 SGT PUSH2 0x14C9 JUMPI PUSH1 0x0 DUP1 REVERT JUMPDEST PUSH2 0x14D8 DUP8 DUP3 CALLDATALOAD PUSH1 0x20 DUP5 ADD PUSH2 0x12A6 JUMP JUMPDEST SWAP2 POP POP SWAP3 SWAP6 SWAP2 SWAP5 POP SWAP3 POP JUMP JUMPDEST PUSH1 0x0 DUP1 PUSH1 0x40 DUP4 DUP6 SUB SLT ISZERO PUSH2 0x14F7 JUMPI PUSH1 0x0 DUP1 REVERT JUMPDEST PUSH2 0x1500 DUP4 PUSH2 0x120E JUMP JUMPDEST SWAP2 POP PUSH2 0x150E PUSH1 0x20 DUP5 ADD PUSH2 0x120E JUMP JUMPDEST SWAP1 POP SWAP3 POP SWAP3 SWAP1 POP JUMP JUMPDEST PUSH1 0x1 DUP2 DUP2 SHR SWAP1 DUP3 AND DUP1 PUSH2 0x152B JUMPI PUSH1 0x7F DUP3 AND SWAP2 POP JUMPDEST PUSH1 0x20 DUP3 LT DUP2 SUB PUSH2 0x154B JUMPI PUSH4 0x4E487B71 PUSH1 0xE0 SHL PUSH1 0x0 MSTORE PUSH1 0x22 PUSH1 0x4 MSTORE PUSH1 0x24 PUSH1 0x0 REVERT JUMPDEST POP SWAP2 SWAP1 POP JUMP JUMPDEST PUSH1 0x20 DUP1 DUP3 MSTORE DUP2 DUP2 ADD MSTORE PUSH32 0x4F776E61626C653A2063616C6C6572206973206E6F7420746865206F776E6572 PUSH1 0x40 DUP3 ADD MSTORE PUSH1 0x60 ADD SWAP1 JUMP JUMPDEST PUSH4 0x4E487B71 PUSH1 0xE0 SHL PUSH1 0x0 MSTORE PUSH1 0x32 PUSH1 0x4 MSTORE PUSH1 0x24 PUSH1 0x0 REVERT JUMPDEST PUSH4 0x4E487B71 PUSH1 0xE0 SHL PUSH1 0x0 MSTORE PUSH1 0x11 PUSH1 0x4 MSTORE PUSH1 0x24 PUSH1 0x0 REVERT JUMPDEST PUSH1 0x0 PUSH1 0x1 DUP3 ADD PUSH2 0x15C4 JUMPI PUSH2 0x15C4 PUSH2 0x159C JUMP JUMPDEST POP PUSH1 0x1 ADD SWAP1 JUMP JUMPDEST DUP1 SLOAD PUSH1 0x0 SWAP1 PUSH1 0x1 DUP2 DUP2 SHR SWAP1 DUP1 DUP4 AND DUP1 PUSH2 0x15E5 JUMPI PUSH1 0x7F DUP4 AND SWAP3 POP JUMPDEST PUSH1 0x20 DUP1 DUP5 LT DUP3 SUB PUSH2 0x1606 JUMPI PUSH4 0x4E487B71 PUSH1 0xE0 SHL PUSH1 0x0 MSTORE PUSH1 0x22 PUSH1 0x4 MSTORE PUSH1 0x24 PUSH1 0x0 REVERT JUMPDEST DUP2 DUP1 ISZERO PUSH2 0x161A JUMPI PUSH1 0x1 DUP2 EQ PUSH2 0x162B JUMPI PUSH2 0x1658 JUMP JUMPDEST PUSH1 0xFF NOT DUP7 AND DUP10 MSTORE DUP5 DUP10 ADD SWAP7 POP PUSH2 0x1658 JUMP JUMPDEST PUSH1 0x0 DUP9 DUP2 MSTORE PUSH1 0x20 SWAP1 KECCAK256 PUSH1 0x0 JUMPDEST DUP7 DUP2 LT ISZERO PUSH2 0x1650 JUMPI DUP2 SLOAD DUP12 DUP3 ADD MSTORE SWAP1 DUP6 ADD SWAP1 DUP4 ADD PUSH2 0x1637 JUMP JUMPDEST POP POP DUP5 DUP10 ADD SWAP7 POP JUMPDEST POP POP POP POP POP POP SWAP3 SWAP2 POP POP JUMP JUMPDEST PUSH1 0x0 PUSH2 0x1670 DUP3 DUP7 PUSH2 0x15CB JUMP JUMPDEST DUP5 MLOAD PUSH2 0x1680 DUP2 DUP4 PUSH1 0x20 DUP10 ADD PUSH2 0x118A JUMP JUMPDEST PUSH2 0x168C DUP2 DUP4 ADD DUP7 PUSH2 0x15CB JUMP JUMPDEST SWAP8 SWAP7 POP POP POP POP POP POP POP JUMP JUMPDEST PUSH1 0x1 PUSH1 0x1 PUSH1 0xA0 SHL SUB DUP6 DUP2 AND DUP3 MSTORE DUP5 AND PUSH1 0x20 DUP3 ADD MSTORE PUSH1 0x40 DUP2 ADD DUP4 SWAP1 MSTORE PUSH1 0x80 PUSH1 0x60 DUP3 ADD DUP2 SWAP1 MSTORE PUSH1 0x0 SWAP1 PUSH2 0x16CA SWAP1 DUP4 ADD DUP5 PUSH2 0x11B6 JUMP JUMPDEST SWAP7 SWAP6 POP POP POP POP POP POP JUMP JUMPDEST PUSH1 0x0 PUSH1 0x20 DUP3 DUP5 SUB SLT ISZERO PUSH2 0x16E6 JUMPI PUSH1 0x0 DUP1 REVERT JUMPDEST DUP2 MLOAD PUSH2 0x1183 DUP2 PUSH2 0x1150 JUMP JUMPDEST PUSH4 0x4E487B71 PUSH1 0xE0 SHL PUSH1 0x0 MSTORE PUSH1 0x12 PUSH1 0x4 MSTORE PUSH1 0x24 PUSH1 0x0 REVERT JUMPDEST PUSH1 0x0 DUP3 PUSH2 0x1716 JUMPI PUSH2 0x1716 PUSH2 0x16F1 JUMP JUMPDEST POP DIV SWAP1 JUMP JUMPDEST PUSH1 0x0 DUP3 DUP3 LT ISZERO PUSH2 0x172D JUMPI PUSH2 0x172D PUSH2 0x159C JUMP JUMPDEST POP SUB SWAP1 JUMP JUMPDEST PUSH1 0x0 DUP3 PUSH2 0x1741 JUMPI PUSH2 0x1741 PUSH2 0x16F1 JUMP JUMPDEST POP MOD SWAP1 JUMP JUMPDEST PUSH1 0x0 DUP3 NOT DUP3 GT ISZERO PUSH2 0x1759 JUMPI PUSH2 0x1759 PUSH2 0x159C JUMP JUMPDEST POP ADD SWAP1 JUMP INVALID 0xDD CALLCODE MSTORE 0xAD SHL 0xE2 0xC8 SWAP12 PUSH10 0xC2B068FC378DAA952BA7 CALL PUSH4 0xC4A11628 CREATE2 GAS 0x4D CREATE2 0x23 0xB3 0xEF LOG2 PUSH5 0x6970667358 0x22 SLT KECCAK256 PUSH16 0x9A2D8D2C0A8DB91CD425246DD7EE86F1 PUSH28 0xAEDFD62B906810296D2F8B2FCD6C64736F6C634300080D0033000000 "
				},
				"gasEstimates": {
					"creation": {
						"codeDepositCost": "1213600",
						"executionCost": "infinite",
						"totalCost": "infinite"
					},
					"external": {
						"approve(address,uint256)": "infinite",
						"balanceOf(address)": "2805",
						"baseExtension()": "infinite",
						"baseURI()": "infinite",
						"getApproved(uint256)": "6890",
						"giftCard(address[])": "infinite",
						"isApprovedForAll(address,address)": "infinite",
						"name()": "infinite",
						"owner()": "2610",
						"ownerOf(uint256)": "infinite",
						"renounceOwnership()": "28382",
						"safeTransferFrom(address,address,uint256)": "infinite",
						"safeTransferFrom(address,address,uint256,bytes)": "infinite",
						"setApprovalForAll(address,bool)": "26933",
						"setBaseURI(string,string)": "infinite",
						"supportsInterface(bytes4)": "488",
						"symbol()": "infinite",
						"tokenURI(uint256)": "infinite",
						"totalSupply()": "4453",
						"transferFrom(address,address,uint256)": "infinite",
						"transferOwnership(address)": "28775"
					}
				},
				"methodIdentifiers": {
					"approve(address,uint256)": "095ea7b3",
					"balanceOf(address)": "70a08231",
					"baseExtension()": "c6682862",
					"baseURI()": "6c0360eb",
					"getApproved(uint256)": "081812fc",
					"giftCard(address[])": "7a2d0163",
					"isApprovedForAll(address,address)": "e985e9c5",
					"name()": "06fdde03",
					"owner()": "8da5cb5b",
					"ownerOf(uint256)": "6352211e",
					"renounceOwnership()": "715018a6",
					"safeTransferFrom(address,address,uint256)": "42842e0e",
					"safeTransferFrom(address,address,uint256,bytes)": "b88d4fde",
					"setApprovalForAll(address,bool)": "a22cb465",
					"setBaseURI(string,string)": "6790a9de",
					"supportsInterface(bytes4)": "01ffc9a7",
					"symbol()": "95d89b41",
					"tokenURI(uint256)": "c87b56dd",
					"totalSupply()": "18160ddd",
					"transferFrom(address,address,uint256)": "23b872dd",
					"transferOwnership(address)": "f2fde38b"
				}
			},
			"userdoc": {
				"kind": "user",
				"methods": {},
				"version": 1
			}
		}
	}
}