{
	"contracts/ToonzRewardsCard.sol": {
		"ToonzRewardsCard": {
			"abi": [
				{
					"inputs": [],
					"stateMutability": "nonpayable",
					"type": "constructor"
				},
				{
					"anonymous": false,
					"inputs": [
						{
							"indexed": true,
							"internalType": "address",
							"name": "owner",
							"type": "address"
						},
						{
							"indexed": true,
							"internalType": "address",
							"name": "approved",
							"type": "address"
						},
						{
							"indexed": true,
							"internalType": "uint256",
							"name": "tokenId",
							"type": "uint256"
						}
					],
					"name": "Approval",
					"type": "event"
				},
				{
					"anonymous": false,
					"inputs": [
						{
							"indexed": true,
							"internalType": "address",
							"name": "owner",
							"type": "address"
						},
						{
							"indexed": true,
							"internalType": "address",
							"name": "operator",
							"type": "address"
						},
						{
							"indexed": false,
							"internalType": "bool",
							"name": "approved",
							"type": "bool"
						}
					],
					"name": "ApprovalForAll",
					"type": "event"
				},
				{
					"anonymous": false,
					"inputs": [
						{
							"indexed": true,
							"internalType": "address",
							"name": "previousOwner",
							"type": "address"
						},
						{
							"indexed": true,
							"internalType": "address",
							"name": "newOwner",
							"type": "address"
						}
					],
					"name": "OwnershipTransferred",
					"type": "event"
				},
				{
					"anonymous": false,
					"inputs": [
						{
							"indexed": true,
							"internalType": "address",
							"name": "from",
							"type": "address"
						},
						{
							"indexed": true,
							"internalType": "address",
							"name": "to",
							"type": "address"
						},
						{
							"indexed": true,
							"internalType": "uint256",
							"name": "tokenId",
							"type": "uint256"
						}
					],
					"name": "Transfer",
					"type": "event"
				},
				{
					"inputs": [
						{
							"internalType": "address",
							"name": "to",
							"type": "address"
						},
						{
							"internalType": "uint256",
							"name": "tokenId",
							"type": "uint256"
						}
					],
					"name": "approve",
					"outputs": [],
					"stateMutability": "nonpayable",
					"type": "function"
				},
				{
					"inputs": [
						{
							"internalType": "address",
							"name": "owner",
							"type": "address"
						}
					],
					"name": "balanceOf",
					"outputs": [
						{
							"internalType": "uint256",
							"name": "",
							"type": "uint256"
						}
					],
					"stateMutability": "view",
					"type": "function"
				},
				{
					"inputs": [
						{
							"internalType": "uint256",
							"name": "tokenId",
							"type": "uint256"
						}
					],
					"name": "getApproved",
					"outputs": [
						{
							"internalType": "address",
							"name": "",
							"type": "address"
						}
					],
					"stateMutability": "view",
					"type": "function"
				},
				{
					"inputs": [
						{
							"internalType": "address[]",
							"name": "_recipients",
							"type": "address[]"
						}
					],
					"name": "giftCard",
					"outputs": [],
					"stateMutability": "nonpayable",
					"type": "function"
				},
				{
					"inputs": [
						{
							"internalType": "address",
							"name": "owner",
							"type": "address"
						},
						{
							"internalType": "address",
							"name": "operator",
							"type": "address"
						}
					],
					"name": "isApprovedForAll",
					"outputs": [
						{
							"internalType": "bool",
							"name": "",
							"type": "bool"
						}
					],
					"stateMutability": "view",
					"type": "function"
				},
				{
					"inputs": [],
					"name": "name",
					"outputs": [
						{
							"internalType": "string",
							"name": "",
							"type": "string"
						}
					],
					"stateMutability": "view",
					"type": "function"
				},
				{
					"inputs": [],
					"name": "owner",
					"outputs": [
						{
							"internalType": "address",
							"name": "",
							"type": "address"
						}
					],
					"stateMutability": "view",
					"type": "function"
				},
				{
					"inputs": [
						{
							"internalType": "uint256",
							"name": "tokenId",
							"type": "uint256"
						}
					],
					"name": "ownerOf",
					"outputs": [
						{
							"internalType": "address",
							"name": "",
							"type": "address"
						}
					],
					"stateMutability": "view",
					"type": "function"
				},
				{
					"inputs": [],
					"name": "renounceOwnership",
					"outputs": [],
					"stateMutability": "nonpayable",
					"type": "function"
				},
				{
					"inputs": [
						{
							"internalType": "address",
							"name": "from",
							"type": "address"
						},
						{
							"internalType": "address",
							"name": "to",
							"type": "address"
						},
						{
							"internalType": "uint256",
							"name": "tokenId",
							"type": "uint256"
						}
					],
					"name": "safeTransferFrom",
					"outputs": [],
					"stateMutability": "nonpayable",
					"type": "function"
				},
				{
					"inputs": [
						{
							"internalType": "address",
							"name": "from",
							"type": "address"
						},
						{
							"internalType": "address",
							"name": "to",
							"type": "address"
						},
						{
							"internalType": "uint256",
							"name": "tokenId",
							"type": "uint256"
						},
						{
							"internalType": "bytes",
							"name": "_data",
							"type": "bytes"
						}
					],
					"name": "safeTransferFrom",
					"outputs": [],
					"stateMutability": "nonpayable",
					"type": "function"
				},
				{
					"inputs": [
						{
							"internalType": "address",
							"name": "operator",
							"type": "address"
						},
						{
							"internalType": "bool",
							"name": "approved",
							"type": "bool"
						}
					],
					"name": "setApprovalForAll",
					"outputs": [],
					"stateMutability": "nonpayable",
					"type": "function"
				},
				{
					"inputs": [
						{
							"internalType": "string",
							"name": "tokenURI_",
							"type": "string"
						}
					],
					"name": "setTokenURI",
					"outputs": [],
					"stateMutability": "nonpayable",
					"type": "function"
				},
				{
					"inputs": [
						{
							"internalType": "bytes4",
							"name": "interfaceId",
							"type": "bytes4"
						}
					],
					"name": "supportsInterface",
					"outputs": [
						{
							"internalType": "bool",
							"name": "",
							"type": "bool"
						}
					],
					"stateMutability": "view",
					"type": "function"
				},
				{
					"inputs": [],
					"name": "symbol",
					"outputs": [
						{
							"internalType": "string",
							"name": "",
							"type": "string"
						}
					],
					"stateMutability": "view",
					"type": "function"
				},
				{
					"inputs": [
						{
							"internalType": "uint256",
							"name": "tokenId",
							"type": "uint256"
						}
					],
					"name": "tokenURI",
					"outputs": [
						{
							"internalType": "string",
							"name": "",
							"type": "string"
						}
					],
					"stateMutability": "view",
					"type": "function"
				},
				{
					"inputs": [],
					"name": "totalSupply",
					"outputs": [
						{
							"internalType": "uint256",
							"name": "",
							"type": "uint256"
						}
					],
					"stateMutability": "view",
					"type": "function"
				},
				{
					"inputs": [
						{
							"internalType": "address",
							"name": "from",
							"type": "address"
						},
						{
							"internalType": "address",
							"name": "to",
							"type": "address"
						},
						{
							"internalType": "uint256",
							"name": "tokenId",
							"type": "uint256"
						}
					],
					"name": "transferFrom",
					"outputs": [],
					"stateMutability": "nonpayable",
					"type": "function"
				},
				{
					"inputs": [
						{
							"internalType": "address",
							"name": "newOwner",
							"type": "address"
						}
					],
					"name": "transferOwnership",
					"outputs": [],
					"stateMutability": "nonpayable",
					"type": "function"
				}
			],
			"devdoc": {
				"kind": "dev",
				"methods": {
					"approve(address,uint256)": {
						"details": "See {IERC721-approve}."
					},
					"balanceOf(address)": {
						"details": "See {IERC721-balanceOf}."
					},
					"getApproved(uint256)": {
						"details": "See {IERC721-getApproved}."
					},
					"isApprovedForAll(address,address)": {
						"details": "See {IERC721-isApprovedForAll}."
					},
					"name()": {
						"details": "See {IERC721Metadata-name}."
					},
					"owner()": {
						"details": "Returns the address of the current owner."
					},
					"ownerOf(uint256)": {
						"details": "See {IERC721-ownerOf}."
					},
					"renounceOwnership()": {
						"details": "Leaves the contract without owner. It will not be possible to call `onlyOwner` functions anymore. Can only be called by the current owner. NOTE: Renouncing ownership will leave the contract without an owner, thereby removing any functionality that is only available to the owner."
					},
					"safeTransferFrom(address,address,uint256)": {
						"details": "See {IERC721-safeTransferFrom}."
					},
					"safeTransferFrom(address,address,uint256,bytes)": {
						"details": "See {IERC721-safeTransferFrom}."
					},
					"setApprovalForAll(address,bool)": {
						"details": "See {IERC721-setApprovalForAll}."
					},
					"supportsInterface(bytes4)": {
						"details": "See {IERC165-supportsInterface}."
					},
					"symbol()": {
						"details": "See {IERC721Metadata-symbol}."
					},
					"tokenURI(uint256)": {
						"details": "See {IERC721Metadata-tokenURI}."
					},
					"transferFrom(address,address,uint256)": {
						"details": "See {IERC721-transferFrom}."
					},
					"transferOwnership(address)": {
						"details": "Transfers ownership of the contract to a new account (`newOwner`). Can only be called by the current owner."
					}
				},
				"version": 1
			},
			"evm": {
				"assembly": "    /* \"contracts/ToonzRewardsCard.sol\":224:1176  contract ToonzRewardsCard is ERC721, Ownable {... */\n  mstore(0x40, 0x80)\n    /* \"contracts/ToonzRewardsCard.sol\":439:500  constructor() ERC721(\"Toonz Minter Rewards Card\", \"MINTR\") {} */\n  callvalue\n  dup1\n  iszero\n  tag_1\n  jumpi\n  0x00\n  dup1\n  revert\ntag_1:\n  pop\n    /* \"@openzeppelin/contracts/token/ERC721/ERC721.sol\":1390:1503  constructor(string memory name_, string memory symbol_) {... */\n  0x40\n  dup1\n  mload\n  dup1\n  dup3\n  add\n  dup3\n  mstore\n  0x19\n  dup2\n  mstore\n  0x546f6f6e7a204d696e7465722052657761726473204361726400000000000000\n  0x20\n  dup1\n  dup4\n  add\n  swap2\n  dup3\n  mstore\n  dup4\n  mload\n  dup1\n  dup6\n  add\n  swap1\n  swap5\n  mstore\n  0x05\n  dup5\n  mstore\n  shl(0xd9, 0x26a4a72a29)\n  swap1\n  dup5\n  add\n  mstore\n    /* \"@openzeppelin/contracts/token/ERC721/ERC721.sol\":1456:1469  _name = name_ */\n  dup2\n  mload\n    /* \"@openzeppelin/contracts/token/ERC721/ERC721.sol\":1390:1503  constructor(string memory name_, string memory symbol_) {... */\n  swap2\n  swap3\n  swap2\n    /* \"@openzeppelin/contracts/token/ERC721/ERC721.sol\":1456:1469  _name = name_ */\n  tag_6\n  swap2\n  0x00\n  swap2\n  tag_7\n  jump\t// in\ntag_6:\n  pop\n    /* \"@openzeppelin/contracts/token/ERC721/ERC721.sol\":1479:1496  _symbol = symbol_ */\n  dup1\n  mload\n  tag_8\n  swap1\n    /* \"@openzeppelin/contracts/token/ERC721/ERC721.sol\":1479:1486  _symbol */\n  0x01\n  swap1\n    /* \"@openzeppelin/contracts/token/ERC721/ERC721.sol\":1479:1496  _symbol = symbol_ */\n  0x20\n  dup5\n  add\n  swap1\n  tag_7\n  jump\t// in\ntag_8:\n  pop\n    /* \"@openzeppelin/contracts/token/ERC721/ERC721.sol\":1390:1503  constructor(string memory name_, string memory symbol_) {... */\n  pop\n  pop\n    /* \"@openzeppelin/contracts/access/Ownable.sol\":921:953  _transferOwnership(_msgSender()) */\n  tag_10\n    /* \"@openzeppelin/contracts/access/Ownable.sol\":940:952  _msgSender() */\n  tag_11\n    /* \"@openzeppelin/contracts/access/Ownable.sol\":940:950  _msgSender */\n  shl(0x20, tag_12)\n    /* \"@openzeppelin/contracts/access/Ownable.sol\":940:952  _msgSender() */\n  0x20\n  shr\n  jump\t// in\ntag_11:\n    /* \"@openzeppelin/contracts/access/Ownable.sol\":921:939  _transferOwnership */\n  tag_13\n    /* \"@openzeppelin/contracts/access/Ownable.sol\":921:953  _transferOwnership(_msgSender()) */\n  jump\t// in\ntag_10:\n    /* \"contracts/ToonzRewardsCard.sol\":224:1176  contract ToonzRewardsCard is ERC721, Ownable {... */\n  jump(tag_29)\n    /* \"@openzeppelin/contracts/utils/Context.sol\":640:736  function _msgSender() internal view virtual returns (address) {... */\ntag_12:\n    /* \"@openzeppelin/contracts/utils/Context.sol\":719:729  msg.sender */\n  caller\n  swap1\n    /* \"@openzeppelin/contracts/utils/Context.sol\":640:736  function _msgSender() internal view virtual returns (address) {... */\n  jump\t// out\n    /* \"@openzeppelin/contracts/access/Ownable.sol\":2270:2457  function _transferOwnership(address newOwner) internal virtual {... */\ntag_13:\n    /* \"@openzeppelin/contracts/access/Ownable.sol\":2362:2368  _owner */\n  0x06\n  dup1\n  sload\n  sub(shl(0xa0, 0x01), 0x01)\n    /* \"@openzeppelin/contracts/access/Ownable.sol\":2378:2395  _owner = newOwner */\n  dup4\n  dup2\n  and\n  not(sub(shl(0xa0, 0x01), 0x01))\n  dup4\n  and\n  dup2\n  or\n  swap1\n  swap4\n  sstore\n    /* \"@openzeppelin/contracts/access/Ownable.sol\":2410:2450  OwnershipTransferred(oldOwner, newOwner) */\n  mload(0x40)\n    /* \"@openzeppelin/contracts/access/Ownable.sol\":2362:2368  _owner */\n  swap2\n  and\n  swap2\n    /* \"@openzeppelin/contracts/access/Ownable.sol\":2378:2395  _owner = newOwner */\n  swap1\n    /* \"@openzeppelin/contracts/access/Ownable.sol\":2362:2368  _owner */\n  dup3\n  swap1\n    /* \"@openzeppelin/contracts/access/Ownable.sol\":2410:2450  OwnershipTransferred(oldOwner, newOwner) */\n  0x8be0079c531659141344cd1fd0a4f28419497f9722a3daafe3b4186f6b6457e0\n  swap1\n    /* \"@openzeppelin/contracts/access/Ownable.sol\":2343:2359  address oldOwner */\n  0x00\n  swap1\n    /* \"@openzeppelin/contracts/access/Ownable.sol\":2410:2450  OwnershipTransferred(oldOwner, newOwner) */\n  log3\n    /* \"@openzeppelin/contracts/access/Ownable.sol\":2333:2457  {... */\n  pop\n    /* \"@openzeppelin/contracts/access/Ownable.sol\":2270:2457  function _transferOwnership(address newOwner) internal virtual {... */\n  pop\n  jump\t// out\n    /* \"contracts/ToonzRewardsCard.sol\":224:1176  contract ToonzRewardsCard is ERC721, Ownable {... */\ntag_7:\n  dup3\n  dup1\n  sload\n  tag_18\n  swap1\n  tag_19\n  jump\t// in\ntag_18:\n  swap1\n  0x00\n  mstore\n  keccak256(0x00, 0x20)\n  swap1\n  0x1f\n  add\n  0x20\n  swap1\n  div\n  dup2\n  add\n  swap3\n  dup3\n  tag_21\n  jumpi\n  0x00\n  dup6\n  sstore\n  jump(tag_24)\ntag_21:\n  dup3\n  0x1f\n  lt\n  tag_22\n  jumpi\n  dup1\n  mload\n  not(0xff)\n  and\n  dup4\n  dup1\n  add\n  or\n  dup6\n  sstore\n  jump(tag_24)\ntag_22:\n  dup3\n  dup1\n  add\n  0x01\n  add\n  dup6\n  sstore\n  dup3\n  iszero\n  tag_24\n  jumpi\n  swap2\n  dup3\n  add\ntag_23:\n  dup3\n  dup2\n  gt\n  iszero\n  tag_24\n  jumpi\n  dup3\n  mload\n  dup3\n  sstore\n  swap2\n  0x20\n  add\n  swap2\n  swap1\n  0x01\n  add\n  swap1\n  jump(tag_23)\ntag_24:\n  pop\n  tag_25\n  swap3\n  swap2\n  pop\n  tag_26\n  jump\t// in\ntag_25:\n  pop\n  swap1\n  jump\t// out\ntag_26:\ntag_27:\n  dup1\n  dup3\n  gt\n  iszero\n  tag_25\n  jumpi\n  0x00\n  dup2\n  sstore\n  0x01\n  add\n  jump(tag_27)\n    /* \"#utility.yul\":14:394   */\ntag_19:\n    /* \"#utility.yul\":93:94   */\n  0x01\n    /* \"#utility.yul\":89:101   */\n  dup2\n  dup2\n  shr\n  swap1\n    /* \"#utility.yul\":136:148   */\n  dup3\n  and\n  dup1\n    /* \"#utility.yul\":157:218   */\n  tag_31\n  jumpi\n    /* \"#utility.yul\":211:215   */\n  0x7f\n    /* \"#utility.yul\":203:209   */\n  dup3\n    /* \"#utility.yul\":199:216   */\n  and\n    /* \"#utility.yul\":189:216   */\n  swap2\n  pop\n    /* \"#utility.yul\":157:218   */\ntag_31:\n    /* \"#utility.yul\":264:266   */\n  0x20\n    /* \"#utility.yul\":256:262   */\n  dup3\n    /* \"#utility.yul\":253:267   */\n  lt\n    /* \"#utility.yul\":233:251   */\n  dup2\n    /* \"#utility.yul\":230:268   */\n  sub\n    /* \"#utility.yul\":227:388   */\n  tag_32\n  jumpi\n    /* \"#utility.yul\":310:320   */\n  0x4e487b71\n    /* \"#utility.yul\":305:308   */\n  0xe0\n    /* \"#utility.yul\":301:321   */\n  shl\n    /* \"#utility.yul\":298:299   */\n  0x00\n    /* \"#utility.yul\":291:322   */\n  mstore\n    /* \"#utility.yul\":345:349   */\n  0x22\n    /* \"#utility.yul\":342:343   */\n  0x04\n    /* \"#utility.yul\":335:350   */\n  mstore\n    /* \"#utility.yul\":373:377   */\n  0x24\n    /* \"#utility.yul\":370:371   */\n  0x00\n    /* \"#utility.yul\":363:378   */\n  revert\n    /* \"#utility.yul\":227:388   */\ntag_32:\n  pop\n    /* \"#utility.yul\":14:394   */\n  swap2\n  swap1\n  pop\n  jump\t// out\ntag_29:\n    /* \"contracts/ToonzRewardsCard.sol\":224:1176  contract ToonzRewardsCard is ERC721, Ownable {... */\n  dataSize(sub_0)\n  dup1\n  dataOffset(sub_0)\n  0x00\n  codecopy\n  0x00\n  return\nstop\n\nsub_0: assembly {\n        /* \"contracts/ToonzRewardsCard.sol\":224:1176  contract ToonzRewardsCard is ERC721, Ownable {... */\n      mstore(0x40, 0x80)\n      callvalue\n      dup1\n      iszero\n      tag_1\n      jumpi\n      0x00\n      dup1\n      revert\n    tag_1:\n      pop\n      jumpi(tag_2, lt(calldatasize, 0x04))\n      shr(0xe0, calldataload(0x00))\n      dup1\n      0x01ffc9a7\n      eq\n      tag_3\n      jumpi\n      dup1\n      0x06fdde03\n      eq\n      tag_4\n      jumpi\n      dup1\n      0x081812fc\n      eq\n      tag_5\n      jumpi\n      dup1\n      0x095ea7b3\n      eq\n      tag_6\n      jumpi\n      dup1\n      0x18160ddd\n      eq\n      tag_7\n      jumpi\n      dup1\n      0x23b872dd\n      eq\n      tag_8\n      jumpi\n      dup1\n      0x42842e0e\n      eq\n      tag_9\n      jumpi\n      dup1\n      0x6352211e\n      eq\n      tag_10\n      jumpi\n      dup1\n      0x70a08231\n      eq\n      tag_11\n      jumpi\n      dup1\n      0x715018a6\n      eq\n      tag_12\n      jumpi\n      dup1\n      0x7a2d0163\n      eq\n      tag_13\n      jumpi\n      dup1\n      0x8da5cb5b\n      eq\n      tag_14\n      jumpi\n      dup1\n      0x95d89b41\n      eq\n      tag_15\n      jumpi\n      dup1\n      0xa22cb465\n      eq\n      tag_16\n      jumpi\n      dup1\n      0xb88d4fde\n      eq\n      tag_17\n      jumpi\n      dup1\n      0xc87b56dd\n      eq\n      tag_18\n      jumpi\n      dup1\n      0xe0df5b6f\n      eq\n      tag_19\n      jumpi\n      dup1\n      0xe985e9c5\n      eq\n      tag_20\n      jumpi\n      dup1\n      0xf2fde38b\n      eq\n      tag_21\n      jumpi\n    tag_2:\n      0x00\n      dup1\n      revert\n        /* \"@openzeppelin/contracts/token/ERC721/ERC721.sol\":1570:1870  function supportsInterface(bytes4 interfaceId) public view virtual override(ERC165, IERC165) returns (bool) {... */\n    tag_3:\n      tag_22\n      tag_23\n      calldatasize\n      0x04\n      tag_24\n      jump\t// in\n    tag_23:\n      tag_25\n      jump\t// in\n    tag_22:\n      mload(0x40)\n        /* \"#utility.yul\":565:579   */\n      swap1\n      iszero\n        /* \"#utility.yul\":558:580   */\n      iszero\n        /* \"#utility.yul\":540:581   */\n      dup2\n      mstore\n        /* \"#utility.yul\":528:530   */\n      0x20\n        /* \"#utility.yul\":513:531   */\n      add\n        /* \"@openzeppelin/contracts/token/ERC721/ERC721.sol\":1570:1870  function supportsInterface(bytes4 interfaceId) public view virtual override(ERC165, IERC165) returns (bool) {... */\n    tag_26:\n      mload(0x40)\n      dup1\n      swap2\n      sub\n      swap1\n      return\n        /* \"@openzeppelin/contracts/token/ERC721/ERC721.sol\":2488:2586  function name() public view virtual override returns (string memory) {... */\n    tag_4:\n      tag_28\n      tag_29\n      jump\t// in\n    tag_28:\n      mload(0x40)\n      tag_26\n      swap2\n      swap1\n      tag_31\n      jump\t// in\n        /* \"@openzeppelin/contracts/token/ERC721/ERC721.sol\":3999:4216  function getApproved(uint256 tokenId) public view virtual override returns (address) {... */\n    tag_5:\n      tag_32\n      tag_33\n      calldatasize\n      0x04\n      tag_34\n      jump\t// in\n    tag_33:\n      tag_35\n      jump\t// in\n    tag_32:\n      mload(0x40)\n      sub(shl(0xa0, 0x01), 0x01)\n        /* \"#utility.yul\":1643:1675   */\n      swap1\n      swap2\n      and\n        /* \"#utility.yul\":1625:1676   */\n      dup2\n      mstore\n        /* \"#utility.yul\":1613:1615   */\n      0x20\n        /* \"#utility.yul\":1598:1616   */\n      add\n        /* \"@openzeppelin/contracts/token/ERC721/ERC721.sol\":3999:4216  function getApproved(uint256 tokenId) public view virtual override returns (address) {... */\n      tag_26\n        /* \"#utility.yul\":1479:1682   */\n      jump\n        /* \"@openzeppelin/contracts/token/ERC721/ERC721.sol\":3537:3938  function approve(address to, uint256 tokenId) public virtual override {... */\n    tag_6:\n      tag_38\n      tag_39\n      calldatasize\n      0x04\n      tag_40\n      jump\t// in\n    tag_39:\n      tag_41\n      jump\t// in\n    tag_38:\n      stop\n        /* \"contracts/ToonzRewardsCard.sol\":504:590  function totalSupply() public view returns (uint) {... */\n    tag_7:\n      tag_42\n      tag_43\n      jump\t// in\n    tag_42:\n      mload(0x40)\n        /* \"#utility.yul\":2270:2295   */\n      swap1\n      dup2\n      mstore\n        /* \"#utility.yul\":2258:2260   */\n      0x20\n        /* \"#utility.yul\":2243:2261   */\n      add\n        /* \"contracts/ToonzRewardsCard.sol\":504:590  function totalSupply() public view returns (uint) {... */\n      tag_26\n        /* \"#utility.yul\":2124:2301   */\n      jump\n        /* \"@openzeppelin/contracts/token/ERC721/ERC721.sol\":4726:5056  function transferFrom(... */\n    tag_8:\n      tag_38\n      tag_47\n      calldatasize\n      0x04\n      tag_48\n      jump\t// in\n    tag_47:\n      tag_49\n      jump\t// in\n        /* \"@openzeppelin/contracts/token/ERC721/ERC721.sol\":5122:5301  function safeTransferFrom(... */\n    tag_9:\n      tag_38\n      tag_51\n      calldatasize\n      0x04\n      tag_48\n      jump\t// in\n    tag_51:\n      tag_52\n      jump\t// in\n        /* \"@openzeppelin/contracts/token/ERC721/ERC721.sol\":2191:2426  function ownerOf(uint256 tokenId) public view virtual override returns (address) {... */\n    tag_10:\n      tag_32\n      tag_54\n      calldatasize\n      0x04\n      tag_34\n      jump\t// in\n    tag_54:\n      tag_55\n      jump\t// in\n        /* \"@openzeppelin/contracts/token/ERC721/ERC721.sol\":1929:2134  function balanceOf(address owner) public view virtual override returns (uint256) {... */\n    tag_11:\n      tag_42\n      tag_58\n      calldatasize\n      0x04\n      tag_59\n      jump\t// in\n    tag_58:\n      tag_60\n      jump\t// in\n        /* \"@openzeppelin/contracts/access/Ownable.sol\":1668:1769  function renounceOwnership() public virtual onlyOwner {... */\n    tag_12:\n      tag_38\n      tag_63\n      jump\t// in\n        /* \"contracts/ToonzRewardsCard.sol\":827:1074  function giftCard(address[] calldata _recipients) public onlyOwner {... */\n    tag_13:\n      tag_38\n      tag_65\n      calldatasize\n      0x04\n      tag_66\n      jump\t// in\n    tag_65:\n      tag_67\n      jump\t// in\n        /* \"@openzeppelin/contracts/access/Ownable.sol\":1036:1121  function owner() public view virtual returns (address) {... */\n    tag_14:\n      tag_32\n      tag_69\n      jump\t// in\n        /* \"@openzeppelin/contracts/token/ERC721/ERC721.sol\":2650:2752  function symbol() public view virtual override returns (string memory) {... */\n    tag_15:\n      tag_28\n      tag_72\n      jump\t// in\n        /* \"@openzeppelin/contracts/token/ERC721/ERC721.sol\":4283:4436  function setApprovalForAll(address operator, bool approved) public virtual override {... */\n    tag_16:\n      tag_38\n      tag_75\n      calldatasize\n      0x04\n      tag_76\n      jump\t// in\n    tag_75:\n      tag_77\n      jump\t// in\n        /* \"@openzeppelin/contracts/token/ERC721/ERC721.sol\":5367:5687  function safeTransferFrom(... */\n    tag_17:\n      tag_38\n      tag_79\n      calldatasize\n      0x04\n      tag_80\n      jump\t// in\n    tag_79:\n      tag_81\n      jump\t// in\n        /* \"contracts/ToonzRewardsCard.sol\":594:823  function tokenURI(uint tokenId) public view virtual override returns (string memory) {... */\n    tag_18:\n      tag_28\n      tag_83\n      calldatasize\n      0x04\n      tag_34\n      jump\t// in\n    tag_83:\n      tag_84\n      jump\t// in\n        /* \"contracts/ToonzRewardsCard.sol\":1078:1173  function setTokenURI(string memory tokenURI_) public onlyOwner {... */\n    tag_19:\n      tag_38\n      tag_87\n      calldatasize\n      0x04\n      tag_88\n      jump\t// in\n    tag_87:\n      tag_89\n      jump\t// in\n        /* \"@openzeppelin/contracts/token/ERC721/ERC721.sol\":4502:4664  function isApprovedForAll(address owner, address operator) public view virtual override returns (bool) {... */\n    tag_20:\n      tag_22\n      tag_91\n      calldatasize\n      0x04\n      tag_92\n      jump\t// in\n    tag_91:\n      tag_93\n      jump\t// in\n        /* \"@openzeppelin/contracts/access/Ownable.sol\":1918:2116  function transferOwnership(address newOwner) public virtual onlyOwner {... */\n    tag_21:\n      tag_38\n      tag_96\n      calldatasize\n      0x04\n      tag_59\n      jump\t// in\n    tag_96:\n      tag_97\n      jump\t// in\n        /* \"@openzeppelin/contracts/token/ERC721/ERC721.sol\":1570:1870  function supportsInterface(bytes4 interfaceId) public view virtual override(ERC165, IERC165) returns (bool) {... */\n    tag_25:\n        /* \"@openzeppelin/contracts/token/ERC721/ERC721.sol\":1672:1676  bool */\n      0x00\n      not(sub(shl(0xe0, 0x01), 0x01))\n        /* \"@openzeppelin/contracts/token/ERC721/ERC721.sol\":1707:1747  interfaceId == type(IERC721).interfaceId */\n      dup3\n      and\n      shl(0xe0, 0x80ac58cd)\n      eq\n      dup1\n        /* \"@openzeppelin/contracts/token/ERC721/ERC721.sol\":1707:1811  interfaceId == type(IERC721).interfaceId ||... */\n      tag_99\n      jumpi\n      pop\n      not(sub(shl(0xe0, 0x01), 0x01))\n        /* \"@openzeppelin/contracts/token/ERC721/ERC721.sol\":1763:1811  interfaceId == type(IERC721Metadata).interfaceId */\n      dup3\n      and\n      shl(0xe0, 0x5b5e139f)\n      eq\n        /* \"@openzeppelin/contracts/token/ERC721/ERC721.sol\":1707:1811  interfaceId == type(IERC721).interfaceId ||... */\n    tag_99:\n        /* \"@openzeppelin/contracts/token/ERC721/ERC721.sol\":1707:1863  interfaceId == type(IERC721).interfaceId ||... */\n      dup1\n      tag_101\n      jumpi\n      pop\n      shl(0xe0, 0x01ffc9a7)\n      not(sub(shl(0xe0, 0x01), 0x01))\n        /* \"@openzeppelin/contracts/utils/introspection/ERC165.sol\":937:977  interfaceId == type(IERC165).interfaceId */\n      dup4\n      and\n      eq\n        /* \"@openzeppelin/contracts/token/ERC721/ERC721.sol\":1827:1863  super.supportsInterface(interfaceId) */\n    tag_101:\n        /* \"@openzeppelin/contracts/token/ERC721/ERC721.sol\":1688:1863  return... */\n      swap3\n        /* \"@openzeppelin/contracts/token/ERC721/ERC721.sol\":1570:1870  function supportsInterface(bytes4 interfaceId) public view virtual override(ERC165, IERC165) returns (bool) {... */\n      swap2\n      pop\n      pop\n      jump\t// out\n        /* \"@openzeppelin/contracts/token/ERC721/ERC721.sol\":2488:2586  function name() public view virtual override returns (string memory) {... */\n    tag_29:\n        /* \"@openzeppelin/contracts/token/ERC721/ERC721.sol\":2542:2555  string memory */\n      0x60\n        /* \"@openzeppelin/contracts/token/ERC721/ERC721.sol\":2574:2579  _name */\n      0x00\n        /* \"@openzeppelin/contracts/token/ERC721/ERC721.sol\":2567:2579  return _name */\n      dup1\n      sload\n      tag_104\n      swap1\n      tag_105\n      jump\t// in\n    tag_104:\n      dup1\n      0x1f\n      add\n      0x20\n      dup1\n      swap2\n      div\n      mul\n      0x20\n      add\n      mload(0x40)\n      swap1\n      dup2\n      add\n      0x40\n      mstore\n      dup1\n      swap3\n      swap2\n      swap1\n      dup2\n      dup2\n      mstore\n      0x20\n      add\n      dup3\n      dup1\n      sload\n      tag_106\n      swap1\n      tag_105\n      jump\t// in\n    tag_106:\n      dup1\n      iszero\n      tag_107\n      jumpi\n      dup1\n      0x1f\n      lt\n      tag_108\n      jumpi\n      0x0100\n      dup1\n      dup4\n      sload\n      div\n      mul\n      dup4\n      mstore\n      swap2\n      0x20\n      add\n      swap2\n      jump(tag_107)\n    tag_108:\n      dup3\n      add\n      swap2\n      swap1\n      0x00\n      mstore\n      keccak256(0x00, 0x20)\n      swap1\n    tag_109:\n      dup2\n      sload\n      dup2\n      mstore\n      swap1\n      0x01\n      add\n      swap1\n      0x20\n      add\n      dup1\n      dup4\n      gt\n      tag_109\n      jumpi\n      dup3\n      swap1\n      sub\n      0x1f\n      and\n      dup3\n      add\n      swap2\n    tag_107:\n      pop\n      pop\n      pop\n      pop\n      pop\n      swap1\n      pop\n        /* \"@openzeppelin/contracts/token/ERC721/ERC721.sol\":2488:2586  function name() public view virtual override returns (string memory) {... */\n      swap1\n      jump\t// out\n        /* \"@openzeppelin/contracts/token/ERC721/ERC721.sol\":3999:4216  function getApproved(uint256 tokenId) public view virtual override returns (address) {... */\n    tag_35:\n        /* \"@openzeppelin/contracts/token/ERC721/ERC721.sol\":4075:4082  address */\n      0x00\n        /* \"@openzeppelin/contracts/token/ERC721/ERC721.sol\":4102:4118  _exists(tokenId) */\n      tag_111\n        /* \"@openzeppelin/contracts/token/ERC721/ERC721.sol\":4110:4117  tokenId */\n      dup3\n        /* \"@openzeppelin/contracts/token/ERC721/ERC721.sol\":4102:4109  _exists */\n      tag_112\n        /* \"@openzeppelin/contracts/token/ERC721/ERC721.sol\":4102:4118  _exists(tokenId) */\n      jump\t// in\n    tag_111:\n        /* \"@openzeppelin/contracts/token/ERC721/ERC721.sol\":4094:4167  require(_exists(tokenId), \"ERC721: approved query for nonexistent token\") */\n      tag_113\n      jumpi\n      mload(0x40)\n      shl(0xe5, 0x461bcd)\n      dup2\n      mstore\n        /* \"#utility.yul\":6548:6550   */\n      0x20\n        /* \"@openzeppelin/contracts/token/ERC721/ERC721.sol\":4094:4167  require(_exists(tokenId), \"ERC721: approved query for nonexistent token\") */\n      0x04\n      dup3\n      add\n        /* \"#utility.yul\":6530:6551   */\n      mstore\n        /* \"#utility.yul\":6587:6589   */\n      0x2c\n        /* \"#utility.yul\":6567:6585   */\n      0x24\n      dup3\n      add\n        /* \"#utility.yul\":6560:6590   */\n      mstore\n        /* \"#utility.yul\":6626:6660   */\n      0x4552433732313a20617070726f76656420717565727920666f72206e6f6e6578\n        /* \"#utility.yul\":6606:6624   */\n      0x44\n      dup3\n      add\n        /* \"#utility.yul\":6599:6661   */\n      mstore\n      shl(0xa1, 0x34b9ba32b73a103a37b5b2b7)\n        /* \"#utility.yul\":6677:6695   */\n      0x64\n      dup3\n      add\n        /* \"#utility.yul\":6670:6712   */\n      mstore\n        /* \"#utility.yul\":6729:6748   */\n      0x84\n      add\n        /* \"@openzeppelin/contracts/token/ERC721/ERC721.sol\":4094:4167  require(_exists(tokenId), \"ERC721: approved query for nonexistent token\") */\n    tag_114:\n      mload(0x40)\n      dup1\n      swap2\n      sub\n      swap1\n      revert\n    tag_113:\n      pop\n        /* \"@openzeppelin/contracts/token/ERC721/ERC721.sol\":4185:4209  _tokenApprovals[tokenId] */\n      0x00\n      swap1\n      dup2\n      mstore\n        /* \"@openzeppelin/contracts/token/ERC721/ERC721.sol\":4185:4200  _tokenApprovals */\n      0x04\n        /* \"@openzeppelin/contracts/token/ERC721/ERC721.sol\":4185:4209  _tokenApprovals[tokenId] */\n      0x20\n      mstore\n      0x40\n      swap1\n      keccak256\n      sload\n      sub(shl(0xa0, 0x01), 0x01)\n      and\n      swap1\n        /* \"@openzeppelin/contracts/token/ERC721/ERC721.sol\":3999:4216  function getApproved(uint256 tokenId) public view virtual override returns (address) {... */\n      jump\t// out\n        /* \"@openzeppelin/contracts/token/ERC721/ERC721.sol\":3537:3938  function approve(address to, uint256 tokenId) public virtual override {... */\n    tag_41:\n        /* \"@openzeppelin/contracts/token/ERC721/ERC721.sol\":3617:3630  address owner */\n      0x00\n        /* \"@openzeppelin/contracts/token/ERC721/ERC721.sol\":3633:3656  ERC721.ownerOf(tokenId) */\n      tag_117\n        /* \"@openzeppelin/contracts/token/ERC721/ERC721.sol\":3648:3655  tokenId */\n      dup3\n        /* \"@openzeppelin/contracts/token/ERC721/ERC721.sol\":3633:3647  ERC721.ownerOf */\n      tag_55\n        /* \"@openzeppelin/contracts/token/ERC721/ERC721.sol\":3633:3656  ERC721.ownerOf(tokenId) */\n      jump\t// in\n    tag_117:\n        /* \"@openzeppelin/contracts/token/ERC721/ERC721.sol\":3617:3656  address owner = ERC721.ownerOf(tokenId) */\n      swap1\n      pop\n        /* \"@openzeppelin/contracts/token/ERC721/ERC721.sol\":3680:3685  owner */\n      dup1\n      sub(shl(0xa0, 0x01), 0x01)\n        /* \"@openzeppelin/contracts/token/ERC721/ERC721.sol\":3674:3685  to != owner */\n      and\n        /* \"@openzeppelin/contracts/token/ERC721/ERC721.sol\":3674:3676  to */\n      dup4\n      sub(shl(0xa0, 0x01), 0x01)\n        /* \"@openzeppelin/contracts/token/ERC721/ERC721.sol\":3674:3685  to != owner */\n      and\n      sub\n        /* \"@openzeppelin/contracts/token/ERC721/ERC721.sol\":3666:3723  require(to != owner, \"ERC721: approval to current owner\") */\n      tag_118\n      jumpi\n      mload(0x40)\n      shl(0xe5, 0x461bcd)\n      dup2\n      mstore\n        /* \"#utility.yul\":6961:6963   */\n      0x20\n        /* \"@openzeppelin/contracts/token/ERC721/ERC721.sol\":3666:3723  require(to != owner, \"ERC721: approval to current owner\") */\n      0x04\n      dup3\n      add\n        /* \"#utility.yul\":6943:6964   */\n      mstore\n        /* \"#utility.yul\":7000:7002   */\n      0x21\n        /* \"#utility.yul\":6980:6998   */\n      0x24\n      dup3\n      add\n        /* \"#utility.yul\":6973:7003   */\n      mstore\n        /* \"#utility.yul\":7039:7073   */\n      0x4552433732313a20617070726f76616c20746f2063757272656e74206f776e65\n        /* \"#utility.yul\":7019:7037   */\n      0x44\n      dup3\n      add\n        /* \"#utility.yul\":7012:7074   */\n      mstore\n      shl(0xf9, 0x39)\n        /* \"#utility.yul\":7090:7108   */\n      0x64\n      dup3\n      add\n        /* \"#utility.yul\":7083:7114   */\n      mstore\n        /* \"#utility.yul\":7131:7150   */\n      0x84\n      add\n        /* \"@openzeppelin/contracts/token/ERC721/ERC721.sol\":3666:3723  require(to != owner, \"ERC721: approval to current owner\") */\n      tag_114\n        /* \"#utility.yul\":6759:7156   */\n      jump\n        /* \"@openzeppelin/contracts/token/ERC721/ERC721.sol\":3666:3723  require(to != owner, \"ERC721: approval to current owner\") */\n    tag_118:\n        /* \"@openzeppelin/contracts/utils/Context.sol\":719:729  msg.sender */\n      caller\n      sub(shl(0xa0, 0x01), 0x01)\n        /* \"@openzeppelin/contracts/token/ERC721/ERC721.sol\":3755:3776  _msgSender() == owner */\n      dup3\n      and\n      eq\n      dup1\n        /* \"@openzeppelin/contracts/token/ERC721/ERC721.sol\":3755:3817  _msgSender() == owner || isApprovedForAll(owner, _msgSender()) */\n      tag_124\n      jumpi\n      pop\n        /* \"@openzeppelin/contracts/token/ERC721/ERC721.sol\":3780:3817  isApprovedForAll(owner, _msgSender()) */\n      tag_124\n        /* \"@openzeppelin/contracts/token/ERC721/ERC721.sol\":3797:3802  owner */\n      dup2\n        /* \"@openzeppelin/contracts/utils/Context.sol\":719:729  msg.sender */\n      caller\n        /* \"@openzeppelin/contracts/token/ERC721/ERC721.sol\":4502:4664  function isApprovedForAll(address owner, address operator) public view virtual override returns (bool) {... */\n      tag_93\n      jump\t// in\n        /* \"@openzeppelin/contracts/token/ERC721/ERC721.sol\":3780:3817  isApprovedForAll(owner, _msgSender()) */\n    tag_124:\n        /* \"@openzeppelin/contracts/token/ERC721/ERC721.sol\":3734:3899  require(... */\n      tag_126\n      jumpi\n      mload(0x40)\n      shl(0xe5, 0x461bcd)\n      dup2\n      mstore\n        /* \"#utility.yul\":7363:7365   */\n      0x20\n        /* \"@openzeppelin/contracts/token/ERC721/ERC721.sol\":3734:3899  require(... */\n      0x04\n      dup3\n      add\n        /* \"#utility.yul\":7345:7366   */\n      mstore\n        /* \"#utility.yul\":7402:7404   */\n      0x38\n        /* \"#utility.yul\":7382:7400   */\n      0x24\n      dup3\n      add\n        /* \"#utility.yul\":7375:7405   */\n      mstore\n        /* \"#utility.yul\":7441:7475   */\n      0x4552433732313a20617070726f76652063616c6c6572206973206e6f74206f77\n        /* \"#utility.yul\":7421:7439   */\n      0x44\n      dup3\n      add\n        /* \"#utility.yul\":7414:7476   */\n      mstore\n      shl(0x42, 0x1b995c881b9bdc88185c1c1c9bdd995908199bdc88185b1b)\n        /* \"#utility.yul\":7492:7510   */\n      0x64\n      dup3\n      add\n        /* \"#utility.yul\":7485:7539   */\n      mstore\n        /* \"#utility.yul\":7556:7575   */\n      0x84\n      add\n        /* \"@openzeppelin/contracts/token/ERC721/ERC721.sol\":3734:3899  require(... */\n      tag_114\n        /* \"#utility.yul\":7161:7581   */\n      jump\n        /* \"@openzeppelin/contracts/token/ERC721/ERC721.sol\":3734:3899  require(... */\n    tag_126:\n        /* \"@openzeppelin/contracts/token/ERC721/ERC721.sol\":3910:3931  _approve(to, tokenId) */\n      tag_129\n        /* \"@openzeppelin/contracts/token/ERC721/ERC721.sol\":3919:3921  to */\n      dup4\n        /* \"@openzeppelin/contracts/token/ERC721/ERC721.sol\":3923:3930  tokenId */\n      dup4\n        /* \"@openzeppelin/contracts/token/ERC721/ERC721.sol\":3910:3918  _approve */\n      tag_130\n        /* \"@openzeppelin/contracts/token/ERC721/ERC721.sol\":3910:3931  _approve(to, tokenId) */\n      jump\t// in\n    tag_129:\n        /* \"@openzeppelin/contracts/token/ERC721/ERC721.sol\":3607:3938  {... */\n      pop\n        /* \"@openzeppelin/contracts/token/ERC721/ERC721.sol\":3537:3938  function approve(address to, uint256 tokenId) public virtual override {... */\n      pop\n      pop\n      jump\t// out\n        /* \"contracts/ToonzRewardsCard.sol\":504:590  function totalSupply() public view returns (uint) {... */\n    tag_43:\n        /* \"contracts/ToonzRewardsCard.sol\":548:552  uint */\n      0x00\n        /* \"contracts/ToonzRewardsCard.sol\":567:585  _tokenId.current() */\n      tag_132\n        /* \"contracts/ToonzRewardsCard.sol\":567:575  _tokenId */\n      0x08\n        /* \"@openzeppelin/contracts/utils/Counters.sol\":918:932  counter._value */\n      sload\n      swap1\n        /* \"@openzeppelin/contracts/utils/Counters.sol\":827:939  function current(Counter storage counter) internal view returns (uint256) {... */\n      jump\n        /* \"contracts/ToonzRewardsCard.sol\":567:585  _tokenId.current() */\n    tag_132:\n        /* \"contracts/ToonzRewardsCard.sol\":560:585  return _tokenId.current() */\n      swap1\n      pop\n        /* \"contracts/ToonzRewardsCard.sol\":504:590  function totalSupply() public view returns (uint) {... */\n      swap1\n      jump\t// out\n        /* \"@openzeppelin/contracts/token/ERC721/ERC721.sol\":4726:5056  function transferFrom(... */\n    tag_49:\n        /* \"@openzeppelin/contracts/token/ERC721/ERC721.sol\":4915:4956  _isApprovedOrOwner(_msgSender(), tokenId) */\n      tag_135\n        /* \"@openzeppelin/contracts/utils/Context.sol\":719:729  msg.sender */\n      caller\n        /* \"@openzeppelin/contracts/token/ERC721/ERC721.sol\":4948:4955  tokenId */\n      dup3\n        /* \"@openzeppelin/contracts/token/ERC721/ERC721.sol\":4915:4933  _isApprovedOrOwner */\n      tag_137\n        /* \"@openzeppelin/contracts/token/ERC721/ERC721.sol\":4915:4956  _isApprovedOrOwner(_msgSender(), tokenId) */\n      jump\t// in\n    tag_135:\n        /* \"@openzeppelin/contracts/token/ERC721/ERC721.sol\":4907:5010  require(_isApprovedOrOwner(_msgSender(), tokenId), \"ERC721: transfer caller is not owner nor approved\") */\n      tag_138\n      jumpi\n      mload(0x40)\n      shl(0xe5, 0x461bcd)\n      dup2\n      mstore\n      0x04\n      add\n      tag_114\n      swap1\n      tag_140\n      jump\t// in\n    tag_138:\n        /* \"@openzeppelin/contracts/token/ERC721/ERC721.sol\":5021:5049  _transfer(from, to, tokenId) */\n      tag_129\n        /* \"@openzeppelin/contracts/token/ERC721/ERC721.sol\":5031:5035  from */\n      dup4\n        /* \"@openzeppelin/contracts/token/ERC721/ERC721.sol\":5037:5039  to */\n      dup4\n        /* \"@openzeppelin/contracts/token/ERC721/ERC721.sol\":5041:5048  tokenId */\n      dup4\n        /* \"@openzeppelin/contracts/token/ERC721/ERC721.sol\":5021:5030  _transfer */\n      tag_142\n        /* \"@openzeppelin/contracts/token/ERC721/ERC721.sol\":5021:5049  _transfer(from, to, tokenId) */\n      jump\t// in\n        /* \"@openzeppelin/contracts/token/ERC721/ERC721.sol\":5122:5301  function safeTransferFrom(... */\n    tag_52:\n        /* \"@openzeppelin/contracts/token/ERC721/ERC721.sol\":5255:5294  safeTransferFrom(from, to, tokenId, \"\") */\n      tag_129\n        /* \"@openzeppelin/contracts/token/ERC721/ERC721.sol\":5272:5276  from */\n      dup4\n        /* \"@openzeppelin/contracts/token/ERC721/ERC721.sol\":5278:5280  to */\n      dup4\n        /* \"@openzeppelin/contracts/token/ERC721/ERC721.sol\":5282:5289  tokenId */\n      dup4\n        /* \"@openzeppelin/contracts/token/ERC721/ERC721.sol\":5255:5294  safeTransferFrom(from, to, tokenId, \"\") */\n      mload(0x40)\n      dup1\n      0x20\n      add\n      0x40\n      mstore\n      dup1\n      0x00\n      dup2\n      mstore\n      pop\n        /* \"@openzeppelin/contracts/token/ERC721/ERC721.sol\":5255:5271  safeTransferFrom */\n      tag_81\n        /* \"@openzeppelin/contracts/token/ERC721/ERC721.sol\":5255:5294  safeTransferFrom(from, to, tokenId, \"\") */\n      jump\t// in\n        /* \"@openzeppelin/contracts/token/ERC721/ERC721.sol\":2191:2426  function ownerOf(uint256 tokenId) public view virtual override returns (address) {... */\n    tag_55:\n        /* \"@openzeppelin/contracts/token/ERC721/ERC721.sol\":2263:2270  address */\n      0x00\n        /* \"@openzeppelin/contracts/token/ERC721/ERC721.sol\":2298:2314  _owners[tokenId] */\n      dup2\n      dup2\n      mstore\n        /* \"@openzeppelin/contracts/token/ERC721/ERC721.sol\":2298:2305  _owners */\n      0x02\n        /* \"@openzeppelin/contracts/token/ERC721/ERC721.sol\":2298:2314  _owners[tokenId] */\n      0x20\n      mstore\n      0x40\n      dup2\n      keccak256\n      sload\n      sub(shl(0xa0, 0x01), 0x01)\n      and\n      dup1\n        /* \"@openzeppelin/contracts/token/ERC721/ERC721.sol\":2324:2397  require(owner != address(0), \"ERC721: owner query for nonexistent token\") */\n      tag_101\n      jumpi\n      mload(0x40)\n      shl(0xe5, 0x461bcd)\n      dup2\n      mstore\n        /* \"#utility.yul\":8206:8208   */\n      0x20\n        /* \"@openzeppelin/contracts/token/ERC721/ERC721.sol\":2324:2397  require(owner != address(0), \"ERC721: owner query for nonexistent token\") */\n      0x04\n      dup3\n      add\n        /* \"#utility.yul\":8188:8209   */\n      mstore\n        /* \"#utility.yul\":8245:8247   */\n      0x29\n        /* \"#utility.yul\":8225:8243   */\n      0x24\n      dup3\n      add\n        /* \"#utility.yul\":8218:8248   */\n      mstore\n        /* \"#utility.yul\":8284:8318   */\n      0x4552433732313a206f776e657220717565727920666f72206e6f6e6578697374\n        /* \"#utility.yul\":8264:8282   */\n      0x44\n      dup3\n      add\n        /* \"#utility.yul\":8257:8319   */\n      mstore\n      shl(0xb9, 0x32b73a103a37b5b2b7)\n        /* \"#utility.yul\":8335:8353   */\n      0x64\n      dup3\n      add\n        /* \"#utility.yul\":8328:8367   */\n      mstore\n        /* \"#utility.yul\":8384:8403   */\n      0x84\n      add\n        /* \"@openzeppelin/contracts/token/ERC721/ERC721.sol\":2324:2397  require(owner != address(0), \"ERC721: owner query for nonexistent token\") */\n      tag_114\n        /* \"#utility.yul\":8004:8409   */\n      jump\n        /* \"@openzeppelin/contracts/token/ERC721/ERC721.sol\":1929:2134  function balanceOf(address owner) public view virtual override returns (uint256) {... */\n    tag_60:\n        /* \"@openzeppelin/contracts/token/ERC721/ERC721.sol\":2001:2008  uint256 */\n      0x00\n      sub(shl(0xa0, 0x01), 0x01)\n        /* \"@openzeppelin/contracts/token/ERC721/ERC721.sol\":2028:2047  owner != address(0) */\n      dup3\n      and\n        /* \"@openzeppelin/contracts/token/ERC721/ERC721.sol\":2020:2094  require(owner != address(0), \"ERC721: balance query for the zero address\") */\n      tag_150\n      jumpi\n      mload(0x40)\n      shl(0xe5, 0x461bcd)\n      dup2\n      mstore\n        /* \"#utility.yul\":8616:8618   */\n      0x20\n        /* \"@openzeppelin/contracts/token/ERC721/ERC721.sol\":2020:2094  require(owner != address(0), \"ERC721: balance query for the zero address\") */\n      0x04\n      dup3\n      add\n        /* \"#utility.yul\":8598:8619   */\n      mstore\n        /* \"#utility.yul\":8655:8657   */\n      0x2a\n        /* \"#utility.yul\":8635:8653   */\n      0x24\n      dup3\n      add\n        /* \"#utility.yul\":8628:8658   */\n      mstore\n        /* \"#utility.yul\":8694:8728   */\n      0x4552433732313a2062616c616e636520717565727920666f7220746865207a65\n        /* \"#utility.yul\":8674:8692   */\n      0x44\n      dup3\n      add\n        /* \"#utility.yul\":8667:8729   */\n      mstore\n      shl(0xb0, 0x726f2061646472657373)\n        /* \"#utility.yul\":8745:8763   */\n      0x64\n      dup3\n      add\n        /* \"#utility.yul\":8738:8778   */\n      mstore\n        /* \"#utility.yul\":8795:8814   */\n      0x84\n      add\n        /* \"@openzeppelin/contracts/token/ERC721/ERC721.sol\":2020:2094  require(owner != address(0), \"ERC721: balance query for the zero address\") */\n      tag_114\n        /* \"#utility.yul\":8414:8820   */\n      jump\n        /* \"@openzeppelin/contracts/token/ERC721/ERC721.sol\":2020:2094  require(owner != address(0), \"ERC721: balance query for the zero address\") */\n    tag_150:\n      pop\n      sub(shl(0xa0, 0x01), 0x01)\n        /* \"@openzeppelin/contracts/token/ERC721/ERC721.sol\":2111:2127  _balances[owner] */\n      and\n      0x00\n      swap1\n      dup2\n      mstore\n        /* \"@openzeppelin/contracts/token/ERC721/ERC721.sol\":2111:2120  _balances */\n      0x03\n        /* \"@openzeppelin/contracts/token/ERC721/ERC721.sol\":2111:2127  _balances[owner] */\n      0x20\n      mstore\n      0x40\n      swap1\n      keccak256\n      sload\n      swap1\n        /* \"@openzeppelin/contracts/token/ERC721/ERC721.sol\":1929:2134  function balanceOf(address owner) public view virtual override returns (uint256) {... */\n      jump\t// out\n        /* \"@openzeppelin/contracts/access/Ownable.sol\":1668:1769  function renounceOwnership() public virtual onlyOwner {... */\n    tag_63:\n        /* \"@openzeppelin/contracts/utils/Context.sol\":719:729  msg.sender */\n      caller\n        /* \"@openzeppelin/contracts/access/Ownable.sol\":1248:1255  owner() */\n      tag_155\n        /* \"@openzeppelin/contracts/access/Ownable.sol\":1248:1253  owner */\n      tag_69\n        /* \"@openzeppelin/contracts/access/Ownable.sol\":1248:1255  owner() */\n      jump\t// in\n    tag_155:\n      sub(shl(0xa0, 0x01), 0x01)\n        /* \"@openzeppelin/contracts/access/Ownable.sol\":1248:1271  owner() == _msgSender() */\n      and\n      eq\n        /* \"@openzeppelin/contracts/access/Ownable.sol\":1240:1308  require(owner() == _msgSender(), \"Ownable: caller is not the owner\") */\n      tag_156\n      jumpi\n      mload(0x40)\n      shl(0xe5, 0x461bcd)\n      dup2\n      mstore\n      0x04\n      add\n      tag_114\n      swap1\n      tag_158\n      jump\t// in\n    tag_156:\n        /* \"@openzeppelin/contracts/access/Ownable.sol\":1732:1762  _transferOwnership(address(0)) */\n      tag_160\n        /* \"@openzeppelin/contracts/access/Ownable.sol\":1759:1760  0 */\n      0x00\n        /* \"@openzeppelin/contracts/access/Ownable.sol\":1732:1750  _transferOwnership */\n      tag_161\n        /* \"@openzeppelin/contracts/access/Ownable.sol\":1732:1762  _transferOwnership(address(0)) */\n      jump\t// in\n    tag_160:\n        /* \"@openzeppelin/contracts/access/Ownable.sol\":1668:1769  function renounceOwnership() public virtual onlyOwner {... */\n      jump\t// out\n        /* \"contracts/ToonzRewardsCard.sol\":827:1074  function giftCard(address[] calldata _recipients) public onlyOwner {... */\n    tag_67:\n        /* \"@openzeppelin/contracts/utils/Context.sol\":719:729  msg.sender */\n      caller\n        /* \"@openzeppelin/contracts/access/Ownable.sol\":1248:1255  owner() */\n      tag_164\n        /* \"@openzeppelin/contracts/access/Ownable.sol\":1248:1253  owner */\n      tag_69\n        /* \"@openzeppelin/contracts/access/Ownable.sol\":1248:1255  owner() */\n      jump\t// in\n    tag_164:\n      sub(shl(0xa0, 0x01), 0x01)\n        /* \"@openzeppelin/contracts/access/Ownable.sol\":1248:1271  owner() == _msgSender() */\n      and\n      eq\n        /* \"@openzeppelin/contracts/access/Ownable.sol\":1240:1308  require(owner() == _msgSender(), \"Ownable: caller is not the owner\") */\n      tag_165\n      jumpi\n      mload(0x40)\n      shl(0xe5, 0x461bcd)\n      dup2\n      mstore\n      0x04\n      add\n      tag_114\n      swap1\n      tag_158\n      jump\t// in\n    tag_165:\n        /* \"contracts/ToonzRewardsCard.sol\":915:926  _recipients */\n      dup1\n        /* \"contracts/ToonzRewardsCard.sol\":900:912  uint _amount */\n      0x00\n        /* \"contracts/ToonzRewardsCard.sol\":941:1070  for (uint i = 0; i < _amount; i++) {... */\n    tag_168:\n        /* \"contracts/ToonzRewardsCard.sol\":962:969  _amount */\n      dup2\n        /* \"contracts/ToonzRewardsCard.sol\":958:959  i */\n      dup2\n        /* \"contracts/ToonzRewardsCard.sol\":958:969  i < _amount */\n      lt\n        /* \"contracts/ToonzRewardsCard.sol\":941:1070  for (uint i = 0; i < _amount; i++) {... */\n      iszero\n      tag_169\n      jumpi\n        /* \"contracts/ToonzRewardsCard.sol\":986:1006  _tokenId.increment() */\n      tag_171\n        /* \"contracts/ToonzRewardsCard.sol\":986:994  _tokenId */\n      0x08\n        /* \"@openzeppelin/contracts/utils/Counters.sol\":1032:1051  counter._value += 1 */\n      dup1\n      sload\n        /* \"@openzeppelin/contracts/utils/Counters.sol\":1050:1051  1 */\n      0x01\n        /* \"@openzeppelin/contracts/utils/Counters.sol\":1032:1051  counter._value += 1 */\n      add\n      swap1\n      sstore\n        /* \"@openzeppelin/contracts/utils/Counters.sol\":945:1068  function increment(Counter storage counter) internal {... */\n      jump\n        /* \"contracts/ToonzRewardsCard.sol\":986:1006  _tokenId.increment() */\n    tag_171:\n        /* \"contracts/ToonzRewardsCard.sol\":1016:1061  _safeMint(_recipients[i], _tokenId.current()) */\n      tag_173\n        /* \"contracts/ToonzRewardsCard.sol\":1026:1037  _recipients */\n      dup5\n      dup5\n        /* \"contracts/ToonzRewardsCard.sol\":1038:1039  i */\n      dup4\n        /* \"contracts/ToonzRewardsCard.sol\":1026:1040  _recipients[i] */\n      dup2\n      dup2\n      lt\n      tag_175\n      jumpi\n      tag_175\n      tag_176\n      jump\t// in\n    tag_175:\n      swap1\n      pop\n      0x20\n      mul\n      add\n      0x20\n      dup2\n      add\n      swap1\n      tag_177\n      swap2\n      swap1\n      tag_59\n      jump\t// in\n    tag_177:\n        /* \"contracts/ToonzRewardsCard.sol\":1042:1050  _tokenId */\n      0x08\n        /* \"@openzeppelin/contracts/utils/Counters.sol\":918:932  counter._value */\n      sload\n        /* \"contracts/ToonzRewardsCard.sol\":1016:1025  _safeMint */\n      tag_179\n        /* \"contracts/ToonzRewardsCard.sol\":1016:1061  _safeMint(_recipients[i], _tokenId.current()) */\n      jump\t// in\n    tag_173:\n        /* \"contracts/ToonzRewardsCard.sol\":971:974  i++ */\n      dup1\n      tag_180\n      dup2\n      tag_181\n      jump\t// in\n    tag_180:\n      swap2\n      pop\n      pop\n        /* \"contracts/ToonzRewardsCard.sol\":941:1070  for (uint i = 0; i < _amount; i++) {... */\n      jump(tag_168)\n    tag_169:\n      pop\n        /* \"contracts/ToonzRewardsCard.sol\":894:1074  {... */\n      pop\n        /* \"contracts/ToonzRewardsCard.sol\":827:1074  function giftCard(address[] calldata _recipients) public onlyOwner {... */\n      pop\n      pop\n      jump\t// out\n        /* \"@openzeppelin/contracts/access/Ownable.sol\":1036:1121  function owner() public view virtual returns (address) {... */\n    tag_69:\n        /* \"@openzeppelin/contracts/access/Ownable.sol\":1108:1114  _owner */\n      and(sub(shl(0xa0, 0x01), 0x01), sload(0x06))\n      swap1\n        /* \"@openzeppelin/contracts/access/Ownable.sol\":1036:1121  function owner() public view virtual returns (address) {... */\n      jump\t// out\n        /* \"@openzeppelin/contracts/token/ERC721/ERC721.sol\":2650:2752  function symbol() public view virtual override returns (string memory) {... */\n    tag_72:\n        /* \"@openzeppelin/contracts/token/ERC721/ERC721.sol\":2706:2719  string memory */\n      0x60\n        /* \"@openzeppelin/contracts/token/ERC721/ERC721.sol\":2738:2745  _symbol */\n      0x01\n        /* \"@openzeppelin/contracts/token/ERC721/ERC721.sol\":2731:2745  return _symbol */\n      dup1\n      sload\n      tag_104\n      swap1\n      tag_105\n      jump\t// in\n        /* \"@openzeppelin/contracts/token/ERC721/ERC721.sol\":4283:4436  function setApprovalForAll(address operator, bool approved) public virtual override {... */\n    tag_77:\n        /* \"@openzeppelin/contracts/token/ERC721/ERC721.sol\":4377:4429  _setApprovalForAll(_msgSender(), operator, approved) */\n      tag_190\n        /* \"@openzeppelin/contracts/utils/Context.sol\":719:729  msg.sender */\n      caller\n        /* \"@openzeppelin/contracts/token/ERC721/ERC721.sol\":4410:4418  operator */\n      dup4\n        /* \"@openzeppelin/contracts/token/ERC721/ERC721.sol\":4420:4428  approved */\n      dup4\n        /* \"@openzeppelin/contracts/token/ERC721/ERC721.sol\":4377:4395  _setApprovalForAll */\n      tag_192\n        /* \"@openzeppelin/contracts/token/ERC721/ERC721.sol\":4377:4429  _setApprovalForAll(_msgSender(), operator, approved) */\n      jump\t// in\n    tag_190:\n        /* \"@openzeppelin/contracts/token/ERC721/ERC721.sol\":4283:4436  function setApprovalForAll(address operator, bool approved) public virtual override {... */\n      pop\n      pop\n      jump\t// out\n        /* \"@openzeppelin/contracts/token/ERC721/ERC721.sol\":5367:5687  function safeTransferFrom(... */\n    tag_81:\n        /* \"@openzeppelin/contracts/token/ERC721/ERC721.sol\":5536:5577  _isApprovedOrOwner(_msgSender(), tokenId) */\n      tag_194\n        /* \"@openzeppelin/contracts/utils/Context.sol\":719:729  msg.sender */\n      caller\n        /* \"@openzeppelin/contracts/token/ERC721/ERC721.sol\":5569:5576  tokenId */\n      dup4\n        /* \"@openzeppelin/contracts/token/ERC721/ERC721.sol\":5536:5554  _isApprovedOrOwner */\n      tag_137\n        /* \"@openzeppelin/contracts/token/ERC721/ERC721.sol\":5536:5577  _isApprovedOrOwner(_msgSender(), tokenId) */\n      jump\t// in\n    tag_194:\n        /* \"@openzeppelin/contracts/token/ERC721/ERC721.sol\":5528:5631  require(_isApprovedOrOwner(_msgSender(), tokenId), \"ERC721: transfer caller is not owner nor approved\") */\n      tag_196\n      jumpi\n      mload(0x40)\n      shl(0xe5, 0x461bcd)\n      dup2\n      mstore\n      0x04\n      add\n      tag_114\n      swap1\n      tag_140\n      jump\t// in\n    tag_196:\n        /* \"@openzeppelin/contracts/token/ERC721/ERC721.sol\":5641:5680  _safeTransfer(from, to, tokenId, _data) */\n      tag_169\n        /* \"@openzeppelin/contracts/token/ERC721/ERC721.sol\":5655:5659  from */\n      dup5\n        /* \"@openzeppelin/contracts/token/ERC721/ERC721.sol\":5661:5663  to */\n      dup5\n        /* \"@openzeppelin/contracts/token/ERC721/ERC721.sol\":5665:5672  tokenId */\n      dup5\n        /* \"@openzeppelin/contracts/token/ERC721/ERC721.sol\":5674:5679  _data */\n      dup5\n        /* \"@openzeppelin/contracts/token/ERC721/ERC721.sol\":5641:5654  _safeTransfer */\n      tag_199\n        /* \"@openzeppelin/contracts/token/ERC721/ERC721.sol\":5641:5680  _safeTransfer(from, to, tokenId, _data) */\n      jump\t// in\n        /* \"contracts/ToonzRewardsCard.sol\":594:823  function tokenURI(uint tokenId) public view virtual override returns (string memory) {... */\n    tag_84:\n        /* \"contracts/ToonzRewardsCard.sol\":664:677  string memory */\n      0x60\n        /* \"contracts/ToonzRewardsCard.sol\":693:709  _exists(tokenId) */\n      tag_201\n        /* \"contracts/ToonzRewardsCard.sol\":701:708  tokenId */\n      dup3\n        /* \"contracts/ToonzRewardsCard.sol\":693:700  _exists */\n      tag_112\n        /* \"contracts/ToonzRewardsCard.sol\":693:709  _exists(tokenId) */\n      jump\t// in\n    tag_201:\n        /* \"contracts/ToonzRewardsCard.sol\":685:761  require(_exists(tokenId), \"ERC721Metadata: URI query for nonexistent token\") */\n      tag_202\n      jumpi\n      mload(0x40)\n      shl(0xe5, 0x461bcd)\n      dup2\n      mstore\n        /* \"#utility.yul\":9792:9794   */\n      0x20\n        /* \"contracts/ToonzRewardsCard.sol\":685:761  require(_exists(tokenId), \"ERC721Metadata: URI query for nonexistent token\") */\n      0x04\n      dup3\n      add\n        /* \"#utility.yul\":9774:9795   */\n      mstore\n        /* \"#utility.yul\":9831:9833   */\n      0x2f\n        /* \"#utility.yul\":9811:9829   */\n      0x24\n      dup3\n      add\n        /* \"#utility.yul\":9804:9834   */\n      mstore\n        /* \"#utility.yul\":9870:9904   */\n      0x4552433732314d657461646174613a2055524920717565727920666f72206e6f\n        /* \"#utility.yul\":9850:9868   */\n      0x44\n      dup3\n      add\n        /* \"#utility.yul\":9843:9905   */\n      mstore\n      shl(0x89, 0x3732bc34b9ba32b73a103a37b5b2b7)\n        /* \"#utility.yul\":9921:9939   */\n      0x64\n      dup3\n      add\n        /* \"#utility.yul\":9914:9959   */\n      mstore\n        /* \"#utility.yul\":9976:9995   */\n      0x84\n      add\n        /* \"contracts/ToonzRewardsCard.sol\":685:761  require(_exists(tokenId), \"ERC721Metadata: URI query for nonexistent token\") */\n      tag_114\n        /* \"#utility.yul\":9590:10001   */\n      jump\n        /* \"contracts/ToonzRewardsCard.sol\":685:761  require(_exists(tokenId), \"ERC721Metadata: URI query for nonexistent token\") */\n    tag_202:\n        /* \"contracts/ToonzRewardsCard.sol\":800:801  0 */\n      0x00\n        /* \"contracts/ToonzRewardsCard.sol\":780:789  _tokenURI */\n      0x07\n        /* \"contracts/ToonzRewardsCard.sol\":774:797  bytes(_tokenURI).length */\n      dup1\n      sload\n      tag_205\n      swap1\n      tag_105\n      jump\t// in\n    tag_205:\n      swap1\n      pop\n        /* \"contracts/ToonzRewardsCard.sol\":774:801  bytes(_tokenURI).length > 0 */\n      gt\n        /* \"contracts/ToonzRewardsCard.sol\":774:818  bytes(_tokenURI).length > 0 ? _tokenURI : \"\" */\n      tag_206\n      jumpi\n      mload(0x40)\n      dup1\n      0x20\n      add\n      0x40\n      mstore\n      dup1\n      0x00\n      dup2\n      mstore\n      pop\n      jump(tag_101)\n    tag_206:\n        /* \"contracts/ToonzRewardsCard.sol\":804:813  _tokenURI */\n      0x07\n        /* \"contracts/ToonzRewardsCard.sol\":774:818  bytes(_tokenURI).length > 0 ? _tokenURI : \"\" */\n      dup1\n      sload\n      tag_208\n      swap1\n      tag_105\n      jump\t// in\n    tag_208:\n      dup1\n      0x1f\n      add\n      0x20\n      dup1\n      swap2\n      div\n      mul\n      0x20\n      add\n      mload(0x40)\n      swap1\n      dup2\n      add\n      0x40\n      mstore\n      dup1\n      swap3\n      swap2\n      swap1\n      dup2\n      dup2\n      mstore\n      0x20\n      add\n      dup3\n      dup1\n      sload\n      tag_209\n      swap1\n      tag_105\n      jump\t// in\n    tag_209:\n      dup1\n      iszero\n      tag_210\n      jumpi\n      dup1\n      0x1f\n      lt\n      tag_211\n      jumpi\n      0x0100\n      dup1\n      dup4\n      sload\n      div\n      mul\n      dup4\n      mstore\n      swap2\n      0x20\n      add\n      swap2\n      jump(tag_210)\n    tag_211:\n      dup3\n      add\n      swap2\n      swap1\n      0x00\n      mstore\n      keccak256(0x00, 0x20)\n      swap1\n    tag_212:\n      dup2\n      sload\n      dup2\n      mstore\n      swap1\n      0x01\n      add\n      swap1\n      0x20\n      add\n      dup1\n      dup4\n      gt\n      tag_212\n      jumpi\n      dup3\n      swap1\n      sub\n      0x1f\n      and\n      dup3\n      add\n      swap2\n    tag_210:\n      pop\n      pop\n      pop\n      pop\n      pop\n        /* \"contracts/ToonzRewardsCard.sol\":767:818  return bytes(_tokenURI).length > 0 ? _tokenURI : \"\" */\n      swap3\n        /* \"contracts/ToonzRewardsCard.sol\":594:823  function tokenURI(uint tokenId) public view virtual override returns (string memory) {... */\n      swap2\n      pop\n      pop\n      jump\t// out\n        /* \"contracts/ToonzRewardsCard.sol\":1078:1173  function setTokenURI(string memory tokenURI_) public onlyOwner {... */\n    tag_89:\n        /* \"@openzeppelin/contracts/utils/Context.sol\":719:729  msg.sender */\n      caller\n        /* \"@openzeppelin/contracts/access/Ownable.sol\":1248:1255  owner() */\n      tag_215\n        /* \"@openzeppelin/contracts/access/Ownable.sol\":1248:1253  owner */\n      tag_69\n        /* \"@openzeppelin/contracts/access/Ownable.sol\":1248:1255  owner() */\n      jump\t// in\n    tag_215:\n      sub(shl(0xa0, 0x01), 0x01)\n        /* \"@openzeppelin/contracts/access/Ownable.sol\":1248:1271  owner() == _msgSender() */\n      and\n      eq\n        /* \"@openzeppelin/contracts/access/Ownable.sol\":1240:1308  require(owner() == _msgSender(), \"Ownable: caller is not the owner\") */\n      tag_216\n      jumpi\n      mload(0x40)\n      shl(0xe5, 0x461bcd)\n      dup2\n      mstore\n      0x04\n      add\n      tag_114\n      swap1\n      tag_158\n      jump\t// in\n    tag_216:\n        /* \"contracts/ToonzRewardsCard.sol\":1147:1168  _tokenURI = tokenURI_ */\n      dup1\n      mload\n      tag_190\n      swap1\n        /* \"contracts/ToonzRewardsCard.sol\":1147:1156  _tokenURI */\n      0x07\n      swap1\n        /* \"contracts/ToonzRewardsCard.sol\":1147:1168  _tokenURI = tokenURI_ */\n      0x20\n      dup5\n      add\n      swap1\n      tag_220\n      jump\t// in\n        /* \"@openzeppelin/contracts/token/ERC721/ERC721.sol\":4502:4664  function isApprovedForAll(address owner, address operator) public view virtual override returns (bool) {... */\n    tag_93:\n      sub(shl(0xa0, 0x01), 0x01)\n        /* \"@openzeppelin/contracts/token/ERC721/ERC721.sol\":4622:4647  _operatorApprovals[owner] */\n      swap2\n      dup3\n      and\n        /* \"@openzeppelin/contracts/token/ERC721/ERC721.sol\":4599:4603  bool */\n      0x00\n        /* \"@openzeppelin/contracts/token/ERC721/ERC721.sol\":4622:4647  _operatorApprovals[owner] */\n      swap1\n      dup2\n      mstore\n        /* \"@openzeppelin/contracts/token/ERC721/ERC721.sol\":4622:4640  _operatorApprovals */\n      0x05\n        /* \"@openzeppelin/contracts/token/ERC721/ERC721.sol\":4622:4647  _operatorApprovals[owner] */\n      0x20\n      swap1\n      dup2\n      mstore\n      0x40\n      dup1\n      dup4\n      keccak256\n        /* \"@openzeppelin/contracts/token/ERC721/ERC721.sol\":4622:4657  _operatorApprovals[owner][operator] */\n      swap4\n      swap1\n      swap5\n      and\n      dup3\n      mstore\n      swap2\n      swap1\n      swap2\n      mstore\n      keccak256\n      sload\n      0xff\n      and\n      swap1\n        /* \"@openzeppelin/contracts/token/ERC721/ERC721.sol\":4502:4664  function isApprovedForAll(address owner, address operator) public view virtual override returns (bool) {... */\n      jump\t// out\n        /* \"@openzeppelin/contracts/access/Ownable.sol\":1918:2116  function transferOwnership(address newOwner) public virtual onlyOwner {... */\n    tag_97:\n        /* \"@openzeppelin/contracts/utils/Context.sol\":719:729  msg.sender */\n      caller\n        /* \"@openzeppelin/contracts/access/Ownable.sol\":1248:1255  owner() */\n      tag_224\n        /* \"@openzeppelin/contracts/access/Ownable.sol\":1248:1253  owner */\n      tag_69\n        /* \"@openzeppelin/contracts/access/Ownable.sol\":1248:1255  owner() */\n      jump\t// in\n    tag_224:\n      sub(shl(0xa0, 0x01), 0x01)\n        /* \"@openzeppelin/contracts/access/Ownable.sol\":1248:1271  owner() == _msgSender() */\n      and\n      eq\n        /* \"@openzeppelin/contracts/access/Ownable.sol\":1240:1308  require(owner() == _msgSender(), \"Ownable: caller is not the owner\") */\n      tag_225\n      jumpi\n      mload(0x40)\n      shl(0xe5, 0x461bcd)\n      dup2\n      mstore\n      0x04\n      add\n      tag_114\n      swap1\n      tag_158\n      jump\t// in\n    tag_225:\n      sub(shl(0xa0, 0x01), 0x01)\n        /* \"@openzeppelin/contracts/access/Ownable.sol\":2006:2028  newOwner != address(0) */\n      dup2\n      and\n        /* \"@openzeppelin/contracts/access/Ownable.sol\":1998:2071  require(newOwner != address(0), \"Ownable: new owner is the zero address\") */\n      tag_228\n      jumpi\n      mload(0x40)\n      shl(0xe5, 0x461bcd)\n      dup2\n      mstore\n        /* \"#utility.yul\":10208:10210   */\n      0x20\n        /* \"@openzeppelin/contracts/access/Ownable.sol\":1998:2071  require(newOwner != address(0), \"Ownable: new owner is the zero address\") */\n      0x04\n      dup3\n      add\n        /* \"#utility.yul\":10190:10211   */\n      mstore\n        /* \"#utility.yul\":10247:10249   */\n      0x26\n        /* \"#utility.yul\":10227:10245   */\n      0x24\n      dup3\n      add\n        /* \"#utility.yul\":10220:10250   */\n      mstore\n        /* \"#utility.yul\":10286:10320   */\n      0x4f776e61626c653a206e6577206f776e657220697320746865207a65726f2061\n        /* \"#utility.yul\":10266:10284   */\n      0x44\n      dup3\n      add\n        /* \"#utility.yul\":10259:10321   */\n      mstore\n      shl(0xd0, 0x646472657373)\n        /* \"#utility.yul\":10337:10355   */\n      0x64\n      dup3\n      add\n        /* \"#utility.yul\":10330:10366   */\n      mstore\n        /* \"#utility.yul\":10383:10402   */\n      0x84\n      add\n        /* \"@openzeppelin/contracts/access/Ownable.sol\":1998:2071  require(newOwner != address(0), \"Ownable: new owner is the zero address\") */\n      tag_114\n        /* \"#utility.yul\":10006:10408   */\n      jump\n        /* \"@openzeppelin/contracts/access/Ownable.sol\":1998:2071  require(newOwner != address(0), \"Ownable: new owner is the zero address\") */\n    tag_228:\n        /* \"@openzeppelin/contracts/access/Ownable.sol\":2081:2109  _transferOwnership(newOwner) */\n      tag_231\n        /* \"@openzeppelin/contracts/access/Ownable.sol\":2100:2108  newOwner */\n      dup2\n        /* \"@openzeppelin/contracts/access/Ownable.sol\":2081:2099  _transferOwnership */\n      tag_161\n        /* \"@openzeppelin/contracts/access/Ownable.sol\":2081:2109  _transferOwnership(newOwner) */\n      jump\t// in\n    tag_231:\n        /* \"@openzeppelin/contracts/access/Ownable.sol\":1918:2116  function transferOwnership(address newOwner) public virtual onlyOwner {... */\n      pop\n      jump\t// out\n        /* \"@openzeppelin/contracts/token/ERC721/ERC721.sol\":7159:7284  function _exists(uint256 tokenId) internal view virtual returns (bool) {... */\n    tag_112:\n        /* \"@openzeppelin/contracts/token/ERC721/ERC721.sol\":7224:7228  bool */\n      0x00\n        /* \"@openzeppelin/contracts/token/ERC721/ERC721.sol\":7247:7263  _owners[tokenId] */\n      swap1\n      dup2\n      mstore\n        /* \"@openzeppelin/contracts/token/ERC721/ERC721.sol\":7247:7254  _owners */\n      0x02\n        /* \"@openzeppelin/contracts/token/ERC721/ERC721.sol\":7247:7263  _owners[tokenId] */\n      0x20\n      mstore\n      0x40\n      swap1\n      keccak256\n      sload\n      sub(shl(0xa0, 0x01), 0x01)\n      and\n        /* \"@openzeppelin/contracts/token/ERC721/ERC721.sol\":7247:7277  _owners[tokenId] != address(0) */\n      iszero\n      iszero\n      swap1\n        /* \"@openzeppelin/contracts/token/ERC721/ERC721.sol\":7159:7284  function _exists(uint256 tokenId) internal view virtual returns (bool) {... */\n      jump\t// out\n        /* \"@openzeppelin/contracts/token/ERC721/ERC721.sol\":11168:11339  function _approve(address to, uint256 tokenId) internal virtual {... */\n    tag_130:\n        /* \"@openzeppelin/contracts/token/ERC721/ERC721.sol\":11242:11266  _tokenApprovals[tokenId] */\n      0x00\n      dup2\n      dup2\n      mstore\n        /* \"@openzeppelin/contracts/token/ERC721/ERC721.sol\":11242:11257  _tokenApprovals */\n      0x04\n        /* \"@openzeppelin/contracts/token/ERC721/ERC721.sol\":11242:11266  _tokenApprovals[tokenId] */\n      0x20\n      mstore\n      0x40\n      swap1\n      keccak256\n        /* \"@openzeppelin/contracts/token/ERC721/ERC721.sol\":11242:11271  _tokenApprovals[tokenId] = to */\n      dup1\n      sload\n      not(sub(shl(0xa0, 0x01), 0x01))\n      and\n      sub(shl(0xa0, 0x01), 0x01)\n      dup5\n      and\n      swap1\n      dup2\n      or\n      swap1\n      swap2\n      sstore\n        /* \"@openzeppelin/contracts/token/ERC721/ERC721.sol\":11242:11266  _tokenApprovals[tokenId] */\n      dup2\n      swap1\n        /* \"@openzeppelin/contracts/token/ERC721/ERC721.sol\":11295:11318  ERC721.ownerOf(tokenId) */\n      tag_236\n        /* \"@openzeppelin/contracts/token/ERC721/ERC721.sol\":11242:11266  _tokenApprovals[tokenId] */\n      dup3\n        /* \"@openzeppelin/contracts/token/ERC721/ERC721.sol\":11295:11309  ERC721.ownerOf */\n      tag_55\n        /* \"@openzeppelin/contracts/token/ERC721/ERC721.sol\":11295:11318  ERC721.ownerOf(tokenId) */\n      jump\t// in\n    tag_236:\n      sub(shl(0xa0, 0x01), 0x01)\n        /* \"@openzeppelin/contracts/token/ERC721/ERC721.sol\":11286:11332  Approval(ERC721.ownerOf(tokenId), to, tokenId) */\n      and\n      0x8c5be1e5ebec7d5bd14f71427d1e84f3dd0314c0f7b2291e5b200ac8c7c3b925\n      mload(0x40)\n      mload(0x40)\n      dup1\n      swap2\n      sub\n      swap1\n      log4\n        /* \"@openzeppelin/contracts/token/ERC721/ERC721.sol\":11168:11339  function _approve(address to, uint256 tokenId) internal virtual {... */\n      pop\n      pop\n      jump\t// out\n        /* \"@openzeppelin/contracts/token/ERC721/ERC721.sol\":7442:7786  function _isApprovedOrOwner(address spender, uint256 tokenId) internal view virtual returns (bool) {... */\n    tag_137:\n        /* \"@openzeppelin/contracts/token/ERC721/ERC721.sol\":7535:7539  bool */\n      0x00\n        /* \"@openzeppelin/contracts/token/ERC721/ERC721.sol\":7559:7575  _exists(tokenId) */\n      tag_239\n        /* \"@openzeppelin/contracts/token/ERC721/ERC721.sol\":7567:7574  tokenId */\n      dup3\n        /* \"@openzeppelin/contracts/token/ERC721/ERC721.sol\":7559:7566  _exists */\n      tag_112\n        /* \"@openzeppelin/contracts/token/ERC721/ERC721.sol\":7559:7575  _exists(tokenId) */\n      jump\t// in\n    tag_239:\n        /* \"@openzeppelin/contracts/token/ERC721/ERC721.sol\":7551:7624  require(_exists(tokenId), \"ERC721: operator query for nonexistent token\") */\n      tag_240\n      jumpi\n      mload(0x40)\n      shl(0xe5, 0x461bcd)\n      dup2\n      mstore\n        /* \"#utility.yul\":10615:10617   */\n      0x20\n        /* \"@openzeppelin/contracts/token/ERC721/ERC721.sol\":7551:7624  require(_exists(tokenId), \"ERC721: operator query for nonexistent token\") */\n      0x04\n      dup3\n      add\n        /* \"#utility.yul\":10597:10618   */\n      mstore\n        /* \"#utility.yul\":10654:10656   */\n      0x2c\n        /* \"#utility.yul\":10634:10652   */\n      0x24\n      dup3\n      add\n        /* \"#utility.yul\":10627:10657   */\n      mstore\n        /* \"#utility.yul\":10693:10727   */\n      0x4552433732313a206f70657261746f7220717565727920666f72206e6f6e6578\n        /* \"#utility.yul\":10673:10691   */\n      0x44\n      dup3\n      add\n        /* \"#utility.yul\":10666:10728   */\n      mstore\n      shl(0xa1, 0x34b9ba32b73a103a37b5b2b7)\n        /* \"#utility.yul\":10744:10762   */\n      0x64\n      dup3\n      add\n        /* \"#utility.yul\":10737:10779   */\n      mstore\n        /* \"#utility.yul\":10796:10815   */\n      0x84\n      add\n        /* \"@openzeppelin/contracts/token/ERC721/ERC721.sol\":7551:7624  require(_exists(tokenId), \"ERC721: operator query for nonexistent token\") */\n      tag_114\n        /* \"#utility.yul\":10413:10821   */\n      jump\n        /* \"@openzeppelin/contracts/token/ERC721/ERC721.sol\":7551:7624  require(_exists(tokenId), \"ERC721: operator query for nonexistent token\") */\n    tag_240:\n        /* \"@openzeppelin/contracts/token/ERC721/ERC721.sol\":7634:7647  address owner */\n      0x00\n        /* \"@openzeppelin/contracts/token/ERC721/ERC721.sol\":7650:7673  ERC721.ownerOf(tokenId) */\n      tag_243\n        /* \"@openzeppelin/contracts/token/ERC721/ERC721.sol\":7665:7672  tokenId */\n      dup4\n        /* \"@openzeppelin/contracts/token/ERC721/ERC721.sol\":7650:7664  ERC721.ownerOf */\n      tag_55\n        /* \"@openzeppelin/contracts/token/ERC721/ERC721.sol\":7650:7673  ERC721.ownerOf(tokenId) */\n      jump\t// in\n    tag_243:\n        /* \"@openzeppelin/contracts/token/ERC721/ERC721.sol\":7634:7673  address owner = ERC721.ownerOf(tokenId) */\n      swap1\n      pop\n        /* \"@openzeppelin/contracts/token/ERC721/ERC721.sol\":7702:7707  owner */\n      dup1\n      sub(shl(0xa0, 0x01), 0x01)\n        /* \"@openzeppelin/contracts/token/ERC721/ERC721.sol\":7691:7707  spender == owner */\n      and\n        /* \"@openzeppelin/contracts/token/ERC721/ERC721.sol\":7691:7698  spender */\n      dup5\n      sub(shl(0xa0, 0x01), 0x01)\n        /* \"@openzeppelin/contracts/token/ERC721/ERC721.sol\":7691:7707  spender == owner */\n      and\n      eq\n        /* \"@openzeppelin/contracts/token/ERC721/ERC721.sol\":7691:7742  spender == owner || getApproved(tokenId) == spender */\n      dup1\n      tag_244\n      jumpi\n      pop\n        /* \"@openzeppelin/contracts/token/ERC721/ERC721.sol\":7735:7742  spender */\n      dup4\n      sub(shl(0xa0, 0x01), 0x01)\n        /* \"@openzeppelin/contracts/token/ERC721/ERC721.sol\":7711:7742  getApproved(tokenId) == spender */\n      and\n        /* \"@openzeppelin/contracts/token/ERC721/ERC721.sol\":7711:7731  getApproved(tokenId) */\n      tag_245\n        /* \"@openzeppelin/contracts/token/ERC721/ERC721.sol\":7723:7730  tokenId */\n      dup5\n        /* \"@openzeppelin/contracts/token/ERC721/ERC721.sol\":7711:7722  getApproved */\n      tag_35\n        /* \"@openzeppelin/contracts/token/ERC721/ERC721.sol\":7711:7731  getApproved(tokenId) */\n      jump\t// in\n    tag_245:\n      sub(shl(0xa0, 0x01), 0x01)\n        /* \"@openzeppelin/contracts/token/ERC721/ERC721.sol\":7711:7742  getApproved(tokenId) == spender */\n      and\n      eq\n        /* \"@openzeppelin/contracts/token/ERC721/ERC721.sol\":7691:7742  spender == owner || getApproved(tokenId) == spender */\n    tag_244:\n        /* \"@openzeppelin/contracts/token/ERC721/ERC721.sol\":7691:7778  spender == owner || getApproved(tokenId) == spender || isApprovedForAll(owner, spender) */\n      dup1\n      tag_247\n      jumpi\n      pop\n        /* \"@openzeppelin/contracts/token/ERC721/ERC721.sol\":7746:7778  isApprovedForAll(owner, spender) */\n      tag_247\n        /* \"@openzeppelin/contracts/token/ERC721/ERC721.sol\":7763:7768  owner */\n      dup2\n        /* \"@openzeppelin/contracts/token/ERC721/ERC721.sol\":7770:7777  spender */\n      dup6\n        /* \"@openzeppelin/contracts/token/ERC721/ERC721.sol\":7746:7762  isApprovedForAll */\n      tag_93\n        /* \"@openzeppelin/contracts/token/ERC721/ERC721.sol\":7746:7778  isApprovedForAll(owner, spender) */\n      jump\t// in\n    tag_247:\n        /* \"@openzeppelin/contracts/token/ERC721/ERC721.sol\":7683:7779  return (spender == owner || getApproved(tokenId) == spender || isApprovedForAll(owner, spender)) */\n      swap5\n        /* \"@openzeppelin/contracts/token/ERC721/ERC721.sol\":7442:7786  function _isApprovedOrOwner(address spender, uint256 tokenId) internal view virtual returns (bool) {... */\n      swap4\n      pop\n      pop\n      pop\n      pop\n      jump\t// out\n        /* \"@openzeppelin/contracts/token/ERC721/ERC721.sol\":10452:11057  function _transfer(... */\n    tag_142:\n        /* \"@openzeppelin/contracts/token/ERC721/ERC721.sol\":10606:10610  from */\n      dup3\n      sub(shl(0xa0, 0x01), 0x01)\n        /* \"@openzeppelin/contracts/token/ERC721/ERC721.sol\":10579:10610  ERC721.ownerOf(tokenId) == from */\n      and\n        /* \"@openzeppelin/contracts/token/ERC721/ERC721.sol\":10579:10602  ERC721.ownerOf(tokenId) */\n      tag_249\n        /* \"@openzeppelin/contracts/token/ERC721/ERC721.sol\":10594:10601  tokenId */\n      dup3\n        /* \"@openzeppelin/contracts/token/ERC721/ERC721.sol\":10579:10593  ERC721.ownerOf */\n      tag_55\n        /* \"@openzeppelin/contracts/token/ERC721/ERC721.sol\":10579:10602  ERC721.ownerOf(tokenId) */\n      jump\t// in\n    tag_249:\n      sub(shl(0xa0, 0x01), 0x01)\n        /* \"@openzeppelin/contracts/token/ERC721/ERC721.sol\":10579:10610  ERC721.ownerOf(tokenId) == from */\n      and\n      eq\n        /* \"@openzeppelin/contracts/token/ERC721/ERC721.sol\":10571:10652  require(ERC721.ownerOf(tokenId) == from, \"ERC721: transfer from incorrect owner\") */\n      tag_250\n      jumpi\n      mload(0x40)\n      shl(0xe5, 0x461bcd)\n      dup2\n      mstore\n        /* \"#utility.yul\":11028:11030   */\n      0x20\n        /* \"@openzeppelin/contracts/token/ERC721/ERC721.sol\":10571:10652  require(ERC721.ownerOf(tokenId) == from, \"ERC721: transfer from incorrect owner\") */\n      0x04\n      dup3\n      add\n        /* \"#utility.yul\":11010:11031   */\n      mstore\n        /* \"#utility.yul\":11067:11069   */\n      0x25\n        /* \"#utility.yul\":11047:11065   */\n      0x24\n      dup3\n      add\n        /* \"#utility.yul\":11040:11070   */\n      mstore\n        /* \"#utility.yul\":11106:11140   */\n      0x4552433732313a207472616e736665722066726f6d20696e636f727265637420\n        /* \"#utility.yul\":11086:11104   */\n      0x44\n      dup3\n      add\n        /* \"#utility.yul\":11079:11141   */\n      mstore\n      shl(0xd9, 0x37bbb732b9)\n        /* \"#utility.yul\":11157:11175   */\n      0x64\n      dup3\n      add\n        /* \"#utility.yul\":11150:11185   */\n      mstore\n        /* \"#utility.yul\":11202:11221   */\n      0x84\n      add\n        /* \"@openzeppelin/contracts/token/ERC721/ERC721.sol\":10571:10652  require(ERC721.ownerOf(tokenId) == from, \"ERC721: transfer from incorrect owner\") */\n      tag_114\n        /* \"#utility.yul\":10826:11227   */\n      jump\n        /* \"@openzeppelin/contracts/token/ERC721/ERC721.sol\":10571:10652  require(ERC721.ownerOf(tokenId) == from, \"ERC721: transfer from incorrect owner\") */\n    tag_250:\n      sub(shl(0xa0, 0x01), 0x01)\n        /* \"@openzeppelin/contracts/token/ERC721/ERC721.sol\":10670:10686  to != address(0) */\n      dup3\n      and\n        /* \"@openzeppelin/contracts/token/ERC721/ERC721.sol\":10662:10727  require(to != address(0), \"ERC721: transfer to the zero address\") */\n      tag_253\n      jumpi\n      mload(0x40)\n      shl(0xe5, 0x461bcd)\n      dup2\n      mstore\n        /* \"#utility.yul\":11434:11436   */\n      0x20\n        /* \"@openzeppelin/contracts/token/ERC721/ERC721.sol\":10662:10727  require(to != address(0), \"ERC721: transfer to the zero address\") */\n      0x04\n      dup3\n      add\n        /* \"#utility.yul\":11416:11437   */\n      mstore\n        /* \"#utility.yul\":11473:11475   */\n      0x24\n        /* \"#utility.yul\":11453:11471   */\n      dup1\n      dup3\n      add\n        /* \"#utility.yul\":11446:11476   */\n      mstore\n        /* \"#utility.yul\":11512:11546   */\n      0x4552433732313a207472616e7366657220746f20746865207a65726f20616464\n        /* \"#utility.yul\":11492:11510   */\n      0x44\n      dup3\n      add\n        /* \"#utility.yul\":11485:11547   */\n      mstore\n      shl(0xe0, 0x72657373)\n        /* \"#utility.yul\":11563:11581   */\n      0x64\n      dup3\n      add\n        /* \"#utility.yul\":11556:11590   */\n      mstore\n        /* \"#utility.yul\":11607:11626   */\n      0x84\n      add\n        /* \"@openzeppelin/contracts/token/ERC721/ERC721.sol\":10662:10727  require(to != address(0), \"ERC721: transfer to the zero address\") */\n      tag_114\n        /* \"#utility.yul\":11232:11632   */\n      jump\n        /* \"@openzeppelin/contracts/token/ERC721/ERC721.sol\":10662:10727  require(to != address(0), \"ERC721: transfer to the zero address\") */\n    tag_253:\n        /* \"@openzeppelin/contracts/token/ERC721/ERC721.sol\":10839:10868  _approve(address(0), tokenId) */\n      tag_258\n        /* \"@openzeppelin/contracts/token/ERC721/ERC721.sol\":10856:10857  0 */\n      0x00\n        /* \"@openzeppelin/contracts/token/ERC721/ERC721.sol\":10860:10867  tokenId */\n      dup3\n        /* \"@openzeppelin/contracts/token/ERC721/ERC721.sol\":10839:10847  _approve */\n      tag_130\n        /* \"@openzeppelin/contracts/token/ERC721/ERC721.sol\":10839:10868  _approve(address(0), tokenId) */\n      jump\t// in\n    tag_258:\n      sub(shl(0xa0, 0x01), 0x01)\n        /* \"@openzeppelin/contracts/token/ERC721/ERC721.sol\":10879:10894  _balances[from] */\n      dup4\n      and\n      0x00\n      swap1\n      dup2\n      mstore\n        /* \"@openzeppelin/contracts/token/ERC721/ERC721.sol\":10879:10888  _balances */\n      0x03\n        /* \"@openzeppelin/contracts/token/ERC721/ERC721.sol\":10879:10894  _balances[from] */\n      0x20\n      mstore\n      0x40\n      dup2\n      keccak256\n        /* \"@openzeppelin/contracts/token/ERC721/ERC721.sol\":10879:10899  _balances[from] -= 1 */\n      dup1\n      sload\n        /* \"@openzeppelin/contracts/token/ERC721/ERC721.sol\":10898:10899  1 */\n      0x01\n      swap3\n        /* \"@openzeppelin/contracts/token/ERC721/ERC721.sol\":10879:10894  _balances[from] */\n      swap1\n        /* \"@openzeppelin/contracts/token/ERC721/ERC721.sol\":10879:10899  _balances[from] -= 1 */\n      tag_259\n      swap1\n        /* \"@openzeppelin/contracts/token/ERC721/ERC721.sol\":10898:10899  1 */\n      dup5\n      swap1\n        /* \"@openzeppelin/contracts/token/ERC721/ERC721.sol\":10879:10899  _balances[from] -= 1 */\n      tag_260\n      jump\t// in\n    tag_259:\n      swap1\n      swap2\n      sstore\n      pop\n      pop\n      sub(shl(0xa0, 0x01), 0x01)\n        /* \"@openzeppelin/contracts/token/ERC721/ERC721.sol\":10909:10922  _balances[to] */\n      dup3\n      and\n      0x00\n      swap1\n      dup2\n      mstore\n        /* \"@openzeppelin/contracts/token/ERC721/ERC721.sol\":10909:10918  _balances */\n      0x03\n        /* \"@openzeppelin/contracts/token/ERC721/ERC721.sol\":10909:10922  _balances[to] */\n      0x20\n      mstore\n      0x40\n      dup2\n      keccak256\n        /* \"@openzeppelin/contracts/token/ERC721/ERC721.sol\":10909:10927  _balances[to] += 1 */\n      dup1\n      sload\n        /* \"@openzeppelin/contracts/token/ERC721/ERC721.sol\":10926:10927  1 */\n      0x01\n      swap3\n        /* \"@openzeppelin/contracts/token/ERC721/ERC721.sol\":10909:10922  _balances[to] */\n      swap1\n        /* \"@openzeppelin/contracts/token/ERC721/ERC721.sol\":10909:10927  _balances[to] += 1 */\n      tag_261\n      swap1\n        /* \"@openzeppelin/contracts/token/ERC721/ERC721.sol\":10926:10927  1 */\n      dup5\n      swap1\n        /* \"@openzeppelin/contracts/token/ERC721/ERC721.sol\":10909:10927  _balances[to] += 1 */\n      tag_262\n      jump\t// in\n    tag_261:\n      swap1\n      swap2\n      sstore\n      pop\n      pop\n        /* \"@openzeppelin/contracts/token/ERC721/ERC721.sol\":10937:10953  _owners[tokenId] */\n      0x00\n      dup2\n      dup2\n      mstore\n        /* \"@openzeppelin/contracts/token/ERC721/ERC721.sol\":10937:10944  _owners */\n      0x02\n        /* \"@openzeppelin/contracts/token/ERC721/ERC721.sol\":10937:10953  _owners[tokenId] */\n      0x20\n      mstore\n      0x40\n      dup1\n      dup3\n      keccak256\n        /* \"@openzeppelin/contracts/token/ERC721/ERC721.sol\":10937:10958  _owners[tokenId] = to */\n      dup1\n      sload\n      not(sub(shl(0xa0, 0x01), 0x01))\n      and\n      sub(shl(0xa0, 0x01), 0x01)\n      dup7\n      dup2\n      and\n      swap2\n      dup3\n      or\n      swap1\n      swap3\n      sstore\n        /* \"@openzeppelin/contracts/token/ERC721/ERC721.sol\":10974:11001  Transfer(from, to, tokenId) */\n      swap2\n      mload\n        /* \"@openzeppelin/contracts/token/ERC721/ERC721.sol\":10937:10953  _owners[tokenId] */\n      dup5\n      swap4\n        /* \"@openzeppelin/contracts/token/ERC721/ERC721.sol\":10974:11001  Transfer(from, to, tokenId) */\n      swap2\n      dup8\n      and\n      swap2\n      0x00\n      dup1\n      mload\n      0x20\n      data_ada389e1fc24a8587c776340efb91b36e675792ab631816100d55df0b5cf3cbc\n      dup4\n      codecopy\n      dup2\n      mload\n      swap2\n      mstore\n      swap2\n      log4\n        /* \"@openzeppelin/contracts/token/ERC721/ERC721.sol\":3607:3938  {... */\n      pop\n        /* \"@openzeppelin/contracts/token/ERC721/ERC721.sol\":3537:3938  function approve(address to, uint256 tokenId) public virtual override {... */\n      pop\n      pop\n      jump\t// out\n        /* \"@openzeppelin/contracts/access/Ownable.sol\":2270:2457  function _transferOwnership(address newOwner) internal virtual {... */\n    tag_161:\n        /* \"@openzeppelin/contracts/access/Ownable.sol\":2362:2368  _owner */\n      0x06\n      dup1\n      sload\n      sub(shl(0xa0, 0x01), 0x01)\n        /* \"@openzeppelin/contracts/access/Ownable.sol\":2378:2395  _owner = newOwner */\n      dup4\n      dup2\n      and\n      not(sub(shl(0xa0, 0x01), 0x01))\n      dup4\n      and\n      dup2\n      or\n      swap1\n      swap4\n      sstore\n        /* \"@openzeppelin/contracts/access/Ownable.sol\":2410:2450  OwnershipTransferred(oldOwner, newOwner) */\n      mload(0x40)\n        /* \"@openzeppelin/contracts/access/Ownable.sol\":2362:2368  _owner */\n      swap2\n      and\n      swap2\n        /* \"@openzeppelin/contracts/access/Ownable.sol\":2378:2395  _owner = newOwner */\n      swap1\n        /* \"@openzeppelin/contracts/access/Ownable.sol\":2362:2368  _owner */\n      dup3\n      swap1\n        /* \"@openzeppelin/contracts/access/Ownable.sol\":2410:2450  OwnershipTransferred(oldOwner, newOwner) */\n      0x8be0079c531659141344cd1fd0a4f28419497f9722a3daafe3b4186f6b6457e0\n      swap1\n        /* \"@openzeppelin/contracts/access/Ownable.sol\":2343:2359  address oldOwner */\n      0x00\n      swap1\n        /* \"@openzeppelin/contracts/access/Ownable.sol\":2410:2450  OwnershipTransferred(oldOwner, newOwner) */\n      log3\n        /* \"@openzeppelin/contracts/access/Ownable.sol\":2333:2457  {... */\n      pop\n        /* \"@openzeppelin/contracts/access/Ownable.sol\":2270:2457  function _transferOwnership(address newOwner) internal virtual {... */\n      pop\n      jump\t// out\n        /* \"@openzeppelin/contracts/token/ERC721/ERC721.sol\":8116:8224  function _safeMint(address to, uint256 tokenId) internal virtual {... */\n    tag_179:\n        /* \"@openzeppelin/contracts/token/ERC721/ERC721.sol\":8191:8217  _safeMint(to, tokenId, \"\") */\n      tag_190\n        /* \"@openzeppelin/contracts/token/ERC721/ERC721.sol\":8201:8203  to */\n      dup3\n        /* \"@openzeppelin/contracts/token/ERC721/ERC721.sol\":8205:8212  tokenId */\n      dup3\n        /* \"@openzeppelin/contracts/token/ERC721/ERC721.sol\":8191:8217  _safeMint(to, tokenId, \"\") */\n      mload(0x40)\n      dup1\n      0x20\n      add\n      0x40\n      mstore\n      dup1\n      0x00\n      dup2\n      mstore\n      pop\n        /* \"@openzeppelin/contracts/token/ERC721/ERC721.sol\":8191:8200  _safeMint */\n      tag_269\n        /* \"@openzeppelin/contracts/token/ERC721/ERC721.sol\":8191:8217  _safeMint(to, tokenId, \"\") */\n      jump\t// in\n        /* \"@openzeppelin/contracts/token/ERC721/ERC721.sol\":11474:11781  function _setApprovalForAll(... */\n    tag_192:\n        /* \"@openzeppelin/contracts/token/ERC721/ERC721.sol\":11624:11632  operator */\n      dup2\n      sub(shl(0xa0, 0x01), 0x01)\n        /* \"@openzeppelin/contracts/token/ERC721/ERC721.sol\":11615:11632  owner != operator */\n      and\n        /* \"@openzeppelin/contracts/token/ERC721/ERC721.sol\":11615:11620  owner */\n      dup4\n      sub(shl(0xa0, 0x01), 0x01)\n        /* \"@openzeppelin/contracts/token/ERC721/ERC721.sol\":11615:11632  owner != operator */\n      and\n      sub\n        /* \"@openzeppelin/contracts/token/ERC721/ERC721.sol\":11607:11662  require(owner != operator, \"ERC721: approve to caller\") */\n      tag_271\n      jumpi\n      mload(0x40)\n      shl(0xe5, 0x461bcd)\n      dup2\n      mstore\n        /* \"#utility.yul\":12102:12104   */\n      0x20\n        /* \"@openzeppelin/contracts/token/ERC721/ERC721.sol\":11607:11662  require(owner != operator, \"ERC721: approve to caller\") */\n      0x04\n      dup3\n      add\n        /* \"#utility.yul\":12084:12105   */\n      mstore\n        /* \"#utility.yul\":12141:12143   */\n      0x19\n        /* \"#utility.yul\":12121:12139   */\n      0x24\n      dup3\n      add\n        /* \"#utility.yul\":12114:12144   */\n      mstore\n      shl(0x39, 0x22a9219b99189d1030b8383937bb32903a379031b0b63632b9)\n        /* \"#utility.yul\":12160:12178   */\n      0x44\n      dup3\n      add\n        /* \"#utility.yul\":12153:12208   */\n      mstore\n        /* \"#utility.yul\":12225:12243   */\n      0x64\n      add\n        /* \"@openzeppelin/contracts/token/ERC721/ERC721.sol\":11607:11662  require(owner != operator, \"ERC721: approve to caller\") */\n      tag_114\n        /* \"#utility.yul\":11900:12249   */\n      jump\n        /* \"@openzeppelin/contracts/token/ERC721/ERC721.sol\":11607:11662  require(owner != operator, \"ERC721: approve to caller\") */\n    tag_271:\n      sub(shl(0xa0, 0x01), 0x01)\n        /* \"@openzeppelin/contracts/token/ERC721/ERC721.sol\":11672:11697  _operatorApprovals[owner] */\n      dup4\n      dup2\n      and\n      0x00\n      dup2\n      dup2\n      mstore\n        /* \"@openzeppelin/contracts/token/ERC721/ERC721.sol\":11672:11690  _operatorApprovals */\n      0x05\n        /* \"@openzeppelin/contracts/token/ERC721/ERC721.sol\":11672:11697  _operatorApprovals[owner] */\n      0x20\n      swap1\n      dup2\n      mstore\n      0x40\n      dup1\n      dup4\n      keccak256\n        /* \"@openzeppelin/contracts/token/ERC721/ERC721.sol\":11672:11707  _operatorApprovals[owner][operator] */\n      swap5\n      dup8\n      and\n      dup1\n      dup5\n      mstore\n      swap5\n      dup3\n      mstore\n      swap2\n      dup3\n      swap1\n      keccak256\n        /* \"@openzeppelin/contracts/token/ERC721/ERC721.sol\":11672:11718  _operatorApprovals[owner][operator] = approved */\n      dup1\n      sload\n      not(0xff)\n      and\n      dup7\n      iszero\n      iszero\n      swap1\n      dup2\n      or\n      swap1\n      swap2\n      sstore\n        /* \"@openzeppelin/contracts/token/ERC721/ERC721.sol\":11733:11774  ApprovalForAll(owner, operator, approved) */\n      swap2\n      mload\n        /* \"#utility.yul\":540:581   */\n      swap2\n      dup3\n      mstore\n        /* \"@openzeppelin/contracts/token/ERC721/ERC721.sol\":11733:11774  ApprovalForAll(owner, operator, approved) */\n      0x17307eab39ab6107e8899845ad3d59bd9653f200f220920489ca2b5937696c31\n      swap2\n        /* \"#utility.yul\":513:531   */\n      add\n        /* \"@openzeppelin/contracts/token/ERC721/ERC721.sol\":11733:11774  ApprovalForAll(owner, operator, approved) */\n      mload(0x40)\n      dup1\n      swap2\n      sub\n      swap1\n      log3\n        /* \"@openzeppelin/contracts/token/ERC721/ERC721.sol\":11474:11781  function _setApprovalForAll(... */\n      pop\n      pop\n      pop\n      jump\t// out\n        /* \"@openzeppelin/contracts/token/ERC721/ERC721.sol\":6549:6856  function _safeTransfer(... */\n    tag_199:\n        /* \"@openzeppelin/contracts/token/ERC721/ERC721.sol\":6700:6728  _transfer(from, to, tokenId) */\n      tag_276\n        /* \"@openzeppelin/contracts/token/ERC721/ERC721.sol\":6710:6714  from */\n      dup5\n        /* \"@openzeppelin/contracts/token/ERC721/ERC721.sol\":6716:6718  to */\n      dup5\n        /* \"@openzeppelin/contracts/token/ERC721/ERC721.sol\":6720:6727  tokenId */\n      dup5\n        /* \"@openzeppelin/contracts/token/ERC721/ERC721.sol\":6700:6709  _transfer */\n      tag_142\n        /* \"@openzeppelin/contracts/token/ERC721/ERC721.sol\":6700:6728  _transfer(from, to, tokenId) */\n      jump\t// in\n    tag_276:\n        /* \"@openzeppelin/contracts/token/ERC721/ERC721.sol\":6746:6794  _checkOnERC721Received(from, to, tokenId, _data) */\n      tag_277\n        /* \"@openzeppelin/contracts/token/ERC721/ERC721.sol\":6769:6773  from */\n      dup5\n        /* \"@openzeppelin/contracts/token/ERC721/ERC721.sol\":6775:6777  to */\n      dup5\n        /* \"@openzeppelin/contracts/token/ERC721/ERC721.sol\":6779:6786  tokenId */\n      dup5\n        /* \"@openzeppelin/contracts/token/ERC721/ERC721.sol\":6788:6793  _data */\n      dup5\n        /* \"@openzeppelin/contracts/token/ERC721/ERC721.sol\":6746:6768  _checkOnERC721Received */\n      tag_278\n        /* \"@openzeppelin/contracts/token/ERC721/ERC721.sol\":6746:6794  _checkOnERC721Received(from, to, tokenId, _data) */\n      jump\t// in\n    tag_277:\n        /* \"@openzeppelin/contracts/token/ERC721/ERC721.sol\":6738:6849  require(_checkOnERC721Received(from, to, tokenId, _data), \"ERC721: transfer to non ERC721Receiver implementer\") */\n      tag_169\n      jumpi\n      mload(0x40)\n      shl(0xe5, 0x461bcd)\n      dup2\n      mstore\n      0x04\n      add\n      tag_114\n      swap1\n      tag_281\n      jump\t// in\n        /* \"@openzeppelin/contracts/token/ERC721/ERC721.sol\":8445:8756  function _safeMint(... */\n    tag_269:\n        /* \"@openzeppelin/contracts/token/ERC721/ERC721.sol\":8570:8588  _mint(to, tokenId) */\n      tag_285\n        /* \"@openzeppelin/contracts/token/ERC721/ERC721.sol\":8576:8578  to */\n      dup4\n        /* \"@openzeppelin/contracts/token/ERC721/ERC721.sol\":8580:8587  tokenId */\n      dup4\n        /* \"@openzeppelin/contracts/token/ERC721/ERC721.sol\":8570:8575  _mint */\n      tag_286\n        /* \"@openzeppelin/contracts/token/ERC721/ERC721.sol\":8570:8588  _mint(to, tokenId) */\n      jump\t// in\n    tag_285:\n        /* \"@openzeppelin/contracts/token/ERC721/ERC721.sol\":8619:8673  _checkOnERC721Received(address(0), to, tokenId, _data) */\n      tag_287\n        /* \"@openzeppelin/contracts/token/ERC721/ERC721.sol\":8650:8651  0 */\n      0x00\n        /* \"@openzeppelin/contracts/token/ERC721/ERC721.sol\":8654:8656  to */\n      dup5\n        /* \"@openzeppelin/contracts/token/ERC721/ERC721.sol\":8658:8665  tokenId */\n      dup5\n        /* \"@openzeppelin/contracts/token/ERC721/ERC721.sol\":8667:8672  _data */\n      dup5\n        /* \"@openzeppelin/contracts/token/ERC721/ERC721.sol\":8619:8641  _checkOnERC721Received */\n      tag_278\n        /* \"@openzeppelin/contracts/token/ERC721/ERC721.sol\":8619:8673  _checkOnERC721Received(address(0), to, tokenId, _data) */\n      jump\t// in\n    tag_287:\n        /* \"@openzeppelin/contracts/token/ERC721/ERC721.sol\":8598:8749  require(... */\n      tag_129\n      jumpi\n      mload(0x40)\n      shl(0xe5, 0x461bcd)\n      dup2\n      mstore\n      0x04\n      add\n      tag_114\n      swap1\n      tag_281\n      jump\t// in\n        /* \"@openzeppelin/contracts/token/ERC721/ERC721.sol\":12334:13112  function _checkOnERC721Received(... */\n    tag_278:\n        /* \"@openzeppelin/contracts/token/ERC721/ERC721.sol\":12484:12488  bool */\n      0x00\n      sub(shl(0xa0, 0x01), 0x01)\n        /* \"@openzeppelin/contracts/token/ERC721/ERC721.sol\":12504:12517  to.isContract */\n      dup5\n      and\n        /* \"@openzeppelin/contracts/utils/Address.sol\":1465:1484  account.code.length */\n      extcodesize\n        /* \"@openzeppelin/contracts/utils/Address.sol\":1465:1488  account.code.length > 0 */\n      iszero\n        /* \"@openzeppelin/contracts/token/ERC721/ERC721.sol\":12500:13106  if (to.isContract()) {... */\n      tag_293\n      jumpi\n        /* \"@openzeppelin/contracts/token/ERC721/ERC721.sol\":12539:12611  IERC721Receiver(to).onERC721Received(_msgSender(), from, tokenId, _data) */\n      mload(0x40)\n      shl(0xe1, 0x0a85bd01)\n      dup2\n      mstore\n      sub(shl(0xa0, 0x01), 0x01)\n        /* \"@openzeppelin/contracts/token/ERC721/ERC721.sol\":12539:12575  IERC721Receiver(to).onERC721Received */\n      dup6\n      and\n      swap1\n      0x150b7a02\n      swap1\n        /* \"@openzeppelin/contracts/token/ERC721/ERC721.sol\":12539:12611  IERC721Receiver(to).onERC721Received(_msgSender(), from, tokenId, _data) */\n      tag_295\n      swap1\n        /* \"@openzeppelin/contracts/utils/Context.sol\":719:729  msg.sender */\n      caller\n      swap1\n        /* \"@openzeppelin/contracts/token/ERC721/ERC721.sol\":12590:12594  from */\n      dup10\n      swap1\n        /* \"@openzeppelin/contracts/token/ERC721/ERC721.sol\":12596:12603  tokenId */\n      dup9\n      swap1\n        /* \"@openzeppelin/contracts/token/ERC721/ERC721.sol\":12605:12610  _data */\n      dup9\n      swap1\n        /* \"@openzeppelin/contracts/token/ERC721/ERC721.sol\":12539:12611  IERC721Receiver(to).onERC721Received(_msgSender(), from, tokenId, _data) */\n      0x04\n      add\n      tag_296\n      jump\t// in\n    tag_295:\n      0x20\n      mload(0x40)\n      dup1\n      dup4\n      sub\n      dup2\n      0x00\n      dup8\n      gas\n      call\n      swap3\n      pop\n      pop\n      pop\n      dup1\n      iszero\n      tag_297\n      jumpi\n      pop\n      0x40\n      dup1\n      mload\n      0x1f\n      returndatasize\n      swap1\n      dup2\n      add\n      not(0x1f)\n      and\n      dup3\n      add\n      swap1\n      swap3\n      mstore\n      tag_298\n      swap2\n      dup2\n      add\n      swap1\n      tag_299\n      jump\t// in\n    tag_298:\n      0x01\n    tag_297:\n        /* \"@openzeppelin/contracts/token/ERC721/ERC721.sol\":12535:13054  try IERC721Receiver(to).onERC721Received(_msgSender(), from, tokenId, _data) returns (bytes4 retval) {... */\n      tag_300\n      jumpi\n      returndatasize\n      dup1\n      dup1\n      iszero\n      tag_305\n      jumpi\n      mload(0x40)\n      swap2\n      pop\n      and(add(returndatasize, 0x3f), not(0x1f))\n      dup3\n      add\n      0x40\n      mstore\n      returndatasize\n      dup3\n      mstore\n      returndatasize\n      0x00\n      0x20\n      dup5\n      add\n      returndatacopy\n      jump(tag_304)\n    tag_305:\n      0x60\n      swap2\n      pop\n    tag_304:\n      pop\n        /* \"@openzeppelin/contracts/token/ERC721/ERC721.sol\":12778:12784  reason */\n      dup1\n        /* \"@openzeppelin/contracts/token/ERC721/ERC721.sol\":12778:12791  reason.length */\n      mload\n        /* \"@openzeppelin/contracts/token/ERC721/ERC721.sol\":12795:12796  0 */\n      0x00\n        /* \"@openzeppelin/contracts/token/ERC721/ERC721.sol\":12778:12796  reason.length == 0 */\n      sub\n        /* \"@openzeppelin/contracts/token/ERC721/ERC721.sol\":12774:13040  if (reason.length == 0) {... */\n      tag_306\n      jumpi\n        /* \"@openzeppelin/contracts/token/ERC721/ERC721.sol\":12820:12880  revert(\"ERC721: transfer to non ERC721Receiver implementer\") */\n      mload(0x40)\n      shl(0xe5, 0x461bcd)\n      dup2\n      mstore\n      0x04\n      add\n      tag_114\n      swap1\n      tag_281\n      jump\t// in\n        /* \"@openzeppelin/contracts/token/ERC721/ERC721.sol\":12774:13040  if (reason.length == 0) {... */\n    tag_306:\n        /* \"@openzeppelin/contracts/token/ERC721/ERC721.sol\":12992:12998  reason */\n      dup1\n        /* \"@openzeppelin/contracts/token/ERC721/ERC721.sol\":12986:12999  mload(reason) */\n      mload\n        /* \"@openzeppelin/contracts/token/ERC721/ERC721.sol\":12977:12983  reason */\n      dup2\n        /* \"@openzeppelin/contracts/token/ERC721/ERC721.sol\":12973:12975  32 */\n      0x20\n        /* \"@openzeppelin/contracts/token/ERC721/ERC721.sol\":12969:12984  add(32, reason) */\n      add\n        /* \"@openzeppelin/contracts/token/ERC721/ERC721.sol\":12962:13000  revert(add(32, reason), mload(reason)) */\n      revert\n        /* \"@openzeppelin/contracts/token/ERC721/ERC721.sol\":12535:13054  try IERC721Receiver(to).onERC721Received(_msgSender(), from, tokenId, _data) returns (bytes4 retval) {... */\n    tag_300:\n      not(sub(shl(0xe0, 0x01), 0x01))\n        /* \"@openzeppelin/contracts/token/ERC721/ERC721.sol\":12661:12712  retval == IERC721Receiver.onERC721Received.selector */\n      and\n      shl(0xe1, 0x0a85bd01)\n      eq\n      swap1\n      pop\n        /* \"@openzeppelin/contracts/token/ERC721/ERC721.sol\":12654:12712  return retval == IERC721Receiver.onERC721Received.selector */\n      jump(tag_247)\n        /* \"@openzeppelin/contracts/token/ERC721/ERC721.sol\":12500:13106  if (to.isContract()) {... */\n    tag_293:\n      pop\n        /* \"@openzeppelin/contracts/token/ERC721/ERC721.sol\":13091:13095  true */\n      0x01\n        /* \"@openzeppelin/contracts/token/ERC721/ERC721.sol\":12334:13112  function _checkOnERC721Received(... */\n      swap5\n      swap4\n      pop\n      pop\n      pop\n      pop\n      jump\t// out\n        /* \"@openzeppelin/contracts/token/ERC721/ERC721.sol\":9078:9505  function _mint(address to, uint256 tokenId) internal virtual {... */\n    tag_286:\n      sub(shl(0xa0, 0x01), 0x01)\n        /* \"@openzeppelin/contracts/token/ERC721/ERC721.sol\":9157:9173  to != address(0) */\n      dup3\n      and\n        /* \"@openzeppelin/contracts/token/ERC721/ERC721.sol\":9149:9210  require(to != address(0), \"ERC721: mint to the zero address\") */\n      tag_312\n      jumpi\n      mload(0x40)\n      shl(0xe5, 0x461bcd)\n      dup2\n      mstore\n        /* \"#utility.yul\":13623:13625   */\n      0x20\n        /* \"@openzeppelin/contracts/token/ERC721/ERC721.sol\":9149:9210  require(to != address(0), \"ERC721: mint to the zero address\") */\n      0x04\n      dup3\n      add\n        /* \"#utility.yul\":13605:13626   */\n      dup2\n      swap1\n      mstore\n        /* \"#utility.yul\":13642:13660   */\n      0x24\n      dup3\n      add\n        /* \"#utility.yul\":13635:13665   */\n      mstore\n        /* \"#utility.yul\":13701:13735   */\n      0x4552433732313a206d696e7420746f20746865207a65726f2061646472657373\n        /* \"#utility.yul\":13681:13699   */\n      0x44\n      dup3\n      add\n        /* \"#utility.yul\":13674:13736   */\n      mstore\n        /* \"#utility.yul\":13753:13771   */\n      0x64\n      add\n        /* \"@openzeppelin/contracts/token/ERC721/ERC721.sol\":9149:9210  require(to != address(0), \"ERC721: mint to the zero address\") */\n      tag_114\n        /* \"#utility.yul\":13421:13777   */\n      jump\n        /* \"@openzeppelin/contracts/token/ERC721/ERC721.sol\":9149:9210  require(to != address(0), \"ERC721: mint to the zero address\") */\n    tag_312:\n        /* \"@openzeppelin/contracts/token/ERC721/ERC721.sol\":9229:9245  _exists(tokenId) */\n      tag_315\n        /* \"@openzeppelin/contracts/token/ERC721/ERC721.sol\":9237:9244  tokenId */\n      dup2\n        /* \"@openzeppelin/contracts/token/ERC721/ERC721.sol\":9229:9236  _exists */\n      tag_112\n        /* \"@openzeppelin/contracts/token/ERC721/ERC721.sol\":9229:9245  _exists(tokenId) */\n      jump\t// in\n    tag_315:\n        /* \"@openzeppelin/contracts/token/ERC721/ERC721.sol\":9228:9245  !_exists(tokenId) */\n      iszero\n        /* \"@openzeppelin/contracts/token/ERC721/ERC721.sol\":9220:9278  require(!_exists(tokenId), \"ERC721: token already minted\") */\n      tag_316\n      jumpi\n      mload(0x40)\n      shl(0xe5, 0x461bcd)\n      dup2\n      mstore\n        /* \"#utility.yul\":13984:13986   */\n      0x20\n        /* \"@openzeppelin/contracts/token/ERC721/ERC721.sol\":9220:9278  require(!_exists(tokenId), \"ERC721: token already minted\") */\n      0x04\n      dup3\n      add\n        /* \"#utility.yul\":13966:13987   */\n      mstore\n        /* \"#utility.yul\":14023:14025   */\n      0x1c\n        /* \"#utility.yul\":14003:14021   */\n      0x24\n      dup3\n      add\n        /* \"#utility.yul\":13996:14026   */\n      mstore\n      shl(0x22, 0x115490cdcc8c4e881d1bdad95b88185b1c9958591e481b5a5b9d1959)\n        /* \"#utility.yul\":14042:14060   */\n      0x44\n      dup3\n      add\n        /* \"#utility.yul\":14035:14093   */\n      mstore\n        /* \"#utility.yul\":14110:14128   */\n      0x64\n      add\n        /* \"@openzeppelin/contracts/token/ERC721/ERC721.sol\":9220:9278  require(!_exists(tokenId), \"ERC721: token already minted\") */\n      tag_114\n        /* \"#utility.yul\":13782:14134   */\n      jump\n        /* \"@openzeppelin/contracts/token/ERC721/ERC721.sol\":9220:9278  require(!_exists(tokenId), \"ERC721: token already minted\") */\n    tag_316:\n      sub(shl(0xa0, 0x01), 0x01)\n        /* \"@openzeppelin/contracts/token/ERC721/ERC721.sol\":9345:9358  _balances[to] */\n      dup3\n      and\n      0x00\n      swap1\n      dup2\n      mstore\n        /* \"@openzeppelin/contracts/token/ERC721/ERC721.sol\":9345:9354  _balances */\n      0x03\n        /* \"@openzeppelin/contracts/token/ERC721/ERC721.sol\":9345:9358  _balances[to] */\n      0x20\n      mstore\n      0x40\n      dup2\n      keccak256\n        /* \"@openzeppelin/contracts/token/ERC721/ERC721.sol\":9345:9363  _balances[to] += 1 */\n      dup1\n      sload\n        /* \"@openzeppelin/contracts/token/ERC721/ERC721.sol\":9362:9363  1 */\n      0x01\n      swap3\n        /* \"@openzeppelin/contracts/token/ERC721/ERC721.sol\":9345:9358  _balances[to] */\n      swap1\n        /* \"@openzeppelin/contracts/token/ERC721/ERC721.sol\":9345:9363  _balances[to] += 1 */\n      tag_320\n      swap1\n        /* \"@openzeppelin/contracts/token/ERC721/ERC721.sol\":9362:9363  1 */\n      dup5\n      swap1\n        /* \"@openzeppelin/contracts/token/ERC721/ERC721.sol\":9345:9363  _balances[to] += 1 */\n      tag_262\n      jump\t// in\n    tag_320:\n      swap1\n      swap2\n      sstore\n      pop\n      pop\n        /* \"@openzeppelin/contracts/token/ERC721/ERC721.sol\":9373:9389  _owners[tokenId] */\n      0x00\n      dup2\n      dup2\n      mstore\n        /* \"@openzeppelin/contracts/token/ERC721/ERC721.sol\":9373:9380  _owners */\n      0x02\n        /* \"@openzeppelin/contracts/token/ERC721/ERC721.sol\":9373:9389  _owners[tokenId] */\n      0x20\n      mstore\n      0x40\n      dup1\n      dup3\n      keccak256\n        /* \"@openzeppelin/contracts/token/ERC721/ERC721.sol\":9373:9394  _owners[tokenId] = to */\n      dup1\n      sload\n      not(sub(shl(0xa0, 0x01), 0x01))\n      and\n      sub(shl(0xa0, 0x01), 0x01)\n      dup7\n      and\n      swap1\n      dup2\n      or\n      swap1\n      swap2\n      sstore\n        /* \"@openzeppelin/contracts/token/ERC721/ERC721.sol\":9410:9443  Transfer(address(0), to, tokenId) */\n      swap1\n      mload\n        /* \"@openzeppelin/contracts/token/ERC721/ERC721.sol\":9373:9389  _owners[tokenId] */\n      dup4\n      swap3\n      swap1\n      0x00\n      dup1\n      mload\n      0x20\n      data_ada389e1fc24a8587c776340efb91b36e675792ab631816100d55df0b5cf3cbc\n      dup4\n      codecopy\n      dup2\n      mload\n      swap2\n      mstore\n        /* \"@openzeppelin/contracts/token/ERC721/ERC721.sol\":9410:9443  Transfer(address(0), to, tokenId) */\n      swap1\n        /* \"@openzeppelin/contracts/token/ERC721/ERC721.sol\":9373:9389  _owners[tokenId] */\n      dup3\n      swap1\n        /* \"@openzeppelin/contracts/token/ERC721/ERC721.sol\":9410:9443  Transfer(address(0), to, tokenId) */\n      log4\n        /* \"@openzeppelin/contracts/token/ERC721/ERC721.sol\":4283:4436  function setApprovalForAll(address operator, bool approved) public virtual override {... */\n      pop\n      pop\n      jump\t// out\n    tag_220:\n      dup3\n      dup1\n      sload\n      tag_323\n      swap1\n      tag_105\n      jump\t// in\n    tag_323:\n      swap1\n      0x00\n      mstore\n      keccak256(0x00, 0x20)\n      swap1\n      0x1f\n      add\n      0x20\n      swap1\n      div\n      dup2\n      add\n      swap3\n      dup3\n      tag_325\n      jumpi\n      0x00\n      dup6\n      sstore\n      jump(tag_328)\n    tag_325:\n      dup3\n      0x1f\n      lt\n      tag_326\n      jumpi\n      dup1\n      mload\n      not(0xff)\n      and\n      dup4\n      dup1\n      add\n      or\n      dup6\n      sstore\n      jump(tag_328)\n    tag_326:\n      dup3\n      dup1\n      add\n      0x01\n      add\n      dup6\n      sstore\n      dup3\n      iszero\n      tag_328\n      jumpi\n      swap2\n      dup3\n      add\n    tag_327:\n      dup3\n      dup2\n      gt\n      iszero\n      tag_328\n      jumpi\n      dup3\n      mload\n      dup3\n      sstore\n      swap2\n      0x20\n      add\n      swap2\n      swap1\n      0x01\n      add\n      swap1\n      jump(tag_327)\n    tag_328:\n      pop\n      tag_329\n      swap3\n      swap2\n      pop\n      tag_330\n      jump\t// in\n    tag_329:\n      pop\n      swap1\n      jump\t// out\n    tag_330:\n    tag_331:\n      dup1\n      dup3\n      gt\n      iszero\n      tag_329\n      jumpi\n      0x00\n      dup2\n      sstore\n      0x01\n      add\n      jump(tag_331)\n        /* \"#utility.yul\":14:145   */\n    tag_333:\n      not(sub(shl(0xe0, 0x01), 0x01))\n        /* \"#utility.yul\":88:120   */\n      dup2\n      and\n        /* \"#utility.yul\":78:121   */\n      dup2\n      eq\n        /* \"#utility.yul\":68:139   */\n      tag_231\n      jumpi\n        /* \"#utility.yul\":135:136   */\n      0x00\n        /* \"#utility.yul\":132:133   */\n      dup1\n        /* \"#utility.yul\":125:137   */\n      revert\n        /* \"#utility.yul\":150:395   */\n    tag_24:\n        /* \"#utility.yul\":208:214   */\n      0x00\n        /* \"#utility.yul\":261:263   */\n      0x20\n        /* \"#utility.yul\":249:258   */\n      dup3\n        /* \"#utility.yul\":240:247   */\n      dup5\n        /* \"#utility.yul\":236:259   */\n      sub\n        /* \"#utility.yul\":232:264   */\n      slt\n        /* \"#utility.yul\":229:281   */\n      iszero\n      tag_343\n      jumpi\n        /* \"#utility.yul\":277:278   */\n      0x00\n        /* \"#utility.yul\":274:275   */\n      dup1\n        /* \"#utility.yul\":267:279   */\n      revert\n        /* \"#utility.yul\":229:281   */\n    tag_343:\n        /* \"#utility.yul\":316:325   */\n      dup2\n        /* \"#utility.yul\":303:326   */\n      calldataload\n        /* \"#utility.yul\":335:365   */\n      tag_344\n        /* \"#utility.yul\":359:364   */\n      dup2\n        /* \"#utility.yul\":335:365   */\n      tag_333\n      jump\t// in\n    tag_344:\n        /* \"#utility.yul\":384:389   */\n      swap4\n        /* \"#utility.yul\":150:395   */\n      swap3\n      pop\n      pop\n      pop\n      jump\t// out\n        /* \"#utility.yul\":592:1064   */\n    tag_334:\n        /* \"#utility.yul\":634:637   */\n      0x00\n        /* \"#utility.yul\":672:677   */\n      dup2\n        /* \"#utility.yul\":666:678   */\n      mload\n        /* \"#utility.yul\":699:705   */\n      dup1\n        /* \"#utility.yul\":694:697   */\n      dup5\n        /* \"#utility.yul\":687:706   */\n      mstore\n        /* \"#utility.yul\":724:725   */\n      0x00\n        /* \"#utility.yul\":734:896   */\n    tag_347:\n        /* \"#utility.yul\":748:754   */\n      dup2\n        /* \"#utility.yul\":745:746   */\n      dup2\n        /* \"#utility.yul\":742:755   */\n      lt\n        /* \"#utility.yul\":734:896   */\n      iszero\n      tag_349\n      jumpi\n        /* \"#utility.yul\":810:814   */\n      0x20\n        /* \"#utility.yul\":866:879   */\n      dup2\n      dup6\n      add\n        /* \"#utility.yul\":862:884   */\n      dup2\n      add\n        /* \"#utility.yul\":856:885   */\n      mload\n        /* \"#utility.yul\":838:849   */\n      dup7\n      dup4\n      add\n        /* \"#utility.yul\":834:854   */\n      dup3\n      add\n        /* \"#utility.yul\":827:886   */\n      mstore\n        /* \"#utility.yul\":763:775   */\n      add\n        /* \"#utility.yul\":734:896   */\n      jump(tag_347)\n    tag_349:\n        /* \"#utility.yul\":914:920   */\n      dup2\n        /* \"#utility.yul\":911:912   */\n      dup2\n        /* \"#utility.yul\":908:921   */\n      gt\n        /* \"#utility.yul\":905:992   */\n      iszero\n      tag_350\n      jumpi\n        /* \"#utility.yul\":980:981   */\n      0x00\n        /* \"#utility.yul\":973:977   */\n      0x20\n        /* \"#utility.yul\":964:970   */\n      dup4\n        /* \"#utility.yul\":959:962   */\n      dup8\n        /* \"#utility.yul\":955:971   */\n      add\n        /* \"#utility.yul\":951:978   */\n      add\n        /* \"#utility.yul\":944:982   */\n      mstore\n        /* \"#utility.yul\":905:992   */\n    tag_350:\n      pop\n        /* \"#utility.yul\":1046:1048   */\n      0x1f\n        /* \"#utility.yul\":1025:1040   */\n      add\n      not(0x1f)\n        /* \"#utility.yul\":1021:1050   */\n      and\n        /* \"#utility.yul\":1012:1051   */\n      swap3\n      swap1\n      swap3\n      add\n        /* \"#utility.yul\":1053:1057   */\n      0x20\n        /* \"#utility.yul\":1008:1058   */\n      add\n      swap3\n        /* \"#utility.yul\":592:1064   */\n      swap2\n      pop\n      pop\n      jump\t// out\n        /* \"#utility.yul\":1069:1289   */\n    tag_31:\n        /* \"#utility.yul\":1218:1220   */\n      0x20\n        /* \"#utility.yul\":1207:1216   */\n      dup2\n        /* \"#utility.yul\":1200:1221   */\n      mstore\n        /* \"#utility.yul\":1181:1185   */\n      0x00\n        /* \"#utility.yul\":1238:1283   */\n      tag_344\n        /* \"#utility.yul\":1279:1281   */\n      0x20\n        /* \"#utility.yul\":1268:1277   */\n      dup4\n        /* \"#utility.yul\":1264:1282   */\n      add\n        /* \"#utility.yul\":1256:1262   */\n      dup5\n        /* \"#utility.yul\":1238:1283   */\n      tag_334\n      jump\t// in\n        /* \"#utility.yul\":1294:1474   */\n    tag_34:\n        /* \"#utility.yul\":1353:1359   */\n      0x00\n        /* \"#utility.yul\":1406:1408   */\n      0x20\n        /* \"#utility.yul\":1394:1403   */\n      dup3\n        /* \"#utility.yul\":1385:1392   */\n      dup5\n        /* \"#utility.yul\":1381:1404   */\n      sub\n        /* \"#utility.yul\":1377:1409   */\n      slt\n        /* \"#utility.yul\":1374:1426   */\n      iszero\n      tag_354\n      jumpi\n        /* \"#utility.yul\":1422:1423   */\n      0x00\n        /* \"#utility.yul\":1419:1420   */\n      dup1\n        /* \"#utility.yul\":1412:1424   */\n      revert\n        /* \"#utility.yul\":1374:1426   */\n    tag_354:\n      pop\n        /* \"#utility.yul\":1445:1468   */\n      calldataload\n      swap2\n        /* \"#utility.yul\":1294:1474   */\n      swap1\n      pop\n      jump\t// out\n        /* \"#utility.yul\":1687:1860   */\n    tag_335:\n        /* \"#utility.yul\":1755:1775   */\n      dup1\n      calldataload\n      sub(shl(0xa0, 0x01), 0x01)\n        /* \"#utility.yul\":1804:1835   */\n      dup2\n      and\n        /* \"#utility.yul\":1794:1836   */\n      dup2\n      eq\n        /* \"#utility.yul\":1784:1854   */\n      tag_357\n      jumpi\n        /* \"#utility.yul\":1850:1851   */\n      0x00\n        /* \"#utility.yul\":1847:1848   */\n      dup1\n        /* \"#utility.yul\":1840:1852   */\n      revert\n        /* \"#utility.yul\":1784:1854   */\n    tag_357:\n        /* \"#utility.yul\":1687:1860   */\n      swap2\n      swap1\n      pop\n      jump\t// out\n        /* \"#utility.yul\":1865:2119   */\n    tag_40:\n        /* \"#utility.yul\":1933:1939   */\n      0x00\n        /* \"#utility.yul\":1941:1947   */\n      dup1\n        /* \"#utility.yul\":1994:1996   */\n      0x40\n        /* \"#utility.yul\":1982:1991   */\n      dup4\n        /* \"#utility.yul\":1973:1980   */\n      dup6\n        /* \"#utility.yul\":1969:1992   */\n      sub\n        /* \"#utility.yul\":1965:1997   */\n      slt\n        /* \"#utility.yul\":1962:2014   */\n      iszero\n      tag_359\n      jumpi\n        /* \"#utility.yul\":2010:2011   */\n      0x00\n        /* \"#utility.yul\":2007:2008   */\n      dup1\n        /* \"#utility.yul\":2000:2012   */\n      revert\n        /* \"#utility.yul\":1962:2014   */\n    tag_359:\n        /* \"#utility.yul\":2033:2062   */\n      tag_360\n        /* \"#utility.yul\":2052:2061   */\n      dup4\n        /* \"#utility.yul\":2033:2062   */\n      tag_335\n      jump\t// in\n    tag_360:\n        /* \"#utility.yul\":2023:2062   */\n      swap5\n        /* \"#utility.yul\":2109:2111   */\n      0x20\n        /* \"#utility.yul\":2094:2112   */\n      swap4\n      swap1\n      swap4\n      add\n        /* \"#utility.yul\":2081:2113   */\n      calldataload\n      swap4\n      pop\n      pop\n      pop\n        /* \"#utility.yul\":1865:2119   */\n      jump\t// out\n        /* \"#utility.yul\":2306:2634   */\n    tag_48:\n        /* \"#utility.yul\":2383:2389   */\n      0x00\n        /* \"#utility.yul\":2391:2397   */\n      dup1\n        /* \"#utility.yul\":2399:2405   */\n      0x00\n        /* \"#utility.yul\":2452:2454   */\n      0x60\n        /* \"#utility.yul\":2440:2449   */\n      dup5\n        /* \"#utility.yul\":2431:2438   */\n      dup7\n        /* \"#utility.yul\":2427:2450   */\n      sub\n        /* \"#utility.yul\":2423:2455   */\n      slt\n        /* \"#utility.yul\":2420:2472   */\n      iszero\n      tag_363\n      jumpi\n        /* \"#utility.yul\":2468:2469   */\n      0x00\n        /* \"#utility.yul\":2465:2466   */\n      dup1\n        /* \"#utility.yul\":2458:2470   */\n      revert\n        /* \"#utility.yul\":2420:2472   */\n    tag_363:\n        /* \"#utility.yul\":2491:2520   */\n      tag_364\n        /* \"#utility.yul\":2510:2519   */\n      dup5\n        /* \"#utility.yul\":2491:2520   */\n      tag_335\n      jump\t// in\n    tag_364:\n        /* \"#utility.yul\":2481:2520   */\n      swap3\n      pop\n        /* \"#utility.yul\":2539:2577   */\n      tag_365\n        /* \"#utility.yul\":2573:2575   */\n      0x20\n        /* \"#utility.yul\":2562:2571   */\n      dup6\n        /* \"#utility.yul\":2558:2576   */\n      add\n        /* \"#utility.yul\":2539:2577   */\n      tag_335\n      jump\t// in\n    tag_365:\n        /* \"#utility.yul\":2529:2577   */\n      swap2\n      pop\n        /* \"#utility.yul\":2624:2626   */\n      0x40\n        /* \"#utility.yul\":2613:2622   */\n      dup5\n        /* \"#utility.yul\":2609:2627   */\n      add\n        /* \"#utility.yul\":2596:2628   */\n      calldataload\n        /* \"#utility.yul\":2586:2628   */\n      swap1\n      pop\n        /* \"#utility.yul\":2306:2634   */\n      swap3\n      pop\n      swap3\n      pop\n      swap3\n      jump\t// out\n        /* \"#utility.yul\":2639:2825   */\n    tag_59:\n        /* \"#utility.yul\":2698:2704   */\n      0x00\n        /* \"#utility.yul\":2751:2753   */\n      0x20\n        /* \"#utility.yul\":2739:2748   */\n      dup3\n        /* \"#utility.yul\":2730:2737   */\n      dup5\n        /* \"#utility.yul\":2726:2749   */\n      sub\n        /* \"#utility.yul\":2722:2754   */\n      slt\n        /* \"#utility.yul\":2719:2771   */\n      iszero\n      tag_367\n      jumpi\n        /* \"#utility.yul\":2767:2768   */\n      0x00\n        /* \"#utility.yul\":2764:2765   */\n      dup1\n        /* \"#utility.yul\":2757:2769   */\n      revert\n        /* \"#utility.yul\":2719:2771   */\n    tag_367:\n        /* \"#utility.yul\":2790:2819   */\n      tag_344\n        /* \"#utility.yul\":2809:2818   */\n      dup3\n        /* \"#utility.yul\":2790:2819   */\n      tag_335\n      jump\t// in\n        /* \"#utility.yul\":2830:3445   */\n    tag_66:\n        /* \"#utility.yul\":2916:2922   */\n      0x00\n        /* \"#utility.yul\":2924:2930   */\n      dup1\n        /* \"#utility.yul\":2977:2979   */\n      0x20\n        /* \"#utility.yul\":2965:2974   */\n      dup4\n        /* \"#utility.yul\":2956:2963   */\n      dup6\n        /* \"#utility.yul\":2952:2975   */\n      sub\n        /* \"#utility.yul\":2948:2980   */\n      slt\n        /* \"#utility.yul\":2945:2997   */\n      iszero\n      tag_370\n      jumpi\n        /* \"#utility.yul\":2993:2994   */\n      0x00\n        /* \"#utility.yul\":2990:2991   */\n      dup1\n        /* \"#utility.yul\":2983:2995   */\n      revert\n        /* \"#utility.yul\":2945:2997   */\n    tag_370:\n        /* \"#utility.yul\":3020:3043   */\n      dup3\n      calldataload\n      sub(shl(0x40, 0x01), 0x01)\n        /* \"#utility.yul\":3092:3106   */\n      dup1\n      dup3\n      gt\n        /* \"#utility.yul\":3089:3123   */\n      iszero\n      tag_371\n      jumpi\n        /* \"#utility.yul\":3119:3120   */\n      0x00\n        /* \"#utility.yul\":3116:3117   */\n      dup1\n        /* \"#utility.yul\":3109:3121   */\n      revert\n        /* \"#utility.yul\":3089:3123   */\n    tag_371:\n        /* \"#utility.yul\":3157:3163   */\n      dup2\n        /* \"#utility.yul\":3146:3155   */\n      dup6\n        /* \"#utility.yul\":3142:3164   */\n      add\n        /* \"#utility.yul\":3132:3164   */\n      swap2\n      pop\n        /* \"#utility.yul\":3202:3209   */\n      dup6\n        /* \"#utility.yul\":3195:3199   */\n      0x1f\n        /* \"#utility.yul\":3191:3193   */\n      dup4\n        /* \"#utility.yul\":3187:3200   */\n      add\n        /* \"#utility.yul\":3183:3210   */\n      slt\n        /* \"#utility.yul\":3173:3228   */\n      tag_372\n      jumpi\n        /* \"#utility.yul\":3224:3225   */\n      0x00\n        /* \"#utility.yul\":3221:3222   */\n      dup1\n        /* \"#utility.yul\":3214:3226   */\n      revert\n        /* \"#utility.yul\":3173:3228   */\n    tag_372:\n        /* \"#utility.yul\":3264:3266   */\n      dup2\n        /* \"#utility.yul\":3251:3267   */\n      calldataload\n        /* \"#utility.yul\":3290:3292   */\n      dup2\n        /* \"#utility.yul\":3282:3288   */\n      dup2\n        /* \"#utility.yul\":3279:3293   */\n      gt\n        /* \"#utility.yul\":3276:3310   */\n      iszero\n      tag_373\n      jumpi\n        /* \"#utility.yul\":3306:3307   */\n      0x00\n        /* \"#utility.yul\":3303:3304   */\n      dup1\n        /* \"#utility.yul\":3296:3308   */\n      revert\n        /* \"#utility.yul\":3276:3310   */\n    tag_373:\n        /* \"#utility.yul\":3359:3366   */\n      dup7\n        /* \"#utility.yul\":3354:3356   */\n      0x20\n        /* \"#utility.yul\":3344:3350   */\n      dup3\n        /* \"#utility.yul\":3341:3342   */\n      0x05\n        /* \"#utility.yul\":3337:3351   */\n      shl\n        /* \"#utility.yul\":3333:3335   */\n      dup6\n        /* \"#utility.yul\":3329:3352   */\n      add\n        /* \"#utility.yul\":3325:3357   */\n      add\n        /* \"#utility.yul\":3322:3367   */\n      gt\n        /* \"#utility.yul\":3319:3384   */\n      iszero\n      tag_374\n      jumpi\n        /* \"#utility.yul\":3380:3381   */\n      0x00\n        /* \"#utility.yul\":3377:3378   */\n      dup1\n        /* \"#utility.yul\":3370:3382   */\n      revert\n        /* \"#utility.yul\":3319:3384   */\n    tag_374:\n        /* \"#utility.yul\":3411:3413   */\n      0x20\n        /* \"#utility.yul\":3403:3414   */\n      swap3\n      swap1\n      swap3\n      add\n      swap7\n        /* \"#utility.yul\":3433:3439   */\n      swap2\n      swap6\n      pop\n        /* \"#utility.yul\":2830:3445   */\n      swap1\n      swap4\n      pop\n      pop\n      pop\n      pop\n      jump\t// out\n        /* \"#utility.yul\":3450:3797   */\n    tag_76:\n        /* \"#utility.yul\":3515:3521   */\n      0x00\n        /* \"#utility.yul\":3523:3529   */\n      dup1\n        /* \"#utility.yul\":3576:3578   */\n      0x40\n        /* \"#utility.yul\":3564:3573   */\n      dup4\n        /* \"#utility.yul\":3555:3562   */\n      dup6\n        /* \"#utility.yul\":3551:3574   */\n      sub\n        /* \"#utility.yul\":3547:3579   */\n      slt\n        /* \"#utility.yul\":3544:3596   */\n      iszero\n      tag_376\n      jumpi\n        /* \"#utility.yul\":3592:3593   */\n      0x00\n        /* \"#utility.yul\":3589:3590   */\n      dup1\n        /* \"#utility.yul\":3582:3594   */\n      revert\n        /* \"#utility.yul\":3544:3596   */\n    tag_376:\n        /* \"#utility.yul\":3615:3644   */\n      tag_377\n        /* \"#utility.yul\":3634:3643   */\n      dup4\n        /* \"#utility.yul\":3615:3644   */\n      tag_335\n      jump\t// in\n    tag_377:\n        /* \"#utility.yul\":3605:3644   */\n      swap2\n      pop\n        /* \"#utility.yul\":3694:3696   */\n      0x20\n        /* \"#utility.yul\":3683:3692   */\n      dup4\n        /* \"#utility.yul\":3679:3697   */\n      add\n        /* \"#utility.yul\":3666:3698   */\n      calldataload\n        /* \"#utility.yul\":3741:3746   */\n      dup1\n        /* \"#utility.yul\":3734:3747   */\n      iszero\n        /* \"#utility.yul\":3727:3748   */\n      iszero\n        /* \"#utility.yul\":3720:3725   */\n      dup2\n        /* \"#utility.yul\":3717:3749   */\n      eq\n        /* \"#utility.yul\":3707:3767   */\n      tag_378\n      jumpi\n        /* \"#utility.yul\":3763:3764   */\n      0x00\n        /* \"#utility.yul\":3760:3761   */\n      dup1\n        /* \"#utility.yul\":3753:3765   */\n      revert\n        /* \"#utility.yul\":3707:3767   */\n    tag_378:\n        /* \"#utility.yul\":3786:3791   */\n      dup1\n        /* \"#utility.yul\":3776:3791   */\n      swap2\n      pop\n      pop\n        /* \"#utility.yul\":3450:3797   */\n      swap3\n      pop\n      swap3\n      swap1\n      pop\n      jump\t// out\n        /* \"#utility.yul\":3802:3929   */\n    tag_336:\n        /* \"#utility.yul\":3863:3873   */\n      0x4e487b71\n        /* \"#utility.yul\":3858:3861   */\n      0xe0\n        /* \"#utility.yul\":3854:3874   */\n      shl\n        /* \"#utility.yul\":3851:3852   */\n      0x00\n        /* \"#utility.yul\":3844:3875   */\n      mstore\n        /* \"#utility.yul\":3894:3898   */\n      0x41\n        /* \"#utility.yul\":3891:3892   */\n      0x04\n        /* \"#utility.yul\":3884:3899   */\n      mstore\n        /* \"#utility.yul\":3918:3922   */\n      0x24\n        /* \"#utility.yul\":3915:3916   */\n      0x00\n        /* \"#utility.yul\":3908:3923   */\n      revert\n        /* \"#utility.yul\":3934:4565   */\n    tag_337:\n        /* \"#utility.yul\":3998:4003   */\n      0x00\n      sub(shl(0x40, 0x01), 0x01)\n        /* \"#utility.yul\":4058:4072   */\n      dup1\n      dup5\n      gt\n        /* \"#utility.yul\":4055:4095   */\n      iszero\n      tag_382\n      jumpi\n        /* \"#utility.yul\":4075:4093   */\n      tag_382\n      tag_336\n      jump\t// in\n    tag_382:\n        /* \"#utility.yul\":4150:4152   */\n      0x40\n        /* \"#utility.yul\":4144:4153   */\n      mload\n        /* \"#utility.yul\":4118:4120   */\n      0x1f\n        /* \"#utility.yul\":4204:4219   */\n      dup6\n      add\n      not(0x1f)\n        /* \"#utility.yul\":4200:4224   */\n      swap1\n      dup2\n      and\n        /* \"#utility.yul\":4226:4228   */\n      0x3f\n        /* \"#utility.yul\":4196:4229   */\n      add\n        /* \"#utility.yul\":4192:4234   */\n      and\n        /* \"#utility.yul\":4180:4235   */\n      dup2\n      add\n      swap1\n        /* \"#utility.yul\":4250:4268   */\n      dup3\n      dup3\n      gt\n        /* \"#utility.yul\":4270:4292   */\n      dup2\n      dup4\n      lt\n        /* \"#utility.yul\":4247:4293   */\n      or\n        /* \"#utility.yul\":4244:4316   */\n      iszero\n      tag_384\n      jumpi\n        /* \"#utility.yul\":4296:4314   */\n      tag_384\n      tag_336\n      jump\t// in\n    tag_384:\n        /* \"#utility.yul\":4336:4346   */\n      dup2\n        /* \"#utility.yul\":4332:4334   */\n      0x40\n        /* \"#utility.yul\":4325:4347   */\n      mstore\n        /* \"#utility.yul\":4365:4371   */\n      dup1\n        /* \"#utility.yul\":4356:4371   */\n      swap4\n      pop\n        /* \"#utility.yul\":4395:4401   */\n      dup6\n        /* \"#utility.yul\":4387:4393   */\n      dup2\n        /* \"#utility.yul\":4380:4402   */\n      mstore\n        /* \"#utility.yul\":4435:4438   */\n      dup7\n        /* \"#utility.yul\":4426:4432   */\n      dup7\n        /* \"#utility.yul\":4421:4424   */\n      dup7\n        /* \"#utility.yul\":4417:4433   */\n      add\n        /* \"#utility.yul\":4414:4439   */\n      gt\n        /* \"#utility.yul\":4411:4456   */\n      iszero\n      tag_385\n      jumpi\n        /* \"#utility.yul\":4452:4453   */\n      0x00\n        /* \"#utility.yul\":4449:4450   */\n      dup1\n        /* \"#utility.yul\":4442:4454   */\n      revert\n        /* \"#utility.yul\":4411:4456   */\n    tag_385:\n        /* \"#utility.yul\":4502:4508   */\n      dup6\n        /* \"#utility.yul\":4497:4500   */\n      dup6\n        /* \"#utility.yul\":4490:4494   */\n      0x20\n        /* \"#utility.yul\":4482:4488   */\n      dup4\n        /* \"#utility.yul\":4478:4495   */\n      add\n        /* \"#utility.yul\":4465:4509   */\n      calldatacopy\n        /* \"#utility.yul\":4557:4558   */\n      0x00\n        /* \"#utility.yul\":4550:4554   */\n      0x20\n        /* \"#utility.yul\":4541:4547   */\n      dup8\n        /* \"#utility.yul\":4533:4539   */\n      dup4\n        /* \"#utility.yul\":4529:4548   */\n      add\n        /* \"#utility.yul\":4525:4555   */\n      add\n        /* \"#utility.yul\":4518:4559   */\n      mstore\n      pop\n      pop\n      pop\n        /* \"#utility.yul\":3934:4565   */\n      swap4\n      swap3\n      pop\n      pop\n      pop\n      jump\t// out\n        /* \"#utility.yul\":4570:5236   */\n    tag_80:\n        /* \"#utility.yul\":4665:4671   */\n      0x00\n        /* \"#utility.yul\":4673:4679   */\n      dup1\n        /* \"#utility.yul\":4681:4687   */\n      0x00\n        /* \"#utility.yul\":4689:4695   */\n      dup1\n        /* \"#utility.yul\":4742:4745   */\n      0x80\n        /* \"#utility.yul\":4730:4739   */\n      dup6\n        /* \"#utility.yul\":4721:4728   */\n      dup8\n        /* \"#utility.yul\":4717:4740   */\n      sub\n        /* \"#utility.yul\":4713:4746   */\n      slt\n        /* \"#utility.yul\":4710:4763   */\n      iszero\n      tag_387\n      jumpi\n        /* \"#utility.yul\":4759:4760   */\n      0x00\n        /* \"#utility.yul\":4756:4757   */\n      dup1\n        /* \"#utility.yul\":4749:4761   */\n      revert\n        /* \"#utility.yul\":4710:4763   */\n    tag_387:\n        /* \"#utility.yul\":4782:4811   */\n      tag_388\n        /* \"#utility.yul\":4801:4810   */\n      dup6\n        /* \"#utility.yul\":4782:4811   */\n      tag_335\n      jump\t// in\n    tag_388:\n        /* \"#utility.yul\":4772:4811   */\n      swap4\n      pop\n        /* \"#utility.yul\":4830:4868   */\n      tag_389\n        /* \"#utility.yul\":4864:4866   */\n      0x20\n        /* \"#utility.yul\":4853:4862   */\n      dup7\n        /* \"#utility.yul\":4849:4867   */\n      add\n        /* \"#utility.yul\":4830:4868   */\n      tag_335\n      jump\t// in\n    tag_389:\n        /* \"#utility.yul\":4820:4868   */\n      swap3\n      pop\n        /* \"#utility.yul\":4915:4917   */\n      0x40\n        /* \"#utility.yul\":4900:4918   */\n      dup6\n      add\n        /* \"#utility.yul\":4887:4919   */\n      calldataload\n      swap2\n      pop\n        /* \"#utility.yul\":4970:4972   */\n      0x60\n        /* \"#utility.yul\":4955:4973   */\n      dup6\n      add\n        /* \"#utility.yul\":4942:4974   */\n      calldataload\n      sub(shl(0x40, 0x01), 0x01)\n        /* \"#utility.yul\":4986:5016   */\n      dup2\n      gt\n        /* \"#utility.yul\":4983:5033   */\n      iszero\n      tag_390\n      jumpi\n        /* \"#utility.yul\":5029:5030   */\n      0x00\n        /* \"#utility.yul\":5026:5027   */\n      dup1\n        /* \"#utility.yul\":5019:5031   */\n      revert\n        /* \"#utility.yul\":4983:5033   */\n    tag_390:\n        /* \"#utility.yul\":5052:5074   */\n      dup6\n      add\n        /* \"#utility.yul\":5105:5109   */\n      0x1f\n        /* \"#utility.yul\":5097:5110   */\n      dup2\n      add\n        /* \"#utility.yul\":5093:5120   */\n      dup8\n      sgt\n        /* \"#utility.yul\":5083:5138   */\n      tag_391\n      jumpi\n        /* \"#utility.yul\":5134:5135   */\n      0x00\n        /* \"#utility.yul\":5131:5132   */\n      dup1\n        /* \"#utility.yul\":5124:5136   */\n      revert\n        /* \"#utility.yul\":5083:5138   */\n    tag_391:\n        /* \"#utility.yul\":5157:5230   */\n      tag_392\n        /* \"#utility.yul\":5222:5229   */\n      dup8\n        /* \"#utility.yul\":5217:5219   */\n      dup3\n        /* \"#utility.yul\":5204:5220   */\n      calldataload\n        /* \"#utility.yul\":5199:5201   */\n      0x20\n        /* \"#utility.yul\":5195:5197   */\n      dup5\n        /* \"#utility.yul\":5191:5202   */\n      add\n        /* \"#utility.yul\":5157:5230   */\n      tag_337\n      jump\t// in\n    tag_392:\n        /* \"#utility.yul\":5147:5230   */\n      swap2\n      pop\n      pop\n        /* \"#utility.yul\":4570:5236   */\n      swap3\n      swap6\n      swap2\n      swap5\n      pop\n      swap3\n      pop\n      jump\t// out\n        /* \"#utility.yul\":5241:5691   */\n    tag_88:\n        /* \"#utility.yul\":5310:5316   */\n      0x00\n        /* \"#utility.yul\":5363:5365   */\n      0x20\n        /* \"#utility.yul\":5351:5360   */\n      dup3\n        /* \"#utility.yul\":5342:5349   */\n      dup5\n        /* \"#utility.yul\":5338:5361   */\n      sub\n        /* \"#utility.yul\":5334:5366   */\n      slt\n        /* \"#utility.yul\":5331:5383   */\n      iszero\n      tag_394\n      jumpi\n        /* \"#utility.yul\":5379:5380   */\n      0x00\n        /* \"#utility.yul\":5376:5377   */\n      dup1\n        /* \"#utility.yul\":5369:5381   */\n      revert\n        /* \"#utility.yul\":5331:5383   */\n    tag_394:\n        /* \"#utility.yul\":5406:5429   */\n      dup2\n      calldataload\n      sub(shl(0x40, 0x01), 0x01)\n        /* \"#utility.yul\":5441:5471   */\n      dup2\n      gt\n        /* \"#utility.yul\":5438:5488   */\n      iszero\n      tag_395\n      jumpi\n        /* \"#utility.yul\":5484:5485   */\n      0x00\n        /* \"#utility.yul\":5481:5482   */\n      dup1\n        /* \"#utility.yul\":5474:5486   */\n      revert\n        /* \"#utility.yul\":5438:5488   */\n    tag_395:\n        /* \"#utility.yul\":5507:5529   */\n      dup3\n      add\n        /* \"#utility.yul\":5560:5564   */\n      0x1f\n        /* \"#utility.yul\":5552:5565   */\n      dup2\n      add\n        /* \"#utility.yul\":5548:5575   */\n      dup5\n      sgt\n        /* \"#utility.yul\":5538:5593   */\n      tag_396\n      jumpi\n        /* \"#utility.yul\":5589:5590   */\n      0x00\n        /* \"#utility.yul\":5586:5587   */\n      dup1\n        /* \"#utility.yul\":5579:5591   */\n      revert\n        /* \"#utility.yul\":5538:5593   */\n    tag_396:\n        /* \"#utility.yul\":5612:5685   */\n      tag_247\n        /* \"#utility.yul\":5677:5684   */\n      dup5\n        /* \"#utility.yul\":5672:5674   */\n      dup3\n        /* \"#utility.yul\":5659:5675   */\n      calldataload\n        /* \"#utility.yul\":5654:5656   */\n      0x20\n        /* \"#utility.yul\":5650:5652   */\n      dup5\n        /* \"#utility.yul\":5646:5657   */\n      add\n        /* \"#utility.yul\":5612:5685   */\n      tag_337\n      jump\t// in\n        /* \"#utility.yul\":5696:5956   */\n    tag_92:\n        /* \"#utility.yul\":5764:5770   */\n      0x00\n        /* \"#utility.yul\":5772:5778   */\n      dup1\n        /* \"#utility.yul\":5825:5827   */\n      0x40\n        /* \"#utility.yul\":5813:5822   */\n      dup4\n        /* \"#utility.yul\":5804:5811   */\n      dup6\n        /* \"#utility.yul\":5800:5823   */\n      sub\n        /* \"#utility.yul\":5796:5828   */\n      slt\n        /* \"#utility.yul\":5793:5845   */\n      iszero\n      tag_399\n      jumpi\n        /* \"#utility.yul\":5841:5842   */\n      0x00\n        /* \"#utility.yul\":5838:5839   */\n      dup1\n        /* \"#utility.yul\":5831:5843   */\n      revert\n        /* \"#utility.yul\":5793:5845   */\n    tag_399:\n        /* \"#utility.yul\":5864:5893   */\n      tag_400\n        /* \"#utility.yul\":5883:5892   */\n      dup4\n        /* \"#utility.yul\":5864:5893   */\n      tag_335\n      jump\t// in\n    tag_400:\n        /* \"#utility.yul\":5854:5893   */\n      swap2\n      pop\n        /* \"#utility.yul\":5912:5950   */\n      tag_401\n        /* \"#utility.yul\":5946:5948   */\n      0x20\n        /* \"#utility.yul\":5935:5944   */\n      dup5\n        /* \"#utility.yul\":5931:5949   */\n      add\n        /* \"#utility.yul\":5912:5950   */\n      tag_335\n      jump\t// in\n    tag_401:\n        /* \"#utility.yul\":5902:5950   */\n      swap1\n      pop\n        /* \"#utility.yul\":5696:5956   */\n      swap3\n      pop\n      swap3\n      swap1\n      pop\n      jump\t// out\n        /* \"#utility.yul\":5961:6341   */\n    tag_105:\n        /* \"#utility.yul\":6040:6041   */\n      0x01\n        /* \"#utility.yul\":6036:6048   */\n      dup2\n      dup2\n      shr\n      swap1\n        /* \"#utility.yul\":6083:6095   */\n      dup3\n      and\n      dup1\n        /* \"#utility.yul\":6104:6165   */\n      tag_403\n      jumpi\n        /* \"#utility.yul\":6158:6162   */\n      0x7f\n        /* \"#utility.yul\":6150:6156   */\n      dup3\n        /* \"#utility.yul\":6146:6163   */\n      and\n        /* \"#utility.yul\":6136:6163   */\n      swap2\n      pop\n        /* \"#utility.yul\":6104:6165   */\n    tag_403:\n        /* \"#utility.yul\":6211:6213   */\n      0x20\n        /* \"#utility.yul\":6203:6209   */\n      dup3\n        /* \"#utility.yul\":6200:6214   */\n      lt\n        /* \"#utility.yul\":6180:6198   */\n      dup2\n        /* \"#utility.yul\":6177:6215   */\n      sub\n        /* \"#utility.yul\":6174:6335   */\n      tag_404\n      jumpi\n        /* \"#utility.yul\":6257:6267   */\n      0x4e487b71\n        /* \"#utility.yul\":6252:6255   */\n      0xe0\n        /* \"#utility.yul\":6248:6268   */\n      shl\n        /* \"#utility.yul\":6245:6246   */\n      0x00\n        /* \"#utility.yul\":6238:6269   */\n      mstore\n        /* \"#utility.yul\":6292:6296   */\n      0x22\n        /* \"#utility.yul\":6289:6290   */\n      0x04\n        /* \"#utility.yul\":6282:6297   */\n      mstore\n        /* \"#utility.yul\":6320:6324   */\n      0x24\n        /* \"#utility.yul\":6317:6318   */\n      0x00\n        /* \"#utility.yul\":6310:6325   */\n      revert\n        /* \"#utility.yul\":6174:6335   */\n    tag_404:\n      pop\n        /* \"#utility.yul\":5961:6341   */\n      swap2\n      swap1\n      pop\n      jump\t// out\n        /* \"#utility.yul\":7586:7999   */\n    tag_140:\n        /* \"#utility.yul\":7788:7790   */\n      0x20\n        /* \"#utility.yul\":7770:7791   */\n      dup1\n      dup3\n      mstore\n        /* \"#utility.yul\":7827:7829   */\n      0x31\n        /* \"#utility.yul\":7807:7825   */\n      swap1\n      dup3\n      add\n        /* \"#utility.yul\":7800:7830   */\n      mstore\n        /* \"#utility.yul\":7866:7900   */\n      0x4552433732313a207472616e736665722063616c6c6572206973206e6f74206f\n        /* \"#utility.yul\":7861:7863   */\n      0x40\n        /* \"#utility.yul\":7846:7864   */\n      dup3\n      add\n        /* \"#utility.yul\":7839:7901   */\n      mstore\n      shl(0x7a, 0x1ddb995c881b9bdc88185c1c1c9bdd9959)\n        /* \"#utility.yul\":7932:7934   */\n      0x60\n        /* \"#utility.yul\":7917:7935   */\n      dup3\n      add\n        /* \"#utility.yul\":7910:7957   */\n      mstore\n        /* \"#utility.yul\":7989:7992   */\n      0x80\n        /* \"#utility.yul\":7974:7993   */\n      add\n      swap1\n        /* \"#utility.yul\":7586:7999   */\n      jump\t// out\n        /* \"#utility.yul\":8825:9181   */\n    tag_158:\n        /* \"#utility.yul\":9027:9029   */\n      0x20\n        /* \"#utility.yul\":9009:9030   */\n      dup1\n      dup3\n      mstore\n        /* \"#utility.yul\":9046:9064   */\n      dup2\n      dup2\n      add\n        /* \"#utility.yul\":9039:9069   */\n      mstore\n        /* \"#utility.yul\":9105:9139   */\n      0x4f776e61626c653a2063616c6c6572206973206e6f7420746865206f776e6572\n        /* \"#utility.yul\":9100:9102   */\n      0x40\n        /* \"#utility.yul\":9085:9103   */\n      dup3\n      add\n        /* \"#utility.yul\":9078:9140   */\n      mstore\n        /* \"#utility.yul\":9172:9174   */\n      0x60\n        /* \"#utility.yul\":9157:9175   */\n      add\n      swap1\n        /* \"#utility.yul\":8825:9181   */\n      jump\t// out\n        /* \"#utility.yul\":9186:9313   */\n    tag_176:\n        /* \"#utility.yul\":9247:9257   */\n      0x4e487b71\n        /* \"#utility.yul\":9242:9245   */\n      0xe0\n        /* \"#utility.yul\":9238:9258   */\n      shl\n        /* \"#utility.yul\":9235:9236   */\n      0x00\n        /* \"#utility.yul\":9228:9259   */\n      mstore\n        /* \"#utility.yul\":9278:9282   */\n      0x32\n        /* \"#utility.yul\":9275:9276   */\n      0x04\n        /* \"#utility.yul\":9268:9283   */\n      mstore\n        /* \"#utility.yul\":9302:9306   */\n      0x24\n        /* \"#utility.yul\":9299:9300   */\n      0x00\n        /* \"#utility.yul\":9292:9307   */\n      revert\n        /* \"#utility.yul\":9318:9445   */\n    tag_338:\n        /* \"#utility.yul\":9379:9389   */\n      0x4e487b71\n        /* \"#utility.yul\":9374:9377   */\n      0xe0\n        /* \"#utility.yul\":9370:9390   */\n      shl\n        /* \"#utility.yul\":9367:9368   */\n      0x00\n        /* \"#utility.yul\":9360:9391   */\n      mstore\n        /* \"#utility.yul\":9410:9414   */\n      0x11\n        /* \"#utility.yul\":9407:9408   */\n      0x04\n        /* \"#utility.yul\":9400:9415   */\n      mstore\n        /* \"#utility.yul\":9434:9438   */\n      0x24\n        /* \"#utility.yul\":9431:9432   */\n      0x00\n        /* \"#utility.yul\":9424:9439   */\n      revert\n        /* \"#utility.yul\":9450:9585   */\n    tag_181:\n        /* \"#utility.yul\":9489:9492   */\n      0x00\n        /* \"#utility.yul\":9510:9527   */\n      0x01\n      dup3\n      add\n        /* \"#utility.yul\":9507:9550   */\n      tag_416\n      jumpi\n        /* \"#utility.yul\":9530:9548   */\n      tag_416\n      tag_338\n      jump\t// in\n    tag_416:\n      pop\n        /* \"#utility.yul\":9577:9578   */\n      0x01\n        /* \"#utility.yul\":9566:9579   */\n      add\n      swap1\n        /* \"#utility.yul\":9450:9585   */\n      jump\t// out\n        /* \"#utility.yul\":11637:11762   */\n    tag_260:\n        /* \"#utility.yul\":11677:11681   */\n      0x00\n        /* \"#utility.yul\":11705:11706   */\n      dup3\n        /* \"#utility.yul\":11702:11703   */\n      dup3\n        /* \"#utility.yul\":11699:11707   */\n      lt\n        /* \"#utility.yul\":11696:11730   */\n      iszero\n      tag_424\n      jumpi\n        /* \"#utility.yul\":11710:11728   */\n      tag_424\n      tag_338\n      jump\t// in\n    tag_424:\n      pop\n        /* \"#utility.yul\":11747:11756   */\n      sub\n      swap1\n        /* \"#utility.yul\":11637:11762   */\n      jump\t// out\n        /* \"#utility.yul\":11767:11895   */\n    tag_262:\n        /* \"#utility.yul\":11807:11810   */\n      0x00\n        /* \"#utility.yul\":11838:11839   */\n      dup3\n        /* \"#utility.yul\":11834:11840   */\n      not\n        /* \"#utility.yul\":11831:11832   */\n      dup3\n        /* \"#utility.yul\":11828:11841   */\n      gt\n        /* \"#utility.yul\":11825:11864   */\n      iszero\n      tag_427\n      jumpi\n        /* \"#utility.yul\":11844:11862   */\n      tag_427\n      tag_338\n      jump\t// in\n    tag_427:\n      pop\n        /* \"#utility.yul\":11880:11889   */\n      add\n      swap1\n        /* \"#utility.yul\":11767:11895   */\n      jump\t// out\n        /* \"#utility.yul\":12254:12668   */\n    tag_281:\n        /* \"#utility.yul\":12456:12458   */\n      0x20\n        /* \"#utility.yul\":12438:12459   */\n      dup1\n      dup3\n      mstore\n        /* \"#utility.yul\":12495:12497   */\n      0x32\n        /* \"#utility.yul\":12475:12493   */\n      swap1\n      dup3\n      add\n        /* \"#utility.yul\":12468:12498   */\n      mstore\n        /* \"#utility.yul\":12534:12568   */\n      0x4552433732313a207472616e7366657220746f206e6f6e204552433732315265\n        /* \"#utility.yul\":12529:12531   */\n      0x40\n        /* \"#utility.yul\":12514:12532   */\n      dup3\n      add\n        /* \"#utility.yul\":12507:12569   */\n      mstore\n      shl(0x71, 0x31b2b4bb32b91034b6b83632b6b2b73a32b9)\n        /* \"#utility.yul\":12600:12602   */\n      0x60\n        /* \"#utility.yul\":12585:12603   */\n      dup3\n      add\n        /* \"#utility.yul\":12578:12626   */\n      mstore\n        /* \"#utility.yul\":12658:12661   */\n      0x80\n        /* \"#utility.yul\":12643:12662   */\n      add\n      swap1\n        /* \"#utility.yul\":12254:12668   */\n      jump\t// out\n        /* \"#utility.yul\":12673:13162   */\n    tag_296:\n      sub(shl(0xa0, 0x01), 0x01)\n        /* \"#utility.yul\":12942:12957   */\n      dup6\n      dup2\n      and\n        /* \"#utility.yul\":12924:12958   */\n      dup3\n      mstore\n        /* \"#utility.yul\":12994:13009   */\n      dup5\n      and\n        /* \"#utility.yul\":12989:12991   */\n      0x20\n        /* \"#utility.yul\":12974:12992   */\n      dup3\n      add\n        /* \"#utility.yul\":12967:13010   */\n      mstore\n        /* \"#utility.yul\":13041:13043   */\n      0x40\n        /* \"#utility.yul\":13026:13044   */\n      dup2\n      add\n        /* \"#utility.yul\":13019:13053   */\n      dup4\n      swap1\n      mstore\n        /* \"#utility.yul\":13089:13092   */\n      0x80\n        /* \"#utility.yul\":13084:13086   */\n      0x60\n        /* \"#utility.yul\":13069:13087   */\n      dup3\n      add\n        /* \"#utility.yul\":13062:13093   */\n      dup2\n      swap1\n      mstore\n        /* \"#utility.yul\":12867:12871   */\n      0x00\n      swap1\n        /* \"#utility.yul\":13110:13156   */\n      tag_431\n      swap1\n        /* \"#utility.yul\":13136:13155   */\n      dup4\n      add\n        /* \"#utility.yul\":13128:13134   */\n      dup5\n        /* \"#utility.yul\":13110:13156   */\n      tag_334\n      jump\t// in\n    tag_431:\n        /* \"#utility.yul\":13102:13156   */\n      swap7\n        /* \"#utility.yul\":12673:13162   */\n      swap6\n      pop\n      pop\n      pop\n      pop\n      pop\n      pop\n      jump\t// out\n        /* \"#utility.yul\":13167:13416   */\n    tag_299:\n        /* \"#utility.yul\":13236:13242   */\n      0x00\n        /* \"#utility.yul\":13289:13291   */\n      0x20\n        /* \"#utility.yul\":13277:13286   */\n      dup3\n        /* \"#utility.yul\":13268:13275   */\n      dup5\n        /* \"#utility.yul\":13264:13287   */\n      sub\n        /* \"#utility.yul\":13260:13292   */\n      slt\n        /* \"#utility.yul\":13257:13309   */\n      iszero\n      tag_433\n      jumpi\n        /* \"#utility.yul\":13305:13306   */\n      0x00\n        /* \"#utility.yul\":13302:13303   */\n      dup1\n        /* \"#utility.yul\":13295:13307   */\n      revert\n        /* \"#utility.yul\":13257:13309   */\n    tag_433:\n        /* \"#utility.yul\":13337:13346   */\n      dup2\n        /* \"#utility.yul\":13331:13347   */\n      mload\n        /* \"#utility.yul\":13356:13386   */\n      tag_344\n        /* \"#utility.yul\":13380:13385   */\n      dup2\n        /* \"#utility.yul\":13356:13386   */\n      tag_333\n      jump\t// in\n    stop\n    data_ada389e1fc24a8587c776340efb91b36e675792ab631816100d55df0b5cf3cbc ddf252ad1be2c89b69c2b068fc378daa952ba7f163c4a11628f55a4df523b3ef\n\n    auxdata: 0xa26469706673582212204eefe14db932a281a7fe78f7f8aea3d52e05a3be101eae4464c0eefbae98484064736f6c634300080d0033\n}\n",
				"bytecode": {
					"linkReferences": {},
					"object": "60806040523480156200001157600080fd5b50604080518082018252601981527f546f6f6e7a204d696e746572205265776172647320436172640000000000000060208083019182528351808501909452600584526426a4a72a2960d91b908401528151919291620000749160009162000103565b5080516200008a90600190602084019062000103565b505050620000a7620000a1620000ad60201b60201c565b620000b1565b620001e5565b3390565b600680546001600160a01b038381166001600160a01b0319831681179093556040519116919082907f8be0079c531659141344cd1fd0a4f28419497f9722a3daafe3b4186f6b6457e090600090a35050565b8280546200011190620001a9565b90600052602060002090601f01602090048101928262000135576000855562000180565b82601f106200015057805160ff191683800117855562000180565b8280016001018555821562000180579182015b828111156200018057825182559160200191906001019062000163565b506200018e92915062000192565b5090565b5b808211156200018e576000815560010162000193565b600181811c90821680620001be57607f821691505b602082108103620001df57634e487b7160e01b600052602260045260246000fd5b50919050565b6116a180620001f56000396000f3fe608060405234801561001057600080fd5b50600436106100f15760003560e01c806301ffc9a7146100f657806306fdde031461011e578063081812fc14610133578063095ea7b31461015e57806318160ddd1461017357806323b872dd1461018957806342842e0e1461019c5780636352211e146101af57806370a08231146101c2578063715018a6146101d55780637a2d0163146101dd5780638da5cb5b146101f057806395d89b41146101f8578063a22cb46514610200578063b88d4fde14610213578063c87b56dd14610226578063e0df5b6f14610239578063e985e9c51461024c578063f2fde38b1461025f575b600080fd5b610109610104366004611100565b610272565b60405190151581526020015b60405180910390f35b6101266102c4565b6040516101159190611171565b610146610141366004611184565b610356565b6040516001600160a01b039091168152602001610115565b61017161016c3660046111b9565b6103e3565b005b61017b6104f3565b604051908152602001610115565b6101716101973660046111e3565b610503565b6101716101aa3660046111e3565b610534565b6101466101bd366004611184565b61054f565b61017b6101d036600461121f565b6105c6565b61017161064d565b6101716101eb36600461123a565b610688565b61014661071b565b61012661072a565b61017161020e3660046112ae565b610739565b610171610221366004611375565b610748565b610126610234366004611184565b61077a565b6101716102473660046113f0565b6108a5565b61010961025a366004611438565b6108e7565b61017161026d36600461121f565b610915565b60006001600160e01b031982166380ac58cd60e01b14806102a357506001600160e01b03198216635b5e139f60e01b145b806102be57506301ffc9a760e01b6001600160e01b03198316145b92915050565b6060600080546102d39061146b565b80601f01602080910402602001604051908101604052809291908181526020018280546102ff9061146b565b801561034c5780601f106103215761010080835404028352916020019161034c565b820191906000526020600020905b81548152906001019060200180831161032f57829003601f168201915b5050505050905090565b6000610361826109b5565b6103c75760405162461bcd60e51b815260206004820152602c60248201527f4552433732313a20617070726f76656420717565727920666f72206e6f6e657860448201526b34b9ba32b73a103a37b5b2b760a11b60648201526084015b60405180910390fd5b506000908152600460205260409020546001600160a01b031690565b60006103ee8261054f565b9050806001600160a01b0316836001600160a01b03160361045b5760405162461bcd60e51b815260206004820152602160248201527f4552433732313a20617070726f76616c20746f2063757272656e74206f776e656044820152603960f91b60648201526084016103be565b336001600160a01b0382161480610477575061047781336108e7565b6104e45760405162461bcd60e51b815260206004820152603860248201527f4552433732313a20617070726f76652063616c6c6572206973206e6f74206f776044820152771b995c881b9bdc88185c1c1c9bdd995908199bdc88185b1b60421b60648201526084016103be565b6104ee83836109d2565b505050565b60006104fe60085490565b905090565b61050d3382610a40565b6105295760405162461bcd60e51b81526004016103be906114a5565b6104ee838383610b0a565b6104ee83838360405180602001604052806000815250610748565b6000818152600260205260408120546001600160a01b0316806102be5760405162461bcd60e51b815260206004820152602960248201527f4552433732313a206f776e657220717565727920666f72206e6f6e657869737460448201526832b73a103a37b5b2b760b91b60648201526084016103be565b60006001600160a01b0382166106315760405162461bcd60e51b815260206004820152602a60248201527f4552433732313a2062616c616e636520717565727920666f7220746865207a65604482015269726f206164647265737360b01b60648201526084016103be565b506001600160a01b031660009081526003602052604090205490565b3361065661071b565b6001600160a01b03161461067c5760405162461bcd60e51b81526004016103be906114f6565b6106866000610c94565b565b3361069161071b565b6001600160a01b0316146106b75760405162461bcd60e51b81526004016103be906114f6565b8060005b81811015610715576106d1600880546001019055565b6107038484838181106106e6576106e661152b565b90506020020160208101906106fb919061121f565b600854610ce6565b8061070d81611557565b9150506106bb565b50505050565b6006546001600160a01b031690565b6060600180546102d39061146b565b610744338383610d00565b5050565b6107523383610a40565b61076e5760405162461bcd60e51b81526004016103be906114a5565b61071584848484610dca565b6060610785826109b5565b6107e95760405162461bcd60e51b815260206004820152602f60248201527f4552433732314d657461646174613a2055524920717565727920666f72206e6f60448201526e3732bc34b9ba32b73a103a37b5b2b760891b60648201526084016103be565b6000600780546107f89061146b565b90501161081457604051806020016040528060008152506102be565b600780546108219061146b565b80601f016020809104026020016040519081016040528092919081815260200182805461084d9061146b565b801561089a5780601f1061086f5761010080835404028352916020019161089a565b820191906000526020600020905b81548152906001019060200180831161087d57829003601f168201915b505050505092915050565b336108ae61071b565b6001600160a01b0316146108d45760405162461bcd60e51b81526004016103be906114f6565b8051610744906007906020840190611051565b6001600160a01b03918216600090815260056020908152604080832093909416825291909152205460ff1690565b3361091e61071b565b6001600160a01b0316146109445760405162461bcd60e51b81526004016103be906114f6565b6001600160a01b0381166109a95760405162461bcd60e51b815260206004820152602660248201527f4f776e61626c653a206e6577206f776e657220697320746865207a65726f206160448201526564647265737360d01b60648201526084016103be565b6109b281610c94565b50565b6000908152600260205260409020546001600160a01b0316151590565b600081815260046020526040902080546001600160a01b0319166001600160a01b0384169081179091558190610a078261054f565b6001600160a01b03167f8c5be1e5ebec7d5bd14f71427d1e84f3dd0314c0f7b2291e5b200ac8c7c3b92560405160405180910390a45050565b6000610a4b826109b5565b610aac5760405162461bcd60e51b815260206004820152602c60248201527f4552433732313a206f70657261746f7220717565727920666f72206e6f6e657860448201526b34b9ba32b73a103a37b5b2b760a11b60648201526084016103be565b6000610ab78361054f565b9050806001600160a01b0316846001600160a01b03161480610af25750836001600160a01b0316610ae784610356565b6001600160a01b0316145b80610b025750610b0281856108e7565b949350505050565b826001600160a01b0316610b1d8261054f565b6001600160a01b031614610b815760405162461bcd60e51b815260206004820152602560248201527f4552433732313a207472616e736665722066726f6d20696e636f72726563742060448201526437bbb732b960d91b60648201526084016103be565b6001600160a01b038216610be35760405162461bcd60e51b8152602060048201526024808201527f4552433732313a207472616e7366657220746f20746865207a65726f206164646044820152637265737360e01b60648201526084016103be565b610bee6000826109d2565b6001600160a01b0383166000908152600360205260408120805460019290610c17908490611570565b90915550506001600160a01b0382166000908152600360205260408120805460019290610c45908490611587565b909155505060008181526002602052604080822080546001600160a01b0319166001600160a01b03868116918217909255915184939187169160008051602061164c83398151915291a4505050565b600680546001600160a01b038381166001600160a01b0319831681179093556040519116919082907f8be0079c531659141344cd1fd0a4f28419497f9722a3daafe3b4186f6b6457e090600090a35050565b610744828260405180602001604052806000815250610dfd565b816001600160a01b0316836001600160a01b031603610d5d5760405162461bcd60e51b815260206004820152601960248201527822a9219b99189d1030b8383937bb32903a379031b0b63632b960391b60448201526064016103be565b6001600160a01b03838116600081815260056020908152604080832094871680845294825291829020805460ff191686151590811790915591519182527f17307eab39ab6107e8899845ad3d59bd9653f200f220920489ca2b5937696c31910160405180910390a3505050565b610dd5848484610b0a565b610de184848484610e30565b6107155760405162461bcd60e51b81526004016103be9061159f565b610e078383610f31565b610e146000848484610e30565b6104ee5760405162461bcd60e51b81526004016103be9061159f565b60006001600160a01b0384163b15610f2657604051630a85bd0160e11b81526001600160a01b0385169063150b7a0290610e749033908990889088906004016115f1565b6020604051808303816000875af1925050508015610eaf575060408051601f3d908101601f19168201909252610eac9181019061162e565b60015b610f0c573d808015610edd576040519150601f19603f3d011682016040523d82523d6000602084013e610ee2565b606091505b508051600003610f045760405162461bcd60e51b81526004016103be9061159f565b805181602001fd5b6001600160e01b031916630a85bd0160e11b149050610b02565b506001949350505050565b6001600160a01b038216610f875760405162461bcd60e51b815260206004820181905260248201527f4552433732313a206d696e7420746f20746865207a65726f206164647265737360448201526064016103be565b610f90816109b5565b15610fdc5760405162461bcd60e51b815260206004820152601c60248201527b115490cdcc8c4e881d1bdad95b88185b1c9958591e481b5a5b9d195960221b60448201526064016103be565b6001600160a01b0382166000908152600360205260408120805460019290611005908490611587565b909155505060008181526002602052604080822080546001600160a01b0319166001600160a01b038616908117909155905183929060008051602061164c833981519152908290a45050565b82805461105d9061146b565b90600052602060002090601f01602090048101928261107f57600085556110c5565b82601f1061109857805160ff19168380011785556110c5565b828001600101855582156110c5579182015b828111156110c55782518255916020019190600101906110aa565b506110d19291506110d5565b5090565b5b808211156110d157600081556001016110d6565b6001600160e01b0319811681146109b257600080fd5b60006020828403121561111257600080fd5b813561111d816110ea565b9392505050565b6000815180845260005b8181101561114a5760208185018101518683018201520161112e565b8181111561115c576000602083870101525b50601f01601f19169290920160200192915050565b60208152600061111d6020830184611124565b60006020828403121561119657600080fd5b5035919050565b80356001600160a01b03811681146111b457600080fd5b919050565b600080604083850312156111cc57600080fd5b6111d58361119d565b946020939093013593505050565b6000806000606084860312156111f857600080fd5b6112018461119d565b925061120f6020850161119d565b9150604084013590509250925092565b60006020828403121561123157600080fd5b61111d8261119d565b6000806020838503121561124d57600080fd5b82356001600160401b038082111561126457600080fd5b818501915085601f83011261127857600080fd5b81358181111561128757600080fd5b8660208260051b850101111561129c57600080fd5b60209290920196919550909350505050565b600080604083850312156112c157600080fd5b6112ca8361119d565b9150602083013580151581146112df57600080fd5b809150509250929050565b634e487b7160e01b600052604160045260246000fd5b60006001600160401b038084111561131a5761131a6112ea565b604051601f8501601f19908116603f01168101908282118183101715611342576113426112ea565b8160405280935085815286868601111561135b57600080fd5b858560208301376000602087830101525050509392505050565b6000806000806080858703121561138b57600080fd5b6113948561119d565b93506113a26020860161119d565b92506040850135915060608501356001600160401b038111156113c457600080fd5b8501601f810187136113d557600080fd5b6113e487823560208401611300565b91505092959194509250565b60006020828403121561140257600080fd5b81356001600160401b0381111561141857600080fd5b8201601f8101841361142957600080fd5b610b0284823560208401611300565b6000806040838503121561144b57600080fd5b6114548361119d565b91506114626020840161119d565b90509250929050565b600181811c9082168061147f57607f821691505b60208210810361149f57634e487b7160e01b600052602260045260246000fd5b50919050565b60208082526031908201527f4552433732313a207472616e736665722063616c6c6572206973206e6f74206f6040820152701ddb995c881b9bdc88185c1c1c9bdd9959607a1b606082015260800190565b6020808252818101527f4f776e61626c653a2063616c6c6572206973206e6f7420746865206f776e6572604082015260600190565b634e487b7160e01b600052603260045260246000fd5b634e487b7160e01b600052601160045260246000fd5b60006001820161156957611569611541565b5060010190565b60008282101561158257611582611541565b500390565b6000821982111561159a5761159a611541565b500190565b60208082526032908201527f4552433732313a207472616e7366657220746f206e6f6e20455243373231526560408201527131b2b4bb32b91034b6b83632b6b2b73a32b960711b606082015260800190565b6001600160a01b038581168252841660208201526040810183905260806060820181905260009061162490830184611124565b9695505050505050565b60006020828403121561164057600080fd5b815161111d816110ea56feddf252ad1be2c89b69c2b068fc378daa952ba7f163c4a11628f55a4df523b3efa26469706673582212204eefe14db932a281a7fe78f7f8aea3d52e05a3be101eae4464c0eefbae98484064736f6c634300080d0033",
					"opcodes": "PUSH1 0x80 PUSH1 0x40 MSTORE CALLVALUE DUP1 ISZERO PUSH3 0x11 JUMPI PUSH1 0x0 DUP1 REVERT JUMPDEST POP PUSH1 0x40 DUP1 MLOAD DUP1 DUP3 ADD DUP3 MSTORE PUSH1 0x19 DUP2 MSTORE PUSH32 0x546F6F6E7A204D696E7465722052657761726473204361726400000000000000 PUSH1 0x20 DUP1 DUP4 ADD SWAP2 DUP3 MSTORE DUP4 MLOAD DUP1 DUP6 ADD SWAP1 SWAP5 MSTORE PUSH1 0x5 DUP5 MSTORE PUSH5 0x26A4A72A29 PUSH1 0xD9 SHL SWAP1 DUP5 ADD MSTORE DUP2 MLOAD SWAP2 SWAP3 SWAP2 PUSH3 0x74 SWAP2 PUSH1 0x0 SWAP2 PUSH3 0x103 JUMP JUMPDEST POP DUP1 MLOAD PUSH3 0x8A SWAP1 PUSH1 0x1 SWAP1 PUSH1 0x20 DUP5 ADD SWAP1 PUSH3 0x103 JUMP JUMPDEST POP POP POP PUSH3 0xA7 PUSH3 0xA1 PUSH3 0xAD PUSH1 0x20 SHL PUSH1 0x20 SHR JUMP JUMPDEST PUSH3 0xB1 JUMP JUMPDEST PUSH3 0x1E5 JUMP JUMPDEST CALLER SWAP1 JUMP JUMPDEST PUSH1 0x6 DUP1 SLOAD PUSH1 0x1 PUSH1 0x1 PUSH1 0xA0 SHL SUB DUP4 DUP2 AND PUSH1 0x1 PUSH1 0x1 PUSH1 0xA0 SHL SUB NOT DUP4 AND DUP2 OR SWAP1 SWAP4 SSTORE PUSH1 0x40 MLOAD SWAP2 AND SWAP2 SWAP1 DUP3 SWAP1 PUSH32 0x8BE0079C531659141344CD1FD0A4F28419497F9722A3DAAFE3B4186F6B6457E0 SWAP1 PUSH1 0x0 SWAP1 LOG3 POP POP JUMP JUMPDEST DUP3 DUP1 SLOAD PUSH3 0x111 SWAP1 PUSH3 0x1A9 JUMP JUMPDEST SWAP1 PUSH1 0x0 MSTORE PUSH1 0x20 PUSH1 0x0 KECCAK256 SWAP1 PUSH1 0x1F ADD PUSH1 0x20 SWAP1 DIV DUP2 ADD SWAP3 DUP3 PUSH3 0x135 JUMPI PUSH1 0x0 DUP6 SSTORE PUSH3 0x180 JUMP JUMPDEST DUP3 PUSH1 0x1F LT PUSH3 0x150 JUMPI DUP1 MLOAD PUSH1 0xFF NOT AND DUP4 DUP1 ADD OR DUP6 SSTORE PUSH3 0x180 JUMP JUMPDEST DUP3 DUP1 ADD PUSH1 0x1 ADD DUP6 SSTORE DUP3 ISZERO PUSH3 0x180 JUMPI SWAP2 DUP3 ADD JUMPDEST DUP3 DUP2 GT ISZERO PUSH3 0x180 JUMPI DUP3 MLOAD DUP3 SSTORE SWAP2 PUSH1 0x20 ADD SWAP2 SWAP1 PUSH1 0x1 ADD SWAP1 PUSH3 0x163 JUMP JUMPDEST POP PUSH3 0x18E SWAP3 SWAP2 POP PUSH3 0x192 JUMP JUMPDEST POP SWAP1 JUMP JUMPDEST JUMPDEST DUP1 DUP3 GT ISZERO PUSH3 0x18E JUMPI PUSH1 0x0 DUP2 SSTORE PUSH1 0x1 ADD PUSH3 0x193 JUMP JUMPDEST PUSH1 0x1 DUP2 DUP2 SHR SWAP1 DUP3 AND DUP1 PUSH3 0x1BE JUMPI PUSH1 0x7F DUP3 AND SWAP2 POP JUMPDEST PUSH1 0x20 DUP3 LT DUP2 SUB PUSH3 0x1DF JUMPI PUSH4 0x4E487B71 PUSH1 0xE0 SHL PUSH1 0x0 MSTORE PUSH1 0x22 PUSH1 0x4 MSTORE PUSH1 0x24 PUSH1 0x0 REVERT JUMPDEST POP SWAP2 SWAP1 POP JUMP JUMPDEST PUSH2 0x16A1 DUP1 PUSH3 0x1F5 PUSH1 0x0 CODECOPY PUSH1 0x0 RETURN INVALID PUSH1 0x80 PUSH1 0x40 MSTORE CALLVALUE DUP1 ISZERO PUSH2 0x10 JUMPI PUSH1 0x0 DUP1 REVERT JUMPDEST POP PUSH1 0x4 CALLDATASIZE LT PUSH2 0xF1 JUMPI PUSH1 0x0 CALLDATALOAD PUSH1 0xE0 SHR DUP1 PUSH4 0x1FFC9A7 EQ PUSH2 0xF6 JUMPI DUP1 PUSH4 0x6FDDE03 EQ PUSH2 0x11E JUMPI DUP1 PUSH4 0x81812FC EQ PUSH2 0x133 JUMPI DUP1 PUSH4 0x95EA7B3 EQ PUSH2 0x15E JUMPI DUP1 PUSH4 0x18160DDD EQ PUSH2 0x173 JUMPI DUP1 PUSH4 0x23B872DD EQ PUSH2 0x189 JUMPI DUP1 PUSH4 0x42842E0E EQ PUSH2 0x19C JUMPI DUP1 PUSH4 0x6352211E EQ PUSH2 0x1AF JUMPI DUP1 PUSH4 0x70A08231 EQ PUSH2 0x1C2 JUMPI DUP1 PUSH4 0x715018A6 EQ PUSH2 0x1D5 JUMPI DUP1 PUSH4 0x7A2D0163 EQ PUSH2 0x1DD JUMPI DUP1 PUSH4 0x8DA5CB5B EQ PUSH2 0x1F0 JUMPI DUP1 PUSH4 0x95D89B41 EQ PUSH2 0x1F8 JUMPI DUP1 PUSH4 0xA22CB465 EQ PUSH2 0x200 JUMPI DUP1 PUSH4 0xB88D4FDE EQ PUSH2 0x213 JUMPI DUP1 PUSH4 0xC87B56DD EQ PUSH2 0x226 JUMPI DUP1 PUSH4 0xE0DF5B6F EQ PUSH2 0x239 JUMPI DUP1 PUSH4 0xE985E9C5 EQ PUSH2 0x24C JUMPI DUP1 PUSH4 0xF2FDE38B EQ PUSH2 0x25F JUMPI JUMPDEST PUSH1 0x0 DUP1 REVERT JUMPDEST PUSH2 0x109 PUSH2 0x104 CALLDATASIZE PUSH1 0x4 PUSH2 0x1100 JUMP JUMPDEST PUSH2 0x272 JUMP JUMPDEST PUSH1 0x40 MLOAD SWAP1 ISZERO ISZERO DUP2 MSTORE PUSH1 0x20 ADD JUMPDEST PUSH1 0x40 MLOAD DUP1 SWAP2 SUB SWAP1 RETURN JUMPDEST PUSH2 0x126 PUSH2 0x2C4 JUMP JUMPDEST PUSH1 0x40 MLOAD PUSH2 0x115 SWAP2 SWAP1 PUSH2 0x1171 JUMP JUMPDEST PUSH2 0x146 PUSH2 0x141 CALLDATASIZE PUSH1 0x4 PUSH2 0x1184 JUMP JUMPDEST PUSH2 0x356 JUMP JUMPDEST PUSH1 0x40 MLOAD PUSH1 0x1 PUSH1 0x1 PUSH1 0xA0 SHL SUB SWAP1 SWAP2 AND DUP2 MSTORE PUSH1 0x20 ADD PUSH2 0x115 JUMP JUMPDEST PUSH2 0x171 PUSH2 0x16C CALLDATASIZE PUSH1 0x4 PUSH2 0x11B9 JUMP JUMPDEST PUSH2 0x3E3 JUMP JUMPDEST STOP JUMPDEST PUSH2 0x17B PUSH2 0x4F3 JUMP JUMPDEST PUSH1 0x40 MLOAD SWAP1 DUP2 MSTORE PUSH1 0x20 ADD PUSH2 0x115 JUMP JUMPDEST PUSH2 0x171 PUSH2 0x197 CALLDATASIZE PUSH1 0x4 PUSH2 0x11E3 JUMP JUMPDEST PUSH2 0x503 JUMP JUMPDEST PUSH2 0x171 PUSH2 0x1AA CALLDATASIZE PUSH1 0x4 PUSH2 0x11E3 JUMP JUMPDEST PUSH2 0x534 JUMP JUMPDEST PUSH2 0x146 PUSH2 0x1BD CALLDATASIZE PUSH1 0x4 PUSH2 0x1184 JUMP JUMPDEST PUSH2 0x54F JUMP JUMPDEST PUSH2 0x17B PUSH2 0x1D0 CALLDATASIZE PUSH1 0x4 PUSH2 0x121F JUMP JUMPDEST PUSH2 0x5C6 JUMP JUMPDEST PUSH2 0x171 PUSH2 0x64D JUMP JUMPDEST PUSH2 0x171 PUSH2 0x1EB CALLDATASIZE PUSH1 0x4 PUSH2 0x123A JUMP JUMPDEST PUSH2 0x688 JUMP JUMPDEST PUSH2 0x146 PUSH2 0x71B JUMP JUMPDEST PUSH2 0x126 PUSH2 0x72A JUMP JUMPDEST PUSH2 0x171 PUSH2 0x20E CALLDATASIZE PUSH1 0x4 PUSH2 0x12AE JUMP JUMPDEST PUSH2 0x739 JUMP JUMPDEST PUSH2 0x171 PUSH2 0x221 CALLDATASIZE PUSH1 0x4 PUSH2 0x1375 JUMP JUMPDEST PUSH2 0x748 JUMP JUMPDEST PUSH2 0x126 PUSH2 0x234 CALLDATASIZE PUSH1 0x4 PUSH2 0x1184 JUMP JUMPDEST PUSH2 0x77A JUMP JUMPDEST PUSH2 0x171 PUSH2 0x247 CALLDATASIZE PUSH1 0x4 PUSH2 0x13F0 JUMP JUMPDEST PUSH2 0x8A5 JUMP JUMPDEST PUSH2 0x109 PUSH2 0x25A CALLDATASIZE PUSH1 0x4 PUSH2 0x1438 JUMP JUMPDEST PUSH2 0x8E7 JUMP JUMPDEST PUSH2 0x171 PUSH2 0x26D CALLDATASIZE PUSH1 0x4 PUSH2 0x121F JUMP JUMPDEST PUSH2 0x915 JUMP JUMPDEST PUSH1 0x0 PUSH1 0x1 PUSH1 0x1 PUSH1 0xE0 SHL SUB NOT DUP3 AND PUSH4 0x80AC58CD PUSH1 0xE0 SHL EQ DUP1 PUSH2 0x2A3 JUMPI POP PUSH1 0x1 PUSH1 0x1 PUSH1 0xE0 SHL SUB NOT DUP3 AND PUSH4 0x5B5E139F PUSH1 0xE0 SHL EQ JUMPDEST DUP1 PUSH2 0x2BE JUMPI POP PUSH4 0x1FFC9A7 PUSH1 0xE0 SHL PUSH1 0x1 PUSH1 0x1 PUSH1 0xE0 SHL SUB NOT DUP4 AND EQ JUMPDEST SWAP3 SWAP2 POP POP JUMP JUMPDEST PUSH1 0x60 PUSH1 0x0 DUP1 SLOAD PUSH2 0x2D3 SWAP1 PUSH2 0x146B JUMP JUMPDEST DUP1 PUSH1 0x1F ADD PUSH1 0x20 DUP1 SWAP2 DIV MUL PUSH1 0x20 ADD PUSH1 0x40 MLOAD SWAP1 DUP2 ADD PUSH1 0x40 MSTORE DUP1 SWAP3 SWAP2 SWAP1 DUP2 DUP2 MSTORE PUSH1 0x20 ADD DUP3 DUP1 SLOAD PUSH2 0x2FF SWAP1 PUSH2 0x146B JUMP JUMPDEST DUP1 ISZERO PUSH2 0x34C JUMPI DUP1 PUSH1 0x1F LT PUSH2 0x321 JUMPI PUSH2 0x100 DUP1 DUP4 SLOAD DIV MUL DUP4 MSTORE SWAP2 PUSH1 0x20 ADD SWAP2 PUSH2 0x34C JUMP JUMPDEST DUP3 ADD SWAP2 SWAP1 PUSH1 0x0 MSTORE PUSH1 0x20 PUSH1 0x0 KECCAK256 SWAP1 JUMPDEST DUP2 SLOAD DUP2 MSTORE SWAP1 PUSH1 0x1 ADD SWAP1 PUSH1 0x20 ADD DUP1 DUP4 GT PUSH2 0x32F JUMPI DUP3 SWAP1 SUB PUSH1 0x1F AND DUP3 ADD SWAP2 JUMPDEST POP POP POP POP POP SWAP1 POP SWAP1 JUMP JUMPDEST PUSH1 0x0 PUSH2 0x361 DUP3 PUSH2 0x9B5 JUMP JUMPDEST PUSH2 0x3C7 JUMPI PUSH1 0x40 MLOAD PUSH3 0x461BCD PUSH1 0xE5 SHL DUP2 MSTORE PUSH1 0x20 PUSH1 0x4 DUP3 ADD MSTORE PUSH1 0x2C PUSH1 0x24 DUP3 ADD MSTORE PUSH32 0x4552433732313A20617070726F76656420717565727920666F72206E6F6E6578 PUSH1 0x44 DUP3 ADD MSTORE PUSH12 0x34B9BA32B73A103A37B5B2B7 PUSH1 0xA1 SHL PUSH1 0x64 DUP3 ADD MSTORE PUSH1 0x84 ADD JUMPDEST PUSH1 0x40 MLOAD DUP1 SWAP2 SUB SWAP1 REVERT JUMPDEST POP PUSH1 0x0 SWAP1 DUP2 MSTORE PUSH1 0x4 PUSH1 0x20 MSTORE PUSH1 0x40 SWAP1 KECCAK256 SLOAD PUSH1 0x1 PUSH1 0x1 PUSH1 0xA0 SHL SUB AND SWAP1 JUMP JUMPDEST PUSH1 0x0 PUSH2 0x3EE DUP3 PUSH2 0x54F JUMP JUMPDEST SWAP1 POP DUP1 PUSH1 0x1 PUSH1 0x1 PUSH1 0xA0 SHL SUB AND DUP4 PUSH1 0x1 PUSH1 0x1 PUSH1 0xA0 SHL SUB AND SUB PUSH2 0x45B JUMPI PUSH1 0x40 MLOAD PUSH3 0x461BCD PUSH1 0xE5 SHL DUP2 MSTORE PUSH1 0x20 PUSH1 0x4 DUP3 ADD MSTORE PUSH1 0x21 PUSH1 0x24 DUP3 ADD MSTORE PUSH32 0x4552433732313A20617070726F76616C20746F2063757272656E74206F776E65 PUSH1 0x44 DUP3 ADD MSTORE PUSH1 0x39 PUSH1 0xF9 SHL PUSH1 0x64 DUP3 ADD MSTORE PUSH1 0x84 ADD PUSH2 0x3BE JUMP JUMPDEST CALLER PUSH1 0x1 PUSH1 0x1 PUSH1 0xA0 SHL SUB DUP3 AND EQ DUP1 PUSH2 0x477 JUMPI POP PUSH2 0x477 DUP2 CALLER PUSH2 0x8E7 JUMP JUMPDEST PUSH2 0x4E4 JUMPI PUSH1 0x40 MLOAD PUSH3 0x461BCD PUSH1 0xE5 SHL DUP2 MSTORE PUSH1 0x20 PUSH1 0x4 DUP3 ADD MSTORE PUSH1 0x38 PUSH1 0x24 DUP3 ADD MSTORE PUSH32 0x4552433732313A20617070726F76652063616C6C6572206973206E6F74206F77 PUSH1 0x44 DUP3 ADD MSTORE PUSH24 0x1B995C881B9BDC88185C1C1C9BDD995908199BDC88185B1B PUSH1 0x42 SHL PUSH1 0x64 DUP3 ADD MSTORE PUSH1 0x84 ADD PUSH2 0x3BE JUMP JUMPDEST PUSH2 0x4EE DUP4 DUP4 PUSH2 0x9D2 JUMP JUMPDEST POP POP POP JUMP JUMPDEST PUSH1 0x0 PUSH2 0x4FE PUSH1 0x8 SLOAD SWAP1 JUMP JUMPDEST SWAP1 POP SWAP1 JUMP JUMPDEST PUSH2 0x50D CALLER DUP3 PUSH2 0xA40 JUMP JUMPDEST PUSH2 0x529 JUMPI PUSH1 0x40 MLOAD PUSH3 0x461BCD PUSH1 0xE5 SHL DUP2 MSTORE PUSH1 0x4 ADD PUSH2 0x3BE SWAP1 PUSH2 0x14A5 JUMP JUMPDEST PUSH2 0x4EE DUP4 DUP4 DUP4 PUSH2 0xB0A JUMP JUMPDEST PUSH2 0x4EE DUP4 DUP4 DUP4 PUSH1 0x40 MLOAD DUP1 PUSH1 0x20 ADD PUSH1 0x40 MSTORE DUP1 PUSH1 0x0 DUP2 MSTORE POP PUSH2 0x748 JUMP JUMPDEST PUSH1 0x0 DUP2 DUP2 MSTORE PUSH1 0x2 PUSH1 0x20 MSTORE PUSH1 0x40 DUP2 KECCAK256 SLOAD PUSH1 0x1 PUSH1 0x1 PUSH1 0xA0 SHL SUB AND DUP1 PUSH2 0x2BE JUMPI PUSH1 0x40 MLOAD PUSH3 0x461BCD PUSH1 0xE5 SHL DUP2 MSTORE PUSH1 0x20 PUSH1 0x4 DUP3 ADD MSTORE PUSH1 0x29 PUSH1 0x24 DUP3 ADD MSTORE PUSH32 0x4552433732313A206F776E657220717565727920666F72206E6F6E6578697374 PUSH1 0x44 DUP3 ADD MSTORE PUSH9 0x32B73A103A37B5B2B7 PUSH1 0xB9 SHL PUSH1 0x64 DUP3 ADD MSTORE PUSH1 0x84 ADD PUSH2 0x3BE JUMP JUMPDEST PUSH1 0x0 PUSH1 0x1 PUSH1 0x1 PUSH1 0xA0 SHL SUB DUP3 AND PUSH2 0x631 JUMPI PUSH1 0x40 MLOAD PUSH3 0x461BCD PUSH1 0xE5 SHL DUP2 MSTORE PUSH1 0x20 PUSH1 0x4 DUP3 ADD MSTORE PUSH1 0x2A PUSH1 0x24 DUP3 ADD MSTORE PUSH32 0x4552433732313A2062616C616E636520717565727920666F7220746865207A65 PUSH1 0x44 DUP3 ADD MSTORE PUSH10 0x726F2061646472657373 PUSH1 0xB0 SHL PUSH1 0x64 DUP3 ADD MSTORE PUSH1 0x84 ADD PUSH2 0x3BE JUMP JUMPDEST POP PUSH1 0x1 PUSH1 0x1 PUSH1 0xA0 SHL SUB AND PUSH1 0x0 SWAP1 DUP2 MSTORE PUSH1 0x3 PUSH1 0x20 MSTORE PUSH1 0x40 SWAP1 KECCAK256 SLOAD SWAP1 JUMP JUMPDEST CALLER PUSH2 0x656 PUSH2 0x71B JUMP JUMPDEST PUSH1 0x1 PUSH1 0x1 PUSH1 0xA0 SHL SUB AND EQ PUSH2 0x67C JUMPI PUSH1 0x40 MLOAD PUSH3 0x461BCD PUSH1 0xE5 SHL DUP2 MSTORE PUSH1 0x4 ADD PUSH2 0x3BE SWAP1 PUSH2 0x14F6 JUMP JUMPDEST PUSH2 0x686 PUSH1 0x0 PUSH2 0xC94 JUMP JUMPDEST JUMP JUMPDEST CALLER PUSH2 0x691 PUSH2 0x71B JUMP JUMPDEST PUSH1 0x1 PUSH1 0x1 PUSH1 0xA0 SHL SUB AND EQ PUSH2 0x6B7 JUMPI PUSH1 0x40 MLOAD PUSH3 0x461BCD PUSH1 0xE5 SHL DUP2 MSTORE PUSH1 0x4 ADD PUSH2 0x3BE SWAP1 PUSH2 0x14F6 JUMP JUMPDEST DUP1 PUSH1 0x0 JUMPDEST DUP2 DUP2 LT ISZERO PUSH2 0x715 JUMPI PUSH2 0x6D1 PUSH1 0x8 DUP1 SLOAD PUSH1 0x1 ADD SWAP1 SSTORE JUMP JUMPDEST PUSH2 0x703 DUP5 DUP5 DUP4 DUP2 DUP2 LT PUSH2 0x6E6 JUMPI PUSH2 0x6E6 PUSH2 0x152B JUMP JUMPDEST SWAP1 POP PUSH1 0x20 MUL ADD PUSH1 0x20 DUP2 ADD SWAP1 PUSH2 0x6FB SWAP2 SWAP1 PUSH2 0x121F JUMP JUMPDEST PUSH1 0x8 SLOAD PUSH2 0xCE6 JUMP JUMPDEST DUP1 PUSH2 0x70D DUP2 PUSH2 0x1557 JUMP JUMPDEST SWAP2 POP POP PUSH2 0x6BB JUMP JUMPDEST POP POP POP POP JUMP JUMPDEST PUSH1 0x6 SLOAD PUSH1 0x1 PUSH1 0x1 PUSH1 0xA0 SHL SUB AND SWAP1 JUMP JUMPDEST PUSH1 0x60 PUSH1 0x1 DUP1 SLOAD PUSH2 0x2D3 SWAP1 PUSH2 0x146B JUMP JUMPDEST PUSH2 0x744 CALLER DUP4 DUP4 PUSH2 0xD00 JUMP JUMPDEST POP POP JUMP JUMPDEST PUSH2 0x752 CALLER DUP4 PUSH2 0xA40 JUMP JUMPDEST PUSH2 0x76E JUMPI PUSH1 0x40 MLOAD PUSH3 0x461BCD PUSH1 0xE5 SHL DUP2 MSTORE PUSH1 0x4 ADD PUSH2 0x3BE SWAP1 PUSH2 0x14A5 JUMP JUMPDEST PUSH2 0x715 DUP5 DUP5 DUP5 DUP5 PUSH2 0xDCA JUMP JUMPDEST PUSH1 0x60 PUSH2 0x785 DUP3 PUSH2 0x9B5 JUMP JUMPDEST PUSH2 0x7E9 JUMPI PUSH1 0x40 MLOAD PUSH3 0x461BCD PUSH1 0xE5 SHL DUP2 MSTORE PUSH1 0x20 PUSH1 0x4 DUP3 ADD MSTORE PUSH1 0x2F PUSH1 0x24 DUP3 ADD MSTORE PUSH32 0x4552433732314D657461646174613A2055524920717565727920666F72206E6F PUSH1 0x44 DUP3 ADD MSTORE PUSH15 0x3732BC34B9BA32B73A103A37B5B2B7 PUSH1 0x89 SHL PUSH1 0x64 DUP3 ADD MSTORE PUSH1 0x84 ADD PUSH2 0x3BE JUMP JUMPDEST PUSH1 0x0 PUSH1 0x7 DUP1 SLOAD PUSH2 0x7F8 SWAP1 PUSH2 0x146B JUMP JUMPDEST SWAP1 POP GT PUSH2 0x814 JUMPI PUSH1 0x40 MLOAD DUP1 PUSH1 0x20 ADD PUSH1 0x40 MSTORE DUP1 PUSH1 0x0 DUP2 MSTORE POP PUSH2 0x2BE JUMP JUMPDEST PUSH1 0x7 DUP1 SLOAD PUSH2 0x821 SWAP1 PUSH2 0x146B JUMP JUMPDEST DUP1 PUSH1 0x1F ADD PUSH1 0x20 DUP1 SWAP2 DIV MUL PUSH1 0x20 ADD PUSH1 0x40 MLOAD SWAP1 DUP2 ADD PUSH1 0x40 MSTORE DUP1 SWAP3 SWAP2 SWAP1 DUP2 DUP2 MSTORE PUSH1 0x20 ADD DUP3 DUP1 SLOAD PUSH2 0x84D SWAP1 PUSH2 0x146B JUMP JUMPDEST DUP1 ISZERO PUSH2 0x89A JUMPI DUP1 PUSH1 0x1F LT PUSH2 0x86F JUMPI PUSH2 0x100 DUP1 DUP4 SLOAD DIV MUL DUP4 MSTORE SWAP2 PUSH1 0x20 ADD SWAP2 PUSH2 0x89A JUMP JUMPDEST DUP3 ADD SWAP2 SWAP1 PUSH1 0x0 MSTORE PUSH1 0x20 PUSH1 0x0 KECCAK256 SWAP1 JUMPDEST DUP2 SLOAD DUP2 MSTORE SWAP1 PUSH1 0x1 ADD SWAP1 PUSH1 0x20 ADD DUP1 DUP4 GT PUSH2 0x87D JUMPI DUP3 SWAP1 SUB PUSH1 0x1F AND DUP3 ADD SWAP2 JUMPDEST POP POP POP POP POP SWAP3 SWAP2 POP POP JUMP JUMPDEST CALLER PUSH2 0x8AE PUSH2 0x71B JUMP JUMPDEST PUSH1 0x1 PUSH1 0x1 PUSH1 0xA0 SHL SUB AND EQ PUSH2 0x8D4 JUMPI PUSH1 0x40 MLOAD PUSH3 0x461BCD PUSH1 0xE5 SHL DUP2 MSTORE PUSH1 0x4 ADD PUSH2 0x3BE SWAP1 PUSH2 0x14F6 JUMP JUMPDEST DUP1 MLOAD PUSH2 0x744 SWAP1 PUSH1 0x7 SWAP1 PUSH1 0x20 DUP5 ADD SWAP1 PUSH2 0x1051 JUMP JUMPDEST PUSH1 0x1 PUSH1 0x1 PUSH1 0xA0 SHL SUB SWAP2 DUP3 AND PUSH1 0x0 SWAP1 DUP2 MSTORE PUSH1 0x5 PUSH1 0x20 SWAP1 DUP2 MSTORE PUSH1 0x40 DUP1 DUP4 KECCAK256 SWAP4 SWAP1 SWAP5 AND DUP3 MSTORE SWAP2 SWAP1 SWAP2 MSTORE KECCAK256 SLOAD PUSH1 0xFF AND SWAP1 JUMP JUMPDEST CALLER PUSH2 0x91E PUSH2 0x71B JUMP JUMPDEST PUSH1 0x1 PUSH1 0x1 PUSH1 0xA0 SHL SUB AND EQ PUSH2 0x944 JUMPI PUSH1 0x40 MLOAD PUSH3 0x461BCD PUSH1 0xE5 SHL DUP2 MSTORE PUSH1 0x4 ADD PUSH2 0x3BE SWAP1 PUSH2 0x14F6 JUMP JUMPDEST PUSH1 0x1 PUSH1 0x1 PUSH1 0xA0 SHL SUB DUP2 AND PUSH2 0x9A9 JUMPI PUSH1 0x40 MLOAD PUSH3 0x461BCD PUSH1 0xE5 SHL DUP2 MSTORE PUSH1 0x20 PUSH1 0x4 DUP3 ADD MSTORE PUSH1 0x26 PUSH1 0x24 DUP3 ADD MSTORE PUSH32 0x4F776E61626C653A206E6577206F776E657220697320746865207A65726F2061 PUSH1 0x44 DUP3 ADD MSTORE PUSH6 0x646472657373 PUSH1 0xD0 SHL PUSH1 0x64 DUP3 ADD MSTORE PUSH1 0x84 ADD PUSH2 0x3BE JUMP JUMPDEST PUSH2 0x9B2 DUP2 PUSH2 0xC94 JUMP JUMPDEST POP JUMP JUMPDEST PUSH1 0x0 SWAP1 DUP2 MSTORE PUSH1 0x2 PUSH1 0x20 MSTORE PUSH1 0x40 SWAP1 KECCAK256 SLOAD PUSH1 0x1 PUSH1 0x1 PUSH1 0xA0 SHL SUB AND ISZERO ISZERO SWAP1 JUMP JUMPDEST PUSH1 0x0 DUP2 DUP2 MSTORE PUSH1 0x4 PUSH1 0x20 MSTORE PUSH1 0x40 SWAP1 KECCAK256 DUP1 SLOAD PUSH1 0x1 PUSH1 0x1 PUSH1 0xA0 SHL SUB NOT AND PUSH1 0x1 PUSH1 0x1 PUSH1 0xA0 SHL SUB DUP5 AND SWAP1 DUP2 OR SWAP1 SWAP2 SSTORE DUP2 SWAP1 PUSH2 0xA07 DUP3 PUSH2 0x54F JUMP JUMPDEST PUSH1 0x1 PUSH1 0x1 PUSH1 0xA0 SHL SUB AND PUSH32 0x8C5BE1E5EBEC7D5BD14F71427D1E84F3DD0314C0F7B2291E5B200AC8C7C3B925 PUSH1 0x40 MLOAD PUSH1 0x40 MLOAD DUP1 SWAP2 SUB SWAP1 LOG4 POP POP JUMP JUMPDEST PUSH1 0x0 PUSH2 0xA4B DUP3 PUSH2 0x9B5 JUMP JUMPDEST PUSH2 0xAAC JUMPI PUSH1 0x40 MLOAD PUSH3 0x461BCD PUSH1 0xE5 SHL DUP2 MSTORE PUSH1 0x20 PUSH1 0x4 DUP3 ADD MSTORE PUSH1 0x2C PUSH1 0x24 DUP3 ADD MSTORE PUSH32 0x4552433732313A206F70657261746F7220717565727920666F72206E6F6E6578 PUSH1 0x44 DUP3 ADD MSTORE PUSH12 0x34B9BA32B73A103A37B5B2B7 PUSH1 0xA1 SHL PUSH1 0x64 DUP3 ADD MSTORE PUSH1 0x84 ADD PUSH2 0x3BE JUMP JUMPDEST PUSH1 0x0 PUSH2 0xAB7 DUP4 PUSH2 0x54F JUMP JUMPDEST SWAP1 POP DUP1 PUSH1 0x1 PUSH1 0x1 PUSH1 0xA0 SHL SUB AND DUP5 PUSH1 0x1 PUSH1 0x1 PUSH1 0xA0 SHL SUB AND EQ DUP1 PUSH2 0xAF2 JUMPI POP DUP4 PUSH1 0x1 PUSH1 0x1 PUSH1 0xA0 SHL SUB AND PUSH2 0xAE7 DUP5 PUSH2 0x356 JUMP JUMPDEST PUSH1 0x1 PUSH1 0x1 PUSH1 0xA0 SHL SUB AND EQ JUMPDEST DUP1 PUSH2 0xB02 JUMPI POP PUSH2 0xB02 DUP2 DUP6 PUSH2 0x8E7 JUMP JUMPDEST SWAP5 SWAP4 POP POP POP POP JUMP JUMPDEST DUP3 PUSH1 0x1 PUSH1 0x1 PUSH1 0xA0 SHL SUB AND PUSH2 0xB1D DUP3 PUSH2 0x54F JUMP JUMPDEST PUSH1 0x1 PUSH1 0x1 PUSH1 0xA0 SHL SUB AND EQ PUSH2 0xB81 JUMPI PUSH1 0x40 MLOAD PUSH3 0x461BCD PUSH1 0xE5 SHL DUP2 MSTORE PUSH1 0x20 PUSH1 0x4 DUP3 ADD MSTORE PUSH1 0x25 PUSH1 0x24 DUP3 ADD MSTORE PUSH32 0x4552433732313A207472616E736665722066726F6D20696E636F727265637420 PUSH1 0x44 DUP3 ADD MSTORE PUSH5 0x37BBB732B9 PUSH1 0xD9 SHL PUSH1 0x64 DUP3 ADD MSTORE PUSH1 0x84 ADD PUSH2 0x3BE JUMP JUMPDEST PUSH1 0x1 PUSH1 0x1 PUSH1 0xA0 SHL SUB DUP3 AND PUSH2 0xBE3 JUMPI PUSH1 0x40 MLOAD PUSH3 0x461BCD PUSH1 0xE5 SHL DUP2 MSTORE PUSH1 0x20 PUSH1 0x4 DUP3 ADD MSTORE PUSH1 0x24 DUP1 DUP3 ADD MSTORE PUSH32 0x4552433732313A207472616E7366657220746F20746865207A65726F20616464 PUSH1 0x44 DUP3 ADD MSTORE PUSH4 0x72657373 PUSH1 0xE0 SHL PUSH1 0x64 DUP3 ADD MSTORE PUSH1 0x84 ADD PUSH2 0x3BE JUMP JUMPDEST PUSH2 0xBEE PUSH1 0x0 DUP3 PUSH2 0x9D2 JUMP JUMPDEST PUSH1 0x1 PUSH1 0x1 PUSH1 0xA0 SHL SUB DUP4 AND PUSH1 0x0 SWAP1 DUP2 MSTORE PUSH1 0x3 PUSH1 0x20 MSTORE PUSH1 0x40 DUP2 KECCAK256 DUP1 SLOAD PUSH1 0x1 SWAP3 SWAP1 PUSH2 0xC17 SWAP1 DUP5 SWAP1 PUSH2 0x1570 JUMP JUMPDEST SWAP1 SWAP2 SSTORE POP POP PUSH1 0x1 PUSH1 0x1 PUSH1 0xA0 SHL SUB DUP3 AND PUSH1 0x0 SWAP1 DUP2 MSTORE PUSH1 0x3 PUSH1 0x20 MSTORE PUSH1 0x40 DUP2 KECCAK256 DUP1 SLOAD PUSH1 0x1 SWAP3 SWAP1 PUSH2 0xC45 SWAP1 DUP5 SWAP1 PUSH2 0x1587 JUMP JUMPDEST SWAP1 SWAP2 SSTORE POP POP PUSH1 0x0 DUP2 DUP2 MSTORE PUSH1 0x2 PUSH1 0x20 MSTORE PUSH1 0x40 DUP1 DUP3 KECCAK256 DUP1 SLOAD PUSH1 0x1 PUSH1 0x1 PUSH1 0xA0 SHL SUB NOT AND PUSH1 0x1 PUSH1 0x1 PUSH1 0xA0 SHL SUB DUP7 DUP2 AND SWAP2 DUP3 OR SWAP1 SWAP3 SSTORE SWAP2 MLOAD DUP5 SWAP4 SWAP2 DUP8 AND SWAP2 PUSH1 0x0 DUP1 MLOAD PUSH1 0x20 PUSH2 0x164C DUP4 CODECOPY DUP2 MLOAD SWAP2 MSTORE SWAP2 LOG4 POP POP POP JUMP JUMPDEST PUSH1 0x6 DUP1 SLOAD PUSH1 0x1 PUSH1 0x1 PUSH1 0xA0 SHL SUB DUP4 DUP2 AND PUSH1 0x1 PUSH1 0x1 PUSH1 0xA0 SHL SUB NOT DUP4 AND DUP2 OR SWAP1 SWAP4 SSTORE PUSH1 0x40 MLOAD SWAP2 AND SWAP2 SWAP1 DUP3 SWAP1 PUSH32 0x8BE0079C531659141344CD1FD0A4F28419497F9722A3DAAFE3B4186F6B6457E0 SWAP1 PUSH1 0x0 SWAP1 LOG3 POP POP JUMP JUMPDEST PUSH2 0x744 DUP3 DUP3 PUSH1 0x40 MLOAD DUP1 PUSH1 0x20 ADD PUSH1 0x40 MSTORE DUP1 PUSH1 0x0 DUP2 MSTORE POP PUSH2 0xDFD JUMP JUMPDEST DUP2 PUSH1 0x1 PUSH1 0x1 PUSH1 0xA0 SHL SUB AND DUP4 PUSH1 0x1 PUSH1 0x1 PUSH1 0xA0 SHL SUB AND SUB PUSH2 0xD5D JUMPI PUSH1 0x40 MLOAD PUSH3 0x461BCD PUSH1 0xE5 SHL DUP2 MSTORE PUSH1 0x20 PUSH1 0x4 DUP3 ADD MSTORE PUSH1 0x19 PUSH1 0x24 DUP3 ADD MSTORE PUSH25 0x22A9219B99189D1030B8383937BB32903A379031B0B63632B9 PUSH1 0x39 SHL PUSH1 0x44 DUP3 ADD MSTORE PUSH1 0x64 ADD PUSH2 0x3BE JUMP JUMPDEST PUSH1 0x1 PUSH1 0x1 PUSH1 0xA0 SHL SUB DUP4 DUP2 AND PUSH1 0x0 DUP2 DUP2 MSTORE PUSH1 0x5 PUSH1 0x20 SWAP1 DUP2 MSTORE PUSH1 0x40 DUP1 DUP4 KECCAK256 SWAP5 DUP8 AND DUP1 DUP5 MSTORE SWAP5 DUP3 MSTORE SWAP2 DUP3 SWAP1 KECCAK256 DUP1 SLOAD PUSH1 0xFF NOT AND DUP7 ISZERO ISZERO SWAP1 DUP2 OR SWAP1 SWAP2 SSTORE SWAP2 MLOAD SWAP2 DUP3 MSTORE PUSH32 0x17307EAB39AB6107E8899845AD3D59BD9653F200F220920489CA2B5937696C31 SWAP2 ADD PUSH1 0x40 MLOAD DUP1 SWAP2 SUB SWAP1 LOG3 POP POP POP JUMP JUMPDEST PUSH2 0xDD5 DUP5 DUP5 DUP5 PUSH2 0xB0A JUMP JUMPDEST PUSH2 0xDE1 DUP5 DUP5 DUP5 DUP5 PUSH2 0xE30 JUMP JUMPDEST PUSH2 0x715 JUMPI PUSH1 0x40 MLOAD PUSH3 0x461BCD PUSH1 0xE5 SHL DUP2 MSTORE PUSH1 0x4 ADD PUSH2 0x3BE SWAP1 PUSH2 0x159F JUMP JUMPDEST PUSH2 0xE07 DUP4 DUP4 PUSH2 0xF31 JUMP JUMPDEST PUSH2 0xE14 PUSH1 0x0 DUP5 DUP5 DUP5 PUSH2 0xE30 JUMP JUMPDEST PUSH2 0x4EE JUMPI PUSH1 0x40 MLOAD PUSH3 0x461BCD PUSH1 0xE5 SHL DUP2 MSTORE PUSH1 0x4 ADD PUSH2 0x3BE SWAP1 PUSH2 0x159F JUMP JUMPDEST PUSH1 0x0 PUSH1 0x1 PUSH1 0x1 PUSH1 0xA0 SHL SUB DUP5 AND EXTCODESIZE ISZERO PUSH2 0xF26 JUMPI PUSH1 0x40 MLOAD PUSH4 0xA85BD01 PUSH1 0xE1 SHL DUP2 MSTORE PUSH1 0x1 PUSH1 0x1 PUSH1 0xA0 SHL SUB DUP6 AND SWAP1 PUSH4 0x150B7A02 SWAP1 PUSH2 0xE74 SWAP1 CALLER SWAP1 DUP10 SWAP1 DUP9 SWAP1 DUP9 SWAP1 PUSH1 0x4 ADD PUSH2 0x15F1 JUMP JUMPDEST PUSH1 0x20 PUSH1 0x40 MLOAD DUP1 DUP4 SUB DUP2 PUSH1 0x0 DUP8 GAS CALL SWAP3 POP POP POP DUP1 ISZERO PUSH2 0xEAF JUMPI POP PUSH1 0x40 DUP1 MLOAD PUSH1 0x1F RETURNDATASIZE SWAP1 DUP2 ADD PUSH1 0x1F NOT AND DUP3 ADD SWAP1 SWAP3 MSTORE PUSH2 0xEAC SWAP2 DUP2 ADD SWAP1 PUSH2 0x162E JUMP JUMPDEST PUSH1 0x1 JUMPDEST PUSH2 0xF0C JUMPI RETURNDATASIZE DUP1 DUP1 ISZERO PUSH2 0xEDD JUMPI PUSH1 0x40 MLOAD SWAP2 POP PUSH1 0x1F NOT PUSH1 0x3F RETURNDATASIZE ADD AND DUP3 ADD PUSH1 0x40 MSTORE RETURNDATASIZE DUP3 MSTORE RETURNDATASIZE PUSH1 0x0 PUSH1 0x20 DUP5 ADD RETURNDATACOPY PUSH2 0xEE2 JUMP JUMPDEST PUSH1 0x60 SWAP2 POP JUMPDEST POP DUP1 MLOAD PUSH1 0x0 SUB PUSH2 0xF04 JUMPI PUSH1 0x40 MLOAD PUSH3 0x461BCD PUSH1 0xE5 SHL DUP2 MSTORE PUSH1 0x4 ADD PUSH2 0x3BE SWAP1 PUSH2 0x159F JUMP JUMPDEST DUP1 MLOAD DUP2 PUSH1 0x20 ADD REVERT JUMPDEST PUSH1 0x1 PUSH1 0x1 PUSH1 0xE0 SHL SUB NOT AND PUSH4 0xA85BD01 PUSH1 0xE1 SHL EQ SWAP1 POP PUSH2 0xB02 JUMP JUMPDEST POP PUSH1 0x1 SWAP5 SWAP4 POP POP POP POP JUMP JUMPDEST PUSH1 0x1 PUSH1 0x1 PUSH1 0xA0 SHL SUB DUP3 AND PUSH2 0xF87 JUMPI PUSH1 0x40 MLOAD PUSH3 0x461BCD PUSH1 0xE5 SHL DUP2 MSTORE PUSH1 0x20 PUSH1 0x4 DUP3 ADD DUP2 SWAP1 MSTORE PUSH1 0x24 DUP3 ADD MSTORE PUSH32 0x4552433732313A206D696E7420746F20746865207A65726F2061646472657373 PUSH1 0x44 DUP3 ADD MSTORE PUSH1 0x64 ADD PUSH2 0x3BE JUMP JUMPDEST PUSH2 0xF90 DUP2 PUSH2 0x9B5 JUMP JUMPDEST ISZERO PUSH2 0xFDC JUMPI PUSH1 0x40 MLOAD PUSH3 0x461BCD PUSH1 0xE5 SHL DUP2 MSTORE PUSH1 0x20 PUSH1 0x4 DUP3 ADD MSTORE PUSH1 0x1C PUSH1 0x24 DUP3 ADD MSTORE PUSH28 0x115490CDCC8C4E881D1BDAD95B88185B1C9958591E481B5A5B9D1959 PUSH1 0x22 SHL PUSH1 0x44 DUP3 ADD MSTORE PUSH1 0x64 ADD PUSH2 0x3BE JUMP JUMPDEST PUSH1 0x1 PUSH1 0x1 PUSH1 0xA0 SHL SUB DUP3 AND PUSH1 0x0 SWAP1 DUP2 MSTORE PUSH1 0x3 PUSH1 0x20 MSTORE PUSH1 0x40 DUP2 KECCAK256 DUP1 SLOAD PUSH1 0x1 SWAP3 SWAP1 PUSH2 0x1005 SWAP1 DUP5 SWAP1 PUSH2 0x1587 JUMP JUMPDEST SWAP1 SWAP2 SSTORE POP POP PUSH1 0x0 DUP2 DUP2 MSTORE PUSH1 0x2 PUSH1 0x20 MSTORE PUSH1 0x40 DUP1 DUP3 KECCAK256 DUP1 SLOAD PUSH1 0x1 PUSH1 0x1 PUSH1 0xA0 SHL SUB NOT AND PUSH1 0x1 PUSH1 0x1 PUSH1 0xA0 SHL SUB DUP7 AND SWAP1 DUP2 OR SWAP1 SWAP2 SSTORE SWAP1 MLOAD DUP4 SWAP3 SWAP1 PUSH1 0x0 DUP1 MLOAD PUSH1 0x20 PUSH2 0x164C DUP4 CODECOPY DUP2 MLOAD SWAP2 MSTORE SWAP1 DUP3 SWAP1 LOG4 POP POP JUMP JUMPDEST DUP3 DUP1 SLOAD PUSH2 0x105D SWAP1 PUSH2 0x146B JUMP JUMPDEST SWAP1 PUSH1 0x0 MSTORE PUSH1 0x20 PUSH1 0x0 KECCAK256 SWAP1 PUSH1 0x1F ADD PUSH1 0x20 SWAP1 DIV DUP2 ADD SWAP3 DUP3 PUSH2 0x107F JUMPI PUSH1 0x0 DUP6 SSTORE PUSH2 0x10C5 JUMP JUMPDEST DUP3 PUSH1 0x1F LT PUSH2 0x1098 JUMPI DUP1 MLOAD PUSH1 0xFF NOT AND DUP4 DUP1 ADD OR DUP6 SSTORE PUSH2 0x10C5 JUMP JUMPDEST DUP3 DUP1 ADD PUSH1 0x1 ADD DUP6 SSTORE DUP3 ISZERO PUSH2 0x10C5 JUMPI SWAP2 DUP3 ADD JUMPDEST DUP3 DUP2 GT ISZERO PUSH2 0x10C5 JUMPI DUP3 MLOAD DUP3 SSTORE SWAP2 PUSH1 0x20 ADD SWAP2 SWAP1 PUSH1 0x1 ADD SWAP1 PUSH2 0x10AA JUMP JUMPDEST POP PUSH2 0x10D1 SWAP3 SWAP2 POP PUSH2 0x10D5 JUMP JUMPDEST POP SWAP1 JUMP JUMPDEST JUMPDEST DUP1 DUP3 GT ISZERO PUSH2 0x10D1 JUMPI PUSH1 0x0 DUP2 SSTORE PUSH1 0x1 ADD PUSH2 0x10D6 JUMP JUMPDEST PUSH1 0x1 PUSH1 0x1 PUSH1 0xE0 SHL SUB NOT DUP2 AND DUP2 EQ PUSH2 0x9B2 JUMPI PUSH1 0x0 DUP1 REVERT JUMPDEST PUSH1 0x0 PUSH1 0x20 DUP3 DUP5 SUB SLT ISZERO PUSH2 0x1112 JUMPI PUSH1 0x0 DUP1 REVERT JUMPDEST DUP2 CALLDATALOAD PUSH2 0x111D DUP2 PUSH2 0x10EA JUMP JUMPDEST SWAP4 SWAP3 POP POP POP JUMP JUMPDEST PUSH1 0x0 DUP2 MLOAD DUP1 DUP5 MSTORE PUSH1 0x0 JUMPDEST DUP2 DUP2 LT ISZERO PUSH2 0x114A JUMPI PUSH1 0x20 DUP2 DUP6 ADD DUP2 ADD MLOAD DUP7 DUP4 ADD DUP3 ADD MSTORE ADD PUSH2 0x112E JUMP JUMPDEST DUP2 DUP2 GT ISZERO PUSH2 0x115C JUMPI PUSH1 0x0 PUSH1 0x20 DUP4 DUP8 ADD ADD MSTORE JUMPDEST POP PUSH1 0x1F ADD PUSH1 0x1F NOT AND SWAP3 SWAP1 SWAP3 ADD PUSH1 0x20 ADD SWAP3 SWAP2 POP POP JUMP JUMPDEST PUSH1 0x20 DUP2 MSTORE PUSH1 0x0 PUSH2 0x111D PUSH1 0x20 DUP4 ADD DUP5 PUSH2 0x1124 JUMP JUMPDEST PUSH1 0x0 PUSH1 0x20 DUP3 DUP5 SUB SLT ISZERO PUSH2 0x1196 JUMPI PUSH1 0x0 DUP1 REVERT JUMPDEST POP CALLDATALOAD SWAP2 SWAP1 POP JUMP JUMPDEST DUP1 CALLDATALOAD PUSH1 0x1 PUSH1 0x1 PUSH1 0xA0 SHL SUB DUP2 AND DUP2 EQ PUSH2 0x11B4 JUMPI PUSH1 0x0 DUP1 REVERT JUMPDEST SWAP2 SWAP1 POP JUMP JUMPDEST PUSH1 0x0 DUP1 PUSH1 0x40 DUP4 DUP6 SUB SLT ISZERO PUSH2 0x11CC JUMPI PUSH1 0x0 DUP1 REVERT JUMPDEST PUSH2 0x11D5 DUP4 PUSH2 0x119D JUMP JUMPDEST SWAP5 PUSH1 0x20 SWAP4 SWAP1 SWAP4 ADD CALLDATALOAD SWAP4 POP POP POP JUMP JUMPDEST PUSH1 0x0 DUP1 PUSH1 0x0 PUSH1 0x60 DUP5 DUP7 SUB SLT ISZERO PUSH2 0x11F8 JUMPI PUSH1 0x0 DUP1 REVERT JUMPDEST PUSH2 0x1201 DUP5 PUSH2 0x119D JUMP JUMPDEST SWAP3 POP PUSH2 0x120F PUSH1 0x20 DUP6 ADD PUSH2 0x119D JUMP JUMPDEST SWAP2 POP PUSH1 0x40 DUP5 ADD CALLDATALOAD SWAP1 POP SWAP3 POP SWAP3 POP SWAP3 JUMP JUMPDEST PUSH1 0x0 PUSH1 0x20 DUP3 DUP5 SUB SLT ISZERO PUSH2 0x1231 JUMPI PUSH1 0x0 DUP1 REVERT JUMPDEST PUSH2 0x111D DUP3 PUSH2 0x119D JUMP JUMPDEST PUSH1 0x0 DUP1 PUSH1 0x20 DUP4 DUP6 SUB SLT ISZERO PUSH2 0x124D JUMPI PUSH1 0x0 DUP1 REVERT JUMPDEST DUP3 CALLDATALOAD PUSH1 0x1 PUSH1 0x1 PUSH1 0x40 SHL SUB DUP1 DUP3 GT ISZERO PUSH2 0x1264 JUMPI PUSH1 0x0 DUP1 REVERT JUMPDEST DUP2 DUP6 ADD SWAP2 POP DUP6 PUSH1 0x1F DUP4 ADD SLT PUSH2 0x1278 JUMPI PUSH1 0x0 DUP1 REVERT JUMPDEST DUP2 CALLDATALOAD DUP2 DUP2 GT ISZERO PUSH2 0x1287 JUMPI PUSH1 0x0 DUP1 REVERT JUMPDEST DUP7 PUSH1 0x20 DUP3 PUSH1 0x5 SHL DUP6 ADD ADD GT ISZERO PUSH2 0x129C JUMPI PUSH1 0x0 DUP1 REVERT JUMPDEST PUSH1 0x20 SWAP3 SWAP1 SWAP3 ADD SWAP7 SWAP2 SWAP6 POP SWAP1 SWAP4 POP POP POP POP JUMP JUMPDEST PUSH1 0x0 DUP1 PUSH1 0x40 DUP4 DUP6 SUB SLT ISZERO PUSH2 0x12C1 JUMPI PUSH1 0x0 DUP1 REVERT JUMPDEST PUSH2 0x12CA DUP4 PUSH2 0x119D JUMP JUMPDEST SWAP2 POP PUSH1 0x20 DUP4 ADD CALLDATALOAD DUP1 ISZERO ISZERO DUP2 EQ PUSH2 0x12DF JUMPI PUSH1 0x0 DUP1 REVERT JUMPDEST DUP1 SWAP2 POP POP SWAP3 POP SWAP3 SWAP1 POP JUMP JUMPDEST PUSH4 0x4E487B71 PUSH1 0xE0 SHL PUSH1 0x0 MSTORE PUSH1 0x41 PUSH1 0x4 MSTORE PUSH1 0x24 PUSH1 0x0 REVERT JUMPDEST PUSH1 0x0 PUSH1 0x1 PUSH1 0x1 PUSH1 0x40 SHL SUB DUP1 DUP5 GT ISZERO PUSH2 0x131A JUMPI PUSH2 0x131A PUSH2 0x12EA JUMP JUMPDEST PUSH1 0x40 MLOAD PUSH1 0x1F DUP6 ADD PUSH1 0x1F NOT SWAP1 DUP2 AND PUSH1 0x3F ADD AND DUP2 ADD SWAP1 DUP3 DUP3 GT DUP2 DUP4 LT OR ISZERO PUSH2 0x1342 JUMPI PUSH2 0x1342 PUSH2 0x12EA JUMP JUMPDEST DUP2 PUSH1 0x40 MSTORE DUP1 SWAP4 POP DUP6 DUP2 MSTORE DUP7 DUP7 DUP7 ADD GT ISZERO PUSH2 0x135B JUMPI PUSH1 0x0 DUP1 REVERT JUMPDEST DUP6 DUP6 PUSH1 0x20 DUP4 ADD CALLDATACOPY PUSH1 0x0 PUSH1 0x20 DUP8 DUP4 ADD ADD MSTORE POP POP POP SWAP4 SWAP3 POP POP POP JUMP JUMPDEST PUSH1 0x0 DUP1 PUSH1 0x0 DUP1 PUSH1 0x80 DUP6 DUP8 SUB SLT ISZERO PUSH2 0x138B JUMPI PUSH1 0x0 DUP1 REVERT JUMPDEST PUSH2 0x1394 DUP6 PUSH2 0x119D JUMP JUMPDEST SWAP4 POP PUSH2 0x13A2 PUSH1 0x20 DUP7 ADD PUSH2 0x119D JUMP JUMPDEST SWAP3 POP PUSH1 0x40 DUP6 ADD CALLDATALOAD SWAP2 POP PUSH1 0x60 DUP6 ADD CALLDATALOAD PUSH1 0x1 PUSH1 0x1 PUSH1 0x40 SHL SUB DUP2 GT ISZERO PUSH2 0x13C4 JUMPI PUSH1 0x0 DUP1 REVERT JUMPDEST DUP6 ADD PUSH1 0x1F DUP2 ADD DUP8 SGT PUSH2 0x13D5 JUMPI PUSH1 0x0 DUP1 REVERT JUMPDEST PUSH2 0x13E4 DUP8 DUP3 CALLDATALOAD PUSH1 0x20 DUP5 ADD PUSH2 0x1300 JUMP JUMPDEST SWAP2 POP POP SWAP3 SWAP6 SWAP2 SWAP5 POP SWAP3 POP JUMP JUMPDEST PUSH1 0x0 PUSH1 0x20 DUP3 DUP5 SUB SLT ISZERO PUSH2 0x1402 JUMPI PUSH1 0x0 DUP1 REVERT JUMPDEST DUP2 CALLDATALOAD PUSH1 0x1 PUSH1 0x1 PUSH1 0x40 SHL SUB DUP2 GT ISZERO PUSH2 0x1418 JUMPI PUSH1 0x0 DUP1 REVERT JUMPDEST DUP3 ADD PUSH1 0x1F DUP2 ADD DUP5 SGT PUSH2 0x1429 JUMPI PUSH1 0x0 DUP1 REVERT JUMPDEST PUSH2 0xB02 DUP5 DUP3 CALLDATALOAD PUSH1 0x20 DUP5 ADD PUSH2 0x1300 JUMP JUMPDEST PUSH1 0x0 DUP1 PUSH1 0x40 DUP4 DUP6 SUB SLT ISZERO PUSH2 0x144B JUMPI PUSH1 0x0 DUP1 REVERT JUMPDEST PUSH2 0x1454 DUP4 PUSH2 0x119D JUMP JUMPDEST SWAP2 POP PUSH2 0x1462 PUSH1 0x20 DUP5 ADD PUSH2 0x119D JUMP JUMPDEST SWAP1 POP SWAP3 POP SWAP3 SWAP1 POP JUMP JUMPDEST PUSH1 0x1 DUP2 DUP2 SHR SWAP1 DUP3 AND DUP1 PUSH2 0x147F JUMPI PUSH1 0x7F DUP3 AND SWAP2 POP JUMPDEST PUSH1 0x20 DUP3 LT DUP2 SUB PUSH2 0x149F JUMPI PUSH4 0x4E487B71 PUSH1 0xE0 SHL PUSH1 0x0 MSTORE PUSH1 0x22 PUSH1 0x4 MSTORE PUSH1 0x24 PUSH1 0x0 REVERT JUMPDEST POP SWAP2 SWAP1 POP JUMP JUMPDEST PUSH1 0x20 DUP1 DUP3 MSTORE PUSH1 0x31 SWAP1 DUP3 ADD MSTORE PUSH32 0x4552433732313A207472616E736665722063616C6C6572206973206E6F74206F PUSH1 0x40 DUP3 ADD MSTORE PUSH17 0x1DDB995C881B9BDC88185C1C1C9BDD9959 PUSH1 0x7A SHL PUSH1 0x60 DUP3 ADD MSTORE PUSH1 0x80 ADD SWAP1 JUMP JUMPDEST PUSH1 0x20 DUP1 DUP3 MSTORE DUP2 DUP2 ADD MSTORE PUSH32 0x4F776E61626C653A2063616C6C6572206973206E6F7420746865206F776E6572 PUSH1 0x40 DUP3 ADD MSTORE PUSH1 0x60 ADD SWAP1 JUMP JUMPDEST PUSH4 0x4E487B71 PUSH1 0xE0 SHL PUSH1 0x0 MSTORE PUSH1 0x32 PUSH1 0x4 MSTORE PUSH1 0x24 PUSH1 0x0 REVERT JUMPDEST PUSH4 0x4E487B71 PUSH1 0xE0 SHL PUSH1 0x0 MSTORE PUSH1 0x11 PUSH1 0x4 MSTORE PUSH1 0x24 PUSH1 0x0 REVERT JUMPDEST PUSH1 0x0 PUSH1 0x1 DUP3 ADD PUSH2 0x1569 JUMPI PUSH2 0x1569 PUSH2 0x1541 JUMP JUMPDEST POP PUSH1 0x1 ADD SWAP1 JUMP JUMPDEST PUSH1 0x0 DUP3 DUP3 LT ISZERO PUSH2 0x1582 JUMPI PUSH2 0x1582 PUSH2 0x1541 JUMP JUMPDEST POP SUB SWAP1 JUMP JUMPDEST PUSH1 0x0 DUP3 NOT DUP3 GT ISZERO PUSH2 0x159A JUMPI PUSH2 0x159A PUSH2 0x1541 JUMP JUMPDEST POP ADD SWAP1 JUMP JUMPDEST PUSH1 0x20 DUP1 DUP3 MSTORE PUSH1 0x32 SWAP1 DUP3 ADD MSTORE PUSH32 0x4552433732313A207472616E7366657220746F206E6F6E204552433732315265 PUSH1 0x40 DUP3 ADD MSTORE PUSH18 0x31B2B4BB32B91034B6B83632B6B2B73A32B9 PUSH1 0x71 SHL PUSH1 0x60 DUP3 ADD MSTORE PUSH1 0x80 ADD SWAP1 JUMP JUMPDEST PUSH1 0x1 PUSH1 0x1 PUSH1 0xA0 SHL SUB DUP6 DUP2 AND DUP3 MSTORE DUP5 AND PUSH1 0x20 DUP3 ADD MSTORE PUSH1 0x40 DUP2 ADD DUP4 SWAP1 MSTORE PUSH1 0x80 PUSH1 0x60 DUP3 ADD DUP2 SWAP1 MSTORE PUSH1 0x0 SWAP1 PUSH2 0x1624 SWAP1 DUP4 ADD DUP5 PUSH2 0x1124 JUMP JUMPDEST SWAP7 SWAP6 POP POP POP POP POP POP JUMP JUMPDEST PUSH1 0x0 PUSH1 0x20 DUP3 DUP5 SUB SLT ISZERO PUSH2 0x1640 JUMPI PUSH1 0x0 DUP1 REVERT JUMPDEST DUP2 MLOAD PUSH2 0x111D DUP2 PUSH2 0x10EA JUMP INVALID 0xDD CALLCODE MSTORE 0xAD SHL 0xE2 0xC8 SWAP12 PUSH10 0xC2B068FC378DAA952BA7 CALL PUSH4 0xC4A11628 CREATE2 GAS 0x4D CREATE2 0x23 0xB3 0xEF LOG2 PUSH5 0x6970667358 0x22 SLT KECCAK256 0x4E 0xEF 0xE1 0x4D 0xB9 ORIGIN LOG2 DUP2 0xA7 INVALID PUSH25 0xF7F8AEA3D52E05A3BE101EAE4464C0EEFBAE98484064736F6C PUSH4 0x4300080D STOP CALLER "
				},
				"gasEstimates": {
					"creation": {
						"codeDepositCost": "1158600",
						"executionCost": "infinite",
						"totalCost": "infinite"
					},
					"external": {
						"approve(address,uint256)": "infinite",
						"balanceOf(address)": "2743",
						"getApproved(uint256)": "4753",
						"giftCard(address[])": "infinite",
						"isApprovedForAll(address,address)": "infinite",
						"name()": "infinite",
						"owner()": "2566",
						"ownerOf(uint256)": "2688",
						"renounceOwnership()": "28338",
						"safeTransferFrom(address,address,uint256)": "infinite",
						"safeTransferFrom(address,address,uint256,bytes)": "infinite",
						"setApprovalForAll(address,bool)": "26947",
						"setTokenURI(string)": "infinite",
						"supportsInterface(bytes4)": "488",
						"symbol()": "infinite",
						"tokenURI(uint256)": "infinite",
						"totalSupply()": "2396",
						"transferFrom(address,address,uint256)": "infinite",
						"transferOwnership(address)": "28731"
					}
				},
				"methodIdentifiers": {
					"approve(address,uint256)": "095ea7b3",
					"balanceOf(address)": "70a08231",
					"getApproved(uint256)": "081812fc",
					"giftCard(address[])": "7a2d0163",
					"isApprovedForAll(address,address)": "e985e9c5",
					"name()": "06fdde03",
					"owner()": "8da5cb5b",
					"ownerOf(uint256)": "6352211e",
					"renounceOwnership()": "715018a6",
					"safeTransferFrom(address,address,uint256)": "42842e0e",
					"safeTransferFrom(address,address,uint256,bytes)": "b88d4fde",
					"setApprovalForAll(address,bool)": "a22cb465",
					"setTokenURI(string)": "e0df5b6f",
					"supportsInterface(bytes4)": "01ffc9a7",
					"symbol()": "95d89b41",
					"tokenURI(uint256)": "c87b56dd",
					"totalSupply()": "18160ddd",
					"transferFrom(address,address,uint256)": "23b872dd",
					"transferOwnership(address)": "f2fde38b"
				}
			},
			"storageLayout": {
				"storage": [
					{
						"astId": 130,
						"contract": "contracts/ToonzRewardsCard.sol:ToonzRewardsCard",
						"label": "_name",
						"offset": 0,
						"slot": "0",
						"type": "t_string_storage"
					},
					{
						"astId": 132,
						"contract": "contracts/ToonzRewardsCard.sol:ToonzRewardsCard",
						"label": "_symbol",
						"offset": 0,
						"slot": "1",
						"type": "t_string_storage"
					},
					{
						"astId": 136,
						"contract": "contracts/ToonzRewardsCard.sol:ToonzRewardsCard",
						"label": "_owners",
						"offset": 0,
						"slot": "2",
						"type": "t_mapping(t_uint256,t_address)"
					},
					{
						"astId": 140,
						"contract": "contracts/ToonzRewardsCard.sol:ToonzRewardsCard",
						"label": "_balances",
						"offset": 0,
						"slot": "3",
						"type": "t_mapping(t_address,t_uint256)"
					},
					{
						"astId": 144,
						"contract": "contracts/ToonzRewardsCard.sol:ToonzRewardsCard",
						"label": "_tokenApprovals",
						"offset": 0,
						"slot": "4",
						"type": "t_mapping(t_uint256,t_address)"
					},
					{
						"astId": 150,
						"contract": "contracts/ToonzRewardsCard.sol:ToonzRewardsCard",
						"label": "_operatorApprovals",
						"offset": 0,
						"slot": "5",
						"type": "t_mapping(t_address,t_mapping(t_address,t_bool))"
					},
					{
						"astId": 7,
						"contract": "contracts/ToonzRewardsCard.sol:ToonzRewardsCard",
						"label": "_owner",
						"offset": 0,
						"slot": "6",
						"type": "t_address"
					},
					{
						"astId": 1779,
						"contract": "contracts/ToonzRewardsCard.sol:ToonzRewardsCard",
						"label": "_tokenURI",
						"offset": 0,
						"slot": "7",
						"type": "t_string_storage"
					},
					{
						"astId": 1782,
						"contract": "contracts/ToonzRewardsCard.sol:ToonzRewardsCard",
						"label": "_tokenId",
						"offset": 0,
						"slot": "8",
						"type": "t_struct(Counter)1454_storage"
					}
				],
				"types": {
					"t_address": {
						"encoding": "inplace",
						"label": "address",
						"numberOfBytes": "20"
					},
					"t_bool": {
						"encoding": "inplace",
						"label": "bool",
						"numberOfBytes": "1"
					},
					"t_mapping(t_address,t_bool)": {
						"encoding": "mapping",
						"key": "t_address",
						"label": "mapping(address => bool)",
						"numberOfBytes": "32",
						"value": "t_bool"
					},
					"t_mapping(t_address,t_mapping(t_address,t_bool))": {
						"encoding": "mapping",
						"key": "t_address",
						"label": "mapping(address => mapping(address => bool))",
						"numberOfBytes": "32",
						"value": "t_mapping(t_address,t_bool)"
					},
					"t_mapping(t_address,t_uint256)": {
						"encoding": "mapping",
						"key": "t_address",
						"label": "mapping(address => uint256)",
						"numberOfBytes": "32",
						"value": "t_uint256"
					},
					"t_mapping(t_uint256,t_address)": {
						"encoding": "mapping",
						"key": "t_uint256",
						"label": "mapping(uint256 => address)",
						"numberOfBytes": "32",
						"value": "t_address"
					},
					"t_string_storage": {
						"encoding": "bytes",
						"label": "string",
						"numberOfBytes": "32"
					},
					"t_struct(Counter)1454_storage": {
						"encoding": "inplace",
						"label": "struct Counters.Counter",
						"members": [
							{
								"astId": 1453,
								"contract": "contracts/ToonzRewardsCard.sol:ToonzRewardsCard",
								"label": "_value",
								"offset": 0,
								"slot": "0",
								"type": "t_uint256"
							}
						],
						"numberOfBytes": "32"
					},
					"t_uint256": {
						"encoding": "inplace",
						"label": "uint256",
						"numberOfBytes": "32"
					}
				}
			},
			"userdoc": {
				"kind": "user",
				"methods": {},
				"version": 1
			}
		}
	}
}